:020000040800F2
:10000000F004002001010008F1370008F337000870
:10001000F7370008FB370008FF3700080000000032
:10002000000000000000000000000000053800088B
:1000300003380008000000000738000809380008ED
:100040001B0100081B0100081B0100081B01000820
:100050001B0100081B0100081B0100081B01000810
:100060001B0100081B0100081B0100081B01000800
:100070001B0100081B0100081B0100081B010008F0
:100080001B0100081B0100081B0100081B010008E0
:100090001B0100081B0100081B0100081B010008D0
:1000A0001B0100081B0100081B0100081B010008C0
:1000B0001B0100081B010008F73600081B0100089F
:1000C0001B0100081B0100081B0100081B010008A0
:1000D0001B0100081B0100086D3700081B01000808
:1000E0001B0100081B0100081B010008DFF80CD0F1
:1000F00004F0D0FA0048004737360008F00400202A
:100100000648804706480047FEE7FEE7FEE7FEE7B1
:10011000FEE7FEE7FEE7FEE7FEE7FEE70302000874
:10012000ED0000080CB50020019000906C480068BC
:1001300040F480306A49086000BF6948006800F4F4
:10014000003000900198401C0190009818B9019867
:10015000B0F5A06FF1D16248006800F4003010B132
:100160000120009001E0002000900098012843D178
:100170005C48006840F010005A4908600846006872
:1001800020F0030008600846006840F002000860A4
:1001900053484068524948600846406848600846ED
:1001A000406840F4806048600846406820F47C1055
:1001B00048600846406840F4E81048600846006817
:1001C00040F08070086000BF4548006800F0007093
:1001D0000028F9D04248406820F0030040494860B8
:1001E0000846406840F00200486000BF3C48406854
:1001F00000F00C000828F9D10CBD10B5FFF792FFF4
:1002000010BD10B53648006840F001003449086060
:10021000084640683449084031494860084600684B
:10022000324908402E4908600846006820F48020C2
:1002300008600846406820F4FE0048604FF41F0044
:100240008860FFF7DAFF4FF000602949086010BDB1
:1002500010B5002100200022214B5B6803F00C0147
:1002600021B1042906D0082928D107E0214B224CCE
:10027000236027E01F4B204C236023E0184B5B6872
:1002800003F47010164B5B6803F48032022303EB17
:10029000904022B9194B4343174C23600DE0104B9B
:1002A0005B6803F4003323B1144B4343124C2360C7
:1002B00003E0104B4343104C236003E00D4B0E4C06
:1002C000236000BF00BF064B5B68C3F303130C4CF5
:1002D000E15C094B1B68CB40074C236010BD00005C
:1002E00000100240002002400000FFF8FFFFF6FE71
:1002F00008ED00E000127A000000002000093D0037
:100300000400002010B50446CC48844208D10121E5
:10031000042000F02DFB0021042000F029FB46E022
:10032000C748844208D10121082000F021FB0021A8
:10033000082000F01DFB3AE0C248844208D10121A8
:10034000102000F015FB0021102000F011FB2EE022
:10035000BD48844208D10121202000F009FB002182
:10036000202000F005FB22E0B848844208D101219A
:10037000402000F0FDFA0021402000F0F9FA16E0DC
:10038000B348844208D10121802000F0F1FA002115
:10039000802000F0EDFA0AE0AE48844207D1012146
:1003A000801500F0E5FA0021A01500F0E1FA10BD7B
:1003B00010B50121084600F0DBFA0021012000F011
:1003C000D7FA10BD2DE9F041024600250026002095
:1003D00000230024002791F803C00CF00F0591F8CA
:1003E00003C00CF0100CBCF1000F03D091F802C058
:1003F0004CEA050591F800C0BCF1000F31D014683B
:1004000000202BE04FF0010C0CFA00F3B1F800C013
:100410000CEA03069E4220D183004FF00F0C0CFA29
:1004200003F7BC4305FA03FC4CEA040491F803C04B
:10043000BCF1280F06D14FF0010C0CFA00FCC2F8F9
:1004400014C00AE091F803C0BCF1480F05D14FF089
:10045000010C0CFA00FCC2F810C0401C0828D1D3D3
:100460001460B1F800C0BCF1FF0F34DD5468002007
:100470002EE000F1080C4FF0010808FA0CF3B1F877
:1004800000C00CEA03069E4221D183004FF00F0CFE
:100490000CFA03F7BC4305FA03FC4CEA040491F898
:1004A00003C0BCF1280F05D100F1080C08FA0CF8C4
:1004B000C2F8148091F803C0BCF1480F07D100F1D5
:1004C000080C4FF0010808FA0CF8C2F81080401C24
:1004D0000828CED35460BDE8F0814FF6FF7101804B
:1004E000022181700421C170704702460020936888
:1004F0000B400BB1012000E00020704701468868E6
:1005000080B2704702460020D3680B400BB1012037
:1005100000E0002070470146C86880B27047016162
:100520007047416170470AB1016100E04161704765
:10053000C16070474FF480320A43826181618261F9
:1005400082698269704702460020434B18684FF663
:100550008073184040EA021008433F4B1860704710
:100560003E49C8617047F0B50A46002300240021C7
:10057000002500F00046B6F1004F02D1364EF16979
:1005800001E0354E7168C0F3034583B200F44016B4
:10059000B6F5401F08D121F070612F4E766826F025
:1005A00070662D4F7E6012E000F48016B6F5801F55
:1005B00006D1032606FA05F4A14341F0706106E076
:1005C000460D360103FA06F6B14341F0706122B1DF
:1005D000460D360103FA06F6314300F00046B6F147
:1005E000004F02D11C4EF16101E01B4E7160F0BD65
:1005F00030B500228B071C0F0F2303FA04F2164BB1
:1006000008338C1053F824309343134C08348D1066
:1006100044F8253023468C1053F824308C07240FDF
:1006200000FA04F423430C4C08348D1044F82530B0
:1006300030BD0A49DC310860704700000008014005
:10064000000C01400010014000140140001801405E
:10065000001C014000200140000001400000204239
:10066000DF48006840F00100DD4908600846406846
:10067000DC490840DA49486008460068DA49084021
:10068000D74908600846006820F4802008600846C2
:10069000406820F4FE0048604FF41F0088607047F7
:1006A000CF49096821F48031CD4A116011460968AB
:1006B00021F480211160B0F5803F03D0B0F5802F88
:1006C0000ED106E0C649096841F48031C44A116080
:1006D00007E0C349096841F4A021C14A116000E064
:1006E00000BF00BF704710B5014600220023002064
:1006F0004A11012A02D1BA4C236806E0022A02D12B
:10070000B74C236A01E0B64C636A01F01F02012472
:1007100094401C400CB1012000E0002010BD38B511
:10072000002000900024002500BF3120FFF7DBFFF0
:1007300005460098401C00900098B0F5A06F01D0CD
:10074000002DF2D03120FFF7CEFF08B1012400E0E8
:100750000024204638BD01460020A14A106820F040
:10076000F80040EAC10010607047A0490860704777
:10077000024600209A4B586820F47C1042EA01039C
:100780001843974B58607047984908667047014670
:100790000020934A506820F00300084350607047DF
:1007A0008F48406800F00C007047014600208C4ADA
:1007B000506820F0F0000843506070470146002068
:1007C000874A506820F4E060084350607047014653
:1007D0000020834A506820F4605040EAC100506015
:1007E000704729B17E4A527A02437D4B5A7204E027
:1007F0007B4A527A82437A4B5A7270477B49D8318E
:100800000860704701460020754A506820F4404057
:100810000843506070470021714A20321170704ABD
:1008200082F82010012802D004280AD104E0012116
:100830006B4A2032117005E00521694A203211709F
:1008400000E000BF00BF7047694908607047644915
:10085000096A0143624A1162704765494439086078
:10086000704730B500210022002400235C4D6D68E4
:1008700005F00C0121B1042905D0082923D105E098
:100880005C4D056022E05B4D05601FE0544D6D68D6
:1008900005F47012524D6D6805F48034022505EBA5
:1008A00092421CB9544D554305600BE04C4D6D68A8
:1008B00005F400351DB1504D5543056002E04D4D26
:1008C0005543056002E04B4D056000BF00BF444D3D
:1008D0006D6805F0F0010909484D6B5C0568DD4065
:1008E00045603F4D6D6805F4E061090A434D6B5C5E
:1008F0004568DD4085603A4D6D6805F46051C90A70
:100900003E4D6B5C4568DD40C560354D6D6805F456
:100910004041890B3A4D6B5CC568B5FBF3F5056149
:1009200030BD29B12E4A526902432D4B5A6104E071
:100930002B4A526982432A4B5A61704729B1284A8F
:1009400092690243264B9A6104E0254A92698243E8
:10095000234B9A61704729B1214AD2690243204B47
:10096000DA6104E01E4AD26982431D4BDA617047A6
:1009700029B11B4AD2680243194BDA6004E0184AD5
:10098000D2688243164BDA60704729B1144A126963
:100990000243134B1A6104E0114A12698243104B5F
:1009A0001A61704712494039086070470F49C8649E
:1009B00070470B49C87170470948406A40F0807021
:1009C00007494862704701460020054A92680A407C
:1009D0000AB1012000E00020704701498872704789
:1009E000001002400000FFF8FFFFF6FE0000424248
:1009F0008004424200127A0000093D0014000020E9
:100A00002400002031490143314A1160704770B51C
:100A1000002100230F22C47804B32D4C246804F471
:100A2000E064C4F5E064210AC1F10403CA404478DB
:100A300004FA03F18478144021430901254C067817
:100A4000A155047804F01F050124AC4005786D1110
:100A5000AD0005F1E025C5F8004109E0047804F097
:100A60001F050124AC401C4D0678761145F8264040
:100A700070BD1A4A0A400243154B1B1F1A6070478B
:100A800039B1134A121D12680243114B1B1D1A6023
:100A900006E00F4A121D126882430D4B1B1D1A609F
:100AA0007047042808D14FF0E021096941F00401A2
:100AB0004FF0E022116107E04FF0E021096921F0D9
:100AC00004014FF0E0221161704700000000FA05B8
:100AD0000CED00E000E400E080E100E080FFFF1F9B
:100AE00010B50446FE48844208D10121C014FFF726
:100AF0003FFF0021E014FFF73BFFC4E0B4F1804F5B
:100B000008D101210846FFF740FF00210120FFF72F
:100B10003CFFB8E0F348844208D101210220FFF7EE
:100B200034FF00210220FFF730FFACE0EE488442A2
:100B300008D101210420FFF728FF00210420FFF73E
:100B400024FFA0E0E948844208D101210820FFF7F2
:100B50001CFF00210820FFF718FF94E0E4488442BE
:100B600008D101211020FFF710FF00211020FFF70E
:100B70000CFF88E0DF48844208D101212020FFF7E4
:100B800004FF00212020FFF700FF7CE0DA488442C8
:100B900008D101214014FFF7EBFE00216014FFF79C
:100BA000E7FE70E0D548844209D10121C804FFF76F
:100BB000DFFE00214FF40020FFF7DAFE63E0D048AB
:100BC000844209D101210805FFF7D2FE00214FF42C
:100BD0008010FFF7CDFE56E0CA48844209D10121BA
:100BE0004805FFF7C5FE00214FF40010FFF7C0FED7
:100BF00049E0C548844208D101214020FFF7C5FEE5
:100C000000214020FFF7C1FE3DE0C048844208D1EA
:100C100001218020FFF7B9FE00218020FFF7B5FEFB
:100C200031E0BB48844208D101218015FFF7ADFEB9
:100C30000021A015FFF7A9FE25E0B648844209D19E
:100C400001210804FFF794FE00214FF48030FFF7E4
:100C50008FFE18E0B048844209D101214804FFF713
:100C600087FE00214FF40030FFF782FE0BE0AB4817
:100C7000844208D101218804FFF77AFE00214FF455
:100C80008020FFF775FE10BD00220288944B984229
:100C90000ED0994B98420BD0B0F1804F08D0914BB9
:100CA000984205D0904B984202D0904B984204D184
:100CB0004FF68F731A404B881A438D4B984207D0DA
:100CC0008C4B984204D04FF6FF431A40CB881A430E
:100CD00002808B8883850B880385814B98420BD0DB
:100CE000854B984208D08B4B984205D08A4B98424E
:100CF00002D08A4B984201D10B7A0386012383826A
:100D0000704770B5002400220023058C4FF6FE7654
:100D100035400584028C8388048B4FF68F752C40F8
:100D2000B51E2C400D882C43751E2A400D892A4380
:100D30004D882A436A4DA8420BD06F4DA84208D077
:100D4000744DA84205D0744DA84202D0734DA842FC
:100D500013D14FF6F7752A404D892A434FF6FB759C
:100D60002A408D882A434FF6FF652B404FF6FF55EA
:100D70002B408D892B43CD892B4383800483CD88E1
:100D80008586028470BD70B5002400220023058C86
:100D90004FF6EF7635400584028C8388048B48F645
:100DA000FF752C404FF6FF452C400D884FF6FF761F
:100DB00006EA05252C434FF6DF752A400D8906EA21
:100DC00005152A434D8806EA05152A43444DA842D5
:100DD00002D0494DA8421DD14FF67F752A404D895A
:100DE0004FF6FF7606EA05152A434FF6BF752A40EF
:100DF0008D8806EA05152A434FF6FF352B404FF242
:100E0000FF752B408D8906EA85052B43CD8906EABF
:100E100085052B4383800483CD880587028470BDBC
:100E200070B5002400220023058C4FF6FF66354084
:100E30000584028C8388848B4FF68F752C404FF687
:100E4000FC752C400D882C434FF6FF552A400D8928
:100E50004FF6FF7606EA05252A434D8806EA052562
:100E60002A431F4DA84202D0234DA8421DD14FF264
:100E7000FF752A404D894FF6FF7606EA05252A437D
:100E80004FF6FF352A408D8806EA05252A434EF69F
:100E9000FF752B404DF6FF752B408D8906EA051531
:100EA0002B43CD8906EA05152B4383808483CD88A7
:100EB0008587028470BD70B5002200230024058C54
:100EC0004EF6FF7635400584038C8488828B48F685
:100ED000FF752A404FF6FF452A400D8820E00000AC
:100EE000002C01400004004000080040000C0040BD
:100EF000001000400014004000340140004C01404C
:100F0000005001400054014000180040001C004007
:100F100000200040004001400044014000480140E2
:100F20004FF6FF7606EA05252A434DF6FF752B405E
:100F30000D8906EA05352B434D8806EA05352B4316
:100F4000FA4DA84202D0FA4DA84208D14BF6FF75DF
:100F50002C408D894FF6FF7606EA85152C43848058
:100F60008283CD88A0F84050038470BD828B4FF2FD
:100F7000FF331A408283828B4FF6FF7303EA01230B
:100F80001A4382837047F0B50C46154600220021B3
:100F90000026078C4EF6FF7C07EA0C070784828B3D
:100FA000018C4FF6FF7707EA043640F6FF473A40D8
:100FB0004FF6FF7707EA05273A434FF6FF7707EA30
:100FC00003373A43D94FB8420ED0D94FB8420BD06D
:100FD000B0F1804F08D0D74FB84205D0D64FB842B5
:100FE00002D0D64FB84206D14DF6FF77394046F4CD
:100FF0008057394305E047F6FF57394044F480579E
:10100000394382830184F0BD828B4FF6F3731A401B
:101010008283828B0A4382837047F0B50C46154663
:10102000002200210026078C4FF6FF6C07EA0C0710
:101030000784828B018C4FF6FF7707EA04264FF670
:101040000C773A404FF6FF7707EA03172F433A43EE
:10105000B64FB8420ED0B64FB8420BD0B0F1804F69
:1010600008D0B44FB84205D0B34FB84202D0B34F06
:10107000B84206D14FF6FF57394046F480773943DE
:1010800005E04FF2FF57394044F4807739438283BB
:101090000184F0BD028B4FF2FF331A400283028BB2
:1010A0004FF6FF7303EA01231A4302837047F0B53A
:1010B0000C461546002200210026078C4FF6EF7CD7
:1010C00007EA0C070784028B018C4FF6FF7707EACB
:1010D000041640F6FF473A404FF6FF7707EA03371A
:1010E0003A434FF6FF7707EA05273A438F4FB84256
:1010F0000ED08F4FB8420BD0B0F1804F08D08D4F3B
:10110000B84205D08C4FB84202D08C4FB84206D1BD
:101110004FF6DF77394046F01007394305E04FF6C8
:101120005F77394044F01007394302830184F0BDF2
:10113000028B4FF6F3731A400283028B0A43028339
:101140007047F0B50C46154600220021068C4FF67C
:10115000FE773E400684028B018C4FF60C763240BF
:101160007E1C06EA03162E433243704EB0420ED068
:101170006F4EB0420BD0B0F1804F08D06D4EB042F0
:1011800005D06D4EB04202D06C4EB04206D14FF643
:10119000FD76314044F00106314305E04FF6F57627
:1011A000314044F00106314302830184F0BD70B543
:1011B00005460C465D4885420ED05D4885420BD001
:1011C000B5F1804F08D05B48854205D05A4885422A
:1011D00002D05A48854200D100E000BF208850B9B3
:1011E0002389A28861882846FFF7ABFFE18828465B
:1011F000FFF79EFF25E0208804280AD12389A288D2
:1012000061882846FFF753FFE1882846FFF742FF31
:1012100017E0208808280AD12389A28861882846F7
:10122000FFF7FBFEE1882846FFF7EEFE09E0238981
:10123000A28861882846FFF7A6FEE1882846FFF7C6
:1012400095FE70BD2DE9F04105460C4600260127AC
:10125000608808B9022600E00026A088012801D194
:10126000022700E001272088A0B92389A28861888D
:101270002846FFF766FFE1882846FFF759FF2389D4
:101280003A4631462846FFF712FFE1882846FFF725
:1012900001FF13E02389A28861882846FFF707FF32
:1012A000E1882846FFF7F6FE23893A46314628466C
:1012B000FFF747FFE1882846FFF73AFFBDE8F081D6
:1012C0000A884B881A438B881A43CB881A430B89A8
:1012D0001A434B891A438B891A43A0F8442070475C
:1012E0004FF6FF71818000210180C1804180017231
:1012F00070470021018041808180C180018141814E
:101300008181C1817047002101804180012181805C
:101310000021C180018170470021018041808180CE
:10132000C18001814181818170470000002C014012
:10133000003401400004004000080040000C004060
:1013400021B1028842F00102028004E002884FF6D7
:10135000FE731A400280704731B1B0F8442042F465
:101360000042A0F8442005E0B0F84420C2F30E0289
:10137000A0F8442070471AB183890B43838102E0AF
:1013800083898B43838170478182704741EA0203DE
:10139000A0F8483070471AB183890B43838102E07B
:1013A00083898B438381704701894FF6F87211401E
:1013B000018170470A46002101894FF68F73194059
:1013C00011430181704730B504460D462946204639
:1013D000FFF7F0FF208940F00700208130BD2DE9A4
:1013E000F04104460D4616461F46602D06D13B4689
:1013F000012231462046FFF75AFE05E03B46012216
:1014000031462046FFF79DFE29462046FFF7D2FFD2
:10141000208940F007002081BDE8F08130B50C46FE
:1014200000210189C9B24FF6FF7505EA032515436E
:1014300025432943018130BD2DE9F04105460E4683
:1014400017469846002443463A4631462846FFF759
:10145000E5FF2C894FF6F870044044F007044FF67E
:101460008F70044044F070042C81BDE8F081F0B529
:1014700004460D4616461F463B4632462946204640
:10148000FFF7CCFF208940F480402081F0BD01852A
:10149000828270470A46002101884FF68F731940F7
:1014A000114301807047F0B50C4615461E460021D9
:1014B000002200230189028B038C4FF6F877394014
:1014C00021434FF6FC473A4040F201173A434FF6AA
:1014D000DD773B404FF6FF7707EA06172F433B4384
:1014E000018102830384F0BD0A460021018B4FF67F
:1014F0008F7319401143018370470A460021018B05
:1015000048F6FF7319404FF6FF7303EA02231943AD
:10151000018370470A460021818B4FF68F73194073
:101520001143818370470A460021818B48F6FF737F
:1015300019404FF6FF7303EA022319438183704772
:1015400021B1028842F08002028004E002884FF656
:101550007F731A400280704721B1828842F00402F2
:10156000828004E082884FF6FB731A4082807047C5
:1015700021B1828842F00802828004E082884FF61E
:10158000F7731A408280704721B1828842F00102CD
:10159000828004E082884FF6FE731A408280704792
:1015A0000A460021018B4FF6F7731940114301835E
:1015B00070470A460021018B4FF2FF7319404FF626
:1015C000FF7303EA02231943018370470A4600218F
:1015D000818B4FF6F77319401143818370470A4698
:1015E0000021818B4FF2FF7319404FF6FF7303EA1E
:1015F00002231943818370470A460021018B4FF66D
:10160000FB7319401143018370470A460021018B87
:101610004FF6FF3319404FF6FF7303EA02231943D5
:10162000018370470A460021818B4FF6FB731940F6
:101630001143818370470A460021818B4FF6FF33A7
:1016400019404FF6FF7303EA022319438183704761
:101650000A460021018B4FF67F7319401143018325
:1016600070470A460021018BC1F30E014FF6FF734C
:1016700003EA02231943018370470A460021818B44
:101680004FF67F7319401143818370470A4600214A
:10169000818BC1F30E014FF6FF7303EA0223194356
:1016A000818370470A460021018C4FF6FD73194073
:1016B0001143018470470A460021018C4FF6F773ED
:1016C00019401143018470470A460021018C4FF6EE
:1016D000DF7319404FF6FF7303EA021319430184C5
:1016E00070470A460021018C4FF67F7319404FF670
:1016F000FF7303EA02131943018470470A4600216D
:10170000018C4FF6FF5319404FF6FF7303EA022393
:101710001943018470470A460021018C4FF2FF7380
:1017200019404FF6FF7303EA0223194301847047FF
:101730000A460021018C4DF6FF7319404FF6FF73E6
:1017400003EA023319430184704730B500230124B2
:101750008C40A3B2048C9C430484048C02FA01F5EF
:10176000ADB22C43048430BD30B5002304248C403A
:10177000A3B2048C9C430484048C02FA01F5ADB23C
:101780002C43048430BD70B5034600200024184665
:10179000183001258D40ACB21D8CA5431D8409B1C4
:1017A000082909D100EB6100056825F07005056086
:1017B0000568154305600EE00D1FC5F34E0528446E
:1017C000056825F4E045056005684FF6FF7606EAF2
:1017D00002263543056070BD21B1028842F0020245
:1017E000028004E002884FF6FD731A4002807047C1
:1017F00021B1028842F00402028004E002884FF620
:10180000FB731A400280704721B1828842F0800247
:10181000828004E082884FF67F731A40828070478E
:1018200002884FF6F7731A40028002880A4302804A
:10183000704782884FF68F731A40828082880A43ED
:101840008280704702894FF6F8731A40028102893C
:101850000A430281704702894FF67F731A40028162
:1018600002890A43028170478184704781857047ED
:10187000818670470187704781877047A0F84010C4
:10188000704702884FF6FF431A40028002880A43DD
:10189000028070470146888E70470146088F704766
:1018A0000146888F70470146B1F8400070470146F5
:1018B000888C70470146088D704702460020138AC5
:1018C0000B400BB1012000E000207047CA430282A8
:1018D000704730B50246002000230024158A05EA2F
:1018E0000103958905EA010413B10CB1012000E060
:1018F000002030BDCA4302827047000010B50120AD
:10190000FFF750F80020FFF74DF810BD2A49086096
:1019100070472949091F08607047274984310860CA
:10192000704701460020254A10884FF67F4210403C
:101930000843224A10807047014600201F4A108841
:101940004FF68072104008431C4A1080704708B55B
:1019500000220092194A2C3A0092009A0244009206
:10196000009A116008BD08B5014600200090134898
:101970002C3800900098084400900098008808BD1A
:101980000D489C300068C0B270470C480830008891
:1019900040F0010009490831088070470648A0302E
:1019A0000068C0B2704705480830008840F0020067
:1019B000024908310880704704860D422C6C0040B3
:1019C00010B501210807FEF7E0FF00214FF080501D
:1019D000FEF7DBFF10BD2A490862704728490861FD
:1019E000704701460020274A106820F0E0000843B5
:1019F000106070472249A0310860704710B5024658
:101A00000020204B186820F00300104318601E4B84
:101A10001B6843F004031C4C2360012901D130BF33
:101A200000E020BF184B1B6823F00403164C236012
:101A300010BD1448006840F00400124908600846D0
:101A4000006840F0020008600F48006840F00400A1
:101A50000D49086000BF00BF30BF7047014600203D
:101A6000084A52680A400AB1012000E0002070478D
:101A70000449096841EA8001024A11607047000088
:101A800000000E420070004010ED00E010B504466A
:101A9000FB48844209D101218803FEF769FF002138
:101AA0004FF48040FEF764FF32E0F648844209D1EB
:101AB00001214804FEF769FF00214FF40030FEF7D2
:101AC00064FF25E0F048844209D101218804FEF733
:101AD0005CFF00214FF48020FEF757FF18E0EB4831
:101AE000844209D10121C804FEF74FFF00214FF4C1
:101AF0000020FEF74AFF0BE0E548844208D10121AF
:101B00000805FEF742FF00214FF48010FEF73DFF6D
:101B100010BD2DE9F04786B005460E460024A246CA
:101B200000BFA1460027B08900B100BF2F462C8A14
:101B30004CF6FF700440F08804432C82AC894EF6CA
:101B4000F3100440B0883189084371890843044385
:101B5000AC81AC8A4FF6FF400440B0890443AC82AC
:101B600001A8FEF77EFEC648874202D1DDF810A02C
:101B700001E0DDF80CA0A88900F4004040B10AEBB8
:101B8000CA0000EB0A1031684900B0FBF1F807E029
:101B90000AEBCA0000EB0A1031688900B0FBF1F8CB
:101BA0006420B8FBF0F004012009642101FB1089D6
:101BB000A88900F4004040B1322000EBC900B0FB1E
:101BC000F1F000F00700044308E0322000EB0910B8
:101BD0006421B0FBF1F000F00F0004432C8106B04B
:101BE000BDE8F0874FF41651016000218180C1806B
:101BF00001810C21418100218181704710B502468D
:101C00000020108A4FF2FF0318400B884C882343B2
:101C10008C882343CC8823431843108210BD0021B5
:101C2000018041808180C180704721B1828942F466
:101C30000052828104E082894DF6FF731A4082814E
:101C40007047F0B50346002400260025002040F62A
:101C50006A17B94200D100BF1846C1F3421401F01F
:101C60001F06012707FA06F5012C01D10C3004E00C
:101C7000022C01D1103000E014301AB107682F4354
:101C8000076002E00768AF430760F0BD1AB1838ABE
:101C90000B43838202E0838A8B4383827047028AEC
:101CA0004FF6F0731A400282028A0A43028270479A
:101CB00082894FF2FF731A40828182890A438281AE
:101CC000704721B1828942F00202828104E0828958
:101CD0004FF6FD731A4082817047028A4FF6DF7318
:101CE0001A400282028A0A430282704721B1028AA4
:101CF00042F48042028204E0028A4BF6FF731A40EB
:101D000002827047C1F308028280704701468888CA
:101D1000C0F308007047818941F00101818170475B
:101D2000028BD2B20283028B42EA01220283704705
:101D3000028B02F47F420283028B0A4302837047C4
:101D400021B1828A42F02002828204E0828A4FF628
:101D5000DF731A408282704721B1828A42F01002FA
:101D6000828204E0828A4FF6EF731A4082827047C3
:101D700021B1828A42F00802828204E0828A4FF610
:101D8000F7731A408282704721B1828942F400427F
:101D9000828103E08289C2F30E028281704721B101
:101DA000828A42F40062828204E0828A4FF2FF73E8
:101DB0001A4082827047828A4FF6FB731A408282F1
:101DC000828A0A438282704721B1828A42F00202EB
:101DD000828204E0828A4FF6FD731A408282704745
:101DE00002460020B1F5007F00D100BF13880B40F0
:101DF0000BB1012000E00020704701F40072B2F541
:101E0000007F00D100BFCA430280704770B5024610
:101E1000002400230025002040F66A16B14200D1BC
:101E200000BFC1F3421501F01F03012606FA03F3B8
:101E3000012D02D19689334006E0022D02D1168A87
:101E4000334001E0968A33400C12012606FA04F46E
:101E50001688344013B10CB1012000E0002070BDA1
:101E600010B50022002340F66A14A14200D100BF41
:101E70000A1201249440A3B2DC43048010BD000088
:101E8000003801400044004000480040004C004041
:101E90000050004010B50446FA48844208D10121A0
:101EA0004015FEF765FD00216015FEF761FD17E0A6
:101EB000F548844208D101210015FEF759FD0021A3
:101EC0002015FEF755FD0BE0F048844208D10121B2
:101ED000C803FEF74DFD00214FF40040FEF748FD1A
:101EE00010BD30B50246002000235068E84C204069
:101EF0000D790C6844EA0524204350609068E54C55
:101F00002040D1E902542C434D7944EA4504204352
:101F10009060D06A20F470000C7C641EE4B223430D
:101F200040EA0350D06230BD00210160017141716F
:101F30008160C16001210174704721B1826842F063
:101F40000102826003E0826822F001028260704731
:101F500021B1826842F48072826003E0826822F4D8
:101F600080728260704710B50023CBB21AB144680A
:101F70001C43446002E044689C43446010BD816897
:101F800041F0080181607047014600208A6802F034
:101F900008020AB1012000E000207047816841F08A
:101FA000040181607047014600208A6802F0040243
:101FB0000AB1012000E00020704721B1826842F49C
:101FC000A002826003E0826822F4A002826070476F
:101FD000014600208A6802F480020AB1012000E074
:101FE0000020704710B50A4600210023416821F403
:101FF0006041531E41EA4331416010BD21B1426846
:1020000042F40062426003E0426822F400624260EF
:102010007047F0B504460D4600200021092D11DD62
:10202000E068A5F10A0606EB4607072606FA07F15F
:102030008843A5F10A0606EB460603FA06F10843B3
:10204000E0600CE0206905EB4507072606FA07F17A
:10205000884305EB450603FA06F108432061072A89
:102060000FDA606B561E06EB86071F2606FA07F18D
:102070008843561E06EB860605FA06F108436063A0
:1020800022E00D2A0FDA206BD61F06EB86071F26EB
:1020900006FA07F18843D61F06EB860605FA06F115
:1020A0000843206310E0E06AA2F10D0606EB860704
:1020B0001F2606FA07F18843A2F10D0606EB8606F5
:1020C00005FA06F10843E062F0BD21B1826842F4EE
:1020D0008012826003E0826822F48012826070477E
:1020E0000146C86C80B2704766484C300068704743
:1020F00021B1426842F48062426003E0426822F407
:1021000080624260704721B1426842F4805242606E
:1021100003E0426822F48052426070470A46002180
:10212000816821F4E04111438160704721B18268E8
:1021300042F40042826003E0826822F4004282603E
:10214000704721B1826842F40212826003E0826823
:1021500022F4021282607047014600208A6802F46D
:1021600000120AB1012000E000207047F0B50446DB
:102170001546002000220026092911DDE068A1F1A2
:102180000A0707EB470C072707FA0CF29043A1F167
:102190000A0707EB470703FA07F21043E0600CE079
:1021A000206901EB410C072707FA0CF2904301EB81
:1021B000410703FA07F210432061A06BC0F30156F8
:1021C000EF1C06F1010CA7EB0C0707EB870C1F2790
:1021D00007FA0CF29043EF1C06F1010CA7EB0C0779
:1021E00007EB870701FA07F21043A063F0BD10B5B3
:1021F0000A4600210023816B21F44011531E41EA5D
:102200000351816310BD08B5002300930090009B2B
:102210000B440093009B1A6008BD08B502460020DD
:102220000090009201F12800009B18440090009853
:10223000006880B208BD0A4600214168164B19406B
:102240001143416070474162826270470A46002133
:10225000416821F01F0111434160704740B10949B5
:102260000831096841F40001064A0832116007E0AC
:1022700004490831096821F40001024A083211605A
:10228000704700000024014000280140003C01404C
:10229000FFFEF0FFFDF7F1FFFFFD3FFF02460020CC
:1022A00013680B400BB1012000E000207047CA43C7
:1022B0000260704770B502460020002300240B1214
:1022C0005568CEB205EA060415681D4015B10CB17B
:1022D000012000E0002070BD00220A12D3430360F9
:1022E0007047000029B1504A128802434E4B1A80B1
:1022F00004E04D4A128882434B4B1A8070474A488B
:10230000001D008840F010004749091D08807047F3
:102310004548001D00884FF6EF7108404249091DED
:1023200008807047002140481C300188001F008849
:1023300041EA0040704700B50246FFF7E0FF100C8D
:10234000394918310880091D0A80FFF7E1FF00BDF7
:1023500000B50246FFF7D3FFC2F30340324908310C
:102360000880091D0A80FFF7D3FF00BD00B50246B3
:10237000FFF7C5FF100C2C4920310880091D0A8089
:10238000FFF7C6FF00BD0020274910310988090763
:10239000080B2549143109880843704700BF2248BB
:1023A000001D008800F020000028F8D070471E486B
:1023B000001D00884FF6F77108401B49091D088071
:1023C00000BF1948001D008800F008000028F8D060
:1023D000704701460020144A121D12880A400AB1B3
:1023E000012000E0002070470F49091D0988814342
:1023F0000D4A121D11807047014600200A4A121D25
:1024000012880A40D0B2084A12880A4012B108B1B4
:10241000012000E0002070470349091D098881431D
:10242000014A121D118070470028004001684FF6D4
:10243000FE72114001600021016041608160C16055
:102440008D49884208D18C490839496841F00F010B
:10245000894A083A51608AE087491431884208D194
:1024600085490839496841F0F001834A083A5160CA
:102470007DE081492831884208D17F49083949687F
:1024800041F470617C4A083A516070E07A493C310D
:10249000884208D178490839496841F47041764A40
:1024A000083A516063E074495031884208D172495A
:1024B0000839496841F470216F4A083A516056E082
:1024C0006D496431884208D16B490839496841F443
:1024D0007001694A083A516049E067497831884299
:1024E00008D165490839496841F07061624A083A83
:1024F00051603CE06149884206D1011F096841F002
:102500000F01021F116032E05C491431884208D18A
:102510005A49091F096841F0F001584A121F116019
:1025200025E056492831884208D15449091F0968D5
:1025300041F47061514A121F116018E04F493C315B
:10254000884208D14D49091F096841F470414B4A3E
:10255000121F11600BE049495031884207D14749A9
:10256000091F096841F47021444A121F1160704725
:1025700010B50022026847F6F0739A430C6A8B6824
:1025800023430C6923434C6923438C692343CC695F
:1025900023434C6A23438C6A23431A430260CB686B
:1025A00043600B6883604B68C36010BD002101600D
:1025B00041608160C160016141618161C16101620D
:1025C00041628162704721B1026842F001020260FB
:1025D00004E002684FF6FE731A40026070471AB1B9
:1025E00003680B43036002E003688B43036070479A
:1025F000416070470146486880B27047014600203C
:10260000002201F080531BB11C4B083B1A6802E00A
:10261000194B083B1A6802EA01030BB1012000E0E4
:102620000020704700F0805119B11449091F08605B
:1026300002E0114908394860704701460020002235
:1026400001F080531BB10D4B083B1A6802E00A4BA6
:10265000083B1A6802EA01030BB1012000E00020E8
:10266000704700F0805119B10449091F086002E069
:1026700001490839486070470800024008040240D8
:10268000002109E0002201E0531C9AB240F6B83361
:102690009A42F9DB4B1C99B28142F3DB704710B5CB
:1026A000FD4BDB689AB24FF40073FC4C23605B1067
:1026B00023602023241F2360F74BD8602023241D90
:1026C0002360241F2360DB002360F34BD9602023A9
:1026D000241D2360241F2360DB002360EE4BDA609F
:1026E00010BD00B501210020FFF7D9FF4FF47A702B
:1026F000FFF7C6FF00210120FFF7D1FF41F29071E3
:102700001020FFF7CCFF4FF41C516020FFF7C7FFEC
:1027100001216120FFF7C3FF02214620FFF7BFFF21
:1027200048F210011320FFF7BAFF48F2FE01122011
:10273000FFF7B5FF4FF4A0610220FFF7B0FF41F2B1
:1027400030010320FFF7ABFF40F203313020FFF7E9
:10275000A6FF40F203313120FFF7A1FF40F2033121
:102760003220FFF79CFF4FF440713320FFF797FFB3
:1027700003213420FFF793FF40F203313520FFF7A8
:102780008EFF14213620FFF78AFF40F203313720F5
:10279000FFF785FF40F203313820FFF780FF40F25A
:1027A00003313920FFF77BFF4FF440713A20FFF7E8
:1027B00076FF03213B20FFF772FF40F203313C20FC
:1027C000FFF76DFF4FF4A0513D20FFF768FF4FF476
:1027D00000719220FFF763FF40F203319320FFF76F
:1027E0005EFF40F60D019020FFF759FF41F21801FE
:1027F0000320FFF754FF40F273110720FFF74FFF4C
:1028000000BD00B543F20801E320FFF748FF1221A5
:10281000E720FFF744FF41F23121EF20FFF73FFFB0
:1028200000210120FFF73BFF4FF4E0610220FFF79A
:1028300036FF41F230010320FFF731FF0021042071
:10284000FFF72DFF40F207210820FFF728FF0021A6
:102850000920FFF724FF00210A20FFF720FF0021B5
:102860000C20FFF71CFF00210D20FFF718FF0021AF
:102870000F20FFF714FF00211020FFF710FF0721A2
:102880001120FFF70CFF00211220FFF708FF0021A5
:102890001320FFF704FF4FF47A70FFF7F1FE41F2C7
:1028A00090611020FFF7FBFE40F227211120FFF777
:1028B000F6FE3220FFF7E4FE1D211220FFF7EFFEA7
:1028C0003220FFF7DDFE4FF400611320FFF7E7FE33
:1028D00014212920FFF7E3FE0B212B20FFF7DFFE59
:1028E0003220FFF7CDFE00212020FFF7D8FE002187
:1028F0002120FFF7D4FE07213020FFF7D0FE40F261
:1029000007713120FFF7CBFE06213220FFF7C7FE0B
:1029100040F204713520FFF7C2FE41F60471362003
:10292000FFF7BDFE04213720FFF7B9FE0021382054
:10293000FFF7B5FE40F206713920FFF7B0FE40F216
:1029400001713C20FFF7ABFE0F213D20FFF7A7FEF2
:1029500000215020FFF7A3FEEF215120FFF79FFE3B
:1029600000215220FFF79BFE40F23F115320FFF75A
:1029700096FE4FF41C516020FFF791FE012161206B
:10298000FFF78DFE00216A20FFF789FE00218020DD
:10299000FFF785FE00218120FFF781FE00218220C4
:1029A000FFF77DFE00218320FFF779FE00218420C0
:1029B000FFF775FE00218520FFF771FE10219020A2
:1029C000FFF76DFE00219220FFF769FE032193209F
:1029D000FFF765FE4FF488719520FFF760FE002138
:1029E0009720FFF75CFE00219820FFF758FE41F288
:1029F00018010320FFF753FE40F273110720FFF781
:102A00004EFE00BD08B54FF6FF70ADF80000032084
:102A10008DF8020010208DF8030069461E48FDF76E
:102A2000D1FC08BD08B54FF6FF70ADF800000320DB
:102A30008DF8020048208DF8030069461648FDF71E
:102A4000C1FC08BD70B504464FF40070134908601E
:102A5000401008602020091F08600F48C460202033
:102A6000091D0860091F0860C0000860FFF7DAFF51
:102A70004FF48060094908600748806885B20815EE
:102A8000091F0860FFF7BEFF4FF400700349091FDC
:102A90000860284670BD000000100140140C014081
:102AA00008B501211820FDF749FF01212020FDF77D
:102AB00045FF4FF4E460ADF8000001208DF80200FE
:102AC00010208DF803006946F648FDF77BFCFFF700
:102AD00099FFF4481030006840F4C460F1491031A7
:102AE000086008BD10B5FFF7DBFF0020FFF7AAFF65
:102AF000ED4908800846008848F23021884202D11A
:102B0000FFF7EFFD01E0FFF77CFE0020FFF79AFFE3
:102B1000E549088010BD01B5BDF80000E349088013
:102B200008BD01B5BDF80000E149088008BD30B519
:102B300004460D4621462020FFF7B1FD29462120FD
:102B4000FFF7ADFD30BDDB4AD26891B24FF40072A1
:102B5000D44B14331A6052101B1F1A6020221A60C3
:102B6000D44AD06020221B1D1A601B1F1A60D2009D
:102B70001A6052001A60CF4AD1607047CD49C968C7
:102B800088B24FF40071C74A1432116049101160C5
:102B90002021121F11602221C64AD1602021C14A82
:102BA00014321160121F1160C900116049001160D8
:102BB000C049C86070472DE9F0430646894617466C
:102BC00000240025A046B04649464046FFF7AFFF27
:102BD00000BF1EE0FFF7D2FF00250FE037F814001A
:102BE0000121A940084020B9B1480088FFF7ABFF98
:102BF00003E0AE480088FFF7A6FF6D1C102DEDD353
:102C000008F1010000F0FF0849464046FFF78FFF3A
:102C1000641C182CDED3BDE8F08370B505460E4663
:102C20001446A4F12000C4B204EB4400A24901EB15
:102C3000001231462846FFF7BEFF70BDF0B50746CB
:102C40000C46002540F23F1609E02278314638460E
:102C5000FFF7E3FFA6F1100086B2641C6D1C20781C
:102C600008B1142DF1D3F0BD10B5044693A1204650
:102C7000FFF7E4FF10BD30B50546002400210846EB
:102C8000FFF755FFFFF77AFF00BF03E02846FFF785
:102C90005AFF641CB4F5963FF8D330BDF0B5044636
:102CA0000D4616461F46B44206DBA01B401C81B2EF
:102CB0005020FFF7F4FC03E000215020FFF7EFFC69
:102CC00021465120FFF7EBFCBD4206DBE81B401C10
:102CD00081B25220FFF7E3FC03E000215220FFF70E
:102CE000DEFC29465320FFF7DAFC29462046FFF791
:102CF0001EFFF0BD00B54FF4A073F022591EEF2067
:102D0000FFF7CCFF41F218010320FFF7C8FC00BD1C
:102D10002DE9F0410646884615461F4600244146E7
:102D20003046FFF704FF5FB9FFF728FF00BF04E05C
:102D30005E480088FFF707FF641CAC42F8D310E040
:102D400000240CE0FFF71AFF58480088FFF7FBFE4D
:102D5000701CC6B241463046FFF7E9FE641CAC4227
:102D6000F0D3BDE8F081F0B505460E4617461C4687
:102D70000023224631462846FFF7CAFFE919C8B2A8
:102D8000002322463146FFF7C3FF01233A4631466E
:102D90002846FFF7BDFF301B401C81B201233A4695
:102DA0002846FFF7B5FFF0BD2DE9F04306460F4674
:102DB00090460320A0EB4809002445466EE07A19AE
:102DC00091B23219D0B2FFF7B2FEFFF7D7FE374803
:102DD0000088FFF7B8FE7A1B91B23219D0B2FFF724
:102DE000A6FEFFF7CBFE31480088FFF7ACFE7A194C
:102DF00091B2321BD0B2FFF79AFEFFF7BFFE2B480D
:102E00000088FFF7A0FE7A1B91B2321BD0B2FFF709
:102E10008EFEFFF7B3FE25480088FFF794FE3A19AF
:102E200091B27219D0B2FFF782FEFFF7A7FE1F48DA
:102E30000088FFF788FE3A1B91B27219D0B2FFF7F3
:102E400076FEFFF79BFE19480088FFF77CFE3A19D3
:102E500091B2721BD0B2FFF76AFEFFF78FFE1348E4
:102E60000088FFF770FE3A1B91B2721BD0B2FFF7D9
:102E70005EFEFFF783FE0D480088FFF764FEB9F1A0
:102E8000000F04DA062000EB8400814405E0601B9B
:102E90000A2101EB800081446D1E641CAC428ED976
:102EA000BDE8F083000C01402C0000202800002029
:102EB0002A0000200010014020500008202020207F
:102EC0002020202020202020202020202020202002
:102ED0000000000070B506460024002540F23F11B6
:102EE0000020FFF724FEFFF749FE00BF14E0002595
:102EF0000FE056F824000121A940084020B95F489E
:102F00000088FFF720FE03E05D480088FFF71BFE06
:102F10006D1C202DEDD3641CB4F5166FE7D370BD86
:102F200070B50446002500266688A08846EA00465B
:102F30006589A08945EA0045701B46082C4441F28A
:102F400008010320FFF7ABFBFFF718FE002504E0A4
:102F50002088FFF7F8FDA41C6D1CB542F8D341F2A0
:102F600018010320FFF79BFB70BD10B54FF40070F4
:102F700044490860401008602020091F0860222092
:102F80004149C86020203F490860091F0860C0000F
:102F90000860FFF747FD4FF480603A4908603A48FF
:102FA000806884B20815091F0860FFF72BFD4FF4F5
:102FB00000703449091F0860204610BD00B500218B
:102FC0001020FFF76CFB00211120FFF768FB0021A8
:102FD0001220FFF764FB00211320FFF760FB142091
:102FE000FFF74EFB41F2B0711020FFF758FB40F2A3
:102FF00037111120FFF753FB0520FFF741FB40F28B
:1030000039111220FFF74BFB0520FFF739FB4FF476
:10301000E8511320FFF743FB13212920FFF73FFB63
:103020000520FFF72DFB40F273110720FFF737FB58
:1030300000BD00B540F273110720FFF730FB00BD63
:1030400000B500210720FFF72AFB00BD30B505467B
:1030500000210846FFF76BFDFFF790FD002409E013
:1030600015F814206100491C695C42EA0120FFF751
:103070006AFD641CB4F5963FF2DB30BD2A000020E7
:1030800028000020140C014000100140FE49086097
:1030900000BFFD4909680029FBD1704710B500F059
:1030A00053FDFA480078012806D1F948007880F0ED
:1030B0000100F749087068E0F4480078022826D13A
:1030C000F448007801280FD10020F2490870F24836
:1030D0000068F2490860F2480068F2490860F24866
:1030E0000068F249086050E00120EA4908700020B9
:1030F000EF490870EF480068E7490860EE4800684B
:10310000E7490860ED480068E74908603DE0E148AC
:10311000007801280ED1DD48007804280AD1E4485F
:103120000078401C032190FBF1F201FB1200E04902
:1031300008702AE0D5480078082826D1DC480078B5
:1031400050B9D5480068401C1821B0FBF1F201FBD2
:103150001200D149086018E0D548007801280AD14A
:10316000CF480068401C3C21B0FBF1F201FB12008B
:10317000CB49086009E0CC480068401C3C21B0FB0A
:10318000F1F201FB1200C849086010BD38B5C14812
:103190000078002850D11421C94800F04AFFC948DE
:1031A000006801F096F8044622460B46C6A1C448C2
:1031B00001F0C4FAC2491820FFF740FD1421C048AD
:1031C00000F037FFC548006801F083F80446224646
:1031D0000B46C3A1BA4801F0B1FAB9494820FFF73C
:1031E0002DFD1421B64800F024FFA948007808B945
:1031F000C0A000E0C0A00246C0A1B14801F09EFA04
:10320000AF497820FFF71AFD1421AD4800F011FFF7
:10321000AA4800680090A8480368A648BBA10268B5
:10322000A74801F08BFAA649A820FFF707FDBEA129
:10323000D820FFF703FD22E0C0A11820FFF7FEFC15
:10324000C3A14820FFF7FAFCBCA17820FFF7F6FCE9
:1032500014219B4800F0EDFE9348006800909048D0
:1032600003688D48BFA10268954801F067FA944948
:10327000A820FFF7E3FCC2A1D820FFF7DFFC38BD90
:10328000F0B585B08B4800688449096888422CD124
:103290008948006883490968884226D187480068C0
:1032A00082490968884220D1BA480078E8B90120EB
:1032B000B84908708948006801F00BF804460D46CB
:1032C0008048006801F005F806460B467B48006818
:1032D00079490968774A1268CDE90045CDE90221AC
:1032E00004903246ACA001F019FA724800686B49AC
:1032F000096888420BD1704800686A4909688842A9
:1033000005D16E48006869490968884202D00020EA
:10331000A049087005B0F0BD2DE9F0475C48007881
:10332000A8B16848006800F0D4FF04460D466B4819
:10333000006800F0CEFF06464FF066329D4B00F06D
:10334000B5FE804622462B4600F0D6FF05D200216E
:103350004FF4807000F062FC0DE09748007850B1A7
:103360004B480078012806D10020934908704FF49B
:10337000807000F06EFCBDE8F08710B500F0BDFD78
:103380005049086010BD2DE9F047002408E004F121
:103390003001C8B200F0A0FB88490855601CC4B2D7
:1033A000082CF4DB854800688549884210D100204C
:1033B00000F092FB814600F06BFF0746814A824B8A
:1033C00000F074FE054600F0AFFF4449086019E0C4
:1033D0007B487A49086000240BE0784A115D04F1CB
:1033E0003002D0B200F061FB0520FFF74FFE601CF9
:1033F000C4B2082CF1DB0121002000F056FB0520AF
:10340000FFF744FEBDE8F08770B5704933480068A7
:1034100000F01AFE044600F048FFC0B26C4909787B
:10342000884219D069492D48006800F00DFE054614
:1034300000F03BFFC4B22146002000F036FB05201F
:10344000FFF724FE61492548006800F0FDFD0446B1
:1034500000F02BFF5E49087070BD2DE9F0415D481A
:10346000007800280ED000205A4908705A48007889
:103470006B2808D158484078302804D156488078C5
:103480002E28ABE0D5E0CDE0300000206D0000201C
:103490004200002041000020440000205000002095
:1034A00048000020540000204C000020580000205C
:1034B0005D000020700000207400002078000020D3
:1034C0008400002038000020202056313A252E327A
:1034D0006656202020202020000000003C00002014
:1034E00020206B3A252E316620202020202020200D
:1034F000000000004F4646004F4E000020204C4583
:10350000443A257320202020202000002020543A17
:10351000253032643A253032643A25303264202036
:10352000202020200000000020202020202020201B
:10353000202020202020202020203100202020209A
:10354000202020202020202020202020202020009B
:103550002020202020202053455454494E4720202D
:103560002020200020202020202020253032643AF6
:10357000253032643A25303264202020202020007B
:10358000202020202020202020202020202020203B
:10359000202032005C000020252E32662B252E31A3
:1035A000662B2530326425303264253032640D0AB2
:1035B0000000000066660A40350000206000002020
:1035C00011DCF6519A9999999999B93F00002041D7
:1035D000400000206B0000209800002022D170489D
:1035E000C07839281EDC6E48C07831281ADB6C4858
:1035F00000790D2816D16A4840790A2812D1684905
:10360000C978A1F1300000F032FE0646654A664BEB
:1036100000F04CFD044600F087FE6449086064A099
:1036200001F07CF814215E4800F003FD002062499F
:103630000870BDE8F081614800684FF47A72B0FB11
:10364000F2F1481EB0F1807F00D31BE0481E4FF01E
:10365000E022506150170F22002807DA13071D0ED1
:10366000574B00F00F04241F1D5503E013071C0ED9
:10367000544B1C5400BF00204FF0E0229061072003
:10368000106100BFC820FFF701FD00F099FAFFF7B5
:1036900029FA0020FFF7EFFA0020FFF742FA4FF671
:1036A000FF70FFF738FA00F037FA00F0FFFA00F089
:1036B000E9F900F02DFB37223B21172000F057FBE2
:1036C00000F0B7FB00F0DEF9FFF75DFE00F070FCE4
:1036D0003DA001F023F80DE0FFF74FFE00F05AFB8C
:1036E000FFF7CEFDFFF752FDFFF7B7FEFFF714FE21
:1036F000FFF78AFEF0E710B501213448FEF7E9F83C
:10370000002832D001213148FEF7F4F83048007823
:10371000401CC0B22E4908700A2803D1002008704E
:10372000FFF7BCFC2B48007860B12B480088401C98
:1037300080B229490880C82804D1002008800120CF
:10374000264908702648007878B126480078401C41
:10375000C0B224490870322807D1002020490870DF
:103760002049087001202049087010BD10B540F2B2
:1037700025511E48FEF74AFB88B11C48FEF7C6FAE1
:10378000C1B20D4802780078401C0B4B18700448F9
:10379000815401201249087000201249087010BDA0
:1037A000980000209A9999999999B93F3C00002076
:1037B0006F6B0D0A00000000680000200000002070
:1037C00018ED00E000E400E00D00000000080040FB
:1037D0003400002042000020360000203500002088
:1037E000690000206A0000206B00002000440040B7
:1037F000704700BFFEE700BFFEE700BFFEE700BF67
:10380000FEE770477047704702480068401E014954
:10381000086070473000002008B58020ADF8000037
:1038200002208DF8020028208DF803006946B9486F
:10383000FCF7C8FD08BD08B58020ADF800000220E7
:103840008DF8020010208DF803006946B148FCF79E
:10385000B9FD08BD10B5044624B18021AD48FCF780
:103860005EFE03E08021AB48FCF75BFE10BD10B5A7
:10387000044624B14021A748FCF751FE03E0402153
:10388000A448FCF74EFE10BD10B58021A148FCF7FE
:103890002CFE10BD002100E0491C8142FCD3704782
:1038A00010B50120FFF7D6FF4FF4FA70FFF7F2FFD3
:1038B0000120FFF7DCFF4FF4FA70FFF7EBFF002069
:1038C000FFF7C8FF4FF4FA70FFF7E4FF0020FFF79F
:1038D000CEFF4FF4FA70FFF7DDFF10BD10B50020EA
:1038E000FFF7C5FF4FF4FA70FFF7D4FF0020FFF792
:1038F000B1FF4FF4FA70FFF7CDFF0120FFF7B7FFDC
:103900004FF4FA70FFF7C6FF0120FFF7A3FF4FF453
:10391000FA70FFF7BFFF10BD10B50524FFF77CFF5D
:103920004FF4FA70FFF7B6FF0120FFF7A0FF4FF446
:10393000FA70FFF7AFFF0CE0601E84B24FF4FA702C
:10394000FFF7A8FF2CB9FFF776FFFFF7C7FF0020AE
:1039500010BDFFF799FF0028EED1FFF76CFF0020A4
:10396000FFF785FF4FF4FA70FFF794FF0120EFE7B0
:1039700010B50020FFF76EFF4FF4FA70FFF78AFFD3
:103980004FF4FA70FFF786FF0120FFF770FF4FF446
:10399000FA70FFF77FFF0020FFF769FF4FF4FA701E
:1039A000FFF778FF10BD10B50120FFF753FF4FF46C
:1039B000FA70FFF76FFF0120FFF759FF4FF4FA701D
:1039C000FFF768FF0020FFF752FF4FF4FA70FFF790
:1039D00061FF10BD70B5044608251BE00020FFF70D
:1039E00046FF4FF4FA70FFF755FF04F08000FFF731
:1039F00031FF4FF4FA70FFF74DFF6006040E4FF4ED
:103A0000FA70FFF747FF0120FFF731FF4FF4FA701C
:103A1000FFF740FF281EA5F10101CDB2DED1FFF76F
:103A200026FF4FF4FA70FFF735FF70BD70B508251B
:103A30000024FFF7F1FE16E06006040E0020FFF7F9
:103A400016FF4FF4FA70FFF725FF4FF4FA70FFF7F7
:103A500021FF0120FFF70BFF4FF4FA70FFF71AFF69
:103A6000FFF712FF0443281EA5F10101CDB2E3D1F7
:103A7000FFF7FDFE4FF4FA70FFF70CFFFFF7DBFED8
:103A8000204670BD08B501210820FCF757FFC02073
:103A9000ADF8000002208DF8020010208DF8030020
:103AA00069461C48FCF78EFC08BD70B505460C46FF
:103AB000FFF7F6FEA020FFF78DFFFFF72DFF28464A
:103AC000FFF788FFFFF728FF2046FFF783FFFFF788
:103AD00023FFFFF703FF70BD70B50446FFF7E0FE5C
:103AE000A020FFF777FFFFF717FF2046FFF772FFD1
:103AF000FFF712FFFFF7D4FEA120FFF76BFFFFF7E0
:103B00000BFFFFF793FF0546FFF74DFFFFF7E6FEBC
:103B1000284670BD000C014008B501210C20FCF7BF
:103B20000DFF40F20110ADF8000004208DF80300F5
:103B300069461E48FCF746FC0620ADF800006946C1
:103B40001B48FCF73FFC08BD70B5F0240121174865
:103B5000FCF7CBFC05464FF480711448FCF7C5FC1C
:103B600045EA400502211248FCF7BFFC45EA800502
:103B700004210F48FCF7B9FC45EAC0002043C4B259
:103B800084F0FF040B480078604020400A49087028
:103B90000CB9012000E00020064909786140084086
:103BA000064908700348047070BD00000008014019
:103BB000000C01406C0000206D0000206E00002011
:103BC00008B501213020FCF7B9FE4FF47F40ADF875
:103BD000000003208DF8020010208DF803006946D4
:103BE0002548FCF7EFFB0420ADF8000069462348A8
:103BF000FCF7E8FB2048C06840F47F401E49C860DD
:103C00001E480C30006840F004001C490C3108606C
:103C10000846006820F00400086008BD012905D0AE
:103C2000154AD2680243144BDA6004E0124AD268A3
:103C30008243114BDA60114A0C32126842F00402DE
:103C40000E4B0C331A601A46126822F004021A60F6
:103C500070470949C9684140074AD16007490C319A
:103C6000096841F00401054A0C32116011460968E7
:103C700021F0040111607047001001400014014060
:103C800010B501210420FCF766FE10BD08B51E200A
:103C90008DF8000000208DF801008DF80200012051
:103CA0008DF803006846FCF7B2FE08BD3EB500245F
:103CB000FFF7E6FFFFF7EAFF124800681249B0FB82
:103CC000F1F0401E84B240F2E730ADF80400ADF8E8
:103CD00000400020ADF80600ADF8020069460B4830
:103CE000FCF7D2FF012221460848FDF7D0FB012254
:103CF00011460648FDF73FFB01210448FDF720FB74
:103D00003EBD00000000002040420F0000080040BF
:103D100010B501214FF0C050FCF71DFE0120FDF74A
:103D20005AFEFDF7EBFD0120FCF78EFD00BF612080
:103D3000FCF7D9FC0028FAD04FF40070FCF787FD9F
:103D40000120FCF78AFDFEF732FBFEF727FB01217D
:103D50000846FEF7C7FAFEF721FB49F64040FEF79A
:103D6000F7FAFEF71BFB0020FDF7D3FD10BD70B581
:103D700004460D461646FEF711FB4FF461616143A0
:103D8000C5EB051201EB82018819FEF7D4FAFEF7A4
:103D900005FB70BD10B5FEF7C5FA04461348844212
:103DA00004D10020FEF7C7FAFEF7F8FA4FF461607D
:103DB000B4FBF0F00E4908604FF46160B4FBF0F121
:103DC00000FB11403C21B0FBF1F00A4908604FF4C0
:103DD0006160B4FBF0F100FB11403C21B0FBF1F25B
:103DE00001FB12000449086010BD00008051010071
:103DF00070000020740000207800002010B54FF4FF
:103E00008040FCF7FFFC01210846FCF78AFD0121F8
:103E10004FF40270FCF792FD10BD08B50120ADF81B
:103E2000000000208DF8030069463F48FCF7CAFAFD
:103E300008BD10B5FFF7E2FFFFF7EFFF3B48FEF7C5
:103E4000F5FA3B483B4908603B48486000208860E1
:103E50000120C8600020086148614FF480708861CB
:103E60008000C86120200862000248620020886249
:103E70002E48FEF77DFB01212C48FEF7A4FB002015
:103E80002E4908600120087148714FF46020886055
:103E90000020C8600120087425484C38FEF721F83E
:103EA00005230122082122484C38FEF7B2F80121EF
:103EB0001F484C38FEF74CF801211D484C38FEF7DE
:103EC0003CF81B484C38FEF75AF800BF18484C38ED
:103ED000FEF75AF80028F9D115484C38FEF75EF87D
:103EE00000BF13484C38FEF75EF80028F9D10121D5
:103EF0000F484C38FEF761F810BD2DE9F0470E4829
:103F0000008800F0C5F9064600220D4B00F040F98C
:103F100004464FF066320B4B00F0C8F8804600F0C4
:103F200003FABDE8F0870000000C014008000240E1
:103F30004C240140C00000207C000020AC00002088
:103F40000000B04066660A4010B501210520FCF76C
:103F5000F5FC01214804FCF7FEFC10BD08B5082063
:103F6000ADF8000004208DF8030069462B48FCF7EB
:103F700029FA0420ADF8000003208DF80200182073
:103F80008DF8030069462548FCF71CFA08BD08B502
:103F90004FF4E060FCF736FD26208DF8000001208C
:103FA0008DF802008DF803006846FCF730FD08BD6F
:103FB0001FB5FFF7C9FFFFF7EAFFFFF7CFFF4FF489
:103FC000165000900020ADF80400ADF80600ADF8E2
:103FD0000800ADF80C000C20ADF80A006946104846
:103FE000FDF797FD012240F225510D48FDF729FE0E
:103FF00001210B48FDF719FE1FBD70B504460D46A3
:10400000E1B20748FDF77EFE00BF40210448FDF7FE
:10401000E7FE0028F9D0204670BD000000080140EE
:1040200000440040D2B201E000F8012B491EFBD24F
:1040300070470022F6E710B513460A4604461946B3
:10404000FFF7F0FF204610BD80EA010210B502F034
:104050000043400022D04A001FD0010E01EB126144
:10406000C0F35600C2F3560240F4000042F40002CE
:10407000A0FB022000047F39140400D0401C50EA49
:10408000124001D44000491EC2B20C0604EBD0100D
:10409000401C4008802A02D003E0002010BD20F020
:1040A0000100002900DA0020184310BD2DE9FE4F61
:1040B00081EA030404F0004421F0004100944FF031
:1040C000000B23F0004350EA01045ED052EA0304DF
:1040D0005BD0C3F30A54C1F30A552C44A4F2F33461
:1040E0000194A0FB0254C1F3130141F48011C3F306
:1040F000130343F4801301FB024400FB034E840AC4
:10410000970A44EA815447EA8357A4FB076802955B
:104110008D0A05FB07854FEA932C04FB0C542705F9
:10412000029D4FEA065847EA1637B5EB08056EEBD5
:10413000070C870E920E47EA811742EA8312A7FB0B
:104140000201B6EB0B0164EB00042B0D43EA0C33C8
:104150005E1844EB1C50DA465146E7FB0201C5F3FA
:1041600013044FEA0B3343EA14534FEA0432019C21
:1041700043EA0603A4F10C040294009CCDE900B4C8
:1041800000F07BF903B0BDE8F08F00200146F9E7AD
:104190002DE9F04D81EA030404F0004B21F00045C5
:1041A00014464FF0000A23F0004150EA050220D0E7
:1041B00054EA01021DD0C5F30A570246C5F31303A2
:1041C000C1F31300C1F30A5640F4801543F4801381
:1041D000A7EB0608101BD64608F2FD3873EB050066
:1041E00002D308F1010801E092185B41B8F1000F19
:1041F00003DA00200146BDE8F08D00204FF4801165
:10420000064684460EE0171B73EB050705D3121B09
:1042100063EB050306434CEA010C49084FEA300002
:1042200092185B4150EA0107EDD152EA030012D027
:1042300082EA040083EA0501084305D0101BAB4164
:1042400006D20122002306E000224FF0004302E0E4
:104250006FF0010253101AEB06004CEB085110EB03
:104260000A0041EB0B01BDE8F04D00F0F7B80EB5C8
:10427000C10F80EAE0700844CA07002140F23343CE
:104280008DE80E000A460B4600F0F7F803B000BDBB
:104290000EB540F2334102910021CDE900110A46EA
:1042A0000B4600F0EAF803B000BD20F00040C10D5D
:1042B000C0F3160040F400007F2901DA00207047A7
:1042C000962903DCC1F19601C840704796398840B1
:1042D000704700F0004230F000400AD0C10D01F5F7
:1042E0006071C0F3160042EA0151C2084007114351
:1042F000704700200146704730B5041E71F100047C
:1043000004DB4FF00044404264EB0101141E73F1E2
:10431000000405DB1C464FF00043524263EB0403EC
:10432000994208BF904230BD01F0004330B421F003
:10433000004150EA010206D00A0DA2F56072C1F3F5
:104340001301002A02DC30BC00207047440F44EA0D
:10435000C104C100E01830BC00EBC25000F047B807
:1043600030B50B46014600202022012409E021FA45
:1043700002F59D4205D303FA02F5491B04FA02F542
:104380002844151EA2F10102F1DC30BD2DE9F05FD9
:104390000546002092469B468846064681464024B4
:1043A0001BE0284641464746224600F094F9534612
:1043B0005A46C01A914110D311461846224600F0C1
:1043C0007BF92D1A67EB01084F4622460120002198
:1043D00000F072F917EB00094E41201EA4F1010410
:1043E000DFDC484631462A464346BDE8F09F0029B7
:1043F000A8BF7047401C490008BF20F0010070476B
:1044000010B4B0FA80FC00FA0CF050EA010404BFCA
:1044100010BC704749B1CCF1200421FA04F411FA20
:104420000CF118BF012121430843A3EB0C01CB1D64
:104430004FEA00614FEA102042BF002010BC7047D5
:1044400000EBC35010440029A4BF10BC7047401CAF
:10445000490008BF20F0010010BC704710B5141EC1
:1044600073F1000408DA401C41F1000192185B412D
:104470001A4301D120F0010010BD2DE9F04D924604
:104480009B4611B1B1FA81F202E0B0FA80F220321B
:10449000904600F011F904460F4640EA0A0041EA4E
:1044A0000B0153465A46084313D0114653EA010004
:1044B00019D0C8F14002504600F00DF905460E46ED
:1044C00050465946424600F0F7F8084305D001200F
:1044D00004E020463946BDE8F08D0020054346EA59
:1044E000E0762C4337430A986305E40AA0EB080002
:1044F0000022FD0A44EA47540A3002D50020014652
:10450000E9E7010510196941DDE90845001969412C
:10451000BDE8F04DA2E72DE9FE4F804681EA030099
:10452000C00F0C46009021F0004123F00045B8EB8D
:104530000200A94105D24046214690461C460B4642
:10454000024623F00040104347D0270DC7F30A006E
:10455000C3F30A510290401A019040286BDAC3F36A
:10456000130040F4801B0098924620B10023D2EB48
:10457000030A63EB0B0B01985946C0F14002504609
:1045800000F09AF806460D4650465946019A00F04A
:10459000B2F810EB08006141002487EA115284EA66
:1045A000E7731A4340D0009A62B3019A012A4FEA96
:1045B000075215DC001B61EB02014FF0004202EADA
:1045C0000752CDE90042001C41F5801132462B46CE
:1045D000FFF753FF03B0BDE8F08F40462146F9E7EF
:1045E000001B61EB0201001C41F5801300185B41C8
:1045F0002018A2F5001747EB030140EAD570B61961
:104600006D4111E06D084FEA360645EAC0754FEA84
:104610000752001B61EB0201001C41F580114908A3
:104620004FEA30000019514132462B4603B0BDE835
:10463000F04FFFF713BF0098012240000023D0EB9A
:10464000020263EBE073009821464FEAE074B8EB96
:10465000000061EB0401E9E783F000435BE781F0D0
:10466000004158E7C1F30A52C1F3130140F2FF338E
:1046700041F480119A4202DA00200146704740F26C
:1046800033439A42A2F2334202DC524200F023B892
:1046900000F012B8064C074D06E0E06840F0010358
:1046A00094E8070098471034AC42F6D3FBF722FD9C
:1046B000F061000810620008202A04DB203A00FAAA
:1046C00002F1002070479140C2F1200320FA03F369
:1046D000194390407047202A04DB203A21FA02F067
:1046E0000021704721FA02F3D040C2F1200291402C
:1046F000084319467047202A06DBCB17203A41FAB7
:1047000002F043EAE07306E041FA02F3D040C2F15E
:104710002002914008431946704700000FB4054B32
:1047200010B503A9044A029800F0DEF810BC5DF849
:1047300014FB0000FB3F0008800000200FB4084B72
:1047400010B504A902AA039800F0CEF8044602A905
:10475000002000F060FC204610BC5DF814FB000057
:104760001750000802E008C8121F08C1002AFAD139
:1047700070477047002001E001C1121F002AFBD1E1
:10478000704700002DE9FF5FDDE90220010DDDF833
:1047900038B0024318D044F61050A1F2FF31414323
:1047A0000D140F98012820D0A5EB0B00401C5FEAE8
:1047B000000A4FF00004474EDFF81C91A046504617
:1047C00016D5CAF1000728E00F98012443A201285A
:1047D00008D0002100980F9BC0E90021C0E90243E6
:1047E000BDE8FF9F6FEA0B01F4E7CBF10000DEE7C5
:1047F000074612E0F80707D02246334640464946AE
:10480000FFF754FC80468946224633461046194637
:10481000FFF74CFC04460E467F10002FEAD1DDE97D
:104820000201BAF1000F42464B4602DAFFF73EFCA6
:1048300001E0FFF7ADFC04460E460022284BFFF7CF
:104840005BFD03D84FF0FF30014607E00022254B07
:1048500020463146FFF75FFEFFF704FF102409E012
:10486000002C0ADB0A220023FFF790FD019B303267
:104870001A55641E50EA0102F2D1641C019AC4F177
:10488000110314440F9A012A03D0012208430DD1C9
:104890000AE0084304D000204FF0110B0F9080E78E
:1048A000A3EB0B056D1E0DE05B4504DD4FF0000230
:1048B00005F1010504E003DA4FF00002A5F101055E
:1048C000002AECD000980F99C0E90231C0E90045F8
:1048D00086E70000000024400000F03F30000000A8
:1048E0000000F0430000E03F2DE9FF4F95B09B46EC
:1048F0008946064600250FE2252877D10024274661
:10490000F84A0121059400E0044316F8013F203BDA
:1049100001FA03F01042F7D130782A2811D06FF055
:104920002F033078A0F13002092A16D8059A44F0F6
:10493000020402EB820203EB42021044761C059053
:10494000EFE759F8042B0592002A03DA504244F4A9
:104950000054059044F00204761C30782E2816D1BD
:1049600016F8010F44F004042A280DD06FF02F022E
:104970003078A0F13003092B09D807EB870302EB4D
:104980004303C718761CF3E759F8047B761C30788C
:104990006C280FD006DC4C2817D068280DD06A2868
:1049A00014D104E0742810D07A280FD10DE044F41B
:1049B00000140AE044F4801401E044F440147278D6
:1049C000824202D104F58014761C761C3078662869
:1049D0000BD013DC582877D009DC002875D0452887
:1049E000F6D04628F4D047281AD19DE118E0632874
:1049F00035D0642879D0652812D195E1702873D01C
:104A000008DC6728F1D069286FD06E280DD06F2898
:104A100006D1B5E073282CD0752875D0782874D0CD
:104A20005A46179990476D1C75E1C4F3025002284D
:104A300009D003280DD0D9F8001004280DD00D603E
:104A400009F1040967E1D9F80010EA17C1E9005239
:104A5000F6E7D9F800100D80F2E70D70F0E719F8CD
:104A6000041B8DF8001000208DF80100EA4601209B
:104A700003E059F804AB4FF0FF3061074FF000013D
:104A800002D40DE008F101018846B9420FDA8045F1
:104A9000F8DB1AF808100029F4D108E008F1010148
:104AA00088468142FADB1AF808100029F6D10598E9
:104AB0005B46A0EB080721463846179A00F094FAA7
:104AC000284400EB080507E04DE029E10DE01AF865
:104AD000010B5A4617999047B8F10108F7D25B4687
:104AE00021463846179A13E142E00A220092C4F3A5
:104AF00002524FF0000A022A08D059F804CB032AC8
:104B00004FEAEC710AD00DE029E02AE009F1070133
:104B100021F00702F2E802C1914609E00FFA8CFC8D
:104B20004FEAEC71042A03D14FFA8CFC4FEAEC7186
:104B3000002907DA0A460021DCF1000C61EB0201D2
:104B40002D2202E0220504D52B228DF8042001221B
:104B500003E0E20701D02022F7E7904659E00A215E
:104B600002E010220DE010214FF0000A00910BE04E
:104B700010224FF0000A44F004040827009203E0DA
:104B800008224FF0000A0092C4F30252022A05D014
:104B900059F804CB0021032A08D009E009F10701E4
:104BA00021F00702F2E802C1914605E01FFA8CFCF1
:104BB000042A01D10CF0FF0C4FF00008220728D581
:104BC000702806D0009B83F0100353EA0A0305D037
:104BD0000EE040228DF80420012208E05CEA010288
:104BE00006D030228DF804208DF805000222904670
:104BF000009B83F0080353EA0A030AD15CEA01022E
:104C000001D1620705D530228DF804204FF001084C
:104C10007F1E582804D034A003900EA802900DE007
:104C200036A0F9E753466046009AFFF7AFFB84468B
:104C30000398825C0298401E029002705CEA0100B8
:104C4000F0D1029806A9081A00F1200A600702D5DF
:104C500024F4803400E00127574502DDA7EB0A0069
:104C600000E0002000EB0A01009005984144401A42
:104C70000590E00306D45B462146179A059800F09C
:104C8000B3F90544002706E001A85A46C05D17990C
:104C900090476D1C7F1C4745F6DBE0030CD55B4657
:104CA0002146179A059800F09FF9054404E030204A
:104CB0005A46179990476D1C0099481E009000298C
:104CC000F5DC08E0029802995A460078491C0291E6
:104CD000179990476D1CBAF10001AAF1010AF1DCA5
:104CE00065E10000092801003031323334353637B0
:104CF0003839616263646566000000003031323328
:104D000034353637383941424344454600000000C7
:104D100000F058F90544761C307800287FF4ECAD9B
:104D200019B02846BDE8F08F620700D4062709F1C4
:104D3000070222F0070CFCE80223E14603F00048DA
:104D40005FEA080C02D00FF2702C0DE05FEA045C01
:104D500002D50FF2682C07E05FEAC47C02D00FF2A4
:104D6000602C01E0AFF2700C4FF0FF3823F00043ED
:104D7000CDF850C065280CD006DC452809D046285F
:104D80001DD047283DD13DE0662818D067287ED148
:104D900038E00021112F01DB112000E0781CCDE963
:104DA000000106A90EA8FFF7EDFCDDE90F010E9A40
:104DB00003910021009207F1010A04914DE04FF0A8
:104DC00000400097CDE9011006A90EA8FFF7DAFC14
:104DD000DDE90F0203920E9B11990022DDF80CA071
:104DE0000093049211B9791C00EB010AB7EB0A0099
:104DF00004D4C0F1FF3007F1010A0490AAEB0700C8
:104E0000019044E0012F00DA01270021112F01DD7C
:104E1000112000E03846CDE9000106A90EA8FFF7F1
:104E2000B1FCDDE90F010E9A03910021049100927B
:104E3000BA4621070CD40399514500DA8A46BAF1E3
:104E4000010F05DD009AAAF10101515C302908D05B
:104E5000B84202DA10F1040F06DA0121CDE901109F
:104E600015E0AAF10101E9E7002805DC04990144F5
:104E70000491AAEB000102E0411C514500DD8A4685
:104E80000499401A401C01904FF000400290200706
:104E900004D40198504501DBCDF8048000208DF842
:104EA0004F0002980DF14F07B0F1004F25D02B2095
:104EB0000E9002984FF0020800280CDA404202904F
:104EC0002D200E9007E00A210298FFF749FA3031B1
:104ED000029007F8011DB8F10001A8F10108F2DC09
:104EE00002980028EFD1791E0E980870307800F0F3
:104EF000200040F0450007F8020D12A8C01B00F189
:104F000007081498007800B1012000EB0A0101980D
:104F100001EBE07105984144401A401E0590E00302
:104F200006D45B462146179A059800F05DF80544C3
:104F30001498007818B15A46179990476D1CE003F1
:104F400024D55B462146179A059800F04DF8054494
:104F50001CE00498002807DBDDE90301884203DD3B
:104F60000098405C179901E0179930205A46904705
:104F7000049805F10105401C04900198401E019021
:104F800004D12E205A46179990476D1CBAF10001A2
:104F9000AAF1010ADDDC05E017F8010B5A46179962
:104FA00090476D1CB8F10001A8F10108F4DC5B46E4
:104FB0002146179A0598ABE62D0000002B00000053
:104FC000200000002DE9F041044600251E4617464A
:104FD000880404D405E039462020B0476D1C641EC7
:104FE000F9D52846BDE8F0812DE9F04104460025B9
:104FF0001E469046C80301D5302700E020278804CC
:1050000004D505E041463846B0476D1C641EF9D50D
:105010002846BDE8F0810A68531C0B601070704789
:105020000000000000000000000000000000000080
:105030000000000000000000000000000000000070
:105040000000000000000000000000000000000060
:1050500000008001800180018001800180018001C9
:10506000800180018001800180018001000000003A
:10507000800180010000000000000000000000002E
:1050800000000000CC00CC00CC00CC00CC00CC0058
:105090000000000000000000000000000000000010
:1050A0000000000000000000000000000000000000
:1050B000000000000000000000000000600C600C18
:1050C000600C30063006FE1FFE1F3006380718033E
:1050D000FE1FFE1F180318038C018C018C010000B9
:1050E00000008000E003F80F9C0E8C1C8C188C00D4
:1050F0009800F801E007800E801C8C188C189C1812
:10510000B80CF00FE00380008000000000000000F9
:105110000000000000000E181B0C110C11061106F7
:10512000110311039B018E01C038C06C60446044C0
:10513000304430441844186C0C3800000000000063
:105140000000E001F0033807180618063003F001EC
:10515000F000F8009C310E33061E061C061C063FAC
:10516000FC73F021000000000000000000000000BF
:10517000000000000C000C000C000C000C000C00E7
:10518000000000000000000000000000000000001F
:10519000000000000000000000000000000000000F
:1051A0000000000200038001C000C0006000600039
:1051B000300030003000300030003000300030006F
:1051C00060006000C000C000800100030002000019
:1051D000000020006000C000800180010003000387
:1051E000000600060006000600060006000600068F
:1051F0000003000380018001C00060002000000067
:10520000000000000000000000000000C000C0001E
:10521000D806F807E001300338070000000000005E
:10522000000000000000000000000000000000007E
:10523000000000000000000000000000800180016C
:10524000800180018001FC3FFC3F800180018001E2
:10525000800180010000000000000000000000004C
:10526000000000000000000000000000000000003E
:10527000000000000000000000000000000000002E
:10528000000080018001000100018000000000009A
:10529000000000000000000000000000000000000E
:1052A0000000000000000000E007E0070000000030
:1052B00000000000000000000000000000000000EE
:1052C00000000000000000000000000000000000DE
:1052D00000000000000000000000000000000000CE
:1052E0000000C000C000000000000000000000003E
:1052F0000000000C000C000600060006000300037E
:1053000000038003800180018001C000C000C00054
:1053100060006000000000000000000000000000CD
:105320000000E003F007380E180C0C180C180C18CD
:105330000C180C180C180C180C180C18180C380E2B
:10534000F007E00300000000000000000000000083
:10535000000000018001C001F00198018801800176
:105360008001800180018001800180018001800135
:10537000800180010000000000000000000000002B
:105380000000E003F80F180C0C180C180018001897
:10539000000C000600038001C0006000300018000F
:1053A000FC1FFC1F000000000000000000000000C7
:1053B0000000E001F807180E0C0C0C0C000C0006A5
:1053C000C003C007000C001800180C180C18180CAB
:1053D000F807E003000000000000000000000000EB
:1053E0000000000C000E000F000F800DC00C600CC0
:1053F000600C300C180C0C0CFC3FFC3F000C000C3B
:10540000000C000C00000000000000000000000084
:105410000000F80FF80F180018000C00EC03FC0750
:105420001C0E001C0018001800180C181C0C180E7C
:10543000F807E0030000000000000000000000008A
:105440000000C007F00F381C181818000C00CC031F
:10545000EC0F3C0E1C1C0C180C180C18181C380EE9
:10546000F007E00300000000000000000000000062
:105470000000FC1FFC1F000C000600060003800358
:105480008001C001C000E0006000600070003000DA
:1054900030003000000000000000000000000000AC
:1054A0000000E003F007380E180C180C180C380632
:1054B000F007F007180C0C180C180C180C18380C06
:1054C000F80FE003000000000000000000000000F2
:1054D0000000E003F007380E1C0C0C180C180C1818
:1054E0001C1C381EF81BE0190018000C000C1C0EC8
:1054F000F807F001000000000000000000000000BC
:105500000000000000000000000000008001800199
:10551000000000000000000000000000000000008B
:105520008001800100000000000000000000000079
:105530000000000000000000000000008001800169
:10554000000000000000000000000000000000005B
:1055500080018001000100018000000000000000C7
:10556000000000000000000000000000000000003B
:105570000010001C800FE003F8001800F800E003A2
:10558000800F001C00100000000000000000000060
:10559000000000000000000000000000000000000B
:1055A000F81F000000000000F81F000000000000CD
:1055B00000000000000000000000000000000000EB
:1055C00000000000000000000000000000000000DB
:1055D00008003800F001C007001F0018001FC007B6
:1055E000F00138000800000000000000000000008A
:1055F0000000E003F80F180C0C180C180018000C31
:10560000000600038001C000C000C00000000000D0
:10561000C000C0000000000000000000000000000A
:1056200000000000E00718180420C229224A114493
:1056300009440944094409221113E20C02400420E0
:105640001818E00700000000000000000000000043
:10565000000080038003C006C006C006600C600C1A
:10566000301830183018F83FF83F1C700C600C6090
:1056700006C006C00000000000000000000000009E
:105680000000FC03FC0F0C0C0C180C180C180C0C74
:10569000FC07FC0F0C180C300C300C300C300C18C4
:1056A000FC1FFC07000000000000000000000000DC
:1056B0000000C007F01F38381C300C700660060070
:1056C0000600060006000600060006600C701C308E
:1056D000F01FE007000000000000000000000000D4
:1056E0000000FE03FE0F060E0618061806300630F0
:1056F0000630063006300630063006180618060E4C
:10570000FE0FFE030000000000000000000000008B
:105710000000FC3FFC3F0C000C000C000C000C00D7
:10572000FC1FFC1F0C000C000C000C000C000C00FB
:10573000FC3FFC3F000000000000000000000000F3
:105740000000F83FF83F1800180018001800180073
:10575000F81FF81F1800180018001800180018008B
:105760001800180000000000000000000000000009
:105770000000E00FF83F3C780E6006E007C0030031
:10578000030003FE03FE03C007C006C00EC03CF0CA
:10579000F83FE00F000000000000000000000000E3
:1057A00000000C300C300C300C300C300C300C3055
:1057B000FC3FFC3F0C300C300C300C300C300C300B
:1057C0000C300C3000000000000000000000000061
:1057D0000000800180018001800180018001800142
:1057E00080018001800180018001800180018001B1
:1057F00080018001000000000000000000000000A7
:10580000000000060006000600060006000600066E
:1058100000060006000600060006180618063807EF
:10582000F003E001000000000000000000000000A4
:10583000000006300618060C060606038601C600A0
:1058400066007600DE008E0106030606060C0618CA
:1058500006300660000000000000000000000000AC
:105860000000180018001800180018001800180090
:105870001800180018001800180018001800180068
:10588000F81FF81F000000000000000000000000EA
:1058900000000EE01EF01EF01EF036D836D836D8C6
:1058A00036D866CC66CC66CCC6C6C6C6C6C6C6C624
:1058B00086C386C300000000000000000000000056
:1058C00000000C301C303C303C306C306C30CC3044
:1058D000CC308C310C330C330C360C360C3C0C3C7D
:1058E0000C380C3000000000000000000000000038
:1058F0000000E007F81F1C380E70066003C003C0EC
:1059000003C003C003C003C003C006600E701C3890
:10591000F81FE00700000000000000000000000089
:105920000000FC0FFC1F0C380C300C300C300C301D
:105930000C18FC1FFC070C000C000C000C000C00E9
:105940000C000C000000000000000000000000003F
:105950000000E007F81F1C380E70066003E003C06B
:1059600003C003C003C003C007E006630E3F1C3C36
:10597000F83FE0F700C00000000000000000000059
:105980000000FE0FFE1F06380630063006300638CF
:10599000FE1FFE0706030606060C0618061806304C
:1059A000063006600000000000000000000000005B
:1059B0000000E003F80F1C0C0C180C180C001C0065
:1059C000F803E00F001E0038063006300E301C1CB5
:1059D000F80FE007000000000000000000000000D9
:1059E0000000FE7FFE7F8001800180018001800138
:1059F000800180018001800180018001800180019F
:105A00008001800100000000000000000000000094
:105A100000000C300C300C300C300C300C300C30E2
:105A20000C300C300C300C300C300C300C301818A2
:105A3000F81FE00700000000000000000000000068
:105A4000000003600630063006300C180C180C18E5
:105A5000180C180C380E300630067007600360030F
:105A6000C001C001000000000000000000000000B4
:105A700000000360C361C361C3616633663366338C
:105A80006633663366336C1B6C1B6C1B2C1A3C1E16
:105A9000380E380E0000000000000000000000007A
:105AA00000000FE00C7018303018700C600EC0074A
:105AB00080038003C003E006700C301C18180C3003
:105AC0000E6007E000000000000000000000000081
:105AD000000003C006600C301C383818300C60061B
:105AE000E007C00380018001800180018001800106
:105AF00080018001000000000000000000000000A4
:105B00000000FC7FFC7F006000300018000C0006E5
:105B100000038001C0006000300018000C00060087
:105B2000FE7FFE7F0000000000000000000000007B
:105B30000000E003E00360006000600060006000BF
:105B40006000600060006000600060006000600055
:105B500060006000600060006000E003E00300009F
:105B6000000030003000600060006000C000C00035
:105B7000C000C00180018001800100030003000318
:105B80000006000600000000000000000000000009
:105B90000000E003E0030003000300030003000330
:105BA00000030003000300030003000300030003DD
:105BB00000030003000300030003E003E003000010
:105BC00000000000C001C0016003600360033006F4
:105BD0003006180C180C0000000000000000000047
:105BE00000000000000000000000000000000000B5
:105BF00000000000000000000000000000000000A5
:105C00000000000000000000000000000000000094
:105C10000000FFFFFFFF0000000000000000000088
:105C200000000C000C000C000C000C000C0000002C
:105C30000000000000000000000000000000000064
:105C40000000000000000000000000000000000054
:105C5000000000000000000000000000F003F80752
:105C60001C0C0C0C000FF00FF80C0C0C0C0C1C0F87
:105C7000F80FF01800000000000000000000000015
:105C8000000018001800180018001800D803F80FBA
:105C9000380C181818181818181818181818380C5C
:105CA000F80FD80300000000000000000000000012
:105CB000000000000000000000000000C003F0072A
:105CC000300E180C1800180018001800180C300EB0
:105CD000F007C0030000000000000000000000000A
:105CE000000000180018001800180018C01BF01F52
:105CF000301C181818181818181818181818301CEC
:105D0000F01FC01B000000000000000000000000A9
:105D1000000000000000000000000000C003F00FC1
:105D2000300C1818F81FF81F180018003818301C0D
:105D3000F00FC0070000000000000000000000009D
:105D40000000800FC00FC000C000C000F007F007C7
:105D5000C000C000C000C000C000C000C000C00043
:105D6000C000C000000000000000000000000000B3
:105D7000000000000000000000000000E00DF80F2F
:105D8000180E0C0C0C0C0C0C0C0C0C0C0C0C180E37
:105D9000F80FE00D000C0C0C1C06F807F0010000D9
:105DA000000018001800180018001800D807F80F95
:105DB000381C18181818181818181818181818183F
:105DC0001818181800000000000000000000000073
:105DD0000000C000C000000000000000C000C000C3
:105DE000C000C000C000C000C000C000C000C000B3
:105DF000C000C00000000000000000000000000023
:105E00000000C000C000000000000000C000C00092
:105E1000C000C000C000C000C000C000C000C00082
:105E2000C000C000C000C000C000F8007800000042
:105E300000000C000C000C000C000C000C0C0C06FC
:105E40000C038C01CC006C00FC009C018C030C0347
:105E50000C060C0C00000000000000000000000018
:105E60000000C000C000C000C000C000C000C000F2
:105E7000C000C000C000C000C000C000C000C00022
:105E8000C000C00000000000000000000000000092
:105E90000000000000000000000000007C3CFF7ECD
:105EA000C7E383C183C183C183C183C183C183C16C
:105EB00083C183C10000000000000000000000005A
:105EC0000000000000000000000000009807F80F2C
:105ED000381C18181818181818181818181818181E
:105EE0001818181800000000000000000000000052
:105EF000000000000000000000000000C003F00FE0
:105F0000300C181818181818181818181818300CF9
:105F1000F00FC003000000000000000000000000BF
:105F2000000000000000000000000000D803F80F8F
:105F3000380C181818181818181818181818380CB9
:105F4000F80FD803180018001800180018000000F7
:105F5000000000000000000000000000C01BF01F57
:105F6000301C181818181818181818181818301C79
:105F7000F01FC01B001800180018001800180000BF
:105F8000000000000000000000000000B007F00367
:105F90007000300030003000300030003000300041
:105FA0003000300000000000000000000000000091
:105FB000000000000000000000000000E003F0030B
:105FC000380E180C3800F003C007000C180C380EFF
:105FD000F007E003000000000000000000000000E7
:105FE000000000008000C000C000C000F007F00703
:105FF000C000C000C000C000C000C000C000C000A1
:10600000C007800700000000000000000000000042
:106010000000000000000000000000001818181820
:106020001818181818181818181818181818381CCC
:10603000F01FE01900000000000000000000000058
:106040000000000000000000000000000C18180C08
:10605000180C180C3006300630066003600360032D
:10606000C001C001000000000000000000000000AE
:10607000000000000000000000000000C141C1411C
:10608000C3616363636363633636363636361C1C1E
:106090001C1C1C1C00000000000000000000000090
:1060A0000000000000000000000000001C38381C48
:1060B000300C600660036003600360036006300C10
:1060C000381C1C3800000000000000000000000028
:1060D0000000000000000000000000001830301830
:1060E00030187018600C600CE00CC006C00680030D
:1060F0008003800380018001C001F0007000000077
:10610000000000000000000000000000FC1FFC1F59
:10611000000C000600038001C00060003000180081
:10612000FC1FFC1F00000000000000000000000039
:10613000000000038001C000C000C000C000C0001B
:10614000C00060006000300060004000C000C0007F
:10615000C000C000C000C0008001000300000000BB
:1061600000008001800180018001800180018001A8
:106170008001800180018001800180018001800117
:106180008001800180018001800180018001000088
:1061900000006000C000C00180018001800180011A
:1061A000800100030003000600030001800180015C
:1061B0008001800180018001C000600000000000BB
:1061C00000000000000000000000000000000000CF
:1061D000F010F81F080F0000000000000000000091
:1061E00000000000000000000000000000000000AF
:1061F00010620008000000208400000064470008CE
:1062000094620008840000206C04000074470008B9
:1062100000A24A0400000000000000000102030484
:10622000060708090000000001020304010203043C
:1062300006070809020406080000FFFF000000002E
:10624000000000000000000000000000CDCCCC3DAC
:1062500000000100170000003B00000037000000B4
:10626000000000000000000000000000000000002E
:10627000000000000000000000000000000000001E
:10628000000000000000000000000000000000000E
:04629000000000000A
:04000005080000ED02
:00000001FF
