:020000040800F2
:10000000E8060020910100082129000823290008A2
:10001000272900082B2900082F29000800000000CC
:10002000000000000000000000000000352900086A
:10003000332900080000000037290008392900088A
:10004000AB010008AB010008AB010008AB010008E0
:10005000AB010008AB010008AB010008AB010008D0
:10006000AB010008AB010008AB010008AB010008C0
:10007000AB010008AB010008AB010008AB010008B0
:10008000AB010008AB010008AB010008AB010008A0
:10009000AB010008AB010008AB010008AB01000890
:1000A000AB010008AB010008AB010008AB01000880
:1000B000112B0008BF2D0008AB010008AB010008A0
:1000C000AB010008AB010008AB010008AB01000860
:1000D000AB010008AB010008C12C0008AB0100080F
:1000E000AB010008AB010008AB01000800F002F80A
:1000F00000F03FF80AA090E8000C82448344AAF183
:100100000107DA4501D100F034F8AFF2090EBAE880
:100110000F0013F0010F18BFFB1A43F0010318473B
:10012000D04F0000F04F0000103A24BF78C878C1CB
:10013000FAD8520724BF30C830C144BF04680C60ED
:10014000704700000023002400250026103A28BF35
:1001500078C1FBD8520728BF30C148BF0B60704739
:10016000642902F01787002070471FB51FBD10B526
:1001700010BD03F095F81146FFF7F7FF02F026FBDC
:1001800003F0B3F803B4FFF7F2FF03BC03F0BAF8CF
:100190000948804709480047FEE7FEE7FEE7FEE71B
:1001A000FEE7FEE7FEE7FEE7FEE7FEE70448054957
:1001B000054A064B70470000AF020008ED0000083A
:1001C000E8000020E8060020E8020020E802002005
:1001D0000CB50020019000906C48006840F480301D
:1001E0006A49086000BF6948006800F40030009068
:1001F0000198401C0190009818B90198B0F5A06FC3
:10020000F1D16248006800F4003010B10120009084
:1002100001E0002000900098012843D15C4800686C
:1002200040F010005A4908600846006820F00300BA
:1002300008600846006840F00200086053484068C3
:10024000524948600846406848600846406840F4A3
:10025000806048600846406820F47C10486008468A
:10026000406840F4E81048600846006840F080703C
:10027000086000BF4548006800F000700028F9D011
:100280004248406820F00300404948600846406802
:1002900040F00200486000BF3C48406800F00C009D
:1002A0000828F9D10CBD10B5FFF792FF10BD10B5AD
:1002B0003648006840F0010034490860084640684C
:1002C00034490840314948600846006832490840CE
:1002D0002E4908600846006820F48020086008461F
:1002E000406820F4FE0048604FF41F008860FFF76C
:1002F000DAFF4FF000602949086010BD10B50021F9
:1003000000200022214B5B6803F00C0121B104297D
:1003100006D0082928D107E0214B224C236027E092
:100320001F4B204C236023E0184B5B6803F47010D4
:10033000164B5B6803F48032022303EB904022B932
:10034000194B4343174C23600DE0104B5B6803F4DB
:10035000003323B1144B4343124C236003E0104B92
:100360004343104C236003E00D4B0E4C236000BF51
:1003700000BF064B5B68C3F303130C4CE15C094BF5
:100380001B68CB40074C236010BD000000100240EA
:10039000002002400000FFF8FFFFF6FE08ED00E03D
:1003A00000127A000000002000093D000400002037
:1003B00031490143314A1160704770B50021002373
:1003C0000F22C47804B32D4C246804F4E064C4F50F
:1003D000E064210AC1F10403CA40447804FA03F13D
:1003E0008478144021430901254C0678A1550478EE
:1003F00004F01F050124AC4005786D11AD0005F136
:10040000E025C5F8004109E0047804F01F05012447
:10041000AC401C4D0678761145F8264070BD1A4A4E
:100420000A400243154B1B1F1A60704739B1134A2B
:10043000121D12680243114B1B1D1A6006E00F4A81
:10044000121D126882430D4B1B1D1A607047042851
:1004500008D14FF0E021096941F004014FF0E0229A
:10046000116107E04FF0E021096921F004014FF02C
:10047000E0221161704700000000FA050CED00E079
:1004800000E400E080E100E080FFFF1F10B50446BB
:10049000CC48844208D10121042000F02DFB00212A
:1004A000042000F029FB46E0C748844208D101211E
:1004B000082000F021FB0021082000F01DFB3AE09D
:1004C000C248844208D10121102000F015FB002110
:1004D000102000F011FB2EE0BD48844208D101211C
:1004E000202000F009FB0021202000F005FB22E085
:1004F000B848844208D10121402000F0FDFA0021D3
:10050000402000F0F9FA16E0B348844208D10121F6
:10051000802000F0F1FA0021802000F0EDFA0AE0DE
:10052000AE48844207D10121801500F0E5FA002190
:10053000A01500F0E1FA10BD10B50121084600F049
:10054000DBFA0021012000F0D7FA10BD2DE9F041BF
:10055000024600250026002000230024002791F8F1
:1005600003C00CF00F0591F803C00CF0100CBCF1A7
:10057000000F03D091F802C04CEA050591F800C0C5
:10058000BCF1000F31D0146800202BE04FF0010CBB
:100590000CFA00F3B1F800C00CEA03069E4220D129
:1005A00083004FF00F0C0CFA03F7BC4305FA03FC71
:1005B0004CEA040491F803C0BCF1280F06D14FF0B7
:1005C000010C0CFA00FCC2F814C00AE091F803C058
:1005D000BCF1480F05D14FF0010C0CFA00FCC2F839
:1005E00010C0401C0828D1D31460B1F800C0BCF181
:1005F000FF0F34DD546800202EE000F1080C4FF0AE
:10060000010808FA0CF3B1F800C00CEA03069E4298
:1006100021D183004FF00F0C0CFA03F7BC4305FA0D
:1006200003FC4CEA040491F803C0BCF1280F05D187
:1006300000F1080C08FA0CF8C2F8148091F803C015
:10064000BCF1480F07D100F1080C4FF0010808FA7F
:100650000CF8C2F81080401C0828CED35460BDE8C6
:10066000F0814FF6FF710180022181700421C17079
:1006700070470246002093680B400BB1012000E058
:10068000002070470146886880B27047024600200B
:10069000D3680B400BB1012000E0002070470146F9
:1006A000C86880B2704701617047416170470AB104
:1006B000016100E041617047C16070474FF48032D2
:1006C0000A43826181618261826982697047024660
:1006D0000020434B18684FF68073184040EA021020
:1006E00008433F4B186070473E49C8617047F0B5FA
:1006F0000A46002300240021002500F00046B6F140
:10070000004F02D1364EF16901E0354E7168C0F3F9
:10071000034583B200F44016B6F5401F08D121F01E
:1007200070612F4E766826F070662D4F7E6012E065
:1007300000F48016B6F5801F06D1032606FA05F4EC
:10074000A14341F0706106E0460D360103FA06F65A
:10075000B14341F0706122B1460D360103FA06F64D
:10076000314300F00046B6F1004F02D11C4EF1615A
:1007700001E01B4E7160F0BD30B500228B071C0FED
:100780000F2303FA04F2164B08338C1053F824306D
:100790009343134C08348D1044F8253023468C10B5
:1007A00053F824308C07240F00FA04F423430C4C34
:1007B00008348D1044F8253030BD0A49DC3108601A
:1007C0007047000000080140000C0140001001408B
:1007D0000014014000180140001C014000200140AD
:1007E0000000014000002042DF48006840F00100A6
:1007F000DD49086008464068DC490840DA4948603D
:1008000008460068DA490840D74908600846006889
:1008100020F4802008600846406820F4FE0048600C
:100820004FF41F0088607047CF49096821F4803178
:10083000CD4A11601146096821F480211160B0F59C
:10084000803F03D0B0F5802F0ED106E0C64909687D
:1008500041F48031C44A116007E0C349096841F49A
:10086000A021C14A116000E000BF00BF704710B571
:1008700001460022002300204A11012A02D1BA4C6D
:10088000236806E0022A02D1B74C236A01E0B64C85
:10089000636A01F01F02012494401C400CB1012046
:1008A00000E0002010BD38B5002000900024002595
:1008B00000BF3120FFF7DBFF05460098401C009089
:1008C0000098B0F5A06F01D0002DF2D03120FFF7D5
:1008D000CEFF08B1012400E00024204638BD0146C7
:1008E0000020A14A106820F0F80040EAC100106022
:1008F0007047A04908607047024600209A4B58682C
:1009000020F47C1042EA01031843974B586070476B
:1009100098490866704701460020934A506820F0C5
:1009200003000843506070478F48406800F00C0097
:100930007047014600208C4A506820F0F0000843C0
:100940005060704701460020874A506820F4E060FC
:1009500008435060704701460020834A506820F4E5
:10096000605040EAC1005060704729B17E4A527A17
:1009700002437D4B5A7204E07B4A527A82437A4B9F
:100980005A7270477B49D831086070470146002091
:10099000754A506820F44040084350607047002179
:1009A000714A20321170704A82F82010012802D05A
:1009B00004280AD104E001216B4A2032117005E0BD
:1009C0000521694A2032117000E000BF00BF704766
:1009D0006949086070476449096A0143624A1162C3
:1009E0007047654944390860704730B500210022DE
:1009F000002400235C4D6D6805F00C0121B1042931
:100A000005D0082923D105E05C4D056022E05B4D4F
:100A100005601FE0544D6D6805F47012524D6D680D
:100A200005F48034022505EB92421CB9544D554320
:100A300005600BE04C4D6D6805F400351DB1504D5F
:100A40005543056002E04D4D5543056002E04B4DB6
:100A5000056000BF00BF444D6D6805F0F001090955
:100A6000484D6B5C0568DD4045603F4D6D6805F4A1
:100A7000E061090A434D6B5C4568DD4085603A4D95
:100A80006D6805F46051C90A3E4D6B5C4568DD40F8
:100A9000C560354D6D6805F44041890B3A4D6B5C7E
:100AA000C568B5FBF3F5056130BD29B12E4A526921
:100AB00002432D4B5A6104E02B4A526982432A4B70
:100AC0005A61704729B1284A92690243264B9A61BC
:100AD00004E0254A92698243234B9A61704729B109
:100AE000214AD2690243204BDA6104E01E4AD269EE
:100AF00082431D4BDA61704729B11B4AD268024319
:100B0000194BDA6004E0184AD2688243164BDA6067
:100B1000704729B1144A12690243134B1A6104E069
:100B2000114A12698243104B1A61704712494039C9
:100B3000086070470F49C86470470B49C871704717
:100B40000948406A40F08070074948627047014692
:100B50000020054A92680A400AB1012000E0002006
:100B60007047014988727047001002400000FFF88A
:100B7000FFFFF6FE000042428004424200127A006B
:100B800000093D00140000202400002010B5044698
:100B9000FE48844208D10121C014FFF7ADFF0021B7
:100BA000E014FFF7A9FFC4E0B4F1804F08D10121A0
:100BB0000846FFF7AEFF00210120FFF7AAFFB8E0CB
:100BC000F348844208D101210220FFF7A2FF00214F
:100BD0000220FFF79EFFACE0EE48844208D10121DD
:100BE0000420FFF796FF00210420FFF792FFA0E00A
:100BF000E948844208D101210820FFF78AFF00213B
:100C00000820FFF786FF94E0E448844208D10121E0
:100C10001020FFF77EFF00211020FFF77AFF88E009
:100C2000DF48844208D101212020FFF772FF002114
:100C30002020FFF76EFF7CE0DA48844208D10121D2
:100C40004014FFF759FF00216014FFF755FF70E0D3
:100C5000D548844209D10121C804FFF74DFF002186
:100C60004FF40020FFF748FF63E0D048844209D1E9
:100C700001210805FFF740FF00214FF48010FFF726
:100C80003BFF56E0CA48844209D101214805FFF7DD
:100C900033FF00214FF40010FFF72EFF49E0C54855
:100CA000844208D101214020FFF733FF002140207A
:100CB000FFF72FFF3DE0C048844208D1012180208A
:100CC000FFF727FF00218020FFF723FF31E0BB481B
:100CD000844208D101218015FFF71BFF0021A015D8
:100CE000FFF717FF25E0B648844209D10121080427
:100CF000FFF702FF00214FF48030FFF7FDFE18E000
:100D0000B048844209D101214804FFF7F5FE0021D3
:100D10004FF40030FFF7F0FE0BE0AB48844208D1FF
:100D200001218804FFF7E8FE00214FF48020FFF73F
:100D3000E3FE10BD00220288944B98420ED0994BDE
:100D400098420BD0B0F1804F08D0914B984205D01B
:100D5000904B984202D0904B984204D14FF68F733B
:100D60001A404B881A438D4B984207D08C4B9842BF
:100D700004D04FF6FF431A40CB881A4302808B8879
:100D800083850B880385814B98420BD0854B984215
:100D900008D08B4B984205D08A4B984202D08A4BA0
:100DA000984201D10B7A038601238382704770B584
:100DB000002400220023058C4FF6FE763540058482
:100DC000028C8388048B4FF68F752C40B51E2C4007
:100DD0000D882C43751E2A400D892A434D882A43CD
:100DE0006A4DA8420BD06F4DA84208D0744DA8425E
:100DF00005D0744DA84202D0734DA84213D14FF6CE
:100E0000F7752A404D892A434FF6FB752A408D8895
:100E10002A434FF6FF652B404FF6FF552B408D8937
:100E20002B43CD892B4383800483CD888586028420
:100E300070BD70B5002400220023058C4FF6EF76BC
:100E400035400584028C8388048B48F6FF752C405E
:100E50004FF6FF452C400D884FF6FF7606EA052534
:100E60002C434FF6DF752A400D8906EA05152A4303
:100E70004D8806EA05152A43444DA84202D0494D43
:100E8000A8421DD14FF67F752A404D894FF6FF7657
:100E900006EA05152A434FF6BF752A408D8806EAF3
:100EA00005152A434FF6FF352B404FF2FF752B40B7
:100EB0008D8906EA85052B43CD8906EA85052B43F6
:100EC00083800483CD880587028470BD70B50024BB
:100ED00000220023058C4FF6FF6635400584028C06
:100EE0008388848B4FF68F752C404FF6FC752C4011
:100EF0000D882C434FF6FF552A400D894FF6FF769B
:100F000006EA05252A434D8806EA05252A431F4D92
:100F1000A84202D0234DA8421DD14FF2FF752A40AE
:100F20004D894FF6FF7606EA05252A434FF6FF3531
:100F30002A408D8806EA05252A434EF6FF752B4088
:100F40004DF6FF752B408D8906EA05152B43CD899B
:100F500006EA05152B4383808483CD888587028428
:100F600070BD70B5002200230024058C4EF6FF767C
:100F700035400584038C8488828B48F6FF752A40AF
:100F80004FF6FF452A400D8820E00000002C01406C
:100F90000004004000080040000C00400010004029
:100FA0000014004000340140004C0140005001405A
:100FB0000054014000180040001C00400020004088
:100FC0000040014000440140004801404FF6FF76D8
:100FD00006EA05252A434DF6FF752B400D8906EAE2
:100FE00005352B434D8806EA05352B43FA4DA842BB
:100FF00002D0FA4DA84208D14BF6FF752C408D89DE
:101000004FF6FF7606EA85152C4384808283CD88CF
:10101000A0F84050038470BD828B4FF2FF331A401A
:101020008283828B4FF6FF7303EA01231A43828384
:101030007047F0B50C461546002200210026078CAB
:101040004EF6FF7C07EA0C070784828B018C4FF673
:10105000FF7707EA043640F6FF473A404FF6FF773E
:1010600007EA05273A434FF6FF7707EA03373A4383
:10107000D94FB8420ED0D94FB8420BD0B0F1804F03
:1010800008D0D74FB84205D0D64FB84202D0D64F7D
:10109000B84206D14DF6FF77394046F480573943C0
:1010A00005E047F6FF57394044F4805739438283BF
:1010B0000184F0BD828B4FF6F3731A408283828BDA
:1010C0000A4382837047F0B50C4615460022002182
:1010D0000026078C4FF6FF6C07EA0C070784828B0B
:1010E000018C4FF6FF7707EA04264FF60C773A405B
:1010F0004FF6FF7707EA03172F433A43B64FB8423C
:101100000ED0B64FB8420BD0B0F1804F08D0B44FDC
:10111000B84205D0B34FB84202D0B34FB84206D15F
:101120004FF6FF57394046F48077394305E04FF2D8
:10113000FF57394044F48077394382830184F0BDFE
:10114000028B4FF2FF331A400283028B4FF6FF737C
:1011500003EA01231A4302837047F0B50C46154693
:10116000002200210026078C4FF6EF7C07EA0C07CF
:101170000784028B018C4FF6FF7707EA041640F6CE
:10118000FF473A404FF6FF7707EA03373A434FF6F7
:10119000FF7707EA05273A438F4FB8420ED08F4FAB
:1011A000B8420BD0B0F1804F08D08D4FB84205D077
:1011B0008C4FB84202D08C4FB84206D14FF6DF7741
:1011C000394046F01007394305E04FF65F77394064
:1011D00044F01007394302830184F0BD028B4FF6BF
:1011E000F3731A400283028B0A4302837047F0B5FF
:1011F0000C46154600220021068C4FF6FE773E4035
:101200000684028B018C4FF60C7632407E1C06EA77
:1012100003162E433243704EB0420ED06F4EB04292
:101220000BD0B0F1804F08D06D4EB04205D06D4E5E
:10123000B04202D06C4EB04206D14FF6FD7631403E
:1012400044F00106314305E04FF6F576314044F0B5
:101250000106314302830184F0BD70B505460C469A
:101260005D4885420ED05D4885420BD0B5F1804F78
:1012700008D05B48854205D05A48854202D05A487A
:10128000854200D100E000BF208850B92389A288A0
:1012900061882846FFF7ABFFE1882846FFF79EFFED
:1012A00025E0208804280AD12389A288618828465D
:1012B000FFF753FFE1882846FFF742FF17E0208839
:1012C00008280AD12389A28861882846FFF7FBFEF7
:1012D000E1882846FFF7EEFE09E02389A2886188AD
:1012E0002846FFF7A6FEE1882846FFF795FE70BD69
:1012F0002DE9F04105460C4600260127608808B913
:10130000022600E00026A088012801D1022700E083
:1013100001272088A0B92389A28861882846FFF781
:1013200066FFE1882846FFF759FF23893A46314690
:101330002846FFF712FFE1882846FFF701FF13E078
:101340002389A28861882846FFF707FFE18828469D
:10135000FFF7F6FE23893A4631462846FFF747FF56
:10136000E1882846FFF73AFFBDE8F0810A884B88FC
:101370001A438B881A43CB881A430B891A434B892B
:101380001A438B891A43A0F8442070474FF6FF7127
:10139000818000210180C18041800172704700215D
:1013A000018041808180C180018141818181C18131
:1013B0007047002101804180012181800021C1808E
:1013C000018170470021018041808180C1800181BD
:1013D0004181818170470000002C014000340140B0
:1013E0000004004000080040000C004021B10288C9
:1013F00042F00102028004E002884FF6FE731A40B8
:101400000280704731B1B0F8442042F40042A0F8A5
:10141000442005E0B0F84420C2F30E02A0F84420B6
:1014200070471AB183890B43838102E083898B4320
:10143000838170478182704741EA0203A0F84830F7
:1014400070471AB183890B43838102E083898B4300
:101450008381704701894FF6F8721140018170470E
:101460000A46002101894FF68F731940114301810B
:10147000704730B504460D4629462046FFF7F0FF79
:10148000208940F00700208130BD2DE9F04104465D
:101490000D4616461F46602D06D13B4601223146B9
:1014A0002046FFF75AFE05E03B4601223146204622
:1014B000FFF79DFE29462046FFF7D2FF208940F026
:1014C00007002081BDE8F08130B50C46002101897C
:1014D000C9B24FF6FF7505EA032515432543294395
:1014E000018130BD2DE9F04105460E46174698466C
:1014F000002443463A4631462846FFF7E5FF2C894B
:101500004FF6F870044044F007044FF68F70044023
:1015100044F070042C81BDE8F081F0B504460D461E
:1015200016461F463B46324629462046FFF7CCFF6B
:10153000208940F480402081F0BD0185828270477F
:101540000A46002101884FF68F731940114301802C
:101550007047F0B50C4615461E46002100220023B8
:101560000189028B038C4FF6F877394021434FF6FF
:10157000FC473A4040F201173A434FF6DD773B40D3
:101580004FF6FF7707EA06172F433B43018102839B
:101590000384F0BD0A460021018B4FF68F7319407A
:1015A0001143018370470A460021018B48F6FF73FF
:1015B00019404FF6FF7303EA022319430183704772
:1015C0000A460021818B4FF68F73194011438183A6
:1015D00070470A460021818B48F6FF7319404FF689
:1015E000FF7303EA022319438183704721B1028804
:1015F00042F08002028004E002884FF67F731A40B6
:101600000280704721B1828842F00402828004E0A7
:1016100082884FF6FB731A408280704721B182881E
:1016200042F00802828004E082884FF6F7731A4085
:101630008280704721B1828842F00102828004E0FA
:1016400082884FF6FE731A40828070470A46002156
:10165000018B4FF6F77319401143018370470A4617
:101660000021018B4FF2FF7319404FF6FF7303EA1D
:1016700002231943018370470A460021818B4FF6EC
:10168000F77319401143818370470A460021818B0B
:101690004FF2FF7319404FF6FF7303EA0223194319
:1016A000818370470A460021018B4FF6FB73194076
:1016B0001143018370470A460021018B4FF6FF3327
:1016C00019404FF6FF7303EA022319430183704761
:1016D0000A460021818B4FF6FB7319401143818329
:1016E00070470A460021818B4FF6FF3319404FF6B1
:1016F000FF7303EA02231943818370470A460021DE
:10170000018B4FF67F7319401143018370470A46DE
:101710000021018BC1F30E014FF6FF7303EA022390
:101720001943018370470A460021818B4FF67F736E
:1017300019401143818370470A460021818BC1F310
:101740000E014FF6FF7303EA0223194381837047AA
:101750000A460021018C4FF6FD73194011430184A4
:1017600070470A460021018C4FF6F7731940114368
:10177000018470470A460021018C4FF6DF7319403F
:101780004FF6FF7303EA02131943018470470A46B8
:101790000021018C4FF67F7319404FF6FF7303EA67
:1017A00002131943018470470A460021018C4FF649
:1017B000FF5319404FF6FF7303EA022319430184D4
:1017C00070470A460021018C4FF2FF7319404FF613
:1017D000FF7303EA02231943018470470A4600217C
:1017E000018C4DF6FF7319404FF6FF7303EA023385
:1017F00019430184704730B5002301248C40A3B203
:10180000048C9C430484048C02FA01F5ADB22C4391
:10181000048430BD30B5002304248C40A3B2048C72
:101820009C430484048C02FA01F5ADB22C43048479
:1018300030BD70B50346002000241846183001253D
:101840008D40ACB21D8CA5431D8409B1082909D176
:1018500000EB6100056825F070050560056815431B
:1018600005600EE00D1FC5F34E052844056825F4FC
:10187000E045056005684FF6FF7606EA0226354327
:10188000056070BD21B1028842F00202028004E0CE
:1018900002884FF6FD731A400280704721B102881A
:1018A00042F00402028004E002884FF6FB731A4003
:1018B0000280704721B1828842F08002828004E079
:1018C00082884FF67F731A408280704702884FF6F5
:1018D000F7731A40028002880A43028070478288A8
:1018E0004FF68F731A40828082880A438280704745
:1018F00002894FF6F8731A40028102890A43028175
:10190000704702894FF67F731A40028102890A43A9
:101910000281704781847047818570478186704756
:101920000187704781877047A0F840107047028890
:101930004FF6FF431A40028002880A430280704734
:101940000146888E70470146088F70470146888F90
:1019500070470146B1F8400070470146888C7047D7
:101960000146088D704702460020138A0B400BB1D8
:10197000012000E000207047CA430282704730B562
:101980000246002000230024158A05EA01039589F8
:1019900005EA010413B10CB1012000E0002030BDC4
:1019A000CA4302827047000010B50446FB488442D7
:1019B00009D101218803FFF79FF800214FF48040EF
:1019C000FFF79AF832E0F648844209D10121480431
:1019D000FFF79FF800214FF40030FFF79AF825E059
:1019E000F048844209D101218804FFF792F80021D0
:1019F0004FF48020FFF78DF818E0EB48844209D1BE
:101A00000121C804FFF785F800214FF40020FFF7FB
:101A100080F80BE0E548844208D101210805FFF772
:101A200078F800214FF48010FFF773F810BD2DE90E
:101A3000F04786B005460E460024A24600BFA146E8
:101A40000027B08900B100BF2F462C8A4CF6FF70EA
:101A50000440F08804432C82AC894EF6F310044015
:101A6000B08831890843718908430443AC81AC8A4A
:101A70004FF6FF400440B0890443AC8201A8FEF752
:101A8000B4FFC648874202D1DDF810A001E0DDF8BE
:101A90000CA0A88900F4004040B10AEBCA0000EB9A
:101AA0000A1031684900B0FBF1F807E00AEBCA0000
:101AB00000EB0A1031688900B0FBF1F86420B8FB34
:101AC000F0F004012009642101FB1089A88900F4C9
:101AD000004040B1322000EBC900B0FBF1F000F053
:101AE0000700044308E0322000EB09106421B0FB3A
:101AF000F1F000F00F0004432C8106B0BDE8F08740
:101B00004FF41651016000218180C18001810C21B8
:101B1000418100218181704710B502460020108A62
:101B20004FF2FF0318400B884C8823438C882343D3
:101B3000CC8823431843108210BD002101804180CE
:101B40008180C180704721B1828942F40052828134
:101B500004E082894DF6FF731A4082817047F0B528
:101B60000346002400260025002040F66A17B942EB
:101B700000D100BF1846C1F3421401F01F0601272F
:101B800007FA06F5012C01D10C3004E0022C01D13A
:101B9000103000E014301AB107682F43076002E0EC
:101BA0000768AF430760F0BD1AB1838A0B43838295
:101BB00002E0838A8B4383827047028A4FF6F07378
:101BC0001A400282028A0A430282704782894FF2D7
:101BD000FF731A40828182890A438281704721B152
:101BE000828942F00202828104E082894FF6FD730D
:101BF0001A4082817047028A4FF6DF731A400282D0
:101C0000028A0A430282704721B1028A42F480426A
:101C1000028204E0028A4BF6FF731A400282704788
:101C2000C1F308028280704701468888C0F308002B
:101C30007047818941F0010181817047028BD2B2E6
:101C40000283028B42EA012202837047028B02F474
:101C50007F420283028B0A430283704721B1828A4A
:101C600042F02002828204E0828A4FF6DF731A403B
:101C70008282704721B1828A42F01002828204E09F
:101C8000828A4FF6EF731A408282704721B1828AAE
:101C900042F00802828204E0828A4FF6F7731A400B
:101CA0008282704721B1828942F40042828103E03E
:101CB0008289C2F30E028281704721B1828A42F486
:101CC0000062828204E0828A4FF2FF731A408282AD
:101CD0007047828A4FF6FB731A408282828A0A43D7
:101CE0008282704721B1828A42F00202828204E03D
:101CF000828A4FF6FD731A408282704702460020A6
:101D0000B1F5007F00D100BF13880B400BB101205B
:101D100000E00020704701F40072B2F5007F00D1AE
:101D200000BFCA430280704770B5024600240023FA
:101D30000025002040F66A16B14200D100BFC1F371
:101D4000421501F01F03012606FA03F3012D02D10B
:101D50009689334006E0022D02D1168A334001E015
:101D6000968A33400C12012606FA04F41688344091
:101D700013B10CB1012000E0002070BD10B50022AD
:101D8000002340F66A14A14200D100BF0A120124C8
:101D90009440A3B2DC43048010BD00000038014031
:101DA0000044004000480040004C0040005000400B
:101DB000002109E0002201E0531C9AB240F6B8333A
:101DC0009A42F9DB4B1C99B28142F3DB704710B5A4
:101DD000FD4BDB689AB24FF40073FC4C23605B1040
:101DE00023602023241F2360F74BD8602023241D69
:101DF0002360241F2360DB002360F34BD960202382
:101E0000241D2360241F2360DB002360EE4BDA6077
:101E100010BD00B501210020FFF7D9FF4FF47A7003
:101E2000FFF7C6FF00210120FFF7D1FF41F29071BB
:101E30001020FFF7CCFF4FF41C516020FFF7C7FFC5
:101E400001216120FFF7C3FF02214620FFF7BFFFFA
:101E500048F210011320FFF7BAFF48F2FE011220EA
:101E6000FFF7B5FF4FF4A0610220FFF7B0FF41F28A
:101E700030010320FFF7ABFF40F203313020FFF7C2
:101E8000A6FF40F203313120FFF7A1FF40F20331FA
:101E90003220FFF79CFF4FF440713320FFF797FF8C
:101EA00003213420FFF793FF40F203313520FFF781
:101EB0008EFF14213620FFF78AFF40F203313720CE
:101EC000FFF785FF40F203313820FFF780FF40F233
:101ED00003313920FFF77BFF4FF440713A20FFF7C1
:101EE00076FF03213B20FFF772FF40F203313C20D5
:101EF000FFF76DFF4FF4A0513D20FFF768FF4FF44F
:101F000000719220FFF763FF40F203319320FFF747
:101F10005EFF40F60D019020FFF759FF41F21801D6
:101F20000320FFF754FF40F273110720FFF74FFF24
:101F300000BD00B543F20801E320FFF748FF12217E
:101F4000E720FFF744FF41F23121EF20FFF73FFF89
:101F500000210120FFF73BFF4FF4E0610220FFF773
:101F600036FF41F230010320FFF731FF002104204A
:101F7000FFF72DFF40F207210820FFF728FF00217F
:101F80000920FFF724FF00210A20FFF720FF00218E
:101F90000C20FFF71CFF00210D20FFF718FF002188
:101FA0000F20FFF714FF00211020FFF710FF07217B
:101FB0001120FFF70CFF00211220FFF708FF00217E
:101FC0001320FFF704FF4FF47A70FFF7F1FE41F2A0
:101FD00090611020FFF7FBFE40F227211120FFF750
:101FE000F6FE3220FFF7E4FE1D211220FFF7EFFE80
:101FF0003220FFF7DDFE4FF400611320FFF7E7FE0C
:1020000014212920FFF7E3FE0B212B20FFF7DFFE31
:102010003220FFF7CDFE00212020FFF7D8FE00215F
:102020002120FFF7D4FE07213020FFF7D0FE40F239
:1020300007713120FFF7CBFE06213220FFF7C7FEE4
:1020400040F204713520FFF7C2FE41F604713620DC
:10205000FFF7BDFE04213720FFF7B9FE002138202D
:10206000FFF7B5FE40F206713920FFF7B0FE40F2EF
:1020700001713C20FFF7ABFE0F213D20FFF7A7FECB
:1020800000215020FFF7A3FEEF215120FFF79FFE14
:1020900000215220FFF79BFE40F23F115320FFF733
:1020A00096FE4FF41C516020FFF791FE0121612044
:1020B000FFF78DFE00216A20FFF789FE00218020B6
:1020C000FFF785FE00218120FFF781FE002182209D
:1020D000FFF77DFE00218320FFF779FE0021842099
:1020E000FFF775FE00218520FFF771FE102190207B
:1020F000FFF76DFE00219220FFF769FE0321932078
:10210000FFF765FE4FF488719520FFF760FE002110
:102110009720FFF75CFE00219820FFF758FE41F260
:1021200018010320FFF753FE40F273110720FFF759
:102130004EFE00BD08B54FF6FF70ADF8000003205D
:102140008DF8020010208DF8030069461E48FEF746
:10215000FDF908BD08B54FF6FF70ADF8000003208B
:102160008DF8020048208DF8030069461648FEF7F6
:10217000EDF908BD70B504464FF4007013490860CE
:10218000401008602020091F08600F48C46020200C
:10219000091D0860091F0860C0000860FFF7DAFF2A
:1021A0004FF48060094908600748806885B20815C7
:1021B000091F0860FFF7BEFF4FF400700349091FB5
:1021C0000860284670BD000000100140140C01405A
:1021D00008B501211820FEF775FC01212020FEF72B
:1021E00071FC4FF4E460ADF8000001208DF80200AE
:1021F00010208DF803006946F648FEF7A7F9FFF7AF
:1022000099FFF4481030006840F4C460F14910317F
:10221000086008BD10B5FFF7DBFF0020FFF7AAFF3D
:10222000ED4908800846008848F23021884202D1F2
:10223000FFF7EFFD01E0FFF77CFE0020FFF79AFFBC
:10224000E549088010BD01B5BDF80000E3490880EC
:1022500008BD01B5BDF80000E149088008BD30B5F2
:1022600004460D4621462020FFF7B1FD29462120D6
:10227000FFF7ADFD30BDDB4AD26891B24FF400727A
:10228000D44B14331A6052101B1F1A6020221A609C
:10229000D44AD06020221B1D1A601B1F1A60D20076
:1022A0001A6052001A60CF4AD1607047CD49C968A0
:1022B00088B24FF40071C74A14321160491011609E
:1022C0002021121F11602221C64AD1602021C14A5B
:1022D00014321160121F1160C900116049001160B1
:1022E000C049C86070472DE9F04306468946174645
:1022F00000240025A046B04649464046FFF7AFFF00
:1023000000BF1EE0FFF7D2FF00250FE037F81400F2
:102310000121A940084020B9B1480088FFF7ABFF70
:1023200003E0AE480088FFF7A6FF6D1C102DEDD32B
:1023300008F1010000F0FF0849464046FFF78FFF13
:10234000641C182CDED3BDE8F08370B505460E463C
:102350001446A4F12000C4B204EB4400A24901EBEE
:10236000001231462846FFF7BEFF70BDF0B50746A4
:102370000C46002540F23F1609E0227831463846E7
:10238000FFF7E3FFA6F1100086B2641C6D1C2078F5
:1023900008B1142DF1D3F0BD10B5044693A1204629
:1023A000FFF7E4FF10BD30B50546002400210846C4
:1023B000FFF755FFFFF77AFF00BF03E02846FFF75E
:1023C0005AFF641CB4F5963FF8D330BDF0B504460F
:1023D0000D4616461F46B44206DBA01B401C81B2C8
:1023E0005020FFF7F4FC03E000215020FFF7EFFC42
:1023F00021465120FFF7EBFCBD4206DBE81B401CE9
:1024000081B25220FFF7E3FC03E000215220FFF7E6
:10241000DEFC29465320FFF7DAFC29462046FFF769
:102420001EFFF0BD00B54FF4A073F022591EEF203F
:10243000FFF7CCFF41F218010320FFF7C8FC00BDF5
:102440002DE9F0410646884615461F4600244146C0
:102450003046FFF704FF5FB9FFF728FF00BF04E035
:102460005E480088FFF707FF641CAC42F8D310E019
:1024700000240CE0FFF71AFF58480088FFF7FBFE26
:10248000701CC6B241463046FFF7E9FE641CAC4200
:10249000F0D3BDE8F081F0B505460E4617461C4660
:1024A0000023224631462846FFF7CAFFE919C8B281
:1024B000002322463146FFF7C3FF01233A46314647
:1024C0002846FFF7BDFF301B401C81B201233A466E
:1024D0002846FFF7B5FFF0BD2DE9F04306460F464D
:1024E00090460320A0EB4809002445466EE07A1987
:1024F00091B23219D0B2FFF7B2FEFFF7D7FE3748DC
:102500000088FFF7B8FE7A1B91B23219D0B2FFF7FC
:10251000A6FEFFF7CBFE31480088FFF7ACFE7A1924
:1025200091B2321BD0B2FFF79AFEFFF7BFFE2B48E5
:102530000088FFF7A0FE7A1B91B2321BD0B2FFF7E2
:102540008EFEFFF7B3FE25480088FFF794FE3A1988
:1025500091B27219D0B2FFF782FEFFF7A7FE1F48B3
:102560000088FFF788FE3A1B91B27219D0B2FFF7CC
:1025700076FEFFF79BFE19480088FFF77CFE3A19AC
:1025800091B2721BD0B2FFF76AFEFFF78FFE1348BD
:102590000088FFF770FE3A1B91B2721BD0B2FFF7B2
:1025A0005EFEFFF783FE0D480088FFF764FEB9F179
:1025B000000F04DA062000EB8400814405E0601B74
:1025C0000A2101EB800081446D1E641CAC428ED94F
:1025D000BDE8F083000C01402C0000202800002002
:1025E0002A000020001001401E3F0008202020206B
:1025F00020202020202020202020202020202020DB
:102600000000000070B506460024002540F23F118E
:102610000020FFF724FEFFF749FE00BF14E000256D
:102620000FE056F824000121A940084020B95F4876
:102630000088FFF720FE03E05D480088FFF71BFEDF
:102640006D1C202DEDD3641CB4F5166FE7D370BD5F
:1026500070B50446002500266688A08846EA004634
:102660006589A08945EA0045701B46082C4441F263
:1026700008010320FFF7ABFBFFF718FE002504E07D
:102680002088FFF7F8FDA41C6D1CB542F8D341F279
:1026900018010320FFF79BFB70BD10B54FF40070CD
:1026A00044490860401008602020091F086022206B
:1026B0004149C86020203F490860091F0860C000E8
:1026C0000860FFF747FD4FF480603A4908603A48D8
:1026D000806884B20815091F0860FFF72BFD4FF4CE
:1026E00000703449091F0860204610BD00B5002164
:1026F0001020FFF76CFB00211120FFF768FB002181
:102700001220FFF764FB00211320FFF760FB142069
:10271000FFF74EFB41F2B0711020FFF758FB40F27B
:1027200037111120FFF753FB0520FFF741FB40F263
:1027300039111220FFF74BFB0520FFF739FB4FF44F
:10274000E8511320FFF743FB13212920FFF73FFB3C
:102750000520FFF72DFB40F273110720FFF737FB31
:1027600000BD00B540F273110720FFF730FB00BD3C
:1027700000B500210720FFF72AFB00BD30B5054654
:1027800000210846FFF76BFDFFF790FD002409E0EC
:1027900015F814206100491C695C42EA0120FFF72A
:1027A0006AFD641CB4F5963FF2DB30BD2A000020C0
:1027B00028000020140C0140001001403B49086033
:1027C00000BF3A4909680029FBD170474FF4E06027
:1027D000FDF7EEFD364800684FF47A72B0FBF2F177
:1027E000481EB0F1807F00D31BE0481E4FF0E0226E
:1027F000506150170F22002807DA13071D0E2D4BCA
:1028000000F00F04241F1D5503E013071C0E2A4B74
:102810001C5400BF00204FF0E0229061072010619F
:1028200000BFC820FFF7CAFFFFF7F4FC1F20FFF727
:10283000BAFD1F20FFF70DFD4FF6FF70FFF703FDF8
:1028400000F082F800F012F900F096FA45F6C05058
:102850001A4908801A49088027E01A481AA1026814
:102860001D4800F05BFB1C494820FFF77FFD1B481B
:102870001BA10268184800F051FB17496020FFF7C0
:1028800075FD1C481CA10268134800F047FB124963
:102890007820FFF76BFD1C481CA102680E4800F071
:1028A0003DFB0D499020FFF761FDD6E73000002089
:1028B0000000002018ED00E000E400E034000020FB
:1028C000360000205000002054334348325F4672E7
:1028D00065713D20253864005C0000205400002014
:1028E00054334348325F447574793D20253764255D
:1028F00025000000400000205265616456616C753F
:1029000065313D2025386400440000205265616433
:1029100056616C7565323D20253764252500000021
:10292000704700BFFEE700BFFEE700BFFEE700BF45
:10293000FEE770477047704702480068401E014933
:10294000086070473000002008B501213020FEF7F4
:10295000B9F84FF47F40ADF8000010208DF8030067
:1029600003208DF8020069462948FDF7EFFD042099
:10297000ADF8000010208DF8030003208DF8020050
:1029800069462448FDF7E2FD04212248FDF78BFE4D
:102990004FF47F411E48FDF786FE04211D48FDF7D8
:1029A00084FE08BD70B504460D46012D0FD10421EB
:1029B0001848FDF778FE4FF6FF7000EA042114482E
:1029C000FDF773FE04211348FDF76FFE0EE00421AE
:1029D0001048FDF768FE4FF6FF7000EA04210C482E
:1029E000FDF761FE04210B48FDF75FFE70BD10B5D9
:1029F000044604210748FDF756FE0548C06880EAF2
:102A000004200349C86004210248FDF74EFE10BDB2
:102A1000001001400014014010B501210846FEF7E6
:102A20005EF801210520FEF74DF810BD08B506201F
:102A3000ADF8000018208DF8030003208DF8020087
:102A400069466548FDF782FD08BD08B51C208DF874
:102A5000000000208DF8010002208DF80200012006
:102A60008DF803006846FDF7A8FC08BD10B588B0D6
:102A70000024FFF7D1FFFFF7E8FFFFF7D7FF574824
:102A800000685749B0FBF1F0401E84B24FF6FF706A
:102A9000ADF81800ADF814400020ADF81A00ADF8FC
:102AA000160005A94FF08040FEF744F93020ADF83C
:102AB00004000120ADF806004A480088ADF80A007D
:102AC0000220ADF80C0001A94007FEF7B2F9002181
:102AD0004FF08040FEF7C3FD0120ADF806004248EC
:102AE0000088ADF80A0001A94FF08040FEF7EEF92A
:102AF00000214FF08040FEF7BFFD01218807FEF75F
:102B000075FC01220C219007FEF78BFC08B010BD6C
:102B10002DE9F0470024354D04210807FEF72FFF6B
:102B2000002841D004210807FEF73AFF6807FEF7A6
:102B30000AFF04462E480078D8B92A48008801F0D8
:102B400099F88246294601F0A9F88046204601F00E
:102B500091F88146414601F00BF8074601F06AF80A
:102B600086B231466807FEF7DBFE01202049087077
:102B70001AE029464FF07E5001F05CF98046194872
:102B8000008801F077F88146414601F087F8074652
:102B900001F050F8204486B231464FF08040FEF7F5
:102BA000BFFE0020124908700821C806FEF7E7FEA4
:102BB00080B10821C806FEF7F3FE4FF08040FEF713
:102BC000C5FE044608480088204481B24FF080408A
:102BD000FEF7A8FEBDE8F0870008014000000020D5
:102BE00000366E0134000020360000209A99993E8C
:102BF0003800002010B501210520FDF763FF0121F9
:102C00004804FDF76CFF10BD08B50820ADF80000C2
:102C100004208DF8030069463C48FDF797FC04202A
:102C2000ADF8000003208DF8020018208DF8030095
:102C300069463648FDF78AFC08BD08B526208DF8A0
:102C4000000004208DF8020001208DF80300684682
:102C5000FDF7B3FB08BD1FB5FFF7CCFFFFF7EDFF96
:102C6000FFF7D2FF4FF4165000900020ADF804009B
:102C7000ADF80600ADF80800ADF80C000C20ADF87A
:102C80000A0069462248FEF7D2FE012240F2255191
:102C90001F48FEF764FF01211D48FEF754FF1FBDCA
:102CA00070B504460D46E1B21948FEF7B9FF00BF02
:102CB00040211748FFF722F80028F9D0204670BDC0
:102CC00010B540F225511248FFF72EF8E0B101206F
:102CD000104908700020104908800D48FEF7A4FF35
:102CE000C1B20E4802780078401C0C4B18700C489A
:102CF000815418460078142806DD00201946087013
:102D00001421074800F009FA10BD00000008014036
:102D1000004400403B0000203C0000203A0000201E
:102D20007000002010B501210220FDF7D8FE01211E
:102D30000420FDF7C7FE10BD08B58020ADF80000E7
:102D400004208DF8030003208DF8020069466748CF
:102D5000FDF7FCFB08BD08B51D208DF80000002024
:102D60008DF8010003208DF8020001208DF803008A
:102D70006846FDF722FB08BD0EB5FFF7D3FFFFF74E
:102D8000EAFFFFF7D9FF0420ADF800000020ADF8FE
:102D900002000120ADF804000020ADF80600ADF8F7
:102DA000080069465248FEF758FA01215048FEF7DC
:102DB0001DFB012205214E48FEF733FB0EBD2DE918
:102DC000FC5F01214A48FEF7DAFD012808D1012104
:102DD0004748FEF7E5FD47480068401C4549086044
:102DE00004214348FEF7CBFD01287CD10421404853
:102DF000FEF7D6FD4048006870B900213C48FEF758
:102E000089FD00203B49086001203B490860022100
:102E10003748FEF7AFFC66E037480068012812D15A
:102E20003348FEF79AFD334909684FF4803202FBBC
:102E300001003249086002202F49086000212C4817
:102E4000FEF798FC4FE02C48006802284BD1284838
:102E5000FEF783FD274909684FF4803202FB010029
:102E6000274908600846006800F087FC06460F46C0
:102E70002448006800F081FC0022234BCDE90001CA
:102E800000F08EFC804632463B4600F0F1FA0446E4
:102E900000221E4B00F044FA824600F041FC1C491F
:102EA00008601748006800F068FC804689461348AF
:102EB000006800F062FC06460022164B00F070FC31
:102EC000044642464B4600F0D3FA824600220F4B9E
:102ED00000F026FACDE9000100F022FC0E4908605E
:102EE000002005490860BDE8FC9F00000008014083
:102EF000000400405800002048000020400000204E
:102F000044000020000000200000F03F0000E03FEF
:102F10005000002000005940540000200FB41CB5A0
:102F2000074B06AA7B4469460090059800F079F9A2
:102F30000020694600F088F91CBC5DF814FB000015
:102F40002103000070B5044685690068C10601D5FB
:102F5000302600E02026C00707D070BDD4E901214B
:102F600030469047206A401C20626D1EF6D570BD29
:102F700070B5044685690078C00707D170BDD4E9F3
:102F8000012120209047206A401C20626D1EF6D54A
:102F900070BD00002DE9F041064600241068752937
:102FA000314616A510D0AFF30080002802DA404267
:102FB00013A507E031688A0701D512A502E0490789
:102FC00004D511A5012401E0AFF3008000210A22FD
:102FD00006F1240709E0B0FBF2FCB0FBF2F302FBC0
:102FE0001C00303078541846491C0028F3D1234681
:102FF0002A463046BDE8F04100F0B4B800000000B9
:103000002D0000002B000000200000002DE9F047FB
:103010004FF0000A89460446C0F820A02046E16827
:103020008847002876D0252806D0D4E9012190478A
:10303000206A401C2062F1E7E168204600258847AD
:10304000C4F81CA006460027C4F818A02A2E09D0F0
:10305000304600F05EF938B304EB8708303EC8F81C
:10306000186019E059F8041B204604EB87029161AF
:10307000E1688847012F064618D1E069002820DA68
:1030800025F020051DE0D8F8180000EB800006EBC5
:1030900040003038C8F818002046E16888470646E6
:1030A00000F037F90028EED1012F0AD02E2E08D1DA
:1030B0002046E16888477F1C0646022F45F0200520
:1030C000C4DBA069002803DA404245F00105A06195
:1030D000E80701D025F01005B6B1A6F14100192886
:1030E00002D8203645F400654A4631462046256020
:1030F0004D46FDF735F858B1012806D0ED1D25F0F5
:10310000070000F1080989E704E005F1040985E7F3
:1031100030468AE7206ABDE8F0874FF000020429B4
:10312000C0F0128010F0030C00F09580CCF1040C7C
:10313000BCF1020F18BF00F8012BA8BF20F8022B2A
:10314000A1EB0C0100F087B85FEAC17C24BF00F856
:10315000012B00F8012B48BF00F8012B7047704786
:10316000704770472DE9F0470D4699469246044650
:1031700000F124080168880604D5E06921F01001F7
:10318000216000E00120A84201DD471B00E000278C
:10319000A1697A1902EB0900081AA0612078C0061B
:1031A00002D42046FFF7CEFE002608E0D4E9012134
:1031B0001AF806009047206A401C761C20624E4593
:1031C000F4DB2078C0060AD52046FFF7BBFE06E0F8
:1031D000D4E9012130209047206A401C2062381E2B
:1031E000A7F10107F4DC07E0D4E9012118F8050094
:1031F0009047206A401C2062281EA5F10105F3DCDF
:103200002046FFF7B5FE2078000602D50220BDE873
:10321000F0870120FBE7000001694A1C0261087881
:10322000704700B58FB0CDE9013100210591054906
:103230007944CDE9031011466846FFF7E7FE0FB069
:1032400000BD0000E5FFFFFF0A6802F8010B0A60FD
:1032500070474FF0000200B5134694469646203959
:1032600022BFA0E80C50A0E80C50B1F12001BFF43F
:10327000F7AF090728BFA0E80C5048BF0CC05DF8A5
:1032800004EB890028BF40F8042B08BF704748BFF3
:1032900020F8022B11F0804F18BF00F8012B704767
:1032A000754600F02BF8AE4605006946534620F0FF
:1032B0000700854618B020B5FCF778FFBDE8204030
:1032C0004FF000064FF000074FF000084FF0000BE2
:1032D00021F00701AC46ACE8C009ACE8C009ACE895
:1032E000C009ACE8C0098D46704710B50446AFF37D
:1032F00000802046BDE81040FCF744BF00487047FE
:103300008400002001491820ABBEFEE72600020021
:10331000704730380A2801D20120704700207047DA
:1033200010B591EA030F48BF83F0004300F13E83DC
:10333000841A71EB030C05D2121943EB0C03001B2A
:1033400061EB0C01DFF824E14FEA1154A4EB135CAC
:103350001EEA430F18BF9EEA445F73D023EA0E03B0
:10336000DCF1200E21EA045143F4801332D322FA17
:103370000CFE10EB0E0023FA0CFE41EB0E01CCF11B
:10338000200E03FA0EFE10EB0E0051F10001B1F514
:10339000801FCCF1200E32D201EB045112FA0EF252
:1033A000BDE8104058BF7047401C38BF5FEA42027A
:1033B00018BF7047002814BF20F0010041F1000140
:1033C0004FEA410313F5001F38BF7047A1F1C04118
:1033D00000F0DEBA012A43EB0302ACF1200CDCF171
:1033E0001F0E32BF4FF0000E23FA0CF310EB030058
:1033F00041EB0451B4EB115FD0D0A1EB045101F5C6
:10340000801149085FEA300001EB04510ED350F1FE
:10341000000038BF12FA0EFE08D1BDE81040C9E71F
:10342000401C38BF5FEA4202CAD1C3E7BDE8104082
:103430004FEA410313F5001F38BF7047A1F1C041A7
:1034400000F0A6BA9EEA445F08D011EA5E0FBDE81C
:10345000104004BF01F0004100207047BDE810405B
:1034600070B500F047FA00BF64FBBE3E0000E0FF0D
:103470002DE9C04130B4DFF8A0C23CEA111418BFF6
:103480003CEA131400F0EC8081EA03051CEA1114F5
:1034900044EAD57418BF1CEA131500F0C780A4EBEA
:1034A00005044FF0004545EAC12145EAC32341EA3E
:1034B000505143EA525304F17F74994204F50034A9
:1034C0004FEAC0204FEAC22208BF904200F09C8021
:1034D0004FEA13650FF24016765D4FEA134506FB7F
:1034E00005F7C7F1807706FB07F74FEAD737A7FB49
:1034F00003687642C8F58038A7FB06CE38BFA8F12E
:10350000010807FB08E64FF0000EA6FB028CE6FB65
:1035100003CEDCF1000CCEF1004E38BFAEF1010E4F
:10352000A6FB0C584FF000074FF00005E6FB0E8796
:10353000A1FB08C6A0FB07CE16EB0E0645F1000561
:10354000E1FB076515F1E04E7EBFA4F580345FEA2C
:1035500046066D4116F1800745F100054FEA172731
:103560004FEA066647EA0567A6F1DE46B6F1805FD8
:103570004FEA15251FD9384624F0010C05EBC4711C
:10358000BCF1FE6F01EB0C1102D8F0BCBDE800816C
:1035900024425CBF01F5801E9EEAC47F02D4F0BCC9
:1035A000BDE80081244238D4F0BCA1F1C041BDE89F
:1035B000004100F0EDB94FEAD22242EA43524FEA0D
:1035C000D323A7FB02864FEAD02040EA415007FBF5
:1035D00003661EEA0E0F4FEAD12105FB026658BFB3
:1035E000A6EB0056B6EB00564FEA520E4EEAC37EEB
:1035F00018EB0E0E56EB530EBDD518EB02085E41CC
:103600007F1C55F10005B6E74FF480154FF0000719
:103610004FF000064FF00008ADE7F0BC4FF000009F
:1036200001F1C04101F00041BDE8008111EA0C1F29
:103630000CEA131500D00CE013EA0C1F00F02580F3
:103640004FF00000F0BC81EA030101F00041BDE849
:103650000081F0BCBDE8004181EA030100F098B9A7
:10366000F0BCBDE8004170B500F044F9097EFC3EB5
:1036700000F007B881EA03014FF0000001F00041BB
:10368000704781EA030100F083B9F0BCBDE8004156
:103690004FF0000021497047FFFDFBF9F7F5F4F208
:1036A000F0EEEDEBE9E8E6E4E3E1E0DEDDDBDAD8DD
:1036B000D7D5D4D3D1D0CFCDCCCBCAC8C7C6C5C43B
:1036C000C2C1C0BFBEBDBCBBBAB9B8B7B6B5B4B352
:1036D000B2B1B0AFAEADACABAAA9A8A8A7A6A5A43D
:1036E000A3A3A2A1A09F9F9E9D9C9C9B9A99999801
:1036F0009797969595949393929191908F8F8E8EA4
:103700008D8C8C8B8B8A8989888887878685858430
:1037100084838382828181800000FF070000F87F1C
:103720004FEA1153A3F58063D3F11E03A8BFD3F171
:10373000200C08DB4FF0004242EAC12252EA50520C
:1037400032FA03F0704709420BD4102BC4BF00209B
:10375000704703F5787CBCF1FF3F05D04FF0FF3098
:1037600070474FF00000704770B500F0C3F800BF1D
:103770004992248000207047F0E7B0FA80F310FAF5
:1037800003F10AD0C3F11D0303F580634FEA4150F2
:103790004FEA035202EBD12170474FF0000070470F
:1037A000DFF848C170B51CEA111E1EBF1CEA1315D4
:1037B0009EEA0C0F95EA0C0F00F06F8081EA03047B
:1037C00023EA4C134EEAD47E21EA4C1141F48011D5
:1037D00043F48013AE44A1FB024CA0FB0365AEF1A1
:1037E0007F7E361955EB0C05A1FB034C4CF1000311
:1037F000A0FB021C16EB0C06654153F100030942C5
:1038000018BF46F0010613F4007F0BD14FEA0331D5
:103810004FEA0530340341EA155140EA16506FF083
:1038200003020AE04FEAC3214FEAC520F40241EA4D
:10383000555140EA56506FF0020202EB2E4201EB66
:10384000025585EACE710AD05FEA440C18BF24F015
:10385000004450F1000041F1000120EAD47040F230
:10386000FE7C624500D270BDA84214BF4FF0804478
:103870004FF04044002E08BF0024BEF1806FA8BF67
:10388000A1F1C041BDE8704080F282804FF000009D
:1038900001F1C04101F0004170479EEA0C0F0CEAB3
:1038A000131518BF95EA0C0F06D04FF0000081EAFF
:1038B000030E0EF0004170BD00F01CF88900013EBF
:1038C00000F007B800F009B84FEA430C5FEA5C5C0F
:1038D00008D081EA030100F05BB84FEA410C5FEACF
:1038E0005C5CF6D14FF00000014970470000FF0713
:1038F0000000F87F0EF1020E2EF0030E5EF8046B4E
:10390000364205D4012A43EB030515F5001F12D8F2
:10391000012841EB010C1CF5001F0CD80ED14FEA19
:10392000D17C15F5001F0CEB4C0C0CF1020C08BF00
:103930004CEBD37C04E04FF0080C01E04FEAD37C61
:103940000CEB4C0526FA05F606F00706B6F1040C5A
:1039500006D20EEB860CBDE870404CF0010C6047BF
:10396000DFE80CF0090B02024FF000414FF00000BD
:10397000A1F5002170BD19461046012851EB010444
:1039800018BFD4F5001484BF002001F0004170BDC1
:103990000808A0F500114FEA3101704710B591EA0F
:1039A000030F48BF83F000433FF5C2AC841A71EBAC
:1039B000030C07D212198CF0004C43EB0C03001BD4
:1039C00061EB0C01DFF8A4E14FEA1154A4EB135CA6
:1039D0001EEA430F18BF9EEA445F00F0B08023EA5E
:1039E0006E03524221EA0451C3EB6E0338BF5B1EE3
:1039F000DCF1200E25D322FA0CFE10EB0E0043FA68
:103A00000CFE41EB0E01CCF1200E03FA0EFE10EB82
:103A10000E0051F10001CCF1200E29D412FA0EF261
:103A200001EB0451BDE8104058BF7047401C1CBF5B
:103A3000B2F1004F704700280CBF491C20F0010074
:103A4000704712EB020E43EB030218BF4FF0010E5A
:103A50004EEA4202ACF1200CDCF11E0E54D943FABE
:103A60000CFE10EB0E0051F1FF31CCF11E0ED5D53E
:103A70000EF1010E12FA0EFE404141EB010101EB85
:103A8000445C5FEA5C5C10D910EBDE7001EB045122
:103A900038BFBEF1004FBDE8104018BF7047002886
:103AA0000CBF491C20F00100704730D24FEAD42CE3
:103AB00011F5001124F400641BD0B1FA81F20B3A25
:103AC000A41AA41ED2F12003914030FA03F3194343
:103AD000904001EBCC71002C01EB0451BDE810408B
:103AE000A8BF704701F1C0414FF0000001F0004154
:103AF0007047B0FA80F310FA03F100D110BDE41A58
:103B0000173C4805C90AE4E701EB045110BD491010
:103B100001EB0451BDE810404FEA300002E04FF0E5
:103B2000000170474A0008BF0042F8D0B2F5001FFC
:103B300028BF704701F000414FF0000070479EEA37
:103B4000445F07D011EA5E0FBDE8104004BF0021BA
:103B500000207047BDE8104070B5FFF7CBFE00BFF6
:103B600040DFF63E83F00041104670470000E0FF62
:103B700090EA010F48BF81F0004100F16281421AD2
:103B80003CBF801A89184FEAD0524FF07F4C1CEA94
:103B9000410FA2EBD15318BF9CEA026F00F03B80AB
:103BA0004FF0004C4CEA00204CEA012121FA03FCC2
:103BB00010EB0C0C1ED202F1FF325FEA1C2040EB2E
:103BC000C25038BF70471CF07F0F4FEA400C18BF3F
:103BD000BCF17F4F38BF7047C3F12003994008BF45
:103BE00020F00100BCF17F4F38BF7047A0F1C0400A
:103BF00000F01BB94FEA3C00000A40EBC25028BF5E
:103C00001CF0FF0F4FEA400CE6D018BFBCF17F4F0D
:103C100038BF7047EAE79CEA026F05D010EA5C0FF4
:103C200008BF00F00040704710B500F0B8F800BFC2
:103C300064FBBE3EC10DD1F19E0206DB4FEA0023BC
:103C400043F0004323FA02F07047004207D54FEAE1
:103C50004001B1F1FE4F02D24FF00000704710B5A5
:103C600000F09DF849922480002070476FEA200000
:103C700070470000B0FA80F310FA03F2C3F19D031D
:103C80000AD0D90501EB1220530638BF704700F166
:103C9000010008BF20F00100704700004FF47F0CC6
:103CA0001CEAD0121EBF1CEAD11392EA0C0F93EA51
:103CB0000C0F00F0478090EA010F48BF42F4807279
:103CC0004FF0004C4CEA00204CEA012102EB0302C9
:103CD000A0FB0113A2F50002002918BF43F0010365
:103CE0005B0028BF4FEA330342EB22425FEA132C0A
:103CF0004CEBC2502EBFBCEB436FB2F57C0F70474C
:103D00004FEA036CBCF1004F08BF20F00100B2F590
:103D10007C0F38BF70470BD582F0FF0212F5803F51
:103D2000C8BF704700F1C040D8BF00F000407047E6
:103D300000F5000C5FEA4C0C48BF7047B0F1C04082
:103D400000F073B890EA010F0CEAD11348BF42F4B7
:103D50008072624538BF634504D280EA010000F0FA
:103D60000040704710B500F01AF800BF8900013E0E
:103D700000F007B800F009B85FEA410C5FEA1C6C7C
:103D800008D080EA010000F050B85FEA400C5FEA1A
:103D90001C6CF6D14FF00040A0F5800070470EF18A
:103DA000020E2EF0030E5EF8044B244204D44FEAB8
:103DB0004102B2F17F4F11D84FEA4003B3F17F4F78
:103DC0000CD80ED14FEAD07CB2F17F4F0CEB4C0CEB
:103DD0000CF1020C08BF4CEBD17C04E04FF0080C56
:103DE00001E04FEAD17C0CEB4C0324FA03F404F01D
:103DF0000704B4F1040C06D20EEB840CBDE81040AD
:103E00004CF0010C6047DFE80CF0070802024FF0AD
:103E10000040A0F5800010BD0846420018BFD2F156
:103E2000807288BF00F0004010BDFF2141EAD050F1
:103E3000C005704790EA010F48BF81F000413FF58F
:103E40009EAE421A04D882F00042A0EB0200114458
:103E50004FEAD0524FF07F4C1CEA410FA2EBD153F6
:103E600018BF9CEA026F4AD04FF0004C4CEA002089
:103E70004CEA012121FA03FCB0EB0C0C0FD412F038
:103E8000FE0F36D05FEA4C001DD5001240EBC25049
:103E900038BF70471CF03F0F18BF70470BE0A2F10E
:103EA00001025FEA1C2040EBC25038BF70471CF093
:103EB0007F0F18BF7047C3F12003994014BF401E05
:103EC00020F00100704780084FEA122308BF7047B6
:103ED000B0FA80FCA2EB0C02CCF1280C60FA0CF0DA
:103EE00093EA122F04BF00EBC25070474FEAC37031
:103EF0007047130A5FEADC1008BF7047F6E79CEAD8
:103F0000026F04D010EA5C0F08BF0020704710B5A4
:103F1000FFF745FF40DFF63E81F0004070470000AC
:103F20000000000000000000000000000000000091
:103F30000000000000000000000000000000000081
:103F40000000000000000000000000000000000071
:103F50008001800180018001800180018001800159
:103F6000800180018001800180010000000080014B
:103F700080010000000000000000000000000000C0
:103F80000000CC00CC00CC00CC00CC00CC00000069
:103F90000000000000000000000000000000000021
:103FA0000000000000000000000000000000000011
:103FB00000000000000000000000600C600C600CBD
:103FC00030063006FE1FFE1F300638071803FE1F9E
:103FD000FE1F180318038C018C018C0100000000E7
:103FE0008000E003F80F9C0E8C1C8C188C0098004D
:103FF000F801E007800E801C8C188C189C18B80CF7
:10400000F00FE003800080000000000000000000CE
:10401000000000000E181B0C110C110611061103F4
:1040200011039B018E01C038C06C60446044304471
:1040300030441844186C0C380000000000000000E8
:10404000E001F0033807180618063003F001F0000D
:10405000F8009C310E33061E061C061C063FFC733E
:10406000F02100000000000000000000000000003F
:1040700000000C000C000C000C000C000C000000F8
:104080000000000000000000000000000000000030
:104090000000000000000000000000000000000020
:1040A000000200038001C000C0006000600030001A
:1040B0003000300030003000300030003000600050
:1040C0006000C000C000800100030002000000008A
:1040D00020006000C0008001800100030003000692
:1040E00000060006000600060006000600060003A3
:1040F000000380018001C00060002000000000007B
:1041000000000000000000000000C000C000D80651
:10411000F807E0013003380700000000000000004D
:10412000000000000000000000000000000000008F
:1041300000000000000000000000800180018001FC
:1041400080018001FC3FFC3F8001800180018001F3
:1041500080010000000000000000000000000000DE
:10416000000000000000000000000000000000004F
:10417000000000000000000000000000000000003F
:1041800080018001000100018000000000000000AB
:10419000000000000000000000000000000000001F
:1041A000000000000000E007E00700000000000041
:1041B00000000000000000000000000000000000FF
:1041C00000000000000000000000000000000000EF
:1041D00000000000000000000000000000000000DF
:1041E000C000C0000000000000000000000000004F
:1041F000000C000C0006000600060003000300038C
:104200008003800180018001C000C000C000600008
:10421000600000000000000000000000000000003E
:10422000E003F007380E180C0C180C180C180C18BA
:104230000C180C180C180C180C18180C380EF00769
:10424000E00300000000000000000000000000008B
:1042500000018001C001F001980188018001800106
:104260008001800180018001800180018001800146
:1042700080010000000000000000000000000000BD
:10428000E003F80F180C0C180C1800180018000C9C
:10429000000600038001C000600030001800FC1F11
:1042A000FC1F0000000000000000000000000000F3
:1042B000E001F807180E0C0C0C0C000C0006C003F3
:1042C000C007000C001800180C180C18180CF80780
:1042D000E0030000000000000000000000000000FB
:1042E000000C000E000F000F800DC00C600C600C65
:1042F000300C180C0C0CFC3FFC3F000C000C000CAC
:10430000000C0000000000000000000000000000A1
:10431000F80FF80F180018000C00EC03FC071C0E37
:10432000001C0018001800180C181C0C180EF807B8
:10433000E00300000000000000000000000000009A
:10434000C007F00F381C181818000C00CC03EC0F35
:104350003C0E1C1C0C180C180C18181C380EF007FE
:10436000E00300000000000000000000000000006A
:10437000FC1FFC1F000C00060006000380038001E8
:10438000C001C000E000600060007000300030003C
:1043900030000000000000000000000000000000ED
:1043A000E003F007380E180C180C180C3806F0074C
:1043B000F007180C0C180C180C180C18380CF80F07
:1043C000E00300000000000000000000000000000A
:1043D000E003F007380E1C0C0C180C180C181C1CF1
:1043E000381EF81BE0190018000C000C1C0EF80712
:1043F000F0010000000000000000000000000000CC
:1044000000000000000000000000800180010000AA
:10441000000000000000000000000000000080011B
:10442000800100000000000000000000000000000B
:10443000000000000000000000008001800100007A
:1044400000000000000000000000000000008001EB
:104450008001000100018000000000000000000059
:10446000000000000000000000000000000000103C
:10447000001C800FE003F8001800F800E003800F34
:10448000001C001000000000000000000000000000
:104490000000000000000000000000000000F81F05
:1044A000000000000000F81F0000000000000000F5
:1044B00000000000000000000000000000000000FC
:1044C00000000000000000000000000000000800E4
:1044D0003800F001C007001F0018001FC007F001DE
:1044E000380008000000000000000000000000008C
:1044F000E003F80F180C0C180C180018000C00063C
:1045000000038001C000C000C00000000000C00027
:10451000C0000000000000000000000000000000DB
:104520000000E00718180420C229224A1144094457
:104530000944094409221113E20C0240042018180E
:10454000E007000000000000000000000000000084
:1045500080038003C006C006C006600C600C3018E3
:1045600030183018F83FF83F1C700C600C6006C023
:1045700006C0000000000000000000000000000075
:10458000FC03FC0F0C0C0C180C180C180C0CFC0782
:10459000FC0F0C180C300C300C300C300C18FC1FBD
:1045A000FC07000000000000000000000000000008
:1045B000C007F01F38381C300C700660060006007B
:1045C000060006000600060006600C701C30F01F96
:1045D000E0070000000000000000000000000000F4
:1045E000FE03FE0F060E06180618063006300630CB
:1045F000063006300630063006180618060EFE0F86
:10460000FE030000000000000000000000000000A9
:10461000FC3FFC3F0C000C000C000C000C00FC1FCD
:10462000FC1F0C000C000C000C000C000C00FC3FEC
:10463000FC3F00000000000000000000000000003F
:10464000F83FF83F18001800180018001800F81F6D
:10465000F81F18001800180018001800180018009B
:104660001800000000000000000000000000000032
:10467000E00FF83F3C780E6006E007C0030003003F
:1046800003FE03FE03C007C006C00EC03CF0F83FA7
:10469000E00F00000000000000000000000000002B
:1046A0000C300C300C300C300C300C300C30FC3F2B
:1046B000FC3F0C300C300C300C300C300C300C301B
:1046C0000C300000000000000000000000000000AE
:1046D00080018001800180018001800180018001D2
:1046E00080018001800180018001800180018001C2
:1046F0008001000000000000000000000000000039
:104700000006000600060006000600060006000679
:104710000006000600060006180618063807F00313
:10472000E0010000000000000000000000000000A8
:1047300006300618060C060606038601C60066004B
:104740007600DE008E0106030606060C061806300B
:1047500006600000000000000000000000000000F3
:104760001800180018001800180018001800180089
:104770001800180018001800180018001800F81F7A
:10478000F81F000000000000000000000000000012
:104790000EE01EF01EF01EF036D836D836D836D8C9
:1047A00066CC66CC66CCC6C6C6C6C6C6C6C686C3FA
:1047B00086C30000000000000000000000000000B0
:1047C0000C301C303C303C306C306C30CC30CC3059
:1047D0008C310C330C330C360C360C3C0C3C0C3846
:1047E0000C3000000000000000000000000000008D
:1047F000E007F81F1C380E70066003C003C003C03A
:1048000003C003C003C003C006600E701C38F81F4D
:10481000E0070000000000000000000000000000B1
:10482000FC0FFC1F0C380C300C300C300C300C180A
:10483000FC1FFC070C000C000C000C000C000C0012
:104840000C0000000000000000000000000000005C
:10485000E007F81F1C380E70066003E003C003C0B9
:1048600003C003C003C007E006630E3F1C3CF83FD3
:10487000E0F700C0000000000000000000000000A1
:10488000FE0FFE1F06380630063006300638FE1FC3
:10489000FE0706030606060C061806180630063044
:1048A00006600000000000000000000000000000A2
:1048B000E003F80F1C0C0C180C180C001C00F8037B
:1048C000E00F001E0038063006300E301C1CF80FBA
:1048D000E0070000000000000000000000000000F1
:1048E000FE7FFE7F800180018001800180018001C8
:1048F00080018001800180018001800180018001B0
:104900008001000000000000000000000000000026
:104910000C300C300C300C300C300C300C300C30B7
:104920000C300C300C300C300C300C301818F81FD8
:10493000E007000000000000000000000000000090
:1049400003600630063006300C180C180C18180CD2
:10495000180C380E30063006700760036003C00183
:10496000C001000000000000000000000000000086
:104970000360C361C361C361663366336633663304
:10498000663366336C1B6C1B6C1B2C1A3C1E380E7A
:10499000380E0000000000000000000000000000D1
:1049A0000FE00C7018303018700C600EC0078003D8
:1049B0008003C003E006700C301C18180C300E6029
:1049C00007E0000000000000000000000000000000
:1049D00003C006600C301C383818300C6006E00745
:1049E000C00380018001800180018001800180017D
:1049F0008001000000000000000000000000000036
:104A0000FC7FFC7F006000300018000C00060003F3
:104A10008001C0006000300018000C000600FE7F1E
:104A2000FE7F000000000000000000000000000009
:104A3000E003E00360006000600060006000600070
:104A40006000600060006000600060006000600066
:104A50006000600060006000E003E0030000000010
:104A600030003000600060006000C000C000C00086
:104A7000C0018001800180010003000300030006E3
:104A80000006000000000000000000000000000020
:104A9000E003E0030003000300030003000300033E
:104AA00000030003000300030003000300030003EE
:104AB0000003000300030003E003E0030000000024
:104AC0000000C001C00160036003600330063006CF
:104AD000180C180C0000000000000000000000008E
:104AE00000000000000000000000000000000000C6
:104AF00000000000000000000000000000000000B6
:104B000000000000000000000000000000000000A5
:104B1000FFFFFFFF00000000000000000000000099
:104B20000C000C000C000C000C000C00000000003D
:104B30000000000000000000000000000000000075
:104B40000000000000000000000000000000000065
:104B500000000000000000000000F003F8071C0C3B
:104B60000C0C000FF00FF80C0C0C0C0C1C0FF80FB9
:104B7000F01800000000000000000000000000002D
:104B800018001800180018001800D803F80F380C87
:104B9000181818181818181818181818380CF80FAA
:104BA000D80300000000000000000000000000002A
:104BB00000000000000000000000C003F007300EFD
:104BC000180C1800180018001800180C300EF00708
:104BD000C003000000000000000000000000000012
:104BE00000180018001800180018C01BF01F301C17
:104BF000181818181818181818181818301CF01F3A
:104C0000C01B0000000000000000000000000000C9
:104C100000000000000000000000C003F00F300C96
:104C20001818F81FF81F180018003818301CF00F5B
:104C3000C0070000000000000000000000000000AD
:104C4000800FC00FC000C000C000F007F007C00018
:104C5000C000C000C000C000C000C000C000C00054
:104C6000C000000000000000000000000000000084
:104C700000000000000000000000E00DF80F180E1A
:104C80000C0C0C0C0C0C0C0C0C0C0C0C180EF80F67
:104C9000E00D000C0C0C1C06F807F00100000000F1
:104CA00018001800180018001800D807F80F381C52
:104CB0001818181818181818181818181818181874
:104CC00018180000000000000000000000000000B4
:104CD000C000C000000000000000C000C000C00014
:104CE000C000C000C000C000C000C000C000C000C4
:104CF000C0000000000000000000000000000000F4
:104D0000C000C000000000000000C000C000C000E3
:104D1000C000C000C000C000C000C000C000C00093
:104D2000C000C000C000C000F80078000000000013
:104D30000C000C000C000C000C000C0C0C060C03FE
:104D40008C01CC006C00FC009C018C030C030C0655
:104D50000C0C00000000000000000000000000003B
:104D6000C000C000C000C000C000C000C000C00043
:104D7000C000C000C000C000C000C000C000C00033
:104D8000C000000000000000000000000000000063
:104D9000000000000000000000007C3CFF7EC7E334
:104DA00083C183C183C183C183C183C183C183C1E3
:104DB00083C10000000000000000000000000000AF
:104DC000000000000000000000009807F80F381CE9
:104DD0001818181818181818181818181818181853
:104DE0001818000000000000000000000000000093
:104DF00000000000000000000000C003F00F300CB5
:104E0000181818181818181818181818300CF00F47
:104E1000C0030000000000000000000000000000CF
:104E200000000000000000000000D803F80F380C5C
:104E3000181818181818181818181818380CF80F07
:104E4000D80318001800180018001800000000000F
:104E500000000000000000000000C01BF01F301C1C
:104E6000181818181818181818181818301CF01FC7
:104E7000C01B0018001800180018001800000000DF
:104E800000000000000000000000B007F003700008
:104E90003000300030003000300030003000300092
:104EA00030000000000000000000000000000000D2
:104EB00000000000000000000000E003F003380ED6
:104EC000180C3800F003C007000C180C380EF0075F
:104ED000E0030000000000000000000000000000EF
:104EE00000008000C000C000C000F007F007C00054
:104EF000C000C000C000C000C000C000C000C007AB
:104F0000800700000000000000000000000000001A
:104F10000000000000000000000018181818181801
:104F2000181818181818181818181818381CF01FFE
:104F3000E019000000000000000000000000000078
:104F4000000000000000000000000C18180C180CF5
:104F5000180C300630063006600360036003C001A1
:104F6000C001000000000000000000000000000080
:104F700000000000000000000000C141C141C36109
:104F80006363636363633636363636361C1C1C1C1B
:104F90001C1C0000000000000000000000000000D9
:104FA000000000000000000000001C38381C300C1D
:104FB000600660036003600360036006300C381C09
:104FC0001C3800000000000000000000000000008D
:104FD00000000000000000000000183030183018F9
:104FE0007018600C600CE00CC006C00680038003E3
:104FF000800380018001C001F0007000000000000B
:1050000000000000000000000000FC1FFC1F000C5E
:10501000000600038001C000600030001800FC1F83
:10502000FC1F000000000000000000000000000065
:1050300000038001C000C000C000C000C000C0006C
:1050400060006000300060004000C000C000C00090
:10505000C000C000C000800100030000000000008C
:105060008001800180018001800180018001800138
:105070008001800180018001800180018001800128
:10508000800180018001800180018001000000001A
:105090006000C000C00180018001800180018001AA
:1050A000000300030006000300018001800180016D
:1050B000800180018001C00060000000000000004D
:1050C0000000000000000000000000000000F010E0
:1050D000F81F080F000000000000000000000000A2
:1050E00000000000000000000000000000000000C0
:1050F00010510008000000205C000000280100089A
:105100006C5100085C0000208C060000440100087F
:1051100000A24A0400000000000000000102030495
:10512000060708090000000001020304010203044D
:1051300006070809020406080000FFFF000000003F
:1051400000000000004000200000000000000000FF
:10515000000000000000000000000000000000004F
:0C51600000000000000000000000000043
:04000005080000ED02
:00000001FF
