:020000040800F2
:100000009806002089010008A1240008A324000804
:10001000A7240008AB240008AF240008000000005B
:10002000000000000000000000000000B5240008EF
:10003000B324000800000000B7240008B924000819
:10004000A3010008A3010008A3010008A301000800
:10005000A3010008A3010008A3010008A3010008F0
:10006000A3010008A3010008A3010008A3010008E0
:10007000A3010008A3010008A3010008A3010008D0
:10008000A3010008A3010008A3010008A3010008C0
:10009000A3010008A3010008A3010008A3010008B0
:1000A000A3010008A3010008A3010008A3010008A0
:1000B000A3010008A301000849240008A3010008C7
:1000C000A3010008A3010008A3010008A301000880
:1000D000A3010008A3010008A3010008A301000870
:1000E000A3010008A3010008A301000800F002F822
:1000F00000F03AF80AA090E8000C82448344AAF188
:100100000107DA4501D100F02FF8AFF2090EBAE885
:100110000F0013F0010F18BFFB1A43F0010318473B
:100120001437000034370000103A24BF78C878C173
:10013000FAD8520724BF30C830C144BF04680C60ED
:10014000704700000023002400250026103A28BF35
:1001500078C1FBD8520728BF30C148BF0B60704739
:100160001FB51FBD10B510BD02F045FA1146FFF7CF
:10017000F7FF02F01FF902F063FA03B4FFF7F2FF92
:1001800003BC02F067FA00000948804709480047AD
:10019000FEE7FEE7FEE7FEE7FEE7FEE7FEE7FEE737
:1001A000FEE7FEE704480549054A064B7047000094
:1001B000A5020008ED000008980000209806002025
:1001C00098020020980200200CB5002001900090B9
:1001D0006B48006840F480306949086000BF684897
:1001E000006800F4003000900198401C01900098D5
:1001F00018B90198B0F5A06FF1D16148006810F40A
:10020000003F02D00120009001E000200090009803
:10021000012842D15B48006840F01000594908604D
:100220000846006820F0030008600846006840F0B7
:1002300002000860524840685149486008464068DA
:1002400048600846406840F480604860084640685E
:1002500020F47C1048600846406840F4E81048608C
:100260000846006840F08070086000BF444800689D
:1002700010F0007FFAD04248406820F00300404967
:1002800048600846406840F00200486000BF3C48B3
:10029000406800F00C000828F9D10CBD10B5FFF73C
:1002A00093FF10BD10B53648006840F00100344996
:1002B00008600846406834490840314948600846AB
:1002C0000068324908402E4908600846006820F45A
:1002D000802008600846406820F4FE0048604FF423
:1002E0001F008860FFF7DAFF4FF0006028490860C0
:1002F00010BD10B5002100200022214B5B6803F0E7
:100300000C0121B1042906D0082928D107E0214B8E
:10031000214C236027E01F4B1F4C236023E0184B28
:100320005B6803F47010164B5B6803F480320223A1
:1003300003EB904022B9194B4343174C23600DE067
:100340000F4B5B6813F4003F04D0144B4343124C33
:10035000236003E00F4B43430F4C236003E00D4B3E
:100360000D4C236000BF00BF054B5B68C3F3031354
:100370000B4CE15C084B1B68CB40074C236010BD65
:1003800000100240002002400000FFF8FFFFF6FED0
:1003900008ED00E000127A000000002000093D0096
:1003A0000400002010B50446CA48844208D1012147
:1003B000042000F027FB0021042000F023FB46E08E
:1003C000C548844208D10121082000F01BFB002110
:1003D000082000F017FB3AE0C048844208D1012110
:1003E000102000F00FFB0021102000F00BFB2EE08E
:1003F000BB48844208D10121202000F003FB0021EA
:10040000202000F0FFFA22E0B648844208D1012102
:10041000402000F0F7FA0021402000F0F3FA16E047
:10042000B148844208D10121802000F0EBFA00217C
:10043000802000F0E7FA0AE0AC48844207D10121AD
:10044000801500F0DFFA0021A01500F0DBFA10BDE6
:1004500010B50121084600F0D5FA0021012000F076
:10046000D1FA10BD2DE9F0410246002500260020FA
:1004700000230024002791F803C00CF00F0591F829
:1004800003C01CF0100F03D091F802C04CEA050520
:1004900091F800C0BCF1000F31D0146800202BE0AF
:1004A0004FF0010C0CFA00F3B1F800C00CEA03069F
:1004B0009E4220D183004FF00F0C0CFA03F7BC438F
:1004C00005FA03FC4CEA040491F803C0BCF1280FC0
:1004D00006D14FF0010C0CFA00FCC2F814C00AE07F
:1004E00091F803C0BCF1480F05D14FF0010C0CFA94
:1004F00000FCC2F810C0401C0828D1D31460B1F829
:1005000000C0BCF1FF0F34DD546800202EE000F184
:10051000080C4FF0010808FA0CF3B1F800C00CEA1F
:1005200003069E4221D183004FF00F0C0CFA03F713
:10053000BC4305FA03FC4CEA040491F803C0BCF187
:10054000280F05D100F1080C08FA0CF8C2F8148045
:1005500091F803C0BCF1480F07D100F1080C4FF02F
:10056000010808FA0CF8C2F81080401C0828CED305
:100570005460BDE8F0814FF6FF7101800221817067
:100580000421C17070470246002093680B4201D0DD
:10059000012000E0002070470146886880B2704763
:1005A00002460020D3680B4201D0012000E0002069
:1005B00070470146C86880B2704701617047416169
:1005C00070470AB1016100E041617047C160704746
:1005D0004FF480320A43826181618261826982695B
:1005E000704702460020424B18684FF6807318404F
:1005F00040EA021008433E4B186070473D49C8610D
:100600007047F0B50A46002300240021002500F0C1
:100610000046B6F1004F02D1354EF16901E0344E8B
:100620007168C0F3034583B200F44016B6F5401F6D
:1006300008D121F070612E4E766826F070662C4F3E
:100640007E6012E000F48016B6F5801F06D1032606
:1006500006FA05F4A14341F0706106E0460D36014B
:1006600003FA06F6B14341F0706122B1460D36013E
:1006700003FA06F6314300F00046B6F1004F02D10E
:100680001B4EF16101E01A4E7160F0BD30B50022E1
:100690008B071C0F0F2303FA04F2154B08338C1041
:1006A00053F824309343124C08348D1044F825300D
:1006B00023468C1053F824308C07240F00FA04F4DE
:1006C00023430B4C08348D1044F8253030BD0A49C3
:1006D0000860704700080140000C01400010014014
:1006E0000014014000180140001C0140002001409E
:1006F0000000014000002042DC002042DD4800688C
:1007000040F00100DB49086008464068DA490840CB
:10071000D849486008460068D8490840D54908606B
:100720000846006820F4802008600846406820F4ED
:10073000FE0048604FF41F0088607047CD4909688B
:1007400021F48031CB4A11601146096821F48021DF
:100750001160B0F5803F03D0B0F5802F0ED106E0D8
:10076000C449096841F48031C24A116007E0C149B7
:10077000096841F4A021BF4A116000E000BF00BF3A
:10078000704710B501460022002300204A11012ABB
:1007900002D1B84C236806E0022A02D1B54C236A84
:1007A00001E0B44C636A01F01F02012494401C4232
:1007B00001D0012000E0002010BD38B500200090DD
:1007C0000024002500BF3120FFF7DBFF054600981D
:1007D000401C00900098B0F5A06F01D0002DF2D021
:1007E0003120FFF7CEFF08B1012400E000242046AD
:1007F00038BD014600209F4A106820F0F80040EA0A
:10080000C100106070479E49086070470246002092
:10081000984B586820F47C1042EA01031843954B2A
:100820005860704796490866704701460020914A13
:10083000506820F003000843506070478D484068BE
:1008400000F00C007047014600208A4A506820F0F2
:10085000F00008435060704701460020854A506808
:1008600020F4E06008435060704701460020814A50
:10087000506820F4605040EAC1005060704729B1D0
:100880007C4A527A02437B4B5A7204E0794A527A8C
:100890008243784B5A7270477A4908607047014624
:1008A0000020744A506820F440400843506070476C
:1008B0000021754A11706F4A82F82010012802D079
:1008C000042808D103E001216F4A117004E00521DA
:1008D0006D4A117000E000BF00BF70476B490860AF
:1008E00070476449096A0143624A11627047674967
:1008F00044390860704730B50021002200240023ED
:100900005C4D6D6805F00C0121B1042905D0082962
:1009100023D105E05E4D056022E05D4D05601FE0DE
:10092000544D6D6805F47012524D6D6805F48034B5
:10093000022505EB92421CB9564D554305600BE06C
:100940004C4D6D6815F4003F03D0524D5543056082
:1009500002E04F4D5543056002E04D4D056000BF7C
:1009600000BF444D6D6805F0F00109094A4D6B5C0C
:100970000568DD4045603F4D6D6805F4E061090A9A
:10098000454D6B5C4568DD4085603A4D6D6805F40A
:100990006051C90A404D6B5C4568DD40C560354D0E
:1009A0006D6805F44041890B3C4D6B5CC568B5FB37
:1009B000F3F5056130BD29B12E4A526902432D4B32
:1009C0005A6104E02B4A526982432A4B5A617047AC
:1009D00029B1284A92690243264B9A6104E0254ACC
:1009E00092698243234B9A61704729B1214AD269A7
:1009F0000243204BDA6104E01E4AD26982431D4B58
:100A0000DA61704729B11B4AD2680243194BDA6098
:100A100004E0184AD2688243164BDA60704729B165
:100A2000144A12690243134B1A6104E0114A126915
:100A30008243104B1A61704714494039086070476F
:100A40000F49C86470470B49C87170470948406A2C
:100A500040F0807007494862704701460020054A0F
:100A600092680A4201D0012000E00020704701494D
:100A700088727047001002400000FFF8FFFFF6FE8A
:100A800000004242D800424220100240800442420C
:100A900000127A0000093D0014000020240000200C
:100AA00031490143314A1160704770B5002100237C
:100AB0000F22C4780CB32D4C246804F4E064C4F510
:100AC000E064210AC1F10403CA40447804FA03F146
:100AD0008478144021430901254C0678A1550478F7
:100AE00004F01F050124AC4005786D114FF0E0269D
:100AF00006EB8505C5F8004109E0047804F01F0500
:100B00000124AC401B4D0678761145F8264070BD97
:100B1000194A0A400243154B1B1F1A60704739B12E
:100B2000124A121D12680243104B1B1D1A6006E088
:100B30000E4A121D126882430C4B1B1D1A6070472F
:100B4000042808D14FF0E021096941F004014FF079
:100B5000E022116107E04FF0E021096921F0040172
:100B60004FF0E022116170470000FA050CED00E043
:100B700000E400E080E100E080FFFF1F10B50446C4
:100B8000FE48844208D10121C014FFF73BFF002139
:100B9000E014FFF737FFC4E0B4F1804F08D1012122
:100BA0000846FFF73CFF00210120FFF738FFB8E0BF
:100BB000F348844208D101210220FFF730FF0021D1
:100BC0000220FFF72CFFACE0EE48844208D101215F
:100BD0000420FFF724FF00210420FFF720FFA0E0FE
:100BE000E948844208D101210820FFF718FF0021BD
:100BF0000820FFF714FF94E0E448844208D1012163
:100C00001020FFF70CFF00211020FFF708FF88E0FD
:100C1000DF48844208D101212020FFF700FF002196
:100C20002020FFF7FCFE7CE0DA48844208D1012155
:100C30004014FFF7E7FE00216014FFF7E3FE70E0C9
:100C4000D548844209D10121C804FFF7DBFE002109
:100C50004FF40020FFF7D6FE63E0D048844209D16C
:100C600001210805FFF7CEFE00214FF48010FFF7A9
:100C7000C9FE56E0CA48844209D101214805FFF760
:100C8000C1FE00214FF40010FFF7BCFE49E0C5484B
:100C9000844208D101214020FFF7C1FE00214020FD
:100CA000FFF7BDFE3DE0C048844208D1012180200D
:100CB000FFF7B5FE00218020FFF7B1FE31E0BB4811
:100CC000844208D101218015FFF7A9FE0021A0155B
:100CD000FFF7A5FE25E0B648844209D101210804AA
:100CE000FFF790FE00214FF48030FFF78BFE18E0F5
:100CF000B048844209D101214804FFF783FE002156
:100D00004FF40030FFF77EFE0BE0AB48844208D181
:100D100001218804FFF776FE00214FF48020FFF7C1
:100D200071FE10BD00220288944B98420ED0994B60
:100D300098420BD0B0F1804F08D0914B984205D02B
:100D4000904B984202D0904B984204D14FF68F734B
:100D50001A404B881A438D4B984207D08C4B9842CF
:100D600004D04FF6FF431A40CB881A4302808B8889
:100D700083850B880385814B98420BD0854B984225
:100D800008D08B4B984205D08A4B984202D08A4BB0
:100D9000984201D10B7A038601238382704770B594
:100DA000002400220023058C4FF6FE763540058492
:100DB000028C8388048B4FF68F752C40B51E2C4017
:100DC0000D882C43751E2A400D892A434D882A43DD
:100DD0006A4DA8420BD06F4DA84208D0744DA8426E
:100DE00005D0744DA84202D0734DA84213D14FF6DE
:100DF000F7752A404D892A434FF6FB752A408D88A6
:100E00002A434FF6FF652B404FF6FF552B408D8947
:100E10002B43CD892B4383800483CD888586028430
:100E200070BD70B5002400220023058C4FF6EF76CC
:100E300035400584028C8388048B48F6FF752C406E
:100E40004FF6FF452C400D884FF6FF7606EA052544
:100E50002C434FF6DF752A400D8906EA05152A4313
:100E60004D8806EA05152A43444DA84202D0494D53
:100E7000A8421DD14FF67F752A404D894FF6FF7667
:100E800006EA05152A434FF6BF752A408D8806EA03
:100E900005152A434FF6FF352B404FF2FF752B40C7
:100EA0008D8906EA85052B43CD8906EA85052B4306
:100EB00083800483CD880587028470BD70B50024CB
:100EC00000220023058C4FF6FF6635400584028C16
:100ED0008388848B4FF68F752C404FF6FC752C4021
:100EE0000D882C434FF6FF552A400D894FF6FF76AB
:100EF00006EA05252A434D8806EA05252A431F4DA3
:100F0000A84202D0234DA8421DD14FF2FF752A40BE
:100F10004D894FF6FF7606EA05252A434FF6FF3541
:100F20002A408D8806EA05252A434EF6FF752B4098
:100F30004DF6FF752B408D8906EA05152B43CD89AB
:100F400006EA05152B4383808483CD888587028438
:100F500070BD70B5002200230024058C4EF6FF768C
:100F600035400584038C8488828B48F6FF752A40BF
:100F70004FF6FF452A400D8820E00000002C01407C
:100F80000004004000080040000C00400010004039
:100F90000014004000340140004C0140005001406A
:100FA0000054014000180040001C00400020004098
:100FB0000040014000440140004801404FF6FF76E8
:100FC00006EA05252A434DF6FF752B400D8906EAF2
:100FD00005352B434D8806EA05352B43FA4DA842CB
:100FE00002D0FA4DA84208D14BF6FF752C408D89EE
:100FF0004FF6FF7606EA85152C4384808283CD88E0
:10100000A0F84050038470BD828B4FF2FF331A402A
:101010008283828B4FF6FF7303EA01231A43828394
:101020007047F0B50C461546002200210026078CBB
:101030004EF6FF7C07EA0C070784828B018C4FF683
:10104000FF7707EA043640F6FF473A404FF6FF774E
:1010500007EA05273A434FF6FF7707EA03373A4393
:10106000D94FB8420ED0D94FB8420BD0B0F1804F13
:1010700008D0D74FB84205D0D64FB84202D0D64F8D
:10108000B84206D14DF6FF77394046F480573943D0
:1010900005E047F6FF57394044F4805739438283CF
:1010A0000184F0BD828B4FF6F3731A408283828BEA
:1010B0000A4382837047F0B50C4615460022002192
:1010C0000026078C4FF6FF6C07EA0C070784828B1B
:1010D000018C4FF6FF7707EA04264FF60C773A406B
:1010E0004FF6FF7707EA03172F433A43B64FB8424C
:1010F0000ED0B64FB8420BD0B0F1804F08D0B44FED
:10110000B84205D0B34FB84202D0B34FB84206D16F
:101110004FF6FF57394046F48077394305E04FF2E8
:10112000FF57394044F48077394382830184F0BD0E
:10113000028B4FF2FF331A400283028B4FF6FF738C
:1011400003EA01231A4302837047F0B50C461546A3
:10115000002200210026078C4FF6EF7C07EA0C07DF
:101160000784028B018C4FF6FF7707EA041640F6DE
:10117000FF473A404FF6FF7707EA03373A434FF607
:10118000FF7707EA05273A438F4FB8420ED08F4FBB
:10119000B8420BD0B0F1804F08D08D4FB84205D087
:1011A0008C4FB84202D08C4FB84206D14FF6DF7751
:1011B000394046F01007394305E04FF65F77394074
:1011C00044F01007394302830184F0BD028B4FF6CF
:1011D000F3731A400283028B0A4302837047F0B50F
:1011E0000C46154600220021068C4FF6FE773E4045
:1011F0000684028B018C4FF60C7632407E1C06EA88
:1012000003162E433243704EB0420ED06F4EB042A2
:101210000BD0B0F1804F08D06D4EB04205D06D4E6E
:10122000B04202D06C4EB04206D14FF6FD7631404E
:1012300044F00106314305E04FF6F576314044F0C5
:101240000106314302830184F0BD70B505460C46AA
:101250005D4885420ED05D4885420BD0B5F1804F88
:1012600008D05B48854205D05A48854202D05A488A
:10127000854200D100E000BF208850B92389A288B0
:1012800061882846FFF7ABFFE1882846FFF79EFFFD
:1012900025E0208804280AD12389A288618828466D
:1012A000FFF753FFE1882846FFF742FF17E0208849
:1012B00008280AD12389A28861882846FFF7FBFE07
:1012C000E1882846FFF7EEFE09E02389A2886188BD
:1012D0002846FFF7A6FEE1882846FFF795FE70BD79
:1012E0002DE9F04105460C4600260127608808B923
:1012F000022600E00026A088012801D1022700E094
:1013000001272088A0B92389A28861882846FFF791
:1013100066FFE1882846FFF759FF23893A463146A0
:101320002846FFF712FFE1882846FFF701FF13E088
:101330002389A28861882846FFF707FFE1882846AD
:10134000FFF7F6FE23893A4631462846FFF747FF66
:10135000E1882846FFF73AFFBDE8F0810A884B880C
:101360001A438B881A43CB881A430B891A434B893B
:101370001A438B891A43A0F8442070474FF6FF7137
:10138000818000210180C18041800172704700216D
:10139000018041808180C180018141818181C18141
:1013A0007047002101804180012181800021C1809E
:1013B000018170470021018041808180C1800181CD
:1013C0004181818170470000002C014000340140C0
:1013D0000004004000080040000C004021B10288D9
:1013E00042F00102028004E002884FF6FE731A40C8
:1013F0000280704731B1B0F8442042F40042A0F8B6
:10140000442005E0B0F84420C2F30E02A0F84420C6
:1014100070471AB183890B43838102E083898B4330
:10142000838170478182704741EA0203A0F8483007
:1014300070471AB183890B43838102E083898B4310
:101440008381704701894FF6F8721140018170471E
:101450000A46002101894FF68F731940114301811B
:10146000704730B504460D4629462046FFF7F0FF89
:10147000208940F00700208130BD2DE9F04104466D
:101480000D4616461F46602D06D13B4601223146C9
:101490002046FFF75AFE05E03B4601223146204632
:1014A000FFF79DFE29462046FFF7D2FF208940F036
:1014B00007002081BDE8F08130B50C46002101898C
:1014C000C9B24FF6FF7505EA0325154325432943A5
:1014D000018130BD2DE9F04105460E46174698467C
:1014E000002443463A4631462846FFF7E5FF2C895B
:1014F0004FF6F870044044F007044FF68F70044034
:1015000044F070042C81BDE8F081F0B504460D462E
:1015100016461F463B46324629462046FFF7CCFF7B
:10152000208940F480402081F0BD0185828270478F
:101530000A46002101884FF68F731940114301803C
:101540007047F0B50C4615461E46002100220023C8
:101550000189028B038C4FF6F877394021434FF60F
:10156000FC473A4040F201173A434FF6DD773B40E3
:101570004FF6FF7707EA06172F433B4301810283AB
:101580000384F0BD0A460021018B4FF68F7319408A
:101590001143018370470A460021018B48F6FF730F
:1015A00019404FF6FF7303EA022319430183704782
:1015B0000A460021818B4FF68F73194011438183B6
:1015C00070470A460021818B48F6FF7319404FF699
:1015D000FF7303EA022319438183704721B1028814
:1015E00042F08002028004E002884FF67F731A40C6
:1015F0000280704721B1828842F00402828004E0B8
:1016000082884FF6FB731A408280704721B182882E
:1016100042F00802828004E082884FF6F7731A4095
:101620008280704721B1828842F00102828004E00A
:1016300082884FF6FE731A40828070470A46002166
:10164000018B4FF6F77319401143018370470A4627
:101650000021018B4FF2FF7319404FF6FF7303EA2D
:1016600002231943018370470A460021818B4FF6FC
:10167000F77319401143818370470A460021818B1B
:101680004FF2FF7319404FF6FF7303EA0223194329
:10169000818370470A460021018B4FF6FB73194086
:1016A0001143018370470A460021018B4FF6FF3337
:1016B00019404FF6FF7303EA022319430183704771
:1016C0000A460021818B4FF6FB7319401143818339
:1016D00070470A460021818B4FF6FF3319404FF6C1
:1016E000FF7303EA02231943818370470A460021EE
:1016F000018B4FF67F7319401143018370470A46EF
:101700000021018BC1F30E014FF6FF7303EA0223A0
:101710001943018370470A460021818B4FF67F737E
:1017200019401143818370470A460021818BC1F320
:101730000E014FF6FF7303EA0223194381837047BA
:101740000A460021018C4FF6FD73194011430184B4
:1017500070470A460021018C4FF6F7731940114378
:10176000018470470A460021018C4FF6DF7319404F
:101770004FF6FF7303EA02131943018470470A46C8
:101780000021018C4FF67F7319404FF6FF7303EA77
:1017900002131943018470470A460021018C4FF659
:1017A000FF5319404FF6FF7303EA022319430184E4
:1017B00070470A460021018C4FF2FF7319404FF623
:1017C000FF7303EA02231943018470470A4600218C
:1017D000018C4DF6FF7319404FF6FF7303EA023395
:1017E00019430184704730B5002301248C40A3B213
:1017F000048C9C430484048C02FA01F5ADB22C43A2
:10180000048430BD30B5002304248C40A3B2048C82
:101810009C430484048C02FA01F5ADB22C43048489
:1018200030BD70B50346002000241846183001254D
:101830008D40ACB21D8CA5431D8409B1082909D186
:1018400000EB6100056825F070050560056815432B
:1018500005600EE00D1FC5F34E052844056825F40C
:10186000E045056005684FF6FF7606EA0226354337
:10187000056070BD21B1028842F00202028004E0DE
:1018800002884FF6FD731A400280704721B102882A
:1018900042F00402028004E002884FF6FB731A4013
:1018A0000280704721B1828842F08002828004E089
:1018B00082884FF67F731A408280704702884FF605
:1018C000F7731A40028002880A43028070478288B8
:1018D0004FF68F731A40828082880A438280704755
:1018E00002894FF6F8731A40028102890A43028185
:1018F000704702894FF67F731A40028102890A43BA
:101900000281704781847047818570478186704766
:101910000187704781877047A0F8401070470288A0
:101920004FF6FF431A40028002880A430280704744
:101930000146888E70470146088F70470146888FA0
:1019400070470146B1F8400070470146888C7047E7
:101950000146088D704702460020138A0B4201D0D1
:10196000012000E000207047CA430282704730B572
:101970000246002000230024158A05EA0103958908
:1019800005EA010413B10CB1012000E0002030BDD4
:10199000CA43028270470000002109E0002201E0F2
:1019A000531C9AB240F6B8339A42F9DB4B1C99B2F9
:1019B0008142F3DB704710B5FD4BDB689AB24FF400
:1019C0000073FC4C23605B1023602023241F2360E2
:1019D000F74BD8602023241D2360241F2360DB00E5
:1019E0002360F34BD9602023241D2360241F236030
:1019F000DB002360EE4BDA6010BD00B50121002052
:101A0000FFF7D9FF4FF47A70FFF7C6FF00210120DE
:101A1000FFF7D1FF41F290711020FFF7CCFF4FF498
:101A20001C516020FFF7C7FF01216120FFF7C3FFB2
:101A300002214620FFF7BFFF48F210011320FFF7F5
:101A4000BAFF48F2FE011220FFF7B5FF4FF4A06184
:101A50000220FFF7B0FF41F230010320FFF7ABFF98
:101A600040F203313020FFF7A6FF40F2033131206E
:101A7000FFF7A1FF40F203313220FFF79CFF4FF444
:101A800040713320FFF797FF03213420FFF793FFC6
:101A900040F203313520FFF78EFF14213620FFF787
:101AA0008AFF40F203313720FFF785FF40F2033110
:101AB0003820FFF780FF40F203313920FFF77BFF2A
:101AC0004FF440713A20FFF776FF03213B20FFF7E8
:101AD00072FF40F203313C20FFF76DFF4FF4A0513D
:101AE0003D20FFF768FF4FF400719220FFF763FF7E
:101AF00040F203319320FFF75EFF40F60D01902086
:101B0000FFF759FF41F218010320FFF754FF40F29D
:101B100073110720FFF74FFF00BD00B543F2080126
:101B2000E320FFF748FF1221E720FFF744FF41F2CF
:101B30003121EF20FFF73FFF00210120FFF73BFF9E
:101B40004FF4E0610220FFF736FF41F2300103203D
:101B5000FFF731FF00210420FFF72DFF40F207219E
:101B60000820FFF728FF00210920FFF724FF0021AC
:101B70000A20FFF720FF00210C20FFF71CFF0021A7
:101B80000D20FFF718FF00210F20FFF714FF0021A1
:101B90001020FFF710FF07211120FFF70CFF002195
:101BA0001220FFF708FF00211320FFF704FF4FF476
:101BB0007A70FFF7F1FE41F290611020FFF7FBFE13
:101BC00040F227211120FFF7F6FE3220FFF7E4FE56
:101BD0001D211220FFF7EFFE3220FFF7DDFE4FF44C
:101BE00000611320FFF7E7FE14212920FFF7E3FE31
:101BF0000B212B20FFF7DFFE3220FFF7CDFE002167
:101C00002020FFF7D8FE00212120FFF7D4FE072176
:101C10003020FFF7D0FE40F207713120FFF7CBFEF6
:101C200006213220FFF7C7FE40F204713520FFF78E
:101C3000C2FE41F604713620FFF7BDFE04213720B5
:101C4000FFF7B9FE00213820FFF7B5FE40F206711C
:101C50003920FFF7B0FE40F201713C20FFF7ABFEE8
:101C60000F213D20FFF7A7FE00215020FFF7A3FE24
:101C7000EF215120FFF79FFE00215220FFF79BFE2E
:101C800040F23F115320FFF796FE4FF41C516020A5
:101C9000FFF791FE01216120FFF78DFE00216A20F0
:101CA000FFF789FE00218020FFF785FE00218120BB
:101CB000FFF781FE00218220FFF77DFE00218320B7
:101CC000FFF779FE00218420FFF775FE00218520B3
:101CD000FFF771FE10219020FFF76DFE002192208A
:101CE000FFF769FE03219320FFF765FE4FF488712B
:101CF0009520FFF760FE00219720FFF75CFE002192
:101D00009820FFF758FE41F218010320FFF753FE19
:101D100040F273110720FFF74EFE00BD08B54FF6E5
:101D2000FF70ADF8000003208DF8020010208DF840
:101D3000030069461E48FEF795FB08BD08B54FF63F
:101D4000FF70ADF8000003208DF8020048208DF8E8
:101D5000030069461648FEF785FB08BD70B50446CA
:101D60004FF4007013490860401008602020091FDC
:101D700008600F48C4602020091D0860091F086022
:101D8000C0000860FFF7DAFF4FF48060094908607F
:101D90000748806885B20815091F0860FFF7BEFF75
:101DA0004FF400700349091F0860284670BD000009
:101DB00000100140140C014008B501211820FEF765
:101DC00007FE01212020FEF703FE4FF4E460ADF88A
:101DD000000001208DF8020010208DF803006946F4
:101DE000F648FEF73FFBFFF799FFF4481030006814
:101DF00040F4C460F1491031086008BD10B5FFF728
:101E0000DBFF0020FFF7AAFFED49088008460088A5
:101E1000A0F50241303902D1FFF7EFFD01E0FFF7F5
:101E20007CFE0020FFF79AFFE549088010BD01B550
:101E3000BDF80000E349088008BD01B5BDF8000009
:101E4000E149088008BD30B504460D4621462020F2
:101E5000FFF7B1FD29462120FFF7ADFD30BDDB4A7C
:101E6000D26891B24FF40072D44B14331A605210FE
:101E70001B1F1A6020221A60D44AD06020221B1D2A
:101E80001A601B1F1A60D2001A6052001A60CF4AF3
:101E9000D1607047CD49C96888B24FF40071C74A14
:101EA00014321160491011602021121F116022218B
:101EB000C64AD1602021C14A14321160121F11603C
:101EC000C900116049001160C049C86070472DE920
:101ED000F04306468946174600240025A046B04632
:101EE00049464046FFF7AFFF00BF1EE0FFF7D2FFB5
:101EF00000250FE037F814000121A940084204D161
:101F0000B1480088FFF7ABFF03E0AE480088FFF759
:101F1000A6FF6D1C102DEDD308F1010000F0FF08A5
:101F200049464046FFF78FFF641C182CDED3BDE8FE
:101F3000F08370B505460E461446A4F12000C4B2E5
:101F400004EB4400A24901EB001231462846FFF79A
:101F5000BEFF70BDF0B507460C46002540F23F16A7
:101F600009E0227831463846FFF7E3FFA6F110007A
:101F700086B2641C6D1C207808B1142DF1D3F0BD1D
:101F800010B5044693A12046FFF7E4FF10BD30B51D
:101F90000546002400210846FFF755FFFFF77AFFAA
:101FA00000BF03E02846FFF75AFF641CB4F5963FD4
:101FB000F8D330BDF0B504460D4616461F46B44270
:101FC00006DBA01B401C81B25020FFF7F4FC03E0AD
:101FD00000215020FFF7EFFC21465120FFF7EBFCDA
:101FE000BD4206DBE81B401C81B25220FFF7E3FC38
:101FF00003E000215220FFF7DEFC29465320FFF7C3
:10200000DAFC29462046FFF71EFFF0BD00B54FF46D
:10201000A073F022591EEF20FFF7CCFF41F2180108
:102020000320FFF7C8FC00BD2DE9F04106468846B5
:1020300015461F46002441463046FFF704FF5FB9AE
:10204000FFF728FF00BF04E05E480088FFF707FFA6
:10205000641CAC42F8D310E000240CE0FFF71AFF38
:1020600058480088FFF7FBFE701CC6B24146304658
:10207000FFF7E9FE641CAC42F0D3BDE8F081F0B597
:1020800005460E4617461C46002322463146284682
:10209000FFF7CAFFE919C8B2002322463146FFF70D
:1020A000C3FF01233A4631462846FFF7BDFF301BE8
:1020B000401C81B201233A462846FFF7B5FFF0BD28
:1020C0002DE9F04306460F4690460320A0EB480951
:1020D000002445466EE07A1991B23219D0B2FFF76A
:1020E000B2FEFFF7D7FE37480088FFF7B8FE7A1B2D
:1020F00091B23219D0B2FFF7A6FEFFF7CBFE3148FE
:102100000088FFF7ACFE7A1991B2321BD0B2FFF70C
:102110009AFEFFF7BFFE2B480088FFF7A0FE7A1B50
:1021200091B2321BD0B2FFF78EFEFFF7B3FE254807
:102130000088FFF794FE3A1991B27219D0B2FFF7F6
:1021400082FEFFF7A7FE1F480088FFF788FE3A1BB4
:1021500091B27219D0B2FFF776FEFFF79BFE1948D5
:102160000088FFF77CFE3A1991B2721BD0B2FFF7DC
:102170006AFEFFF78FFE13480088FFF770FE3A1BD8
:1021800091B2721BD0B2FFF75EFEFFF783FE0D48DF
:102190000088FFF764FEB9F1000F04DA062000EBB7
:1021A0008400814405E0601B0A2101EB800081442A
:1021B0006D1E641CAC428ED9BDE8F083000C01405A
:1021C0002C000020280000202A00002000100140E0
:1021D00062260008202020202020202020202020EF
:1021E00020202020202020200000000070B506467E
:1021F0000024002540F23F110020FFF724FEFFF7E6
:1022000049FE00BF14E000250FE056F8240001212C
:10221000A940084204D15F480088FFF720FE03E090
:102220005D480088FFF71BFE6D1C202DEDD3641C5C
:10223000B4F5166FE7D370BD70B5044600250026CF
:102240006688A08846EA00466589A08945EA004577
:10225000701B46082C4441F208010320FFF7ABFB3A
:10226000FFF718FE002504E02088FFF7F8FDA41C06
:102270006D1CB542F8D341F218010320FFF79BFB18
:1022800070BD10B54FF400704449086040100860FC
:102290002020091F086022204149C86020203F49B2
:1022A0000860091F0860C0000860FFF747FD4FF491
:1022B00080603A4908603A48806884B20815091F6E
:1022C0000860FFF72BFD4FF400703449091F0860C8
:1022D000204610BD00B500211020FFF76CFB002147
:1022E0001120FFF768FB00211220FFF764FB00219B
:1022F0001320FFF760FB1420FFF74EFB41F2B07193
:102300001020FFF758FB40F237111120FFF753FB65
:102310000520FFF741FB40F239111220FFF74BFB7C
:102320000520FFF739FB4FF4E8511320FFF743FB7B
:1023300013212920FFF73FFB0520FFF72DFB40F27B
:1023400073110720FFF737FB00BD00B540F2731192
:102350000720FFF730FB00BD00B500210720FFF785
:102360002AFB00BD30B5054600210846FFF76BFD8E
:10237000FFF790FD002409E015F814206100491CC6
:10238000695C42EA0120FFF76AFD641CB4F5963FE0
:10239000F2DB30BD2A00002028000020140C014090
:1023A000001001403649086000BF3549096800291E
:1023B000FBD17047334800684FF47A72B0FBF2F1FA
:1023C000481EB0F1807F00D31BE0481E4FF0E02292
:1023D000506150170F22002807DA13071D0E2A4BF1
:1023E00000F00F04241F1D5503E013071C0E274B9C
:1023F0001C5400BF00204FF0E022906107201061C4
:1024000000BFC820FFF7CEFFFFF7F8FC1F20FFF743
:10241000BEFD1F20FFF711FD4FF6FF70FFF707FD10
:1024200000F076F800F098F800F0C6F80BE01848D5
:10243000007820B110211748FEF7C1F803E0102101
:102440001448FEF7BAF8F2E710B501211248FFF779
:102450008EFAA0B101211048FFF79AFA0C480078D3
:1024600068B10E480088401C0C4908800846008866
:10247000B0F5FA7F03D1002008800549087010BD2F
:10248000300000200000002018ED00E000E400E033
:1024900034000020000C01400008004036000020FD
:1024A000704700BFFEE700BFFEE700BFFEE700BFCA
:1024B000FEE770477047704702480068401E0149B8
:1024C000086070473000002070B504460D467DB1AD
:1024D0004FF6FF7000EA04211D48FEF770F8042152
:1024E0001C48FEF76AF804211A48FEF768F80EE067
:1024F0004FF6FF7000EA04211548FEF75EF804214C
:102500001448FEF75AF804211248FEF758F870BD37
:1025100008B501213020FEF75BFA4FF47F40ADF89B
:10252000000003208DF8020010208DF8030069469A
:102530000748FDF797FF0420ADF8000069460548FD
:10254000FDF790FF0021FF20FFF7BEFF08BD000050
:1025500000100140001401401FB51E208DF800003E
:1025600000208DF8010001208DF802008DF8030095
:102570006846FEF79AFA01210420FEF736FA40F287
:10258000E730ADF808004720ADF804000020ADF8B2
:102590000A00ADF8060001A90648FEF7C3FB0122B8
:1025A00011460448FEF735FF01210248FEF716FFE9
:1025B0001FBD00000008004008B501210920FEF7FA
:1025C00007FA01210848FEF71CF81020ADF80000BA
:1025D00003208DF8020010208DF80300694603489F
:1025E000FDF740FF08BD000000013000000C014075
:1025F000704770477047754600F028F8AE460500F2
:102600006946534620F00700854618B020B5FDF70F
:10261000C9FDBDE820404FF000064FF000074FF025
:1026200000084FF0000B21F00701AC46ACE8C009F0
:10263000ACE8C009ACE8C009ACE8C0098D467047F9
:102640000446AFF300802046FDF797FD0048704731
:102650003800002001491820ABBEFEE7260002002A
:1026600070470000000000000000000000000000B3
:10267000000000000000000000000000000000005A
:10268000000000000000000000000000000000004A
:102690000000000080018001800180018001800134
:1026A00080018001800180018001800180010000A3
:1026B0000000800180010000000000000000000018
:1026C000000000000000CC00CC00CC00CC00CC000E
:1026D000CC0000000000000000000000000000002E
:1026E00000000000000000000000000000000000EA
:1026F0000000000000000000000000000000600C6E
:10270000600C600C30063006FE1FFE1F30063807D6
:102710001803FE1FFE1F180318038C018C018C0187
:10272000000000008000E003F80F9C0E8C1C8C1849
:102730008C009800F801E007800E801C8C188C1823
:102740009C18B80CF00FE00380008000000000002F
:1027500000000000000000000E181B0C110C1106F8
:102760001106110311039B018E01C038C06C604437
:102770006044304430441844186C0C3800000000A9
:1027800000000000E001F0033807180618063003C7
:10279000F001F000F8009C310E33061E061C061CEA
:1027A000063FFC73F0210000000000000000000064
:1027B0000000000000000C000C000C000C000C00DD
:1027C0000C000000000000000000000000000000FD
:1027D00000000000000000000000000000000000F9
:1027E00000000000000200038001C000C000600083
:1027F0006000300030003000300030003000300029
:10280000300060006000C000C000800100030002D2
:102810000000000020006000C00080018001000373
:10282000000300060006000600060006000600067B
:1028300000060003000380018001C000600020004A
:102840000000000000000000000000000000C000C8
:10285000C000D806F807E001300338070000000088
:102860000000000000000000000000000000000068
:1028700000000000000000000000000000008001D7
:102880008001800180018001FC3FFC3F80018001CC
:1028900080018001800100000000000000000000B5
:1028A0000000000000000000000000000000000028
:1028B0000000000000000000000000000000000018
:1028C0000000000080018001000100018000000084
:1028D00000000000000000000000000000000000F8
:1028E00000000000000000000000E007E00700001A
:1028F00000000000000000000000000000000000D8
:1029000000000000000000000000000000000000C7
:1029100000000000000000000000000000000000B7
:1029200000000000C000C000000000000000000027
:1029300000000000000C000C00060006000600036A
:10294000000300038003800180018001C000C000FB
:10295000C0006000600000000000000000000000F7
:1029600000000000E003F007380E180C0C180C18DB
:102970000C180C180C180C180C180C180C18180C37
:10298000380EF007E0030000000000000000000027
:102990000000000000018001C001F00198018801E1
:1029A000800180018001800180018001800180011F
:1029B0008001800180010000000000000000000094
:1029C00000000000E003F80F180C0C180C18001899
:1029D0000018000C000600038001C00060003000F9
:1029E0001800FC1FFC1F0000000000000000000099
:1029F00000000000E001F807180E0C0C0C0C000C95
:102A00000006C003C007000C001800180C180C18B2
:102A1000180CF807E00300000000000000000000B0
:102A200000000000000C000E000F000F800DC00C15
:102A3000600C600C300C180C0C0CFC3FFC3F000CC4
:102A4000000C000C000C0000000000000000000062
:102A500000000000F80FF80F180018000C00EC033D
:102A6000FC071C0E001C0018001800180C181C0C89
:102A7000180EF807E003000000000000000000004E
:102A800000000000C007F00F381C181818000C00D8
:102A9000CC03EC0F3C0E1C1C0C180C180C18181C4A
:102AA000380EF007E0030000000000000000000006
:102AB00000000000FC1FFC1F000C000600060003C5
:102AC00080038001C001C000E00060006000700071
:102AD0003000300030000000000000000000000066
:102AE00000000000E003F007380E180C180C180C5A
:102AF0003806F007F007180C0C180C180C180C18F6
:102B0000380CF80FE0030000000000000000000097
:102B100000000000E003F007380E1C0C0C180C1825
:102B20000C181C1C381EF81BE0190018000C000CB7
:102B30001C0EF807F001000000000000000000007B
:102B40000000000000000000000000000000800104
:102B500080010000000000000000000000000000F4
:102B60000000800180010000000000000000000063
:102B700000000000000000000000000000008001D4
:102B800080010000000000000000000000000000C4
:102B900000008001800100010001800000000000B1
:102BA0000000000000000000000000000000000025
:102BB00000000010001C800FE003F8001800F8006F
:102BC000E003800F001C0010000000000000000067
:102BD00000000000000000000000000000000000F5
:102BE0000000F81F000000000000F81F00000000B7
:102BF00000000000000000000000000000000000D5
:102C000000000000000000000000000000000000C4
:102C1000000008003800F001C007001F0018001F66
:102C2000C007F001380008000000000000000000AC
:102C300000000000E003F80F180C0C180C18001826
:102C4000000C000600038001C000C000C0000000AE
:102C50000000C000C00000000000000000000000F4
:102C6000000000000000E00718180420C229224AD2
:102C7000114409440944094409221113E20C024099
:102C800004201818E0070000000000000000000009
:102C90000000000080038003C006C006C006600C70
:102CA000600C301830183018F83FF83F1C700C607A
:102CB0000C6006C006C0000000000000000000001C
:102CC00000000000FC03FC0F0C0C0C180C180C1876
:102CD0000C0CFC07FC0F0C180C300C300C300C30BA
:102CE0000C18FC1FFC0700000000000000000000A2
:102CF00000000000C007F01F38381C300C70066060
:102D000006000600060006000600060006600C70BD
:102D10001C30F01FE0070000000000000000000071
:102D200000000000FE03FE0F060E0618061806300F
:102D30000630063006300630063006300618061813
:102D4000060EFE0FFE030000000000000000000061
:102D500000000000FC3FFC3F0C000C000C000C00CD
:102D60000C00FC1FFC1F0C000C000C000C000C00E5
:102D70000C00FC3FFC3F00000000000000000000D1
:102D800000000000F83FF83F180018001800180075
:102D90001800F81FF81F1800180018001800180075
:102DA00018001800180000000000000000000000DB
:102DB00000000000E00FF83F3C780E6006E007C01E
:102DC0000300030003FE03FE03C007C006C00EC0DD
:102DD0003CF0F83FE00F00000000000000000000A1
:102DE000000000000C300C300C300C300C300C307B
:102DF0000C30FC3FFC3F0C300C300C300C300C30F5
:102E00000C300C300C30000000000000000000000E
:102E100000000000800180018001800180018001AC
:102E2000800180018001800180018001800180019A
:102E3000800180018001000000000000000000000F
:102E4000000000000006000600060006000600065E
:102E50000006000600060006000600061806180612
:102E60003807F003E001000000000000000000004F
:102E70000000000006300618060C06060603860150
:102E8000C60066007600DE008E0106030606060C0C
:102E90000618063006600000000000000000000078
:102EA0000000000018001800180018001800180092
:102EB0001800180018001800180018001800180052
:102EC0001800F81FF81F00000000000000000000BC
:102ED000000000000EE01EF01EF01EF036D836D8BE
:102EE00036D836D866CC66CC66CCC6C6C6C6C6C68C
:102EF000C6C686C386C300000000000000000000B4
:102F0000000000000C301C303C303C306C306C3029
:102F1000CC30CC308C310C330C330C360C360C3CB2
:102F20000C3C0C380C3000000000000000000000D9
:102F300000000000E007F81F1C380E70066003C098
:102F400003C003C003C003C003C003C006600E700B
:102F50001C38F81FE007000000000000000000001F
:102F600000000000FC0FFC1F0C380C300C300C3043
:102F70000C300C18FC1FFC070C000C000C000C00A3
:102F80000C000C000C00000000000000000000001D
:102F900000000000E007F81F1C380E70066003E018
:102FA00003C003C003C003C003C007E006630E3FB5
:102FB0001C3CF83FE0F700C00000000000000000EB
:102FC00000000000FE0FFE1F0638063006300630F7
:102FD0000638FE1FFE0706030606060C061806182E
:102FE000063006300660000000000000000000000F
:102FF00000000000E003F80F1C0C0C180C180C006B
:103000001C00F803E00F001E0038063006300E30BA
:103010001C1CF80FE007000000000000000000008A
:1030200000000000FE7FFE7F8001800180018001A2
:103030008001800180018001800180018001800188
:1030400080018001800100000000000000000000FD
:10305000000000000C300C300C300C300C300C3008
:103060000C300C300C300C300C300C300C300C3080
:103070001818F81FE0070000000000000000000022
:103080000000000003600630063006300C180C18F3
:103090000C18180C180C380E300630067007600338
:1030A0006003C001C001000000000000000000003B
:1030B000000000000360C361C361C361663366330F
:1030C00066336633663366336C1B6C1B6C1B2C1AC1
:1030D0003C1E380E380E000000000000000000000A
:1030E000000000000FE00C7018303018700C600EFB
:1030F000C00780038003C003E006700C301C181862
:103100000C300E6007E0000000000000000000002E
:103110000000000003C006600C301C383818300C6A
:103120006006E007C003800180018001800180010A
:10313000800180018001000000000000000000000C
:1031400000000000FC7FFC7F006000300018000CD5
:10315000000600038001C0006000300018000C0071
:103160000600FE7FFE7F000000000000000000005F
:1031700000000000E003E003600060006000600009
:10318000600060006000600060006000600060003F
:10319000600060006000600060006000E003E00329
:1031A0000000000030003000600060006000C000DF
:1031B000C000C000C0018001800180010003000345
:1031C00000030006000600000000000000000000F0
:1031D00000000000E003E00300030003000300031D
:1031E00000030003000300030003000300030003C7
:1031F000000300030003000300030003E003E003F7
:10320000000000000000C001C00160036003600313
:1032100030063006180C180C0000000000000000FA
:10322000000000000000000000000000000000009E
:10323000000000000000000000000000000000008E
:10324000000000000000000000000000000000007E
:1032500000000000FFFFFFFF000000000000000072
:10326000000000000C000C000C000C000C000C0016
:10327000000000000000000000000000000000004E
:10328000000000000000000000000000000000003E
:103290000000000000000000000000000000F0033B
:1032A000F8071C0C0C0C000FF00FF80C0C0C0C0C9D
:1032B0001C0FF80FF01800000000000000000000D4
:1032C0000000000018001800180018001800D803AB
:1032D000F80F380C18181818181818181818181883
:1032E000380CF80FD80300000000000000000000B8
:1032F0000000000000000000000000000000C0030B
:10330000F007300E180C1800180018001800180CE0
:10331000300EF007C00300000000000000000000B5
:103320000000000000180018001800180018C01B4A
:10333000F01F301C18181818181818181818181812
:10334000301CF01FC01B0000000000000000000047
:103350000000000000000000000000000000C003AA
:10336000F00F300C1818F81FF81F18001800381844
:10337000301CF00FC007000000000000000000003B
:1033800000000000800FC00FC000C000C000F007A8
:10339000F007C000C000C000C000C000C000C000F6
:1033A000C000C000C00000000000000000000000DD
:1033B0000000000000000000000000000000E00D20
:1033C000F80F180E0C0C0C0C0C0C0C0C0C0C0C0C40
:1033D000180EF80FE00D000C0C0C1C06F807F0019D
:1033E0000000000018001800180018001800D80786
:1033F000F80F381C18181818181818181818181852
:10340000181818181818000000000000000000002C
:1034100000000000C000C000000000000000C0006C
:10342000C000C000C000C000C000C000C000C0009C
:10343000C000C000C000000000000000000000004C
:1034400000000000C000C000000000000000C0003C
:10345000C000C000C000C000C000C000C000C0006C
:10346000C000C000C000C000C000C000F80078006C
:10347000000000000C000C000C000C000C000C0CF8
:103480000C060C038C01CC006C00FC009C018C032E
:103490000C030C060C0C00000000000000000000F3
:1034A00000000000C000C000C000C000C000C0009C
:1034B000C000C000C000C000C000C000C000C0000C
:1034C000C000C000C00000000000000000000000BC
:1034D00000000000000000000000000000007C3C34
:1034E000FF7EC7E383C183C183C183C183C183C11D
:1034F00083C183C183C10000000000000000000000
:10350000000000000000000000000000000098071C
:10351000F80F381C18181818181818181818181830
:10352000181818181818000000000000000000000B
:103530000000000000000000000000000000C003C8
:10354000F00F300C18181818181818181818181820
:10355000300CF00FC003000000000000000000006D
:103560000000000000000000000000000000D80380
:10357000F80F380C181818181818181818181818E0
:10358000380CF80FD803180018001800180018009D
:103590000000000000000000000000000000C01B50
:1035A000F01F301C181818181818181818181818A0
:1035B000301CF01FC01B001800180018001800185D
:1035C0000000000000000000000000000000B00744
:1035D000F003700030003000300030003000300068
:1035E000300030003000000000000000000000004B
:1035F0000000000000000000000000000000E003E8
:10360000F003380E180C3800F003C007000C180C3B
:10361000380EF007E003000000000000000000008A
:103620000000000000008000C000C000C000F007E3
:10363000F007C000C000C000C000C000C000C00053
:10364000C000C0078007000000000000000000006C
:10365000000000000000000000000000000018183A
:1036600018181818181818181818181818181818DA
:10367000381CF01FE01900000000000000000000EE
:1036800000000000000000000000000000000C1816
:10369000180C180C180C3006300630066003600356
:1036A0006003C001C0010000000000000000000035
:1036B0000000000000000000000000000000C14108
:1036C000C141C3616363636363633636363636363E
:1036D0001C1C1C1C1C1C0000000000000000000042
:1036E00000000000000000000000000000001C3886
:1036F000381C300C600660036003600360036006E2
:10370000300C381C1C3800000000000000000000D5
:103710000000000000000000000000000000183061
:10372000301830187018600C600CE00CC006C00631
:1037300080038003800380018001C001F0007000DD
:103740000000000000000000000000000000FC1F5E
:10375000FC1F000C000600038001C0006000300068
:103760001800FC1FFC1F000000000000000000000B
:103770000000000000038001C000C000C000C000C5
:10378000C000C00060006000300060004000C00069
:10379000C000C000C000C000C000800100030000E5
:1037A0000000000080018001800180018001800113
:1037B0008001800180018001800180018001800101
:1037C00080018001800180018001800180018001F1
:1037D000000000006000C000C00180018001800185
:1037E0008001800100030003000600030001800146
:1037F00080018001800180018001C0006000000024
:1038000000000000000000000000000000000000B8
:103810000000F010F81F080F00000000000000007A
:103820000000000000000000000000000000000098
:10383000000000005438000800000020380000009C
:10384000280100088C3800083800002060060000BD
:103850004401000800A24A0400000000000000002B
:103860000102030406070809000000000102030426
:103870000102030406070809020406080000FFFF0E
:0C3880000000000000000000010000003B
:04000005080000ED02
:00000001FF
