:020000040800F2
:100000000007002091010008F92D0008FB2D0008D1
:10001000FF2D0008032E0008072E00080000000036
:100020000000000000000000000000000D2E00088D
:100030000B2E0008000000000F2E0008112E0008F3
:10004000AB010008AB010008AB010008AB010008E0
:10005000AB010008AB010008AB010008AB010008D0
:10006000AB010008AB010008AB010008AB010008C0
:10007000AB010008AB010008AB010008AB010008B0
:10008000AB010008AB010008AB010008AB010008A0
:10009000AB010008AB010008AB010008AB01000890
:1000A000AB010008AB010008AB010008AB01000880
:1000B000EF3400082B3700084B2D0008AB01000877
:1000C000AB010008AB010008AB010008AB01000860
:1000D000AB010008AB010008B3330008AB01000816
:1000E000AB010008AB010008AB01000800F002F80A
:1000F00000F03FF80AA090E8000C82448344AAF183
:100100000107DA4501D100F034F8AFF2090EBAE880
:100110000F0013F0010F18BFFB1A43F0010318473B
:10012000484B0000684B0000103A24BF78C878C1E3
:10013000FAD8520724BF30C830C144BF04680C60ED
:10014000704700000023002400250026103A28BF35
:1001500078C1FBD8520728BF30C148BF0B60704739
:10016000642903F06183002070471FB51FBD10B5DF
:1001700010BD03F057FC1146FFF7F7FF02F08FFDAB
:1001800003F075FC03B4FFF7F2FF03BC03F07CFC43
:100190000948804709480047FEE7FEE7FEE7FEE71B
:1001A000FEE7FEE7FEE7FEE7FEE7FEE70448054957
:1001B000054A064B70470000AF020008ED0000083A
:1001C00000010020000700200003002000030020A1
:1001D0000CB50020019000906C48006840F480301D
:1001E0006A49086000BF6948006800F40030009068
:1001F0000198401C0190009818B90198B0F5A06FC3
:10020000F1D16248006800F4003010B10120009084
:1002100001E0002000900098012843D15C4800686C
:1002200040F010005A4908600846006820F00300BA
:1002300008600846006840F00200086053484068C3
:10024000524948600846406848600846406840F4A3
:10025000806048600846406820F47C10486008468A
:10026000406840F4E81048600846006840F080703C
:10027000086000BF4548006800F000700028F9D011
:100280004248406820F00300404948600846406802
:1002900040F00200486000BF3C48406800F00C009D
:1002A0000828F9D10CBD10B5FFF792FF10BD10B5AD
:1002B0003648006840F0010034490860084640684C
:1002C00034490840314948600846006832490840CE
:1002D0002E4908600846006820F48020086008461F
:1002E000406820F4FE0048604FF41F008860FFF76C
:1002F000DAFF4FF000602949086010BD10B50021F9
:1003000000200022214B5B6803F00C0121B104297D
:1003100006D0082928D107E0214B224C236027E092
:100320001F4B204C236023E0184B5B6803F47010D4
:10033000164B5B6803F48032022303EB904022B932
:10034000194B4343174C23600DE0104B5B6803F4DB
:10035000003323B1144B4343124C236003E0104B92
:100360004343104C236003E00D4B0E4C236000BF51
:1003700000BF064B5B68C3F303130C4CE15C094BF5
:100380001B68CB40074C236010BD000000100240EA
:10039000002002400000FFF8FFFFF6FE08ED00E03D
:1003A00000127A000000002000093D000400002037
:1003B00010B50446CC48844208D10121042000F045
:1003C0002DFB0021042000F029FB46E0C7488442B1
:1003D00008D10121082000F021FB0021082000F0B5
:1003E0001DFB3AE0C248844208D10121102000F0F0
:1003F00015FB0021102000F011FB2EE0BD488442C7
:1004000008D10121202000F009FB0021202000F06C
:1004100005FB22E0B848844208D10121402000F0C9
:10042000FDFA0021402000F0F9FA16E0B3488442BA
:1004300008D10121802000F0F1FA0021802000F095
:10044000EDFA0AE0AE48844207D10121801500F0A0
:10045000E5FA0021A01500F0E1FA10BD10B5012168
:10046000084600F0DBFA0021012000F0D7FA10BDA9
:100470002DE9F0410246002500260020002300243B
:10048000002791F803C00CF00F0591F803C00CF0A1
:10049000100CBCF1000F03D091F802C04CEA050526
:1004A00091F800C0BCF1000F31D0146800202BE09F
:1004B0004FF0010C0CFA00F3B1F800C00CEA03068F
:1004C0009E4220D183004FF00F0C0CFA03F7BC437F
:1004D00005FA03FC4CEA040491F803C0BCF1280FB0
:1004E00006D14FF0010C0CFA00FCC2F814C00AE06F
:1004F00091F803C0BCF1480F05D14FF0010C0CFA84
:1005000000FCC2F810C0401C0828D1D31460B1F818
:1005100000C0BCF1FF0F34DD546800202EE000F174
:10052000080C4FF0010808FA0CF3B1F800C00CEA0F
:1005300003069E4221D183004FF00F0C0CFA03F703
:10054000BC4305FA03FC4CEA040491F803C0BCF177
:10055000280F05D100F1080C08FA0CF8C2F8148035
:1005600091F803C0BCF1480F07D100F1080C4FF01F
:10057000010808FA0CF8C2F81080401C0828CED3F5
:100580005460BDE8F0814FF6FF7101800221817057
:100590000421C17070470246002093680B400BB1E4
:1005A000012000E0002070470146886880B2704753
:1005B00002460020D3680B400BB1012000E0002070
:1005C00070470146C86880B2704701617047416159
:1005D00070470AB1016100E041617047C160704736
:1005E0004FF480320A43826181618261826982694B
:1005F000704702460020434B18684FF6807318403E
:1006000040EA021008433F4B186070473E49C861FA
:100610007047F0B50A46002300240021002500F0B1
:100620000046B6F1004F02D1364EF16901E0354E79
:100630007168C0F3034583B200F44016B6F5401F5D
:1006400008D121F070612F4E766826F070662D4F2C
:100650007E6012E000F48016B6F5801F06D10326F6
:1006600006FA05F4A14341F0706106E0460D36013B
:1006700003FA06F6B14341F0706122B1460D36012E
:1006800003FA06F6314300F00046B6F1004F02D1FE
:100690001C4EF16101E01B4E7160F0BD30B50022CF
:1006A0008B071C0F0F2303FA04F2164B08338C1030
:1006B00053F824309343134C08348D1044F82530FC
:1006C00023468C1053F824308C07240F00FA04F4CE
:1006D00023430C4C08348D1044F8253030BD0A49B2
:1006E000DC3108607047000000080140000C014048
:1006F000001001400014014000180140001C01409E
:10070000002001400000014000002042DF48006856
:1007100040F00100DD49086008464068DC490840B7
:10072000DA49486008460068DA490840D749086055
:100730000846006820F4802008600846406820F4DD
:10074000FE0048604FF41F0088607047CF49096879
:1007500021F48031CD4A11601146096821F48021CD
:100760001160B0F5803F03D0B0F5802F0ED106E0C8
:10077000C649096841F48031C44A116007E0C349A1
:10078000096841F4A021C14A116000E000BF00BF28
:10079000704710B501460022002300204A11012AAB
:1007A00002D1BA4C236806E0022A02D1B74C236A70
:1007B00001E0B64C636A01F01F02012494401C4022
:1007C0000CB1012000E0002010BD38B500200090E1
:1007D0000024002500BF3120FFF7DBFF054600980D
:1007E000401C00900098B0F5A06F01D0002DF2D011
:1007F0003120FFF7CEFF08B1012400E0002420469D
:1008000038BD01460020A14A106820F0F80040EAF7
:10081000C10010607047A049086070470246002080
:100820009A4B586820F47C1042EA01031843974B16
:100830005860704798490866704701460020934AFF
:10084000506820F003000843506070478F484068AC
:1008500000F00C007047014600208C4A506820F0E0
:10086000F00008435060704701460020874A5068F6
:1008700020F4E06008435060704701460020834A3E
:10088000506820F4605040EAC1005060704729B1C0
:100890007E4A527A02437D4B5A7204E07B4A527A76
:1008A00082437A4B5A7270477B49D831086070474F
:1008B00001460020754A506820F4404008435060CB
:1008C00070470021714A20321170704A82F820105E
:1008D000012802D004280AD104E001216B4A203209
:1008E000117005E00521694A2032117000E000BF57
:1008F00000BF70476949086070476449096A01434D
:10090000624A11627047654944390860704730B5E2
:1009100000210022002400235C4D6D6805F00C01CD
:1009200021B1042905D0082923D105E05C4D0560DB
:1009300022E05B4D05601FE0544D6D6805F47012B8
:10094000524D6D6805F48034022505EB92421CB9C6
:10095000544D554305600BE04C4D6D6805F4003572
:100960001DB1504D5543056002E04D4D55430560A6
:1009700002E04B4D056000BF00BF444D6D6805F0BF
:10098000F0010909484D6B5C0568DD4045603F4D4D
:100990006D6805F4E061090A434D6B5C4568DD4014
:1009A00085603A4D6D6805F46051C90A3E4D6B5C37
:1009B0004568DD40C560354D6D6805F44041890BE3
:1009C0003A4D6B5CC568B5FBF3F5056130BD29B1E7
:1009D0002E4A526902432D4B5A6104E02B4A526958
:1009E00082432A4B5A61704729B1284A92690243CF
:1009F000264B9A6104E0254A92698243234B9A610F
:100A0000704729B1214AD2690243204BDA6104E0E0
:100A10001E4AD26982431D4BDA61704729B11B4AD5
:100A2000D2680243194BDA6004E0184AD268824364
:100A3000164BDA60704729B1144A12690243134B0E
:100A40001A6104E0114A12698243104B1A6170471F
:100A500012494039086070470F49C86470470B4914
:100A6000C87170470948406A40F080700749486281
:100A7000704701460020054A92680A400AB10120E9
:100A800000E0002070470149887270470010024062
:100A90000000FFF8FFFFF6FE0000424280044242E1
:100AA00000127A0000093D001400002024000020FC
:100AB00031490143314A1160704770B5002100236C
:100AC0000F22C47804B32D4C246804F4E064C4F508
:100AD000E064210AC1F10403CA40447804FA03F136
:100AE0008478144021430901254C0678A1550478E7
:100AF00004F01F050124AC4005786D11AD0005F12F
:100B0000E025C5F8004109E0047804F01F05012440
:100B1000AC401C4D0678761145F8264070BD1A4A47
:100B20000A400243154B1B1F1A60704739B1134A24
:100B3000121D12680243114B1B1D1A6006E00F4A7A
:100B4000121D126882430D4B1B1D1A60704704284A
:100B500008D14FF0E021096941F004014FF0E02293
:100B6000116107E04FF0E021096921F004014FF025
:100B7000E0221161704700000000FA050CED00E072
:100B800000E400E080E100E080FFFF1F10B50446B4
:100B9000FE48844208D10121C014FFF73FFF002125
:100BA000E014FFF73BFFC4E0B4F1804F08D101210E
:100BB0000846FFF740FF00210120FFF73CFFB8E0A7
:100BC000F348844208D101210220FFF734FF0021BD
:100BD0000220FFF730FFACE0EE48844208D101214B
:100BE0000420FFF728FF00210420FFF724FFA0E0E6
:100BF000E948844208D101210820FFF71CFF0021A9
:100C00000820FFF718FF94E0E448844208D101214E
:100C10001020FFF710FF00211020FFF70CFF88E0E5
:100C2000DF48844208D101212020FFF704FF002182
:100C30002020FFF700FF7CE0DA48844208D1012140
:100C40004014FFF7EBFE00216014FFF7E7FE70E0B1
:100C5000D548844209D10121C804FFF7DFFE0021F5
:100C60004FF40020FFF7DAFE63E0D048844209D158
:100C700001210805FFF7D2FE00214FF48010FFF795
:100C8000CDFE56E0CA48844209D101214805FFF74C
:100C9000C5FE00214FF40010FFF7C0FE49E0C54833
:100CA000844208D101214020FFF7C5FE00214020E9
:100CB000FFF7C1FE3DE0C048844208D101218020F9
:100CC000FFF7B9FE00218020FFF7B5FE31E0BB48F9
:100CD000844208D101218015FFF7ADFE0021A01547
:100CE000FFF7A9FE25E0B648844209D10121080496
:100CF000FFF794FE00214FF48030FFF78FFE18E0DD
:100D0000B048844209D101214804FFF787FE002141
:100D10004FF40030FFF782FE0BE0AB48844208D16D
:100D200001218804FFF77AFE00214FF48020FFF7AD
:100D300075FE10BD00220288944B98420ED0994B4C
:100D400098420BD0B0F1804F08D0914B984205D01B
:100D5000904B984202D0904B984204D14FF68F733B
:100D60001A404B881A438D4B984207D08C4B9842BF
:100D700004D04FF6FF431A40CB881A4302808B8879
:100D800083850B880385814B98420BD0854B984215
:100D900008D08B4B984205D08A4B984202D08A4BA0
:100DA000984201D10B7A038601238382704770B584
:100DB000002400220023058C4FF6FE763540058482
:100DC000028C8388048B4FF68F752C40B51E2C4007
:100DD0000D882C43751E2A400D892A434D882A43CD
:100DE0006A4DA8420BD06F4DA84208D0744DA8425E
:100DF00005D0744DA84202D0734DA84213D14FF6CE
:100E0000F7752A404D892A434FF6FB752A408D8895
:100E10002A434FF6FF652B404FF6FF552B408D8937
:100E20002B43CD892B4383800483CD888586028420
:100E300070BD70B5002400220023058C4FF6EF76BC
:100E400035400584028C8388048B48F6FF752C405E
:100E50004FF6FF452C400D884FF6FF7606EA052534
:100E60002C434FF6DF752A400D8906EA05152A4303
:100E70004D8806EA05152A43444DA84202D0494D43
:100E8000A8421DD14FF67F752A404D894FF6FF7657
:100E900006EA05152A434FF6BF752A408D8806EAF3
:100EA00005152A434FF6FF352B404FF2FF752B40B7
:100EB0008D8906EA85052B43CD8906EA85052B43F6
:100EC00083800483CD880587028470BD70B50024BB
:100ED00000220023058C4FF6FF6635400584028C06
:100EE0008388848B4FF68F752C404FF6FC752C4011
:100EF0000D882C434FF6FF552A400D894FF6FF769B
:100F000006EA05252A434D8806EA05252A431F4D92
:100F1000A84202D0234DA8421DD14FF2FF752A40AE
:100F20004D894FF6FF7606EA05252A434FF6FF3531
:100F30002A408D8806EA05252A434EF6FF752B4088
:100F40004DF6FF752B408D8906EA05152B43CD899B
:100F500006EA05152B4383808483CD888587028428
:100F600070BD70B5002200230024058C4EF6FF767C
:100F700035400584038C8488828B48F6FF752A40AF
:100F80004FF6FF452A400D8820E00000002C01406C
:100F90000004004000080040000C00400010004029
:100FA0000014004000340140004C0140005001405A
:100FB0000054014000180040001C00400020004088
:100FC0000040014000440140004801404FF6FF76D8
:100FD00006EA05252A434DF6FF752B400D8906EAE2
:100FE00005352B434D8806EA05352B43FA4DA842BB
:100FF00002D0FA4DA84208D14BF6FF752C408D89DE
:101000004FF6FF7606EA85152C4384808283CD88CF
:10101000A0F84050038470BD828B4FF2FF331A401A
:101020008283828B4FF6FF7303EA01231A43828384
:101030007047F0B50C461546002200210026078CAB
:101040004EF6FF7C07EA0C070784828B018C4FF673
:10105000FF7707EA043640F6FF473A404FF6FF773E
:1010600007EA05273A434FF6FF7707EA03373A4383
:10107000D94FB8420ED0D94FB8420BD0B0F1804F03
:1010800008D0D74FB84205D0D64FB84202D0D64F7D
:10109000B84206D14DF6FF77394046F480573943C0
:1010A00005E047F6FF57394044F4805739438283BF
:1010B0000184F0BD828B4FF6F3731A408283828BDA
:1010C0000A4382837047F0B50C4615460022002182
:1010D0000026078C4FF6FF6C07EA0C070784828B0B
:1010E000018C4FF6FF7707EA04264FF60C773A405B
:1010F0004FF6FF7707EA03172F433A43B64FB8423C
:101100000ED0B64FB8420BD0B0F1804F08D0B44FDC
:10111000B84205D0B34FB84202D0B34FB84206D15F
:101120004FF6FF57394046F48077394305E04FF2D8
:10113000FF57394044F48077394382830184F0BDFE
:10114000028B4FF2FF331A400283028B4FF6FF737C
:1011500003EA01231A4302837047F0B50C46154693
:10116000002200210026078C4FF6EF7C07EA0C07CF
:101170000784028B018C4FF6FF7707EA041640F6CE
:10118000FF473A404FF6FF7707EA03373A434FF6F7
:10119000FF7707EA05273A438F4FB8420ED08F4FAB
:1011A000B8420BD0B0F1804F08D08D4FB84205D077
:1011B0008C4FB84202D08C4FB84206D14FF6DF7741
:1011C000394046F01007394305E04FF65F77394064
:1011D00044F01007394302830184F0BD028B4FF6BF
:1011E000F3731A400283028B0A4302837047F0B5FF
:1011F0000C46154600220021068C4FF6FE773E4035
:101200000684028B018C4FF60C7632407E1C06EA77
:1012100003162E433243704EB0420ED06F4EB04292
:101220000BD0B0F1804F08D06D4EB04205D06D4E5E
:10123000B04202D06C4EB04206D14FF6FD7631403E
:1012400044F00106314305E04FF6F576314044F0B5
:101250000106314302830184F0BD70B505460C469A
:101260005D4885420ED05D4885420BD0B5F1804F78
:1012700008D05B48854205D05A48854202D05A487A
:10128000854200D100E000BF208850B92389A288A0
:1012900061882846FFF7ABFFE1882846FFF79EFFED
:1012A00025E0208804280AD12389A288618828465D
:1012B000FFF753FFE1882846FFF742FF17E0208839
:1012C00008280AD12389A28861882846FFF7FBFEF7
:1012D000E1882846FFF7EEFE09E02389A2886188AD
:1012E0002846FFF7A6FEE1882846FFF795FE70BD69
:1012F0002DE9F04105460C4600260127608808B913
:10130000022600E00026A088012801D1022700E083
:1013100001272088A0B92389A28861882846FFF781
:1013200066FFE1882846FFF759FF23893A46314690
:101330002846FFF712FFE1882846FFF701FF13E078
:101340002389A28861882846FFF707FFE18828469D
:10135000FFF7F6FE23893A4631462846FFF747FF56
:10136000E1882846FFF73AFFBDE8F0810A884B88FC
:101370001A438B881A43CB881A430B891A434B892B
:101380001A438B891A43A0F8442070474FF6FF7127
:10139000818000210180C18041800172704700215D
:1013A000018041808180C180018141818181C18131
:1013B0007047002101804180012181800021C1808E
:1013C000018170470021018041808180C1800181BD
:1013D0004181818170470000002C014000340140B0
:1013E0000004004000080040000C004021B10288C9
:1013F00042F00102028004E002884FF6FE731A40B8
:101400000280704731B1B0F8442042F40042A0F8A5
:10141000442005E0B0F84420C2F30E02A0F84420B6
:1014200070471AB183890B43838102E083898B4320
:10143000838170478182704741EA0203A0F84830F7
:1014400070471AB183890B43838102E083898B4300
:101450008381704701894FF6F8721140018170470E
:101460000A46002101894FF68F731940114301810B
:10147000704730B504460D4629462046FFF7F0FF79
:10148000208940F00700208130BD2DE9F04104465D
:101490000D4616461F46602D06D13B4601223146B9
:1014A0002046FFF75AFE05E03B4601223146204622
:1014B000FFF79DFE29462046FFF7D2FF208940F026
:1014C00007002081BDE8F08130B50C46002101897C
:1014D000C9B24FF6FF7505EA032515432543294395
:1014E000018130BD2DE9F04105460E46174698466C
:1014F000002443463A4631462846FFF7E5FF2C894B
:101500004FF6F870044044F007044FF68F70044023
:1015100044F070042C81BDE8F081F0B504460D461E
:1015200016461F463B46324629462046FFF7CCFF6B
:10153000208940F480402081F0BD0185828270477F
:101540000A46002101884FF68F731940114301802C
:101550007047F0B50C4615461E46002100220023B8
:101560000189028B038C4FF6F877394021434FF6FF
:10157000FC473A4040F201173A434FF6DD773B40D3
:101580004FF6FF7707EA06172F433B43018102839B
:101590000384F0BD0A460021018B4FF68F7319407A
:1015A0001143018370470A460021018B48F6FF73FF
:1015B00019404FF6FF7303EA022319430183704772
:1015C0000A460021818B4FF68F73194011438183A6
:1015D00070470A460021818B48F6FF7319404FF689
:1015E000FF7303EA022319438183704721B1028804
:1015F00042F08002028004E002884FF67F731A40B6
:101600000280704721B1828842F00402828004E0A7
:1016100082884FF6FB731A408280704721B182881E
:1016200042F00802828004E082884FF6F7731A4085
:101630008280704721B1828842F00102828004E0FA
:1016400082884FF6FE731A40828070470A46002156
:10165000018B4FF6F77319401143018370470A4617
:101660000021018B4FF2FF7319404FF6FF7303EA1D
:1016700002231943018370470A460021818B4FF6EC
:10168000F77319401143818370470A460021818B0B
:101690004FF2FF7319404FF6FF7303EA0223194319
:1016A000818370470A460021018B4FF6FB73194076
:1016B0001143018370470A460021018B4FF6FF3327
:1016C00019404FF6FF7303EA022319430183704761
:1016D0000A460021818B4FF6FB7319401143818329
:1016E00070470A460021818B4FF6FF3319404FF6B1
:1016F000FF7303EA02231943818370470A460021DE
:10170000018B4FF67F7319401143018370470A46DE
:101710000021018BC1F30E014FF6FF7303EA022390
:101720001943018370470A460021818B4FF67F736E
:1017300019401143818370470A460021818BC1F310
:101740000E014FF6FF7303EA0223194381837047AA
:101750000A460021018C4FF6FD73194011430184A4
:1017600070470A460021018C4FF6F7731940114368
:10177000018470470A460021018C4FF6DF7319403F
:101780004FF6FF7303EA02131943018470470A46B8
:101790000021018C4FF67F7319404FF6FF7303EA67
:1017A00002131943018470470A460021018C4FF649
:1017B000FF5319404FF6FF7303EA022319430184D4
:1017C00070470A460021018C4FF2FF7319404FF613
:1017D000FF7303EA02231943018470470A4600217C
:1017E000018C4DF6FF7319404FF6FF7303EA023385
:1017F00019430184704730B5002301248C40A3B203
:10180000048C9C430484048C02FA01F5ADB22C4391
:10181000048430BD30B5002304248C40A3B2048C72
:101820009C430484048C02FA01F5ADB22C43048479
:1018300030BD70B50346002000241846183001253D
:101840008D40ACB21D8CA5431D8409B1082909D176
:1018500000EB6100056825F070050560056815431B
:1018600005600EE00D1FC5F34E052844056825F4FC
:10187000E045056005684FF6FF7606EA0226354327
:10188000056070BD21B1028842F00202028004E0CE
:1018900002884FF6FD731A400280704721B102881A
:1018A00042F00402028004E002884FF6FB731A4003
:1018B0000280704721B1828842F08002828004E079
:1018C00082884FF67F731A408280704702884FF6F5
:1018D000F7731A40028002880A43028070478288A8
:1018E0004FF68F731A40828082880A438280704745
:1018F00002894FF6F8731A40028102890A43028175
:10190000704702894FF67F731A40028102890A43A9
:101910000281704781847047818570478186704756
:101920000187704781877047A0F840107047028890
:101930004FF6FF431A40028002880A430280704734
:101940000146888E70470146088F70470146888F90
:1019500070470146B1F8400070470146888C7047D7
:101960000146088D704702460020138A0B400BB1D8
:10197000012000E000207047CA430282704730B562
:101980000246002000230024158A05EA01039589F8
:1019900005EA010413B10CB1012000E0002030BDC4
:1019A000CA4302827047000010B50446FB488442D7
:1019B00009D101218803FFF731F800214FF480405D
:1019C000FFF72CF832E0F648844209D1012148049F
:1019D000FFF731F800214FF40030FFF72CF825E035
:1019E000F048844209D101218804FFF724F800213E
:1019F0004FF48020FFF71FF818E0EB48844209D12C
:101A00000121C804FFF717F800214FF40020FFF769
:101A100012F80BE0E548844208D101210805FFF7E0
:101A20000AF800214FF48010FFF705F810BD2DE9EA
:101A3000F04786B005460E460024A24600BFA146E8
:101A40000027B08900B100BF2F462C8A4CF6FF70EA
:101A50000440F08804432C82AC894EF6F310044015
:101A6000B08831890843718908430443AC81AC8A4A
:101A70004FF6FF400440B0890443AC8201A8FEF752
:101A800046FFC648874202D1DDF810A001E0DDF82C
:101A90000CA0A88900F4004040B10AEBCA0000EB9A
:101AA0000A1031684900B0FBF1F807E00AEBCA0000
:101AB00000EB0A1031688900B0FBF1F86420B8FB34
:101AC000F0F004012009642101FB1089A88900F4C9
:101AD000004040B1322000EBC900B0FBF1F000F053
:101AE0000700044308E0322000EB09106421B0FB3A
:101AF000F1F000F00F0004432C8106B0BDE8F08740
:101B00004FF41651016000218180C18001810C21B8
:101B1000418100218181704710B502460020108A62
:101B20004FF2FF0318400B884C8823438C882343D3
:101B3000CC8823431843108210BD002101804180CE
:101B40008180C180704721B1828942F40052828134
:101B500004E082894DF6FF731A4082817047F0B528
:101B60000346002400260025002040F66A17B942EB
:101B700000D100BF1846C1F3421401F01F0601272F
:101B800007FA06F5012C01D10C3004E0022C01D13A
:101B9000103000E014301AB107682F43076002E0EC
:101BA0000768AF430760F0BD1AB1838A0B43838295
:101BB00002E0838A8B4383827047028A4FF6F07378
:101BC0001A400282028A0A430282704782894FF2D7
:101BD000FF731A40828182890A438281704721B152
:101BE000828942F00202828104E082894FF6FD730D
:101BF0001A4082817047028A4FF6DF731A400282D0
:101C0000028A0A430282704721B1028A42F480426A
:101C1000028204E0028A4BF6FF731A400282704788
:101C2000C1F308028280704701468888C0F308002B
:101C30007047818941F0010181817047028BD2B2E6
:101C40000283028B42EA012202837047028B02F474
:101C50007F420283028B0A430283704721B1828A4A
:101C600042F02002828204E0828A4FF6DF731A403B
:101C70008282704721B1828A42F01002828204E09F
:101C8000828A4FF6EF731A408282704721B1828AAE
:101C900042F00802828204E0828A4FF6F7731A400B
:101CA0008282704721B1828942F40042828103E03E
:101CB0008289C2F30E028281704721B1828A42F486
:101CC0000062828204E0828A4FF2FF731A408282AD
:101CD0007047828A4FF6FB731A408282828A0A43D7
:101CE0008282704721B1828A42F00202828204E03D
:101CF000828A4FF6FD731A408282704702460020A6
:101D0000B1F5007F00D100BF13880B400BB101205B
:101D100000E00020704701F40072B2F5007F00D1AE
:101D200000BFCA430280704770B5024600240023FA
:101D30000025002040F66A16B14200D100BFC1F371
:101D4000421501F01F03012606FA03F3012D02D10B
:101D50009689334006E0022D02D1168A334001E015
:101D6000968A33400C12012606FA04F41688344091
:101D700013B10CB1012000E0002070BD10B50022AD
:101D8000002340F66A14A14200D100BF0A120124C8
:101D90009440A3B2DC43048010BD00000038014031
:101DA0000044004000480040004C0040005000400B
:101DB000002109E0002201E0531C9AB240F6B8333A
:101DC0009A42F9DB4B1C99B28142F3DB704710B5A4
:101DD000FD4BDB689AB24FF40073FC4C23605B1040
:101DE00023602023241F2360F74BD8602023241D69
:101DF0002360241F2360DB002360F34BD960202382
:101E0000241D2360241F2360DB002360EE4BDA6077
:101E100010BD00B501210020FFF7D9FF4FF47A7003
:101E2000FFF7C6FF00210120FFF7D1FF41F29071BB
:101E30001020FFF7CCFF4FF41C516020FFF7C7FFC5
:101E400001216120FFF7C3FF02214620FFF7BFFFFA
:101E500048F210011320FFF7BAFF48F2FE011220EA
:101E6000FFF7B5FF4FF4A0610220FFF7B0FF41F28A
:101E700030010320FFF7ABFF40F203313020FFF7C2
:101E8000A6FF40F203313120FFF7A1FF40F20331FA
:101E90003220FFF79CFF4FF440713320FFF797FF8C
:101EA00003213420FFF793FF40F203313520FFF781
:101EB0008EFF14213620FFF78AFF40F203313720CE
:101EC000FFF785FF40F203313820FFF780FF40F233
:101ED00003313920FFF77BFF4FF440713A20FFF7C1
:101EE00076FF03213B20FFF772FF40F203313C20D5
:101EF000FFF76DFF4FF4A0513D20FFF768FF4FF44F
:101F000000719220FFF763FF40F203319320FFF747
:101F10005EFF40F60D019020FFF759FF41F21801D6
:101F20000320FFF754FF40F273110720FFF74FFF24
:101F300000BD00B543F20801E320FFF748FF12217E
:101F4000E720FFF744FF41F23121EF20FFF73FFF89
:101F500000210120FFF73BFF4FF4E0610220FFF773
:101F600036FF41F230010320FFF731FF002104204A
:101F7000FFF72DFF40F207210820FFF728FF00217F
:101F80000920FFF724FF00210A20FFF720FF00218E
:101F90000C20FFF71CFF00210D20FFF718FF002188
:101FA0000F20FFF714FF00211020FFF710FF07217B
:101FB0001120FFF70CFF00211220FFF708FF00217E
:101FC0001320FFF704FF4FF47A70FFF7F1FE41F2A0
:101FD00090611020FFF7FBFE40F227211120FFF750
:101FE000F6FE3220FFF7E4FE1D211220FFF7EFFE80
:101FF0003220FFF7DDFE4FF400611320FFF7E7FE0C
:1020000014212920FFF7E3FE0B212B20FFF7DFFE31
:102010003220FFF7CDFE00212020FFF7D8FE00215F
:102020002120FFF7D4FE07213020FFF7D0FE40F239
:1020300007713120FFF7CBFE06213220FFF7C7FEE4
:1020400040F204713520FFF7C2FE41F604713620DC
:10205000FFF7BDFE04213720FFF7B9FE002138202D
:10206000FFF7B5FE40F206713920FFF7B0FE40F2EF
:1020700001713C20FFF7ABFE0F213D20FFF7A7FECB
:1020800000215020FFF7A3FEEF215120FFF79FFE14
:1020900000215220FFF79BFE40F23F115320FFF733
:1020A00096FE4FF41C516020FFF791FE0121612044
:1020B000FFF78DFE00216A20FFF789FE00218020B6
:1020C000FFF785FE00218120FFF781FE002182209D
:1020D000FFF77DFE00218320FFF779FE0021842099
:1020E000FFF775FE00218520FFF771FE102190207B
:1020F000FFF76DFE00219220FFF769FE0321932078
:10210000FFF765FE4FF488719520FFF760FE002110
:102110009720FFF75CFE00219820FFF758FE41F260
:1021200018010320FFF753FE40F273110720FFF759
:102130004EFE00BD08B54FF6FF70ADF8000003205D
:102140008DF8020010208DF8030069461E48FEF746
:102150008FF908BD08B54FF6FF70ADF800000320F9
:102160008DF8020048208DF8030069461648FEF7F6
:102170007FF908BD70B504464FF40070134908603C
:10218000401008602020091F08600F48C46020200C
:10219000091D0860091F0860C0000860FFF7DAFF2A
:1021A0004FF48060094908600748806885B20815C7
:1021B000091F0860FFF7BEFF4FF400700349091FB5
:1021C0000860284670BD000000100140140C01405A
:1021D00008B501211820FEF707FC01212020FEF799
:1021E00003FC4FF4E460ADF8000001208DF802001C
:1021F00010208DF803006946F648FEF739F9FFF71D
:1022000099FFF4481030006840F4C460F14910317F
:10221000086008BD10B5FFF7DBFF0020FFF7AAFF3D
:10222000ED4908800846008848F23021884202D1F2
:10223000FFF7EFFD01E0FFF77CFE0020FFF79AFFBC
:10224000E549088010BD01B5BDF80000E3490880EC
:1022500008BD01B5BDF80000E149088008BD30B5F2
:1022600004460D4621462020FFF7B1FD29462120D6
:10227000FFF7ADFD30BDDB4AD26891B24FF400727A
:10228000D44B14331A6052101B1F1A6020221A609C
:10229000D44AD06020221B1D1A601B1F1A60D20076
:1022A0001A6052001A60CF4AD1607047CD49C968A0
:1022B00088B24FF40071C74A14321160491011609E
:1022C0002021121F11602221C64AD1602021C14A5B
:1022D00014321160121F1160C900116049001160B1
:1022E000C049C86070472DE9F04306468946174645
:1022F00000240025A046B04649464046FFF7AFFF00
:1023000000BF1EE0FFF7D2FF00250FE037F81400F2
:102310000121A940084020B9B1480088FFF7ABFF70
:1023200003E0AE480088FFF7A6FF6D1C102DEDD32B
:1023300008F1010000F0FF0849464046FFF78FFF13
:10234000641C182CDED3BDE8F08370B505460E463C
:102350001446A4F12000C4B204EB4400A24901EBEE
:10236000001231462846FFF7BEFF70BDF0B50746A4
:102370000C46002540F23F1609E0227831463846E7
:10238000FFF7E3FFA6F1100086B2641C6D1C2078F5
:1023900008B1142DF1D3F0BD10B5044693A1204629
:1023A000FFF7E4FF10BD30B50546002400210846C4
:1023B000FFF755FFFFF77AFF00BF03E02846FFF75E
:1023C0005AFF641CB4F5963FF8D330BDF0B504460F
:1023D0000D4616461F46B44206DBA01B401C81B2C8
:1023E0005020FFF7F4FC03E000215020FFF7EFFC42
:1023F00021465120FFF7EBFCBD4206DBE81B401CE9
:1024000081B25220FFF7E3FC03E000215220FFF7E6
:10241000DEFC29465320FFF7DAFC29462046FFF769
:102420001EFFF0BD00B54FF4A073F022591EEF203F
:10243000FFF7CCFF41F218010320FFF7C8FC00BDF5
:102440002DE9F0410646884615461F4600244146C0
:102450003046FFF704FF5FB9FFF728FF00BF04E035
:102460005E480088FFF707FF641CAC42F8D310E019
:1024700000240CE0FFF71AFF58480088FFF7FBFE26
:10248000701CC6B241463046FFF7E9FE641CAC4200
:10249000F0D3BDE8F081F0B505460E4617461C4660
:1024A0000023224631462846FFF7CAFFE919C8B281
:1024B000002322463146FFF7C3FF01233A46314647
:1024C0002846FFF7BDFF301B401C81B201233A466E
:1024D0002846FFF7B5FFF0BD2DE9F04306460F464D
:1024E00090460320A0EB4809002445466EE07A1987
:1024F00091B23219D0B2FFF7B2FEFFF7D7FE3748DC
:102500000088FFF7B8FE7A1B91B23219D0B2FFF7FC
:10251000A6FEFFF7CBFE31480088FFF7ACFE7A1924
:1025200091B2321BD0B2FFF79AFEFFF7BFFE2B48E5
:102530000088FFF7A0FE7A1B91B2321BD0B2FFF7E2
:102540008EFEFFF7B3FE25480088FFF794FE3A1988
:1025500091B27219D0B2FFF782FEFFF7A7FE1F48B3
:102560000088FFF788FE3A1B91B27219D0B2FFF7CC
:1025700076FEFFF79BFE19480088FFF77CFE3A19AC
:1025800091B2721BD0B2FFF76AFEFFF78FFE1348BD
:102590000088FFF770FE3A1B91B2721BD0B2FFF7B2
:1025A0005EFEFFF783FE0D480088FFF764FEB9F179
:1025B000000F04DA062000EB8400814405E0601B74
:1025C0000A2101EB800081446D1E641CAC428ED94F
:1025D000BDE8F083000C01402C0000202800002002
:1025E0002A00002000100140963A000820202020F8
:1025F00020202020202020202020202020202020DB
:102600000000000070B506460024002540F23F118E
:102610000020FFF724FEFFF749FE00BF14E000256D
:102620000FE056F824000121A940084020B95F4876
:102630000088FFF720FE03E05D480088FFF71BFEDF
:102640006D1C202DEDD3641CB4F5166FE7D370BD5F
:1026500070B50446002500266688A08846EA004634
:102660006589A08945EA0045701B46082C4441F263
:1026700008010320FFF7ABFBFFF718FE002504E07D
:102680002088FFF7F8FDA41C6D1CB542F8D341F279
:1026900018010320FFF79BFB70BD10B54FF40070CD
:1026A00044490860401008602020091F086022206B
:1026B0004149C86020203F490860091F0860C000E8
:1026C0000860FFF747FD4FF480603A4908603A48D8
:1026D000806884B20815091F0860FFF72BFD4FF4CE
:1026E00000703449091F0860204610BD00B5002164
:1026F0001020FFF76CFB00211120FFF768FB002181
:102700001220FFF764FB00211320FFF760FB142069
:10271000FFF74EFB41F2B0711020FFF758FB40F27B
:1027200037111120FFF753FB0520FFF741FB40F263
:1027300039111220FFF74BFB0520FFF739FB4FF44F
:10274000E8511320FFF743FB13212920FFF73FFB3C
:102750000520FFF72DFB40F273110720FFF737FB31
:1027600000BD00B540F273110720FFF730FB00BD3C
:1027700000B500210720FFF72AFB00BD30B5054654
:1027800000210846FFF76BFDFFF790FD002409E0EC
:1027900015F814206100491C695C42EA0120FFF72A
:1027A0006AFD641CB4F5963FF2DB30BD2A000020C0
:1027B00028000020140C014000100140F649086078
:1027C00000BFF54909680029FBD1704710B500F03A
:1027D000BFFCF248007801280AD1F148007818B906
:1027E0000120EF49087051E00020ED4908704DE0EC
:1027F000EB48007868B9E9480078022809D1E9482F
:102800000078012801D1022000E00120E54908708C
:102810003CE0E3480078D8B9E0480078042817D1B4
:10282000E0480078012809D1DF48007801282DD040
:10283000DD480078401EDC49087027E0DB4800785E
:10284000012823D0D9480078401ED84908701DE0DF
:10285000D3480078D0B9D1480078082816D1D1489B
:102860000078012809D1D04800780A280ED0CE4837
:102870000078401CCC49087008E0CC4800780A2851
:1028800004D0CA480078401CC849087010BD10B573
:102890001421C74801F004F8C6480268C6A1C4481C
:1028A00000F07AFFC2491820FFF760FD1421C048EC
:1028B00000F0F6FFBC480278C5A1BD4800F06CFFEF
:1028C000BB494820FFF752FD1421B94800F0E8FF4A
:1028D000C3480268C3A1B64800F05EFFB44978203F
:1028E000FFF744FD1421B24800F0DAFFAF48027848
:1028F000C2A1AF4800F050FFAD49A820FFF736FD58
:102900001421AB4800F0CCFFA6480278BFA1A8482C
:1029100000F042FFA649D820FFF728FD10BD10B5F2
:102920009F480078012804D10121800200F07AFC40
:1029300004E000214FF4806000F074FC99480078B6
:10294000012809D10121000200F06CFC00214FF4A4
:10295000007000F067FC08E00121480200F062FC12
:1029600000214FF4807000F05DFC10BD10B5002414
:1029700008E004F19001C8B200F0B2FBA949085583
:10298000601CC4B2082CF4DBA6480068A649884243
:102990000AD1012000F0A4FB83490870022000F056
:1029A0009FFB8249087020E09F489E4908600024F0
:1029B0000BE09C4A115D04F19002D0B200F079FB6B
:1029C0000520FFF7FBFE601CC4B2082CF1DB0221DE
:1029D000012000F06EFB0520FFF7F0FE0221084603
:1029E00000F067FB0520FFF7E9FE10BD10B58F482A
:1029F00000786D49097888420BD06B4800788B4984
:102A0000087069480178012000F053FB0520FFF7AA
:102A1000D5FE874800786549097888420BD063481D
:102A200000788349087061480178022000F041FB7A
:102A30000520FFF7C3FE10BD38B504460D46012D35
:102A40000CD1ADF8004018208DF8030003208DF85C
:102A5000020069467748FDF70BFD0CE0ADF8004039
:102A600003208DF8020010208DF80300694671489C
:102A7000FDF7FEFC00BF38BD70B56F480078002838
:102A80006BD00124022500206B4908706B48007848
:102A90006B49087069484078487068488078887049
:102AA0003F480078012850D10846007853284CD17F
:102AB00008464078452848D108468078542844D1B3
:102AC0000846C0783A2840D1084640793A283CD197
:102AD000084600793038C4B25A48007808281BD11B
:102AE0000846C07930388979303901EB810100EB33
:102AF0004100C5B20A2D28DC022D26DB012C04D1B1
:102B000028480470284805701FE0022C1DD1254874
:102B100004702648057018E04A480078072814D148
:102B2000474880793038C5B2092D0EDC022D0CDB08
:102B3000012C04D11B4804701B48057005E0022CD1
:102B400003D1184804701948057014213C4800F05E
:102B5000A7FE00203B49087000BF70BD10B51548A6
:102B600000684CF25031884273D81248006832280D
:102B70006FD30C48007801286BD101214020FFF76A
:102B80005BFF0C4800680849097848432E49B1FBAF
:102B9000F0F02E49088060E030000020470000205F
:102BA0003B0000203A0000203800002039000020BF
:102BB0007800002060000020204368616E6E656C24
:102BC0002831293A202564487A202020000000007E
:102BD000204E2831293A20256420202020000000A2
:102BE00070000020204368616E6E656C2832293ABF
:102BF000202564487A20202000000000204E283242
:102C0000293A2025642020202000000020202020B8
:102C1000202020202020202020202020202025646B
:102C2000000000003C00002011DCF65144000020B0
:102C300045000020000801404C0000204D0000200D
:102C40008C0000204900002040420F00740000204A
:102C5000FFE700214020FFF7EFFE584800684CF2E4
:102C60005031884216D855480068322812D354484B
:102C7000007802280ED101218020FFF7DDFE4F48A9
:102C800000685049097848434F49B1FBF0F04F497B
:102C9000088003E000218020FFF7CEFE10BD4C48E5
:102CA00000684FF47A72B0FBF2F1481EB0F1807FF9
:102CB00000D31BE0481E4FF0E022506150170F2256
:102CC000002807DA13071D0E424B00F00F04241FE3
:102CD0001D5503E013071C0E3F4B1C5400BF002082
:102CE0004FF0E02290610720106100BFC820FFF77D
:102CF00065FD00F069FAFFF78DFA0020FFF753FB3E
:102D00000020FFF7A6FA4FF6FF70FFF79CFA00F0DD
:102D100007FA00F0CFFA00F0B9F900F025FB00F057
:102D2000B6FB00F0B4FC0021C020FFF785FEFFF7E2
:102D30001DFE09E0FFF7ABFDFFF7F1FDFFF756FEC3
:102D4000FFF79AFEFFF70AFFF4E710B501212348C9
:102D5000FEF715FE80B301212048FEF721FE204832
:102D60000078401CC0B21E4908700A2803D1002018
:102D70000870FFF72BFD1B480088401C80B21949E2
:102D80000880B0F57A7F04D1002008800120164920
:102D900008701648007878B115480078401CC0B219
:102DA00013490870642807D10020104908701049A1
:102DB000087001200F49087010BD0000700000204D
:102DC0003A0000203900002040420F007600002029
:102DD0000000002018ED00E000E400E000080040E2
:102DE0003400002036000020350000204B00002079
:102DF0004A0000204C000020704700BFFEE700BFE3
:102E0000FEE700BFFEE700BFFEE770477047704770
:102E100002480068401E01490860704730000020E9
:102E200008B58020ADF8000002208DF802002820AF
:102E30008DF803006946B948FDF71AFB08BD08B5CF
:102E40008020ADF8000002208DF8020010208DF8DF
:102E500003006946B148FDF70BFB08BD10B50446F9
:102E600024B18021AD48FDF7B0FB03E08021AB48E1
:102E7000FDF7ADFB10BD10B5044624B14021A748B5
:102E8000FDF7A3FB03E04021A448FDF7A0FB10BD24
:102E900010B58021A148FDF77EFB10BD002100E0A8
:102EA000491C8142FCD3704710B50120FFF7D6FFC3
:102EB0004FF4FA70FFF7F2FF0120FFF7DCFF4FF449
:102EC000FA70FFF7EBFF0020FFF7C8FF4FF4FA702E
:102ED000FFF7E4FF0020FFF7CEFF4FF4FA70FFF793
:102EE000DDFF10BD10B50020FFF7C5FF4FF4FA70ED
:102EF000FFF7D4FF0020FFF7B1FF4FF4FA70FFF7A0
:102F0000CDFF0120FFF7B7FF4FF4FA70FFF7C6FFC0
:102F10000120FFF7A3FF4FF4FA70FFF7BFFF10BDCA
:102F200010B50524FFF77CFF4FF4FA70FFF7B6FFEA
:102F30000120FFF7A0FF4FF4FA70FFF7AFFF0CE09E
:102F4000601E84B24FF4FA70FFF7A8FF2CB9FFF7A8
:102F500076FFFFF7C7FF002010BDFFF799FF00289D
:102F6000EED1FFF76CFF0020FFF785FF4FF4FA70FA
:102F7000FFF794FF0120EFE710B50020FFF76EFF89
:102F80004FF4FA70FFF78AFF4FF4FA70FFF786FFED
:102F90000120FFF770FF4FF4FA70FFF77FFF00206A
:102FA000FFF769FF4FF4FA70FFF778FF10BD10B517
:102FB0000120FFF753FF4FF4FA70FFF76FFF012076
:102FC000FFF759FF4FF4FA70FFF768FF0020FFF793
:102FD00052FF4FF4FA70FFF761FF10BD70B5044661
:102FE00008251BE00020FFF746FF4FF4FA70FFF7BB
:102FF00055FF04F08000FFF731FF4FF4FA70FFF740
:103000004DFF6006040E4FF4FA70FFF747FF0120F2
:10301000FFF731FF4FF4FA70FFF740FF281EA5F1CC
:103020000101CDB2DED1FFF726FF4FF4FA70FFF7B2
:1030300035FF70BD70B508250024FFF7F1FE16E0DE
:103040006006040E0020FFF716FF4FF4FA70FFF73A
:1030500025FF4FF4FA70FFF721FF0120FFF70BFF68
:103060004FF4FA70FFF71AFFFFF712FF0443281E10
:10307000A5F10101CDB2E3D1FFF7FDFE4FF4FA70E7
:10308000FFF70CFFFFF7DBFE204670BD08B50121FE
:103090000820FDF7A9FCC020ADF8000002208DF843
:1030A000020010208DF8030069461C48FDF7E0F986
:1030B00008BD70B505460C46FFF7F6FEA020FFF7E9
:1030C0008DFFFFF72DFF2846FFF788FFFFF728FF4A
:1030D0002046FFF783FFFFF723FFFFF703FF70BDD5
:1030E00070B50446FFF7E0FEA020FFF777FFFFF77B
:1030F00017FF2046FFF772FFFFF712FFFFF7D4FE1E
:10310000A120FFF76BFFFFF70BFFFFF793FF0546CB
:10311000FFF74DFFFFF7E6FE284670BD000C0140AB
:1031200008B501210C20FDF75FFC40F20110ADF85D
:10313000000004208DF8030069461E48FDF798F949
:103140000620ADF8000069461B48FDF791F908BD5F
:1031500070B5F02401211748FDF71DFA05464FF41C
:1031600080711448FDF717FA45EA4005022112481C
:10317000FDF711FA45EA800504210F48FDF70BFA27
:1031800045EAC0002043C4B284F0FF040B48007835
:10319000604020400A4908700CB9012000E000207E
:1031A00006490978614008400649087003480470E0
:1031B00070BD000000080140000C014046000020E6
:1031C000470000204800002008B501213020FDF70D
:1031D0000BFC4FF47F40ADF8000003208DF8020097
:1031E00010208DF8030069462548FDF741F90420B9
:1031F000ADF8000069462348FDF73AF92048C06859
:1032000040F47F401E49C8601E480C30006840F002
:1032100004001C490C3108600846006820F00400D6
:10322000086008BD012905D0154AD2680243144B35
:10323000DA6004E0124AD2688243114BDA60114A24
:103240000C32126842F004020E4B0C331A601A461C
:10325000126822F004021A6070470949C9684140A7
:10326000074AD16007490C31096841F00401054A59
:103270000C3211601146096821F004011160704799
:10328000001001400014014010B501210420FDF799
:10329000B8FB10BD08B51E208DF8000000208DF889
:1032A00001008DF8020001208DF803006846FDF74B
:1032B00004FC08BD3EB50024FFF7E6FFFFF7EAFF78
:1032C000124800681249B0FBF1F0401E84B240F28F
:1032D000E730ADF80400ADF800400020ADF806007E
:1032E000ADF8020069460B48FDF724FD0122214696
:1032F0000848FEF722F9012211460648FEF791F828
:1033000001210448FEF772F83EBD000000000020D5
:1033100040420F000008004010B501210520FDF7D4
:1033200063FB01214804FDF76CFB10BD08B50820C4
:10333000ADF8000004208DF8030069463948FDF718
:1033400097F808BD08B54FF4E060FDF7B1FB262003
:103350008DF8000000208DF8020001208DF8030098
:103360006846FDF7AAFB08BD1FB5FFF7D5FFFFF7BD
:10337000E9FFFFF7DBFF4FF4165000900020ADF897
:103380000400ADF80600ADF80800ADF80C0004200C
:10339000ADF80A0069462448FEF749FB012240F2D5
:1033A00025512148FEF7DBFB01211F48FEF7CBFB2F
:1033B0001FBD10B540F225511B48FEF7B5FC38B3D0
:1033C0001948FEF731FCC1B218480478601C174A4E
:1033D00010701748015501201649087010460078F2
:1033E000012804D1124800781349087019E00F48E9
:1033F0000078022804D10E4840780F49487010E048
:103400000A480078032804D1094880780A4988705E
:1034100007E006480078042803D10548C07806492B
:10342000C87010BD00080140004400404900002061
:103430008C0000204B0000204D00002010B5012121
:103440000846FDF7DEFA01210420FDF7CDFA10BD94
:1034500008B50620ADF8000004208DF80300032015
:103460008DF8020069466948FDF702F808BD08B505
:103470001C208DF8000000208DF8010001208DF83F
:1034800002008DF803006846FDF717FB08BD0EB576
:10349000FFF7D4FFFFF7EBFFFFF7DAFF0122472129
:1034A0009007FEF74AF80420ADF800000020ADF8C0
:1034B00002000120ADF804000020ADF80600ADF8D0
:1034C000080069464FF08040FDF7C7FE0820ADF8C0
:1034D00000006946C006FDF7C0FE01218807FDF720
:1034E00085FF01220C219007FDF79BFF0EBD10B553
:1034F00004210807FEF743FA01283FD10421800781
:10350000FEF74EFA4248008848B94FF08040FEF777
:103510001AFA4049088001203D4908802EE03C48C5
:10352000008801282AD18007FEF70DFA3A49088061
:103530000846008837490988884207DD36480088F0
:1035400034490988401A3549086009E03148008843
:103550004FF6FF71081A3049098808442F4908605E
:103560002F4800684821B0FBF1F02C490968B0FBF6
:10357000F1F02C4908600020254908800821C80680
:10358000FEF7FDF901283FD108218007FEF708FA70
:103590002548008848B94FF08040FEF7D7F9234905
:1035A00008800120204908802EE01F48008801285B
:1035B0002AD18007FEF7CAF91D490880084600880D
:1035C0001A490988884207DD19480088174909887F
:1035D000401A1849086009E0144800884FF6FF7146
:1035E000081A134909880844124908600C48006801
:1035F0004821B0FBF1F00F490968B0FBF1F00E492A
:10360000086000200849088010BD00000008014043
:103610005800002054000020560000205C000020CC
:1036200000000020600000206800002064000020EE
:10363000660000206C0000207000002010B5012101
:103640000220FDF7DEF901210520FDF7CDF910BDBF
:1036500008B5C020ADF8000018208DF80300032045
:103660008DF8020069464648FCF702FF08BD08B520
:103670001D208DF8000000208DF801008DF802005B
:1036800001208DF803006846FDF717FA08BD10B554
:1036900088B00024FFF7D2FFFFF7DAFFFFF7E7FF5C
:1036A000384800683849B0FBF1F0401E84B24FF64C
:1036B000FF70ADF81800ADF814400020ADF81A0006
:1036C000ADF8160005A93148FDF734FB3020ADF800
:1036D00004000120ADF806002D480088ADF80A006E
:1036E0000220ADF80C0001A92848FDF760FB00217D
:1036F0002648FDF7ABFF0120ADF8060025480088FD
:10370000ADF80A0001A92148FDF793FB00211F48ED
:10371000FDF7A5FF01211D48FDF768FE01220621E6
:103720001A48FDF77EFE08B010BD10B502211748FB
:10373000FEF725F970B102211448FEF731F913485C
:10374000FEF7FEF8044612480088204481B20F4874
:10375000FEF7E4F804210D48FEF711F970B10421D9
:103760000A48FEF71DF90948FEF7EDF80446094836
:103770000088204481B20548FEF7D2F810BD000051
:10378000000801400000002080841E00000400406A
:1037900074000020760000200FB41CB5074B06AA69
:1037A0007B4469460090059800F0FDF800206946CA
:1037B00000F00CF91CBC5DF814FB000029020000AD
:1037C0002DE9F0410E460446002020622046E168C3
:1037D000884730B3252805D0D4E901219047206AD5
:1037E000401CF2E7E168204600278847050018D012
:1037F000A5F14100192802D820354FF40067324660
:10380000294620462760FCF7ABFC40B1012804D0D4
:10381000F61D26F007060836D8E7361DD6E72846F7
:10382000DAE7206ABDE8F0812DE9F0410646002480
:1038300010687529314616A510D0AFF30080002816
:1038400002DA404213A507E031688A0701D512A5C4
:1038500002E0490704D511A5012401E0AFF300807F
:1038600000210A2206F1240709E0B0FBF2FCB0FBBC
:10387000F2F302FB1C00303078541846491C002833
:10388000F3D123462A463046BDE8F04100F02DB87A
:10389000000000002D0000002B00000020000000B0
:1038A0004FF000020429C0F0128010F0030C00F069
:1038B0009480CCF1040CBCF1020F18BF00F8012B6E
:1038C000A8BF20F8022BA1EB0C0100F086B85FEA3C
:1038D000C17C24BF00F8012B00F8012B48BF00F881
:1038E000012B70477047704770472DE9F0470D4630
:1038F00099469246044600F124080168880604D5DA
:10390000E06921F01001216000E00120A84201DD02
:10391000471B00E00027A1697A1902EB0900081A89
:10392000A0612078C00602D42046AFF300800026B4
:1039300008E0D4E901211AF806009047206A401CEB
:10394000761C20624E45F4DB2078C0060AD520465E
:10395000AFF3008006E0D4E9012130209047206ACF
:10396000401C2062381EA7F10107F4DC07E0D4E90F
:10397000012118F805009047206A401C2062281E8B
:10398000A5F10105F3DC2046AFF3008020780006A6
:1039900002D50220BDE8F0870120FBE701694A1C3F
:1039A00002610878704700B58FB0CDE90131002180
:1039B000059105497944CDE9031011466846FFF7A2
:1039C000FFFE0FB000BD0000E5FFFFFF0A6802F830
:1039D000010B0A6070474FF0000200B51346944691
:1039E0009646203922BFA0E80C50A0E80C50B1F157
:1039F0002001BFF4F7AF090728BFA0E80C5048BF6B
:103A00000CC05DF804EB890028BF40F8042B08BF08
:103A1000704748BF20F8022B11F0804F18BF00F804
:103A2000012B7047754600F02BF8AE46050069463D
:103A3000534620F00700854618B020B5FCF7B6FBCA
:103A4000BDE820404FF000064FF000074FF000089F
:103A50004FF0000B21F00701AC46ACE8C009ACE820
:103A6000C009ACE8C009ACE8C0098D46704710B584
:103A70000446AFF300802046BDE81040FCF782BB4F
:103A800000487047A000002001491820ABBEFEE7A7
:103A90002600020070470000000000000000000047
:103AA0000000000000000000000000000000000016
:103AB0000000000000000000000000000000000006
:103AC00000000000000000008001800180018001F2
:103AD00080018001800180018001800180018001DE
:103AE0008001000000008001800100000000000053
:103AF00000000000000000000000CC00CC00CC0062
:103B0000CC00CC00CC000000000000000000000051
:103B100000000000000000000000000000000000A5
:103B20000000000000000000000000000000000095
:103B30000000600C600C600C30063006FE1FFE1F9B
:103B4000300638071803FE1FFE1F180318038C01E8
:103B50008C018C01000000008000E003F80F9C0E37
:103B60008C1C8C188C009800F801E007800E801CDB
:103B70008C188C189C18B80CF00FE00380008000A3
:103B80000000000000000000000000000E181B0CE8
:103B9000110C11061106110311039B018E01C0388F
:103BA000C06C60446044304430441844186C0C3895
:103BB0000000000000000000E001F00338071806D4
:103BC00018063003F001F000F8009C310E33061E99
:103BD000061C061C063FFC73F021000000000000DC
:103BE000000000000000000000000C000C000C00B1
:103BF0000C000C000C0000000000000000000000A1
:103C000000000000000000000000000000000000B4
:103C10000000000000000000000200038001C0005E
:103C2000C000600060003000300030003000300024
:103C300030003000300060006000C000C000800133
:103C4000000300020000000020006000C0008001AE
:103C500080010003000300060006000600060006BF
:103C60000006000600060003000380018001C0007A
:103C700060002000000000000000000000000000C4
:103C80000000C000C000D806F807E0013003380784
:103C90000000000000000000000000000000000024
:103CA0000000000000000000000000000000000014
:103CB000000080018001800180018001FC3FFC3F09
:103CC000800180018001800180010000000000006F
:103CD00000000000000000000000000000000000E4
:103CE00000000000000000000000000000000000D4
:103CF00000000000000000008001800100010001C0
:103D00008000000000000000000000000000000033
:103D10000000000000000000000000000000E007BC
:103D2000E0070000000000000000000000000000AC
:103D30000000000000000000000000000000000083
:103D40000000000000000000000000000000000073
:103D50000000000000000000C000C00000000000E3
:103D60000000000000000000000C000C000600062F
:103D7000000600030003000380038001800180012E
:103D8000C000C000C0006000600000000000000033
:103D90000000000000000000E003F007380E180CDF
:103DA0000C180C180C180C180C180C180C180C18F3
:103DB0000C18180C380EF007E0030000000000009B
:103DC000000000000000000000018001C001F001BF
:103DD00098018801800180018001800180018001BB
:103DE000800180018001800180010000000000004E
:103DF0000000000000000000E003F80F180C0C1891
:103E00000C1800180018000C000600038001C00008
:103E1000600030001800FC1FFC1F000000000000C4
:103E20000000000000000000E001F807180E0C0C74
:103E30000C0C000C0006C003C007000C0018001892
:103E40000C180C18180CF807E00300000000000024
:103E50000000000000000000000C000E000F000F2A
:103E6000800DC00C600C600C300C180C0C0CFC3F6E
:103E7000FC3F000C000C000C000C000000000000D7
:103E80000000000000000000F80FF80F18001800F4
:103E90000C00EC03FC071C0E001C00180018001896
:103EA0000C181C0C180EF807E003000000000000BE
:103EB0000000000000000000C007F00F381C1818B8
:103EC00018000C00CC03EC0F3C0E1C1C0C180C183A
:103ED0000C18181C380EF007E0030000000000006A
:103EE0000000000000000000FC1FFC1F000C00068A
:103EF0000006000380038001C001C000E0006000F4
:103F00006000700030003000300000000000000051
:103F10000000000000000000E003F007380E180C5D
:103F2000180C180C3806F007F007180C0C180C18B1
:103F30000C180C18380CF80FE0030000000000000B
:103F40000000000000000000E003F007380E1C0C29
:103F50000C180C180C181C1C381EF81BE019001843
:103F6000000C000C1C0EF807F0010000000000001F
:103F70000000000000000000000000000000000041
:103F8000000080018001000000000000000000002F
:103F9000000000000000800180010000000000001F
:103FA0000000000000000000000000000000000011
:103FB00000008001800100000000000000000000FF
:103FC000000000000000800180010001000180006D
:103FD00000000000000000000000000000000000E1
:103FE0000000000000000010001C800FE003F8003B
:103FF0001800F800E003800F001C00100000000013
:1040000000000000000000000000000000000000B0
:10401000000000000000F81F000000000000F81F72
:104020000000000000000000000000000000000090
:104030000000000000000000000000000000000080
:1040400000000000000008003800F001C007001F59
:104050000018001FC007F001380008000000000031
:104060000000000000000000E003F80F180C0C181E
:104070000C180018000C000600038001C000C000EE
:10408000C00000000000C000C000000000000000F0
:1040900000000000000000000000E00718180420E5
:1040A000C229224A1144094409440944092211132E
:1040B000E20C024004201818E00700000000000095
:1040C000000000000000000080038003C006C0065E
:1040D000C006600C600C301830183018F83FF83FFC
:1040E0001C700C600C6006C006C0000000000000E0
:1040F0000000000000000000FC03FC0F0C0C0C187A
:104100000C180C180C0CFC07FC0F0C180C300C30A5
:104110000C300C300C18FC1FFC07000000000000E5
:104120000000000000000000C007F01F38381C30FD
:104130000C70066006000600060006000600060079
:1041400006600C701C30F01FE0070000000000004B
:104150000000000000000000FE03FE0F060E06181F
:1041600006180630063006300630063006300630B7
:1041700006180618060EFE0FFE03000000000000E1
:104180000000000000000000FC3FFC3F0C000C00A1
:104190000C000C000C00FC1FFC1F0C000C000C00A1
:1041A0000C000C000C00FC3FFC3F00000000000075
:1041B0000000000000000000F83FF83F1800180061
:1041C000180018001800F81FF81F18001800180031
:1041D0001800180018001800180000000000000067
:1041E0000000000000000000E00FF83F3C780E6087
:1041F00006E007C00300030003FE03FE03C007C080
:1042000006C00EC03CF0F83FE00F000000000000C8
:1042100000000000000000000C300C300C300C30AE
:104220000C300C300C30FC3FFC3F0C300C300C30B0
:104230000C300C300C300C300C3000000000000052
:10424000000000000000000080018001800180016A
:104250008001800180018001800180018001800156
:1042600080018001800180018001000000000000C9
:104270000000000000000000000600060006000626
:1042800000060006000600060006000600060006FE
:10429000180618063807F003E001000000000000CF
:1042A000000000000000000006300618060C06069C
:1042B00006038601C60066007600DE008E01060356
:1042C0000606060C06180630066000000000000016
:1042D000000000000000000018001800180018007E
:1042E000180018001800180018001800180018000E
:1042F000180018001800F81FF81F00000000000048
:1043000000000000000000000EE01EF01EF01EF095
:1043100036D836D836D836D866CC66CC66CCC6C643
:10432000C6C6C6C6C6C686C386C300000000000057
:1043300000000000000000000C301C303C303C301D
:104340006C306C30CC30CC308C310C330C330C36C0
:104350000C360C3C0C3C0C380C300000000000000B
:104360000000000000000000E007F81F1C380E707D
:10437000066003C003C003C003C003C003C003C082
:1043800006600E701C38F81FE007000000000000F7
:104390000000000000000000FC0FFC1F0C380C3077
:1043A0000C300C300C300C18FC1FFC070C000C00FF
:1043B0000C000C000C000C000C00000000000000C1
:1043C0000000000000000000E007F81F1C380E701D
:1043D000066003E003C003C003C003C003C007E0DE
:1043E00006630E3F1C3CF83FE0F700C000000000F1
:1043F0000000000000000000FE0FFE1F063806301F
:10440000063006300638FE1FFE0706030606060CB9
:10441000061806180630063006600000000000008E
:104420000000000000000000E003F80F1C0C0C1856
:104430000C180C001C00F803E00F001E00380630BA
:1044400006300E301C1CF80FE007000000000000D2
:104450000000000000000000FE7FFE7F8001800160
:104460008001800180018001800180018001800144
:1044700080018001800180018001000000000000B7
:1044800000000000000000000C300C300C300C303C
:104490000C300C300C300C300C300C300C300C303C
:1044A0000C300C301818F81FE00700000000000066
:1044B00000000000000000000360063006300630F7
:1044C0000C180C180C18180C180C380E3006300686
:1044D000700760036003C001C0010000000000001D
:1044E00000000000000000000360C361C361C361FD
:1044F0006633663366336633663366336C1B6C1B18
:104500006C1B2C1A3C1E380E380E000000000000F8
:1045100000000000000000000FE00C7018303018A0
:10452000700C600EC00780038003C003E006700CAF
:10453000301C18180C300E6007E00000000000006E
:10454000000000000000000003C006600C301C38B2
:104550003818300C6006E007C0038001800180013C
:1045600080018001800180018001000000000000C6
:104570000000000000000000FC7FFC7F00600030B5
:104580000018000C000600038001C000600030002D
:1045900018000C000600FE7FFE7F000000000000F7
:1045A0000000000000000000E003E0036000600085
:1045B00060006000600060006000600060006000FB
:1045C00060006000600060006000600060006000EB
:1045D000E003E003000000003000300060006000F5
:1045E0006000C000C000C000C001800180018001E7
:1045F00000030003000300060006000000000000A6
:104600000000000000000000E003E00300030003DE
:104610000003000300030003000300030003000382
:104620000003000300030003000300030003000372
:10463000E003E003000000000000C001C0016003CF
:104640006003600330063006180C180C00000000F0
:10465000000000000000000000000000000000005A
:10466000000000000000000000000000000000004A
:10467000000000000000000000000000000000003A
:104680000000000000000000FFFFFFFF000000002E
:1046900000000000000000000C000C000C000C00EA
:1046A0000C000C00000000000000000000000000F2
:1046B00000000000000000000000000000000000FA
:1046C00000000000000000000000000000000000EA
:1046D0000000F003F8071C0C0C0C000FF00FF80C96
:1046E0000C0C0C0C1C0FF80FF01800000000000060
:1046F000000000000000000018001800180018005A
:104700001800D803F80F380C1818181818181818AB
:1047100018181818380CF80FD80300000000000013
:104720000000000000000000000000000000000089
:104730000000C003F007300E180C18001800180015
:104740001800180C300EF007C00300000000000035
:1047500000000000000000000018001800180018F9
:104760000018C01BF01F301C18181818181818183B
:1047700018181818301CF01FC01B000000000000A3
:104780000000000000000000000000000000000029
:104790000000C003F00F300C1818F81FF81F1800A5
:1047A00018003818301CF00FC0070000000000008F
:1047B0000000000000000000800FC00FC000C0001B
:1047C000C000F007F007C000C000C000C000C0007B
:1047D000C000C000C000C000C00000000000000019
:1047E00000000000000000000000000000000000C9
:1047F0000000E00DF80F180E0C0C0C0C0C0C0C0C3F
:104800000C0C0C0C180EF80FE00D000C0C0C1C0618
:10481000F807F00100000000180018001800180048
:104820001800D807F80F381C181818181818181876
:104830001818181818181818181800000000000088
:104840000000000000000000C000C00000000000E8
:104850000000C000C000C000C000C000C000C00018
:10486000C000C000C000C000C00000000000000088
:104870000000000000000000C000C00000000000B8
:104880000000C000C000C000C000C000C000C000E8
:10489000C000C000C000C000C000C000C000C00018
:1048A000F8007800000000000C000C000C000C0068
:1048B0000C000C0C0C060C038C01CC006C00FC00F2
:1048C0009C018C030C030C060C0C00000000000083
:1048D0000000000000000000C000C000C000C000D8
:1048E000C000C000C000C000C000C000C000C000C8
:1048F000C000C000C000C000C000000000000000F8
:1049000000000000000000000000000000000000A7
:1049100000007C3CFF7EC7E383C183C183C183C1A8
:1049200083C183C183C183C183C100000000000033
:104930000000000000000000000000000000000077
:1049400000009807F80F381C1818181818181818AD
:104950001818181818181818181800000000000067
:104960000000000000000000000000000000000047
:104970000000C003F00F300C181818181818181879
:1049800018181818300CF00FC003000000000000C9
:104990000000000000000000000000000000000017
:1049A0000000D803F80F380C181818181818181821
:1049B00018181818380CF80FD80318001800180029
:1049C00018001800000000000000000000000000B7
:1049D0000000C01BF01F301C1818181818181818E1
:1049E00018181818301CF01FC01B001800180018E9
:1049F0000018001800000000000000000000000087
:104A00000000B007F00370003000300030003000CC
:104A100030003000300030003000000000000000A6
:104A20000000000000000000000000000000000086
:104A30000000E003F003380E180C3800F003C00744
:104A4000000C180C380EF007E00300000000000016
:104A5000000000000000000000008000C000C00056
:104A6000C000F007F007C000C000C000C000C000D8
:104A7000C000C000C000C0078007000000000000A8
:104A80000000000000000000000000000000000026
:104A900000001818181818181818181818181818C6
:104AA00018181818381CF01FE0190000000000004A
:104AB00000000000000000000000000000000000F6
:104AC00000000C18180C180C180C300630063006B4
:104AD000600360036003C001C0010000000000002B
:104AE00000000000000000000000000000000000C6
:104AF0000000C141C141C3616363636363633636D0
:104B0000363636361C1C1C1C1C1C00000000000025
:104B10000000000000000000000000000000000095
:104B200000001C38381C300C600660036003600312
:104B300060036006300C381C1C38000000000000C8
:104B40000000000000000000000000000000000065
:104B500000001830301830187018600C600CE00C31
:104B6000C006C00680038003800380018001C0016D
:104B7000F0007000000000000000000000000000D5
:104B80000000FC1FFC1F000C000600038001C00099
:104B9000600030001800FC1FFC1F00000000000037
:104BA000000000000000000000038001C000C00001
:104BB000C000C000C000C0006000600030006000A5
:104BC0004000C000C000C000C000C000C0008001A4
:104BD00000030000000000008001800180018001CE
:104BE00080018001800180018001800180018001BD
:104BF00080018001800180018001800180018001AD
:104C000080018001000000006000C000C001800140
:104C10008001800180018001000300030006000381
:104C20000001800180018001800180018001C000BD
:104C30006000000000000000000000000000000014
:104C4000000000000000F010F81F080F0000000036
:104C50000000000000000000000000000000000054
:104C60000000000000000000884C00080000002048
:104C70007800000028010008004D0008780000209E
:104C8000880600004401000800A24A040000000059
:104C900000000000010203040607080900000000EC
:104CA00001020304010203040607080902040608BE
:104CB0000000FFFF000000000000000000000000F6
:104CC00002030100000000000000000002020000DA
:104CD00000000000000000000000000000000000D4
:104CE00000000000000000000000000000000000C4
:104CF000000000000000000000000000F401C800F7
:04000005080000ED02
:00000001FF
