Component: ARM Compiler 5.06 update 2 (build 183) Tool: armlink [4d35b7]

==============================================================================

Section Cross References

    startup_stm32f10x_md.o(STACK) refers (Special) to heapauxi.o(.text) for __use_two_region_memory
    startup_stm32f10x_md.o(HEAP) refers (Special) to heapauxi.o(.text) for __use_two_region_memory
    startup_stm32f10x_md.o(RESET) refers (Special) to heapauxi.o(.text) for __use_two_region_memory
    startup_stm32f10x_md.o(RESET) refers to startup_stm32f10x_md.o(STACK) for __initial_sp
    startup_stm32f10x_md.o(RESET) refers to startup_stm32f10x_md.o(.text) for Reset_Handler
    startup_stm32f10x_md.o(RESET) refers to stm32f10x_it.o(.text) for NMI_Handler
    startup_stm32f10x_md.o(RESET) refers to pwm_octoggle.o(.text) for TIM2_IRQHandler
    startup_stm32f10x_md.o(RESET) refers to inputcapture.o(.text) for TIM3_IRQHandler
    startup_stm32f10x_md.o(RESET) refers to uart.o(.text) for USART2_IRQHandler
    startup_stm32f10x_md.o(.text) refers (Special) to heapauxi.o(.text) for __use_two_region_memory
    startup_stm32f10x_md.o(.text) refers to system_stm32f10x.o(.text) for SystemInit
    startup_stm32f10x_md.o(.text) refers to __main.o(!!!main) for __main
    startup_stm32f10x_md.o(.text) refers to startup_stm32f10x_md.o(HEAP) for Heap_Mem
    startup_stm32f10x_md.o(.text) refers to startup_stm32f10x_md.o(STACK) for Stack_Mem
    system_stm32f10x.o(.text) refers to system_stm32f10x.o(.data) for SystemCoreClock
    stm32f10x_gpio.o(.text) refers to stm32f10x_rcc.o(.text) for RCC_APB2PeriphResetCmd
    stm32f10x_rcc.o(.text) refers to stm32f10x_rcc.o(.data) for APBAHBPrescTable
    stm32f10x_tim.o(.text) refers to stm32f10x_rcc.o(.text) for RCC_APB2PeriphResetCmd
==============================================================================

Removing Unused input sections from the image.

    Removing core_cm3_1.o(.emb_text), (32 bytes).
    Removing system_stm32f10x.o(.rev16_text), (4 bytes).
    Removing system_stm32f10x.o(.revsh_text), (4 bytes).
    Removing misc.o(.rev16_text), (4 bytes).
    Removing misc.o(.revsh_text), (4 bytes).
    Removing stm32f10x_gpio.o(.rev16_text), (4 bytes).
    Removing stm32f10x_gpio.o(.revsh_text), (4 bytes).
    Removing stm32f10x_rcc.o(.rev16_text), (4 bytes).
    Removing stm32f10x_rcc.o(.revsh_text), (4 bytes).
    Removing stm32f10x_tim.o(.rev16_text), (4 bytes).
    Removing stm32f10x_tim.o(.revsh_text), (4 bytes).
    Removing stm32f10x_adc.o(.rev16_text), (4 bytes).
    Removing stm32f10x_adc.o(.revsh_text), (4 bytes).
    Removing stm32f10x_adc.o(.text), (1102 bytes).
    Removing stm32f10x_rtc.o(.rev16_text), (4 bytes).
    Removing stm32f10x_rtc.o(.revsh_text), (4 bytes).
    Removing stm32f10x_rtc.o(.text), (328 bytes).
    Removing stm32f10x_bkp.o(.rev16_text), (4 bytes).
==============================================================================

Image Symbol Table

    Local Symbols

    Symbol Name                              Value     Ov Type        Size  Object(Section)

    ../clib/angel/boardlib.s                 0x00000000   Number         0  boardshut.o ABSOLUTE
    ../clib/angel/boardlib.s                 0x00000000   Number         0  boardinit3.o ABSOLUTE
    ../clib/angel/boardlib.s                 0x00000000   Number         0  boardinit2.o ABSOLUTE
    ../clib/angel/boardlib.s                 0x00000000   Number         0  boardinit1.o ABSOLUTE
    ../clib/angel/handlers.s                 0x00000000   Number         0  __scatter_zi.o ABSOLUTE
    ../clib/angel/handlers.s                 0x00000000   Number         0  __scatter_copy.o ABSOLUTE
    ../clib/angel/kernel.s                   0x00000000   Number         0  rtexit2.o ABSOLUTE
    ../clib/angel/kernel.s                   0x00000000   Number         0  __rtentry2.o ABSOLUTE
    ../clib/angel/kernel.s                   0x00000000   Number         0  __rtentry.o ABSOLUTE
    ../clib/angel/kernel.s                   0x00000000   Number         0  __rtentry4.o ABSOLUTE
    ../clib/angel/kernel.s                   0x00000000   Number         0  rtexit.o ABSOLUTE
    ../clib/angel/rt.s                       0x00000000   Number         0  rt_raise.o ABSOLUTE
    ../clib/angel/scatter.s                  0x00000000   Number         0  __scatter.o ABSOLUTE
    ../clib/angel/startup.s                  0x00000000   Number         0  __main.o ABSOLUTE
    ../clib/angel/sys.s                      0x00000000   Number         0  indicate_semi.o ABSOLUTE
    ../clib/angel/sys.s                      0x00000000   Number         0  sys_stackheap_outer.o ABSOLUTE
    ../clib/angel/sys.s                      0x00000000   Number         0  libspace.o ABSOLUTE
    ../clib/angel/sys.s                      0x00000000   Number         0  use_no_semi.o ABSOLUTE
    ../clib/angel/sysapp.c                   0x00000000   Number         0  sys_command.o ABSOLUTE
    ../clib/angel/sysapp.c                   0x00000000   Number         0  sys_exit.o ABSOLUTE
    ../clib/angel/sysapp.c                   0x00000000   Number         0  sys_wrch.o ABSOLUTE
    ../clib/armsys.c                         0x00000000   Number         0  no_argv.o ABSOLUTE
    ../clib/armsys.c                         0x00000000   Number         0  argv_veneer.o ABSOLUTE
    ../clib/armsys.c                         0x00000000   Number         0  argv_veneer.o ABSOLUTE
    ../clib/armsys.c                         0x00000000   Number         0  _get_argv_nomalloc.o ABSOLUTE
    ../clib/heapalloc.c                      0x00000000   Number         0  hrguard.o ABSOLUTE
    ../clib/heapaux.c                        0x00000000   Number         0  heapauxi.o ABSOLUTE
    ../clib/libinit.s                        0x00000000   Number         0  libinit2.o ABSOLUTE
    ../clib/libinit.s                        0x00000000   Number         0  libshutdown.o ABSOLUTE
    ../clib/libinit.s                        0x00000000   Number         0  libinit.o ABSOLUTE
    ../clib/libinit.s                        0x00000000   Number         0  libshutdown2.o ABSOLUTE
    ../clib/memcpset.s                       0x00000000   Number         0  rt_memclr.o ABSOLUTE
    ../clib/memcpset.s                       0x00000000   Number         0  rt_memclr_w.o ABSOLUTE
    ../clib/misc.s                           0x00000000   Number         0  printf_stubs.o ABSOLUTE
    ../clib/printf.c                         0x00000000   Number         0  __printf_ss.o ABSOLUTE
    ../clib/printf.c                         0x00000000   Number         0  __printf.o ABSOLUTE
    ../clib/printf.c                         0x00000000   Number         0  __printf_flags_wp.o ABSOLUTE
    ../clib/printf.c                         0x00000000   Number         0  __printf_ss_wp.o ABSOLUTE
    ../clib/printf.c                         0x00000000   Number         0  __printf_flags_ss_wp.o ABSOLUTE
    ../clib/printf.c                         0x00000000   Number         0  _sputc.o ABSOLUTE
    ../clib/printf.c                         0x00000000   Number         0  __2sprintf.o ABSOLUTE
    ../clib/printf.c                         0x00000000   Number         0  noretval__2sprintf.o ABSOLUTE
    ../clib/printf.c                         0x00000000   Number         0  _printf_intcommon.o ABSOLUTE
    ../clib/printf.c                         0x00000000   Number         0  _printf_dec.o ABSOLUTE
    ../clib/printf.c                         0x00000000   Number         0  _printf_char_common.o ABSOLUTE
    ../clib/printf.c                         0x00000000   Number         0  _printf_pad.o ABSOLUTE
    ../clib/printf.c                         0x00000000   Number         0  __printf_flags_ss.o ABSOLUTE
    ../clib/printf.c                         0x00000000   Number         0  __printf_wp.o ABSOLUTE
    ../clib/printf.c                         0x00000000   Number         0  __printf_nopercent.o ABSOLUTE
    ../clib/printf.c                         0x00000000   Number         0  __printf_flags.o ABSOLUTE
    ../clib/printf_percent.s                 0x00000000   Number         0  _printf_d.o ABSOLUTE
    ../clib/printf_percent.s                 0x00000000   Number         0  _printf_percent_end.o ABSOLUTE
    ../clib/printf_percent.s                 0x00000000   Number         0  _printf_percent.o ABSOLUTE
    ../clib/signal.c                         0x00000000   Number         0  defsig_stak_inner.o ABSOLUTE
    ../clib/signal.c                         0x00000000   Number         0  defsig_rtred_inner.o ABSOLUTE
    ../clib/signal.c                         0x00000000   Number         0  defsig_fpe_inner.o ABSOLUTE
    ../clib/signal.c                         0x00000000   Number         0  defsig_abrt_inner.o ABSOLUTE
    ../clib/signal.c                         0x00000000   Number         0  __raise.o ABSOLUTE
    ../clib/signal.c                         0x00000000   Number         0  defsig_general.o ABSOLUTE
    ../clib/signal.c                         0x00000000   Number         0  defsig_pvfn_inner.o ABSOLUTE
    ../clib/signal.c                         0x00000000   Number         0  defsig_rtmem_outer.o ABSOLUTE
    ../clib/signal.c                         0x00000000   Number         0  defsig_rtmem_formal.o ABSOLUTE
    ../clib/signal.c                         0x00000000   Number         0  defsig_exit.o ABSOLUTE
    ../clib/signal.c                         0x00000000   Number         0  defsig_cppl_inner.o ABSOLUTE
    ../clib/signal.c                         0x00000000   Number         0  defsig_segv_inner.o ABSOLUTE
    ../clib/signal.c                         0x00000000   Number         0  defsig_other.o ABSOLUTE
    ../clib/signal.c                         0x00000000   Number         0  defsig_rtmem_inner.o ABSOLUTE
    ../clib/signal.s                         0x00000000   Number         0  defsig.o ABSOLUTE
    ../clib/stdlib.c                         0x00000000   Number         0  exit.o ABSOLUTE
    ../fplib/daddsub.s                       0x00000000   Number         0  daddsub_clz.o ABSOLUTE
    ../fplib/ddiv.s                          0x00000000   Number         0  ddiv.o ABSOLUTE
    ../fplib/dfixu.s                         0x00000000   Number         0  dfixu.o ABSOLUTE
    ../fplib/dflt.s                          0x00000000   Number         0  dflt_clz.o ABSOLUTE
    ../fplib/dmul.s                          0x00000000   Number         0  dmul.o ABSOLUTE
    ../fplib/dnaninf.s                       0x00000000   Number         0  dnaninf.o ABSOLUTE
    ../fplib/dretinf.s                       0x00000000   Number         0  dretinf.o ABSOLUTE
    ../fplib/faddsub.s                       0x00000000   Number         0  faddsub_clz.o ABSOLUTE
    ../fplib/ffixu.s                         0x00000000   Number         0  ffixu.o ABSOLUTE
    ../fplib/fflt.s                          0x00000000   Number         0  fflt_clz.o ABSOLUTE
    ../fplib/fmul.s                          0x00000000   Number         0  fmul.o ABSOLUTE
    ../fplib/fnaninf.s                       0x00000000   Number         0  fnaninf.o ABSOLUTE
    ../fplib/fpinit.s                        0x00000000   Number         0  fpinit.o ABSOLUTE
    ../fplib/fretinf.s                       0x00000000   Number         0  fretinf.o ABSOLUTE
    ../fplib/usenofp.s                       0x00000000   Number         0  usenofp.o ABSOLUTE
    ..\Libraries\CMSIS\CM3\CoreSupport\core_cm3.c 0x00000000   Number         0  core_cm3_1.o ABSOLUTE
    ..\Libraries\CMSIS\CM3\DeviceSupport\ST\STM32F10x\startup\arm\startup_stm32f10x_md.s 0x00000000   Number         0  startup_stm32f10x_md.o ABSOLUTE
    ..\Libraries\CMSIS\CM3\DeviceSupport\ST\STM32F10x\system_stm32f10x.c 0x00000000   Number         0  system_stm32f10x.o ABSOLUTE
    ..\Libraries\STM32F10x_StdPeriph_Driver\src\misc.c 0x00000000   Number         0  misc.o ABSOLUTE
    ..\Libraries\STM32F10x_StdPeriph_Driver\src\stm32f10x_adc.c 0x00000000   Number         0  stm32f10x_adc.o ABSOLUTE
    ..\Libraries\STM32F10x_StdPeriph_Driver\src\stm32f10x_bkp.c 0x00000000   Number         0  stm32f10x_bkp.o ABSOLUTE
    ..\Libraries\STM32F10x_StdPeriph_Driver\src\stm32f10x_gpio.c 0x00000000   Number         0  stm32f10x_gpio.o ABSOLUTE
    ..\Libraries\STM32F10x_StdPeriph_Driver\src\stm32f10x_pwr.c 0x00000000   Number         0  stm32f10x_pwr.o ABSOLUTE
    ..\Libraries\STM32F10x_StdPeriph_Driver\src\stm32f10x_rcc.c 0x00000000   Number         0  stm32f10x_rcc.o ABSOLUTE
    ..\Libraries\STM32F10x_StdPeriph_Driver\src\stm32f10x_rtc.c 0x00000000   Number         0  stm32f10x_rtc.o ABSOLUTE
    ..\Libraries\STM32F10x_StdPeriph_Driver\src\stm32f10x_tim.c 0x00000000   Number         0  stm32f10x_tim.o ABSOLUTE
    ..\Libraries\STM32F10x_StdPeriph_Driver\src\stm32f10x_usart.c 0x00000000   Number         0  stm32f10x_usart.o ABSOLUTE
    ..\Sre\InputCapture.c                    0x00000000   Number         0  inputcapture.o ABSOLUTE
    ..\Sre\adc.c                             0x00000000   Number         0  adc.o ABSOLUTE
    ..\Sre\buzzer.c                          0x00000000   Number         0  buzzer.o ABSOLUTE
    ..\Sre\i2c.c                             0x00000000   Number         0  i2c.o ABSOLUTE
    ..\Sre\key.c                             0x00000000   Number         0  key.o ABSOLUTE
    ..\Sre\lcd.c                             0x00000000   Number         0  lcd.o ABSOLUTE
    ..\Sre\led.c                             0x00000000   Number         0  led.o ABSOLUTE
    ..\Sre\main.c                            0x00000000   Number         0  main.o ABSOLUTE
    ..\Sre\pwm.c                             0x00000000   Number         0  pwm.o ABSOLUTE
    ..\Sre\pwm_octoggle.c                    0x00000000   Number         0  pwm_octoggle.o ABSOLUTE
    ..\Sre\rtc.c                             0x00000000   Number         0  rtc.o ABSOLUTE
    ..\Sre\stm32f10x_it.c                    0x00000000   Number         0  stm32f10x_it.o ABSOLUTE
    ..\Sre\tim.c                             0x00000000   Number         0  tim.o ABSOLUTE
    ..\Sre\uart.c                            0x00000000   Number         0  uart.o ABSOLUTE
    ..\\Libraries\\CMSIS\\CM3\\CoreSupport\\core_cm3.c 0x00000000   Number         0  core_cm3_1.o ABSOLUTE
    ..\\Libraries\\CMSIS\\CM3\\DeviceSupport\\ST\\STM32F10x\\system_stm32f10x.c 0x00000000   Number         0  system_stm32f10x.o ABSOLUTE
    ..\\Libraries\\STM32F10x_StdPeriph_Driver\\src\\misc.c 0x00000000   Number         0  misc.o ABSOLUTE
    ..\\Libraries\\STM32F10x_StdPeriph_Driver\\src\\stm32f10x_adc.c 0x00000000   Number         0  stm32f10x_adc.o ABSOLUTE
    ..\\Libraries\\STM32F10x_StdPeriph_Driver\\src\\stm32f10x_bkp.c 0x00000000   Number         0  stm32f10x_bkp.o ABSOLUTE
    ..\\Libraries\\STM32F10x_StdPeriph_Driver\\src\\stm32f10x_gpio.c 0x00000000   Number         0  stm32f10x_gpio.o ABSOLUTE
    ..\\Libraries\\STM32F10x_StdPeriph_Driver\\src\\stm32f10x_pwr.c 0x00000000   Number         0  stm32f10x_pwr.o ABSOLUTE
    ..\\Libraries\\STM32F10x_StdPeriph_Driver\\src\\stm32f10x_rcc.c 0x00000000   Number         0  stm32f10x_rcc.o ABSOLUTE
    ..\\Libraries\\STM32F10x_StdPeriph_Driver\\src\\stm32f10x_rtc.c 0x00000000   Number         0  stm32f10x_rtc.o ABSOLUTE
    ..\\Libraries\\STM32F10x_StdPeriph_Driver\\src\\stm32f10x_tim.c 0x00000000   Number         0  stm32f10x_tim.o ABSOLUTE
    ..\\Libraries\\STM32F10x_StdPeriph_Driver\\src\\stm32f10x_usart.c 0x00000000   Number         0  stm32f10x_usart.o ABSOLUTE
    ..\\Sre\\InputCapture.c                  0x00000000   Number         0  inputcapture.o ABSOLUTE
    ..\\Sre\\adc.c                           0x00000000   Number         0  adc.o ABSOLUTE
    ..\\Sre\\buzzer.c                        0x00000000   Number         0  buzzer.o ABSOLUTE
    ..\\Sre\\i2c.c                           0x00000000   Number         0  i2c.o ABSOLUTE
    ..\\Sre\\key.c                           0x00000000   Number         0  key.o ABSOLUTE
    ..\\Sre\\lcd.c                           0x00000000   Number         0  lcd.o ABSOLUTE
    ..\\Sre\\led.c                           0x00000000   Number         0  led.o ABSOLUTE
    ..\\Sre\\main.c                          0x00000000   Number         0  main.o ABSOLUTE
    ..\\Sre\\pwm.c                           0x00000000   Number         0  pwm.o ABSOLUTE
    ..\\Sre\\pwm_octoggle.c                  0x00000000   Number         0  pwm_octoggle.o ABSOLUTE
    ..\\Sre\\rtc.c                           0x00000000   Number         0  rtc.o ABSOLUTE
    ..\\Sre\\stm32f10x_it.c                  0x00000000   Number         0  stm32f10x_it.o ABSOLUTE
    ..\\Sre\\tim.c                           0x00000000   Number         0  tim.o ABSOLUTE
    ..\\Sre\\uart.c                          0x00000000   Number         0  uart.o ABSOLUTE
    dc.s                                     0x00000000   Number         0  dc.o ABSOLUTE
    RESET                                    0x08000000   Section      236  startup_stm32f10x_md.o(RESET)
    !!!main                                  0x080000ec   Section        8  __main.o(!!!main)
    !!!scatter                               0x080000f4   Section       52  __scatter.o(!!!scatter)
    !!handler_copy                           0x08000128   Section       26  __scatter_copy.o(!!handler_copy)
    !!handler_zi                             0x08000144   Section       28  __scatter_zi.o(!!handler_zi)
    .ARM.Collect$$_printf_percent$$00000000  0x08000160   Section        0  _printf_percent.o(.ARM.Collect$$_printf_percent$$00000000)
    .ARM.Collect$$_printf_percent$$00000009  0x08000160   Section        6  _printf_d.o(.ARM.Collect$$_printf_percent$$00000009)
    .ARM.Collect$$_printf_percent$$00000017  0x08000166   Section        4  _printf_percent_end.o(.ARM.Collect$$_printf_percent$$00000017)
    .ARM.Collect$$libinit$$00000000          0x0800016a   Section        2  libinit.o(.ARM.Collect$$libinit$$00000000)
    .ARM.Collect$$libinit$$00000002          0x0800016c   Section        0  libinit2.o(.ARM.Collect$$libinit$$00000002)
    .ARM.Collect$$libinit$$00000004          0x0800016c   Section        0  libinit2.o(.ARM.Collect$$libinit$$00000004)
    .ARM.Collect$$libinit$$0000000A          0x0800016c   Section        0  libinit2.o(.ARM.Collect$$libinit$$0000000A)
    .ARM.Collect$$libinit$$0000000C          0x0800016c   Section        0  libinit2.o(.ARM.Collect$$libinit$$0000000C)
    .ARM.Collect$$libinit$$0000000E          0x0800016c   Section        0  libinit2.o(.ARM.Collect$$libinit$$0000000E)
    .ARM.Collect$$libinit$$00000011          0x0800016c   Section        0  libinit2.o(.ARM.Collect$$libinit$$00000011)
    .ARM.Collect$$libinit$$00000013          0x0800016c   Section        0  libinit2.o(.ARM.Collect$$libinit$$00000013)
    .ARM.Collect$$libinit$$00000015          0x0800016c   Section        0  libinit2.o(.ARM.Collect$$libinit$$00000015)
    .ARM.Collect$$libinit$$00000017          0x0800016c   Section        0  libinit2.o(.ARM.Collect$$libinit$$00000017)
    .ARM.Collect$$libinit$$00000019          0x0800016c   Section        0  libinit2.o(.ARM.Collect$$libinit$$00000019)
    .ARM.Collect$$libinit$$0000001B          0x0800016c   Section        0  libinit2.o(.ARM.Collect$$libinit$$0000001B)
    .ARM.Collect$$libinit$$0000001D          0x0800016c   Section        0  libinit2.o(.ARM.Collect$$libinit$$0000001D)
    .ARM.Collect$$libinit$$0000001F          0x0800016c   Section        0  libinit2.o(.ARM.Collect$$libinit$$0000001F)
    .ARM.Collect$$libinit$$00000021          0x0800016c   Section        0  libinit2.o(.ARM.Collect$$libinit$$00000021)
    .ARM.Collect$$libinit$$00000023          0x0800016c   Section        0  libinit2.o(.ARM.Collect$$libinit$$00000023)
    .ARM.Collect$$libinit$$00000025          0x0800016c   Section        0  libinit2.o(.ARM.Collect$$libinit$$00000025)
    .ARM.Collect$$libinit$$0000002C          0x0800016c   Section        0  libinit2.o(.ARM.Collect$$libinit$$0000002C)
    .ARM.Collect$$libinit$$0000002E          0x0800016c   Section        0  libinit2.o(.ARM.Collect$$libinit$$0000002E)
    .ARM.Collect$$libinit$$00000030          0x0800016c   Section        0  libinit2.o(.ARM.Collect$$libinit$$00000030)
    .ARM.Collect$$libinit$$00000032          0x0800016c   Section        0  libinit2.o(.ARM.Collect$$libinit$$00000032)
    .ARM.Collect$$libinit$$00000033          0x0800016c   Section        2  libinit2.o(.ARM.Collect$$libinit$$00000033)
    .ARM.Collect$$libshutdown$$00000000      0x0800016e   Section        2  libshutdown.o(.ARM.Collect$$libshutdown$$00000000)
    .ARM.Collect$$libshutdown$$00000002      0x08000170   Section        0  libshutdown2.o(.ARM.Collect$$libshutdown$$00000002)
    .ARM.Collect$$libshutdown$$00000004      0x08000170   Section        0  libshutdown2.o(.ARM.Collect$$libshutdown$$00000004)
    .ARM.Collect$$libshutdown$$00000007      0x08000170   Section        0  libshutdown2.o(.ARM.Collect$$libshutdown$$00000007)
    .ARM.Collect$$libshutdown$$0000000A      0x08000170   Section        0  libshutdown2.o(.ARM.Collect$$libshutdown$$0000000A)
    .ARM.Collect$$libshutdown$$0000000C      0x08000170   Section        0  libshutdown2.o(.ARM.Collect$$libshutdown$$0000000C)
    .ARM.Collect$$libshutdown$$0000000F      0x08000170   Section        0  libshutdown2.o(.ARM.Collect$$libshutdown$$0000000F)
    .ARM.Collect$$libshutdown$$00000010      0x08000170   Section        2  libshutdown2.o(.ARM.Collect$$libshutdown$$00000010)
    .ARM.Collect$$rtentry$$00000000          0x08000172   Section        0  __rtentry.o(.ARM.Collect$$rtentry$$00000000)
    .ARM.Collect$$rtentry$$00000002          0x08000172   Section        0  __rtentry2.o(.ARM.Collect$$rtentry$$00000002)
    .ARM.Collect$$rtentry$$00000004          0x08000172   Section        6  __rtentry4.o(.ARM.Collect$$rtentry$$00000004)
    .ARM.Collect$$rtentry$$00000009          0x08000178   Section        0  __rtentry2.o(.ARM.Collect$$rtentry$$00000009)
    .ARM.Collect$$rtentry$$0000000A          0x08000178   Section        4  __rtentry2.o(.ARM.Collect$$rtentry$$0000000A)
    .ARM.Collect$$rtentry$$0000000C          0x0800017c   Section        0  __rtentry2.o(.ARM.Collect$$rtentry$$0000000C)
    .ARM.Collect$$rtentry$$0000000D          0x0800017c   Section        8  __rtentry2.o(.ARM.Collect$$rtentry$$0000000D)
    .ARM.Collect$$rtexit$$00000000           0x08000184   Section        2  rtexit.o(.ARM.Collect$$rtexit$$00000000)
    .ARM.Collect$$rtexit$$00000002           0x08000186   Section        0  rtexit2.o(.ARM.Collect$$rtexit$$00000002)
    .ARM.Collect$$rtexit$$00000003           0x08000186   Section        4  rtexit2.o(.ARM.Collect$$rtexit$$00000003)
    .ARM.Collect$$rtexit$$00000004           0x0800018a   Section        6  rtexit2.o(.ARM.Collect$$rtexit$$00000004)
    .text                                    0x08000190   Section       64  startup_stm32f10x_md.o(.text)
    .text                                    0x080001d0   Section        0  system_stm32f10x.o(.text)
    SetSysClockTo72                          0x080001d1   Thumb Code   214  system_stm32f10x.o(.text)
    SetSysClock                              0x080002a7   Thumb Code     8  system_stm32f10x.o(.text)
    .text                                    0x080003b0   Section        0  misc.o(.text)
    .text                                    0x0800048c   Section        0  stm32f10x_gpio.o(.text)
    .text                                    0x080007e8   Section        0  stm32f10x_rcc.o(.text)
    .text                                    0x08000b8c   Section        0  stm32f10x_tim.o(.text)
    TI4_Config                               0x08001033   Thumb Code   130  stm32f10x_tim.o(.text)
    TI3_Config                               0x080010c7   Thumb Code   122  stm32f10x_tim.o(.text)
    TI2_Config                               0x0800115b   Thumb Code   130  stm32f10x_tim.o(.text)
    TI1_Config                               0x080011ef   Thumb Code   108  stm32f10x_tim.o(.text)
    .text                                    0x080019a8   Section        0  stm32f10x_usart.o(.text)
    .text                                    0x08001db0   Section        0  lcd.o(.text)
    .text                                    0x080027bc   Section        0  main.o(.text)
    .text                                    0x08002920   Section        0  stm32f10x_it.o(.text)
    .text                                    0x08002948   Section        0  led.o(.text)
    .text                                    0x08002a18   Section        0  pwm_octoggle.o(.text)
    .text                                    0x08002bf4   Section        0  uart.o(.text)
    .text                                    0x08002d24   Section        0  inputcapture.o(.text)
    .text                                    0x08002f1c   Section        0  noretval__2sprintf.o(.text)
    .text                                    0x08002f44   Section        0  _printf_pad.o(.text)
    .text                                    0x08002f94   Section        0  _printf_dec.o(.text)
    .text                                    0x0800300c   Section        0  __printf_wp.o(.text)
    .text                                    0x0800311a   Section       68  rt_memclr.o(.text)
    .text                                    0x0800315e   Section        0  heapauxi.o(.text)
    .text                                    0x08003164   Section        0  _printf_intcommon.o(.text)
    .text                                    0x08003218   Section        0  _printf_char_common.o(.text)
    _printf_input_char                       0x08003219   Thumb Code    10  _printf_char_common.o(.text)
    .text                                    0x08003248   Section        0  _sputc.o(.text)
    .text                                    0x08003252   Section       78  rt_memclr_w.o(.text)
    .text                                    0x080032a0   Section       74  sys_stackheap_outer.o(.text)
    .text                                    0x080032ea   Section        0  exit.o(.text)
    .text                                    0x080032fc   Section        8  libspace.o(.text)
    .text                                    0x08003304   Section        0  sys_exit.o(.text)
    .text                                    0x08003310   Section        2  use_no_semi.o(.text)
    .text                                    0x08003312   Section        0  indicate_semi.o(.text)
    i._is_digit                              0x08003312   Section        0  __printf_wp.o(i._is_digit)
    x$fpl$dadd                               0x08003320   Section      336  daddsub_clz.o(x$fpl$dadd)
    _dadd1                                   0x08003331   Thumb Code     0  daddsub_clz.o(x$fpl$dadd)
    x$fpl$ddiv                               0x08003470   Section      688  ddiv.o(x$fpl$ddiv)
    ddiv_entry                               0x08003477   Thumb Code     0  ddiv.o(x$fpl$ddiv)
    x$fpl$dfixu                              0x08003720   Section       90  dfixu.o(x$fpl$dfixu)
    x$fpl$dfltu                              0x0800377a   Section       38  dflt_clz.o(x$fpl$dfltu)
    x$fpl$dmul                               0x080037a0   Section      340  dmul.o(x$fpl$dmul)
    x$fpl$dnaninf                            0x080038f4   Section      156  dnaninf.o(x$fpl$dnaninf)
    x$fpl$dretinf                            0x08003990   Section       12  dretinf.o(x$fpl$dretinf)
    x$fpl$dsub                               0x0800399c   Section      468  daddsub_clz.o(x$fpl$dsub)
    _dsub1                                   0x080039ad   Thumb Code     0  daddsub_clz.o(x$fpl$dsub)
    x$fpl$fadd                               0x08003b70   Section      196  faddsub_clz.o(x$fpl$fadd)
    _fadd1                                   0x08003b7f   Thumb Code     0  faddsub_clz.o(x$fpl$fadd)
    x$fpl$ffixu                              0x08003c34   Section       62  ffixu.o(x$fpl$ffixu)
    x$fpl$ffltu                              0x08003c74   Section       38  fflt_clz.o(x$fpl$ffltu)
    x$fpl$fmul                               0x08003c9c   Section      258  fmul.o(x$fpl$fmul)
    x$fpl$fnaninf                            0x08003d9e   Section      140  fnaninf.o(x$fpl$fnaninf)
    x$fpl$fretinf                            0x08003e2a   Section       10  fretinf.o(x$fpl$fretinf)
    x$fpl$fsub                               0x08003e34   Section      234  faddsub_clz.o(x$fpl$fsub)
    _fsub1                                   0x08003e43   Thumb Code     0  faddsub_clz.o(x$fpl$fsub)
    .constdata                               0x08003f1e   Section     4560  lcd.o(.constdata)
    x$fpl$usenofp                            0x08003f1e   Section        0  usenofp.o(x$fpl$usenofp)
    .data                                    0x20000000   Section       20  system_stm32f10x.o(.data)
    .data                                    0x20000014   Section       20  stm32f10x_rcc.o(.data)
    APBAHBPrescTable                         0x20000014   Data          16  stm32f10x_rcc.o(.data)
    ADCPrescTable                            0x20000024   Data           4  stm32f10x_rcc.o(.data)
    .data                                    0x20000028   Section        6  lcd.o(.data)
    TextColor                                0x20000028   Data           2  lcd.o(.data)
    BackColor                                0x2000002a   Data           2  lcd.o(.data)
    .data                                    0x20000030   Section        4  main.o(.data)
    .data                                    0x20000034   Section        5  pwm_octoggle.o(.data)
    .data                                    0x2000003a   Section        4  uart.o(.data)
    .data                                    0x20000040   Section       28  inputcapture.o(.data)
    .bss                                     0x2000005c   Section       20  main.o(.bss)
    .bss                                     0x20000070   Section       20  uart.o(.bss)
    .bss                                     0x20000084   Section       96  libspace.o(.bss)
    HEAP                                     0x200000e8   Section      512  startup_stm32f10x_md.o(HEAP)
    Heap_Mem                                 0x200000e8   Data         512  startup_stm32f10x_md.o(HEAP)
    STACK                                    0x200002e8   Section     1024  startup_stm32f10x_md.o(STACK)
    Stack_Mem                                0x200002e8   Data        1024  startup_stm32f10x_md.o(STACK)
    __initial_sp                             0x200006e8   Data           0  startup_stm32f10x_md.o(STACK)

    Global Symbols

    Symbol Name                              Value     Ov Type        Size  Object(Section)

    BuildAttributes$$THM_ISAv4$P$D$K$B$S$PE$A:L22UL41UL21$X:L11$S22US41US21$IEEE1$IW$USESV6$~STKCKD$USESV7$~SHL$OSPACE$ROPI$EBA8$UX$STANDARDLIB$REQ8$PRES8$EABIv2 0x00000000   Number         0  anon$$obj.o ABSOLUTE
    __ARM_use_no_argv                        0x00000000   Number         0  main.o ABSOLUTE
    _printf_flags                            0x00000000   Number         0  printf_stubs.o ABSOLUTE
    _printf_return_value                     0x00000000   Number         0  printf_stubs.o ABSOLUTE
    _printf_sizespec                         0x00000000   Number         0  printf_stubs.o ABSOLUTE
    _printf_widthprec                        0x00000000   Number         0  printf_stubs.o ABSOLUTE
    __ARM_exceptions_init                     - Undefined Weak Reference
    __alloca_initialize                       - Undefined Weak Reference
    __arm_preinit_                            - Undefined Weak Reference
    __cpp_initialize__aeabi_                  - Undefined Weak Reference
    __cxa_finalize                            - Undefined Weak Reference
    __rt_locale                               - Undefined Weak Reference
    __sigvec_lookup                           - Undefined Weak Reference
    _atexit_init                              - Undefined Weak Reference
    _call_atexit_fns                          - Undefined Weak Reference
    _clock_init                               - Undefined Weak Reference
    _fp_trap_init                             - Undefined Weak Reference
    _fp_trap_shutdown                         - Undefined Weak Reference
    _get_lc_collate                           - Undefined Weak Reference
    _get_lc_ctype                             - Undefined Weak Reference
    _get_lc_monetary                          - Undefined Weak Reference
    _get_lc_numeric                           - Undefined Weak Reference
    _get_lc_time                              - Undefined Weak Reference
    _getenv_init                              - Undefined Weak Reference
    _handle_redirection                       - Undefined Weak Reference
    _init_alloc                               - Undefined Weak Reference
    _init_user_alloc                          - Undefined Weak Reference
    _initio                                   - Undefined Weak Reference
    _printf_truncate_signed                   - Undefined Weak Reference
    _printf_truncate_unsigned                 - Undefined Weak Reference
    _rand_init                                - Undefined Weak Reference
    _signal_finish                            - Undefined Weak Reference
    _signal_init                              - Undefined Weak Reference
    _terminate_alloc                          - Undefined Weak Reference
    _terminate_user_alloc                     - Undefined Weak Reference
    _terminateio                              - Undefined Weak Reference
    __Vectors_Size                           0x000000ec   Number         0  startup_stm32f10x_md.o ABSOLUTE
    __Vectors                                0x08000000   Data           4  startup_stm32f10x_md.o(RESET)
    __Vectors_End                            0x080000ec   Data           0  startup_stm32f10x_md.o(RESET)
    __main                                   0x080000ed   Thumb Code     8  __main.o(!!!main)
    __scatterload                            0x080000f5   Thumb Code     0  __scatter.o(!!!scatter)
    __scatterload_rt2                        0x080000f5   Thumb Code    44  __scatter.o(!!!scatter)
    __scatterload_rt2_thumb_only             0x080000f5   Thumb Code     0  __scatter.o(!!!scatter)
    __scatterload_null                       0x08000103   Thumb Code     0  __scatter.o(!!!scatter)
    __scatterload_copy                       0x08000129   Thumb Code    26  __scatter_copy.o(!!handler_copy)
    __scatterload_zeroinit                   0x08000145   Thumb Code    28  __scatter_zi.o(!!handler_zi)
    _printf_d                                0x08000161   Thumb Code     0  _printf_d.o(.ARM.Collect$$_printf_percent$$00000009)
    _printf_percent                          0x08000161   Thumb Code     0  _printf_percent.o(.ARM.Collect$$_printf_percent$$00000000)
    _printf_percent_end                      0x08000167   Thumb Code     0  _printf_percent_end.o(.ARM.Collect$$_printf_percent$$00000017)
    __rt_lib_init                            0x0800016b   Thumb Code     0  libinit.o(.ARM.Collect$$libinit$$00000000)
    __rt_lib_init_alloca_1                   0x0800016d   Thumb Code     0  libinit2.o(.ARM.Collect$$libinit$$0000002E)
    __rt_lib_init_argv_1                     0x0800016d   Thumb Code     0  libinit2.o(.ARM.Collect$$libinit$$0000002C)
    __rt_lib_init_atexit_1                   0x0800016d   Thumb Code     0  libinit2.o(.ARM.Collect$$libinit$$0000001B)
    __rt_lib_init_clock_1                    0x0800016d   Thumb Code     0  libinit2.o(.ARM.Collect$$libinit$$00000021)
    __rt_lib_init_cpp_1                      0x0800016d   Thumb Code     0  libinit2.o(.ARM.Collect$$libinit$$00000032)
    __rt_lib_init_exceptions_1               0x0800016d   Thumb Code     0  libinit2.o(.ARM.Collect$$libinit$$00000030)
    __rt_lib_init_fp_1                       0x0800016d   Thumb Code     0  libinit2.o(.ARM.Collect$$libinit$$00000002)
    __rt_lib_init_fp_trap_1                  0x0800016d   Thumb Code     0  libinit2.o(.ARM.Collect$$libinit$$0000001F)
    __rt_lib_init_getenv_1                   0x0800016d   Thumb Code     0  libinit2.o(.ARM.Collect$$libinit$$00000023)
    __rt_lib_init_heap_1                     0x0800016d   Thumb Code     0  libinit2.o(.ARM.Collect$$libinit$$0000000A)
    __rt_lib_init_lc_collate_1               0x0800016d   Thumb Code     0  libinit2.o(.ARM.Collect$$libinit$$00000011)
    __rt_lib_init_lc_ctype_1                 0x0800016d   Thumb Code     0  libinit2.o(.ARM.Collect$$libinit$$00000013)
    __rt_lib_init_lc_monetary_1              0x0800016d   Thumb Code     0  libinit2.o(.ARM.Collect$$libinit$$00000015)
    __rt_lib_init_lc_numeric_1               0x0800016d   Thumb Code     0  libinit2.o(.ARM.Collect$$libinit$$00000017)
    __rt_lib_init_lc_time_1                  0x0800016d   Thumb Code     0  libinit2.o(.ARM.Collect$$libinit$$00000019)
    __rt_lib_init_preinit_1                  0x0800016d   Thumb Code     0  libinit2.o(.ARM.Collect$$libinit$$00000004)
    __rt_lib_init_rand_1                     0x0800016d   Thumb Code     0  libinit2.o(.ARM.Collect$$libinit$$0000000E)
    __rt_lib_init_return                     0x0800016d   Thumb Code     0  libinit2.o(.ARM.Collect$$libinit$$00000033)
    __rt_lib_init_signal_1                   0x0800016d   Thumb Code     0  libinit2.o(.ARM.Collect$$libinit$$0000001D)
    __rt_lib_init_stdio_1                    0x0800016d   Thumb Code     0  libinit2.o(.ARM.Collect$$libinit$$00000025)
    __rt_lib_init_user_alloc_1               0x0800016d   Thumb Code     0  libinit2.o(.ARM.Collect$$libinit$$0000000C)
    __rt_lib_shutdown                        0x0800016f   Thumb Code     0  libshutdown.o(.ARM.Collect$$libshutdown$$00000000)
    __rt_lib_shutdown_cpp_1                  0x08000171   Thumb Code     0  libshutdown2.o(.ARM.Collect$$libshutdown$$00000002)
    __rt_lib_shutdown_fp_trap_1              0x08000171   Thumb Code     0  libshutdown2.o(.ARM.Collect$$libshutdown$$00000007)
    __rt_lib_shutdown_heap_1                 0x08000171   Thumb Code     0  libshutdown2.o(.ARM.Collect$$libshutdown$$0000000F)
    __rt_lib_shutdown_return                 0x08000171   Thumb Code     0  libshutdown2.o(.ARM.Collect$$libshutdown$$00000010)
    __rt_lib_shutdown_signal_1               0x08000171   Thumb Code     0  libshutdown2.o(.ARM.Collect$$libshutdown$$0000000A)
    __rt_lib_shutdown_stdio_1                0x08000171   Thumb Code     0  libshutdown2.o(.ARM.Collect$$libshutdown$$00000004)
    __rt_lib_shutdown_user_alloc_1           0x08000171   Thumb Code     0  libshutdown2.o(.ARM.Collect$$libshutdown$$0000000C)
    __rt_entry                               0x08000173   Thumb Code     0  __rtentry.o(.ARM.Collect$$rtentry$$00000000)
    __rt_entry_presh_1                       0x08000173   Thumb Code     0  __rtentry2.o(.ARM.Collect$$rtentry$$00000002)
    __rt_entry_sh                            0x08000173   Thumb Code     0  __rtentry4.o(.ARM.Collect$$rtentry$$00000004)
    __rt_entry_li                            0x08000179   Thumb Code     0  __rtentry2.o(.ARM.Collect$$rtentry$$0000000A)
    __rt_entry_postsh_1                      0x08000179   Thumb Code     0  __rtentry2.o(.ARM.Collect$$rtentry$$00000009)
    __rt_entry_main                          0x0800017d   Thumb Code     0  __rtentry2.o(.ARM.Collect$$rtentry$$0000000D)
    __rt_entry_postli_1                      0x0800017d   Thumb Code     0  __rtentry2.o(.ARM.Collect$$rtentry$$0000000C)
    __rt_exit                                0x08000185   Thumb Code     0  rtexit.o(.ARM.Collect$$rtexit$$00000000)
    __rt_exit_ls                             0x08000187   Thumb Code     0  rtexit2.o(.ARM.Collect$$rtexit$$00000003)
    __rt_exit_prels_1                        0x08000187   Thumb Code     0  rtexit2.o(.ARM.Collect$$rtexit$$00000002)
    __rt_exit_exit                           0x0800018b   Thumb Code     0  rtexit2.o(.ARM.Collect$$rtexit$$00000004)
    Reset_Handler                            0x08000191   Thumb Code     8  startup_stm32f10x_md.o(.text)
    ADC1_2_IRQHandler                        0x080001ab   Thumb Code     0  startup_stm32f10x_md.o(.text)
    CAN1_RX1_IRQHandler                      0x080001ab   Thumb Code     0  startup_stm32f10x_md.o(.text)
    CAN1_SCE_IRQHandler                      0x080001ab   Thumb Code     0  startup_stm32f10x_md.o(.text)
    DMA1_Channel1_IRQHandler                 0x080001ab   Thumb Code     0  startup_stm32f10x_md.o(.text)
    DMA1_Channel2_IRQHandler                 0x080001ab   Thumb Code     0  startup_stm32f10x_md.o(.text)
    DMA1_Channel3_IRQHandler                 0x080001ab   Thumb Code     0  startup_stm32f10x_md.o(.text)
    DMA1_Channel4_IRQHandler                 0x080001ab   Thumb Code     0  startup_stm32f10x_md.o(.text)
    DMA1_Channel5_IRQHandler                 0x080001ab   Thumb Code     0  startup_stm32f10x_md.o(.text)
    DMA1_Channel6_IRQHandler                 0x080001ab   Thumb Code     0  startup_stm32f10x_md.o(.text)
    DMA1_Channel7_IRQHandler                 0x080001ab   Thumb Code     0  startup_stm32f10x_md.o(.text)
    EXTI0_IRQHandler                         0x080001ab   Thumb Code     0  startup_stm32f10x_md.o(.text)
    EXTI15_10_IRQHandler                     0x080001ab   Thumb Code     0  startup_stm32f10x_md.o(.text)
    EXTI1_IRQHandler                         0x080001ab   Thumb Code     0  startup_stm32f10x_md.o(.text)
    EXTI2_IRQHandler                         0x080001ab   Thumb Code     0  startup_stm32f10x_md.o(.text)
    EXTI3_IRQHandler                         0x080001ab   Thumb Code     0  startup_stm32f10x_md.o(.text)
    EXTI4_IRQHandler                         0x080001ab   Thumb Code     0  startup_stm32f10x_md.o(.text)
    EXTI9_5_IRQHandler                       0x080001ab   Thumb Code     0  startup_stm32f10x_md.o(.text)
    FLASH_IRQHandler                         0x080001ab   Thumb Code     0  startup_stm32f10x_md.o(.text)
    I2C1_ER_IRQHandler                       0x080001ab   Thumb Code     0  startup_stm32f10x_md.o(.text)
    I2C1_EV_IRQHandler                       0x080001ab   Thumb Code     0  startup_stm32f10x_md.o(.text)
    I2C2_ER_IRQHandler                       0x080001ab   Thumb Code     0  startup_stm32f10x_md.o(.text)
    I2C2_EV_IRQHandler                       0x080001ab   Thumb Code     0  startup_stm32f10x_md.o(.text)
    PVD_IRQHandler                           0x080001ab   Thumb Code     0  startup_stm32f10x_md.o(.text)
    RCC_IRQHandler                           0x080001ab   Thumb Code     0  startup_stm32f10x_md.o(.text)
    RTCAlarm_IRQHandler                      0x080001ab   Thumb Code     0  startup_stm32f10x_md.o(.text)
    RTC_IRQHandler                           0x080001ab   Thumb Code     0  startup_stm32f10x_md.o(.text)
    SPI1_IRQHandler                          0x080001ab   Thumb Code     0  startup_stm32f10x_md.o(.text)
    SPI2_IRQHandler                          0x080001ab   Thumb Code     0  startup_stm32f10x_md.o(.text)
    TAMPER_IRQHandler                        0x080001ab   Thumb Code     0  startup_stm32f10x_md.o(.text)
    TIM1_BRK_IRQHandler                      0x080001ab   Thumb Code     0  startup_stm32f10x_md.o(.text)
    TIM1_CC_IRQHandler                       0x080001ab   Thumb Code     0  startup_stm32f10x_md.o(.text)
    TIM1_TRG_COM_IRQHandler                  0x080001ab   Thumb Code     0  startup_stm32f10x_md.o(.text)
    TIM1_UP_IRQHandler                       0x080001ab   Thumb Code     0  startup_stm32f10x_md.o(.text)
    TIM4_IRQHandler                          0x080001ab   Thumb Code     0  startup_stm32f10x_md.o(.text)
    USART1_IRQHandler                        0x080001ab   Thumb Code     0  startup_stm32f10x_md.o(.text)
    USART3_IRQHandler                        0x080001ab   Thumb Code     0  startup_stm32f10x_md.o(.text)
    USBWakeUp_IRQHandler                     0x080001ab   Thumb Code     0  startup_stm32f10x_md.o(.text)
    USB_HP_CAN1_TX_IRQHandler                0x080001ab   Thumb Code     0  startup_stm32f10x_md.o(.text)
    USB_LP_CAN1_RX0_IRQHandler               0x080001ab   Thumb Code     0  startup_stm32f10x_md.o(.text)
    WWDG_IRQHandler                          0x080001ab   Thumb Code     0  startup_stm32f10x_md.o(.text)
    __user_initial_stackheap                 0x080001ad   Thumb Code     0  startup_stm32f10x_md.o(.text)
    SystemInit                               0x080002af   Thumb Code    78  system_stm32f10x.o(.text)
    SystemCoreClockUpdate                    0x080002fd   Thumb Code   142  system_stm32f10x.o(.text)
    NVIC_PriorityGroupConfig                 0x080003b1   Thumb Code    10  misc.o(.text)
    NVIC_Init                                0x080003bb   Thumb Code   100  misc.o(.text)
    NVIC_SetVectorTable                      0x0800041f   Thumb Code    14  misc.o(.text)
    NVIC_SystemLPConfig                      0x0800042d   Thumb Code    34  misc.o(.text)
    SysTick_CLKSourceConfig                  0x0800044f   Thumb Code    40  misc.o(.text)
    GPIO_DeInit                              0x0800048d   Thumb Code   172  stm32f10x_gpio.o(.text)
    GPIO_AFIODeInit                          0x08000539   Thumb Code    20  stm32f10x_gpio.o(.text)
    GPIO_Init                                0x0800054d   Thumb Code   278  stm32f10x_gpio.o(.text)
    GPIO_StructInit                          0x08000663   Thumb Code    16  stm32f10x_gpio.o(.text)
    GPIO_ReadInputDataBit                    0x08000673   Thumb Code    18  stm32f10x_gpio.o(.text)
    GPIO_ReadInputData                       0x08000685   Thumb Code     8  stm32f10x_gpio.o(.text)
    GPIO_ReadOutputDataBit                   0x0800068d   Thumb Code    18  stm32f10x_gpio.o(.text)
    GPIO_ReadOutputData                      0x0800069f   Thumb Code     8  stm32f10x_gpio.o(.text)
    GPIO_SetBits                             0x080006a7   Thumb Code     4  stm32f10x_gpio.o(.text)
    GPIO_ResetBits                           0x080006ab   Thumb Code     4  stm32f10x_gpio.o(.text)
    GPIO_WriteBit                            0x080006af   Thumb Code    10  stm32f10x_gpio.o(.text)
    GPIO_Write                               0x080006b9   Thumb Code     4  stm32f10x_gpio.o(.text)
    GPIO_PinLockConfig                       0x080006bd   Thumb Code    18  stm32f10x_gpio.o(.text)
    GPIO_EventOutputConfig                   0x080006cf   Thumb Code    26  stm32f10x_gpio.o(.text)
    GPIO_EventOutputCmd                      0x080006e9   Thumb Code     6  stm32f10x_gpio.o(.text)
    GPIO_PinRemapConfig                      0x080006ef   Thumb Code   138  stm32f10x_gpio.o(.text)
    GPIO_EXTILineConfig                      0x08000779   Thumb Code    66  stm32f10x_gpio.o(.text)
    GPIO_ETH_MediaInterfaceConfig            0x080007bb   Thumb Code     8  stm32f10x_gpio.o(.text)
    RCC_DeInit                               0x080007e9   Thumb Code    64  stm32f10x_rcc.o(.text)
    RCC_HSEConfig                            0x08000829   Thumb Code    70  stm32f10x_rcc.o(.text)
    RCC_GetFlagStatus                        0x0800086f   Thumb Code    56  stm32f10x_rcc.o(.text)
    RCC_WaitForHSEStartUp                    0x080008a7   Thumb Code    56  stm32f10x_rcc.o(.text)
    RCC_AdjustHSICalibrationValue            0x080008df   Thumb Code    20  stm32f10x_rcc.o(.text)
    RCC_HSICmd                               0x080008f3   Thumb Code     6  stm32f10x_rcc.o(.text)
    RCC_PLLConfig                            0x080008f9   Thumb Code    24  stm32f10x_rcc.o(.text)
    RCC_PLLCmd                               0x08000911   Thumb Code     6  stm32f10x_rcc.o(.text)
    RCC_SYSCLKConfig                         0x08000917   Thumb Code    18  stm32f10x_rcc.o(.text)
    RCC_GetSYSCLKSource                      0x08000929   Thumb Code    10  stm32f10x_rcc.o(.text)
    RCC_HCLKConfig                           0x08000933   Thumb Code    18  stm32f10x_rcc.o(.text)
    RCC_PCLK1Config                          0x08000945   Thumb Code    18  stm32f10x_rcc.o(.text)
    RCC_PCLK2Config                          0x08000957   Thumb Code    20  stm32f10x_rcc.o(.text)
    RCC_ITConfig                             0x0800096b   Thumb Code    26  stm32f10x_rcc.o(.text)
    RCC_USBCLKConfig                         0x08000985   Thumb Code     8  stm32f10x_rcc.o(.text)
    RCC_ADCCLKConfig                         0x0800098d   Thumb Code    18  stm32f10x_rcc.o(.text)
    RCC_LSEConfig                            0x0800099f   Thumb Code    50  stm32f10x_rcc.o(.text)
    RCC_LSICmd                               0x080009d1   Thumb Code     6  stm32f10x_rcc.o(.text)
    RCC_RTCCLKConfig                         0x080009d7   Thumb Code    12  stm32f10x_rcc.o(.text)
    RCC_RTCCLKCmd                            0x080009e3   Thumb Code     8  stm32f10x_rcc.o(.text)
    RCC_GetClocksFreq                        0x080009eb   Thumb Code   192  stm32f10x_rcc.o(.text)
    RCC_AHBPeriphClockCmd                    0x08000aab   Thumb Code    26  stm32f10x_rcc.o(.text)
    RCC_APB2PeriphClockCmd                   0x08000ac5   Thumb Code    26  stm32f10x_rcc.o(.text)
    RCC_APB1PeriphClockCmd                   0x08000adf   Thumb Code    26  stm32f10x_rcc.o(.text)
    RCC_APB2PeriphResetCmd                   0x08000af9   Thumb Code    26  stm32f10x_rcc.o(.text)
    RCC_APB1PeriphResetCmd                   0x08000b13   Thumb Code    26  stm32f10x_rcc.o(.text)
    RCC_BackupResetCmd                       0x08000b2d   Thumb Code     8  stm32f10x_rcc.o(.text)
    RCC_ClockSecuritySystemCmd               0x08000b35   Thumb Code     6  stm32f10x_rcc.o(.text)
    RCC_MCOConfig                            0x08000b3b   Thumb Code     6  stm32f10x_rcc.o(.text)
    RCC_ClearFlag                            0x08000b41   Thumb Code    14  stm32f10x_rcc.o(.text)
    RCC_GetITStatus                          0x08000b4f   Thumb Code    20  stm32f10x_rcc.o(.text)
    RCC_ClearITPendingBit                    0x08000b63   Thumb Code     6  stm32f10x_rcc.o(.text)
    TIM_DeInit                               0x08000b8d   Thumb Code   424  stm32f10x_tim.o(.text)
    TIM_TimeBaseInit                         0x08000d35   Thumb Code   122  stm32f10x_tim.o(.text)
    TIM_OC1Init                              0x08000daf   Thumb Code   132  stm32f10x_tim.o(.text)
    TIM_OC2Init                              0x08000e33   Thumb Code   154  stm32f10x_tim.o(.text)
    TIM_OC3Init                              0x08000ecd   Thumb Code   150  stm32f10x_tim.o(.text)
    TIM_OC4Init                              0x08000f63   Thumb Code   182  stm32f10x_tim.o(.text)
    TIM_SetIC4Prescaler                      0x08001019   Thumb Code    26  stm32f10x_tim.o(.text)
    TIM_SetIC3Prescaler                      0x080010b5   Thumb Code    18  stm32f10x_tim.o(.text)
    TIM_SetIC2Prescaler                      0x08001141   Thumb Code    26  stm32f10x_tim.o(.text)
    TIM_SetIC1Prescaler                      0x080011dd   Thumb Code    18  stm32f10x_tim.o(.text)
    TIM_ICInit                               0x0800125b   Thumb Code   150  stm32f10x_tim.o(.text)
    TIM_PWMIConfig                           0x080012f1   Thumb Code   124  stm32f10x_tim.o(.text)
    TIM_BDTRConfig                           0x0800136d   Thumb Code    32  stm32f10x_tim.o(.text)
    TIM_TimeBaseStructInit                   0x0800138d   Thumb Code    18  stm32f10x_tim.o(.text)
    TIM_OCStructInit                         0x0800139f   Thumb Code    20  stm32f10x_tim.o(.text)
    TIM_ICStructInit                         0x080013b3   Thumb Code    18  stm32f10x_tim.o(.text)
    TIM_BDTRStructInit                       0x080013c5   Thumb Code    40  stm32f10x_tim.o(.text)
    TIM_Cmd                                  0x080013ed   Thumb Code    24  stm32f10x_tim.o(.text)
    TIM_CtrlPWMOutputs                       0x08001405   Thumb Code    30  stm32f10x_tim.o(.text)
    TIM_ITConfig                             0x08001423   Thumb Code    18  stm32f10x_tim.o(.text)
    TIM_GenerateEvent                        0x08001435   Thumb Code     4  stm32f10x_tim.o(.text)
    TIM_DMAConfig                            0x08001439   Thumb Code    10  stm32f10x_tim.o(.text)
    TIM_DMACmd                               0x08001443   Thumb Code    18  stm32f10x_tim.o(.text)
    TIM_InternalClockConfig                  0x08001455   Thumb Code    12  stm32f10x_tim.o(.text)
    TIM_SelectInputTrigger                   0x08001461   Thumb Code    18  stm32f10x_tim.o(.text)
    TIM_ITRxExternalClockConfig              0x08001473   Thumb Code    24  stm32f10x_tim.o(.text)
    TIM_TIxExternalClockConfig               0x0800148b   Thumb Code    62  stm32f10x_tim.o(.text)
    TIM_ETRConfig                            0x080014c9   Thumb Code    28  stm32f10x_tim.o(.text)
    TIM_ETRClockMode1Config                  0x080014e5   Thumb Code    54  stm32f10x_tim.o(.text)
    TIM_ETRClockMode2Config                  0x0800151b   Thumb Code    32  stm32f10x_tim.o(.text)
    TIM_PrescalerConfig                      0x0800153b   Thumb Code     6  stm32f10x_tim.o(.text)
    TIM_CounterModeConfig                    0x08001541   Thumb Code    18  stm32f10x_tim.o(.text)
    TIM_EncoderInterfaceConfig               0x08001553   Thumb Code    66  stm32f10x_tim.o(.text)
    TIM_ForcedOC1Config                      0x08001595   Thumb Code    18  stm32f10x_tim.o(.text)
    TIM_ForcedOC2Config                      0x080015a7   Thumb Code    26  stm32f10x_tim.o(.text)
    TIM_ForcedOC3Config                      0x080015c1   Thumb Code    18  stm32f10x_tim.o(.text)
    TIM_ForcedOC4Config                      0x080015d3   Thumb Code    26  stm32f10x_tim.o(.text)
    TIM_ARRPreloadConfig                     0x080015ed   Thumb Code    24  stm32f10x_tim.o(.text)
    TIM_SelectCOM                            0x08001605   Thumb Code    24  stm32f10x_tim.o(.text)
    TIM_SelectCCDMA                          0x0800161d   Thumb Code    24  stm32f10x_tim.o(.text)
    TIM_CCPreloadControl                     0x08001635   Thumb Code    24  stm32f10x_tim.o(.text)
    TIM_OC1PreloadConfig                     0x0800164d   Thumb Code    18  stm32f10x_tim.o(.text)
    TIM_OC2PreloadConfig                     0x0800165f   Thumb Code    26  stm32f10x_tim.o(.text)
    TIM_OC3PreloadConfig                     0x08001679   Thumb Code    18  stm32f10x_tim.o(.text)
    TIM_OC4PreloadConfig                     0x0800168b   Thumb Code    26  stm32f10x_tim.o(.text)
    TIM_OC1FastConfig                        0x080016a5   Thumb Code    18  stm32f10x_tim.o(.text)
    TIM_OC2FastConfig                        0x080016b7   Thumb Code    26  stm32f10x_tim.o(.text)
    TIM_OC3FastConfig                        0x080016d1   Thumb Code    18  stm32f10x_tim.o(.text)
    TIM_OC4FastConfig                        0x080016e3   Thumb Code    26  stm32f10x_tim.o(.text)
    TIM_ClearOC1Ref                          0x080016fd   Thumb Code    18  stm32f10x_tim.o(.text)
    TIM_ClearOC2Ref                          0x0800170f   Thumb Code    24  stm32f10x_tim.o(.text)
    TIM_ClearOC3Ref                          0x08001727   Thumb Code    18  stm32f10x_tim.o(.text)
    TIM_ClearOC4Ref                          0x08001739   Thumb Code    24  stm32f10x_tim.o(.text)
    TIM_OC1PolarityConfig                    0x08001751   Thumb Code    18  stm32f10x_tim.o(.text)
    TIM_OC1NPolarityConfig                   0x08001763   Thumb Code    18  stm32f10x_tim.o(.text)
    TIM_OC2PolarityConfig                    0x08001775   Thumb Code    26  stm32f10x_tim.o(.text)
    TIM_OC2NPolarityConfig                   0x0800178f   Thumb Code    26  stm32f10x_tim.o(.text)
    TIM_OC3PolarityConfig                    0x080017a9   Thumb Code    26  stm32f10x_tim.o(.text)
    TIM_OC3NPolarityConfig                   0x080017c3   Thumb Code    26  stm32f10x_tim.o(.text)
    TIM_OC4PolarityConfig                    0x080017dd   Thumb Code    26  stm32f10x_tim.o(.text)
    TIM_CCxCmd                               0x080017f7   Thumb Code    30  stm32f10x_tim.o(.text)
    TIM_CCxNCmd                              0x08001815   Thumb Code    30  stm32f10x_tim.o(.text)
    TIM_SelectOCxM                           0x08001833   Thumb Code    82  stm32f10x_tim.o(.text)
    TIM_UpdateDisableConfig                  0x08001885   Thumb Code    24  stm32f10x_tim.o(.text)
    TIM_UpdateRequestConfig                  0x0800189d   Thumb Code    24  stm32f10x_tim.o(.text)
    TIM_SelectHallSensor                     0x080018b5   Thumb Code    24  stm32f10x_tim.o(.text)
    TIM_SelectOnePulseMode                   0x080018cd   Thumb Code    18  stm32f10x_tim.o(.text)
    TIM_SelectOutputTrigger                  0x080018df   Thumb Code    18  stm32f10x_tim.o(.text)
    TIM_SelectSlaveMode                      0x080018f1   Thumb Code    18  stm32f10x_tim.o(.text)
    TIM_SelectMasterSlaveMode                0x08001903   Thumb Code    18  stm32f10x_tim.o(.text)
    TIM_SetCounter                           0x08001915   Thumb Code     4  stm32f10x_tim.o(.text)
    TIM_SetAutoreload                        0x08001919   Thumb Code     4  stm32f10x_tim.o(.text)
    TIM_SetCompare1                          0x0800191d   Thumb Code     4  stm32f10x_tim.o(.text)
    TIM_SetCompare2                          0x08001921   Thumb Code     4  stm32f10x_tim.o(.text)
    TIM_SetCompare3                          0x08001925   Thumb Code     4  stm32f10x_tim.o(.text)
    TIM_SetCompare4                          0x08001929   Thumb Code     6  stm32f10x_tim.o(.text)
    TIM_SetClockDivision                     0x0800192f   Thumb Code    18  stm32f10x_tim.o(.text)
    TIM_GetCapture1                          0x08001941   Thumb Code     6  stm32f10x_tim.o(.text)
    TIM_GetCapture2                          0x08001947   Thumb Code     6  stm32f10x_tim.o(.text)
    TIM_GetCapture3                          0x0800194d   Thumb Code     6  stm32f10x_tim.o(.text)
    TIM_GetCapture4                          0x08001953   Thumb Code     8  stm32f10x_tim.o(.text)
    TIM_GetCounter                           0x0800195b   Thumb Code     6  stm32f10x_tim.o(.text)
    TIM_GetPrescaler                         0x08001961   Thumb Code     6  stm32f10x_tim.o(.text)
    TIM_GetFlagStatus                        0x08001967   Thumb Code    18  stm32f10x_tim.o(.text)
    TIM_ClearFlag                            0x08001979   Thumb Code     6  stm32f10x_tim.o(.text)
    TIM_GetITStatus                          0x0800197f   Thumb Code    34  stm32f10x_tim.o(.text)
    TIM_ClearITPendingBit                    0x080019a1   Thumb Code     6  stm32f10x_tim.o(.text)
    USART_DeInit                             0x080019a9   Thumb Code   134  stm32f10x_usart.o(.text)
    USART_Init                               0x08001a2f   Thumb Code   210  stm32f10x_usart.o(.text)
    USART_StructInit                         0x08001b01   Thumb Code    24  stm32f10x_usart.o(.text)
    USART_ClockInit                          0x08001b19   Thumb Code    34  stm32f10x_usart.o(.text)
    USART_ClockStructInit                    0x08001b3b   Thumb Code    12  stm32f10x_usart.o(.text)
    USART_Cmd                                0x08001b47   Thumb Code    24  stm32f10x_usart.o(.text)
    USART_ITConfig                           0x08001b5f   Thumb Code    74  stm32f10x_usart.o(.text)
    USART_DMACmd                             0x08001ba9   Thumb Code    18  stm32f10x_usart.o(.text)
    USART_SetAddress                         0x08001bbb   Thumb Code    18  stm32f10x_usart.o(.text)
    USART_WakeUpConfig                       0x08001bcd   Thumb Code    18  stm32f10x_usart.o(.text)
    USART_ReceiverWakeUpCmd                  0x08001bdf   Thumb Code    24  stm32f10x_usart.o(.text)
    USART_LINBreakDetectLengthConfig         0x08001bf7   Thumb Code    18  stm32f10x_usart.o(.text)
    USART_LINCmd                             0x08001c09   Thumb Code    24  stm32f10x_usart.o(.text)
    USART_SendData                           0x08001c21   Thumb Code     8  stm32f10x_usart.o(.text)
    USART_ReceiveData                        0x08001c29   Thumb Code    10  stm32f10x_usart.o(.text)
    USART_SendBreak                          0x08001c33   Thumb Code    10  stm32f10x_usart.o(.text)
    USART_SetGuardTime                       0x08001c3d   Thumb Code    16  stm32f10x_usart.o(.text)
    USART_SetPrescaler                       0x08001c4d   Thumb Code    16  stm32f10x_usart.o(.text)
    USART_SmartCardCmd                       0x08001c5d   Thumb Code    24  stm32f10x_usart.o(.text)
    USART_SmartCardNACKCmd                   0x08001c75   Thumb Code    24  stm32f10x_usart.o(.text)
    USART_HalfDuplexCmd                      0x08001c8d   Thumb Code    24  stm32f10x_usart.o(.text)
    USART_OverSampling8Cmd                   0x08001ca5   Thumb Code    22  stm32f10x_usart.o(.text)
    USART_OneBitMethodCmd                    0x08001cbb   Thumb Code    24  stm32f10x_usart.o(.text)
    USART_IrDAConfig                         0x08001cd3   Thumb Code    18  stm32f10x_usart.o(.text)
    USART_IrDACmd                            0x08001ce5   Thumb Code    24  stm32f10x_usart.o(.text)
    USART_GetFlagStatus                      0x08001cfd   Thumb Code    26  stm32f10x_usart.o(.text)
    USART_ClearFlag                          0x08001d17   Thumb Code    18  stm32f10x_usart.o(.text)
    USART_GetITStatus                        0x08001d29   Thumb Code    84  stm32f10x_usart.o(.text)
    USART_ClearITPendingBit                  0x08001d7d   Thumb Code    52  stm32f10x_usart.o(.text)
    Delay_LCD                                0x08001db1   Thumb Code    30  lcd.o(.text)
    LCD_WriteReg                             0x08001dcf   Thumb Code    68  lcd.o(.text)
    REG_8230_Init                            0x08001e13   Thumb Code   288  lcd.o(.text)
    REG_932X_Init                            0x08001f33   Thumb Code   514  lcd.o(.text)
    LCD_BusOut                               0x08002135   Thumb Code    32  lcd.o(.text)
    LCD_BusIn                                0x08002155   Thumb Code    32  lcd.o(.text)
    LCD_ReadReg                              0x08002175   Thumb Code    92  lcd.o(.text)
    LCD_CtrlLinesConfig                      0x080021d1   Thumb Code    68  lcd.o(.text)
    STM3210B_LCD_Init                        0x08002215   Thumb Code    50  lcd.o(.text)
    LCD_SetTextColor                         0x08002247   Thumb Code    12  lcd.o(.text)
    LCD_SetBackColor                         0x08002253   Thumb Code    12  lcd.o(.text)
    LCD_SetCursor                            0x0800225f   Thumb Code    24  lcd.o(.text)
    LCD_WriteRAM                             0x08002277   Thumb Code    54  lcd.o(.text)
    LCD_WriteRAM_Prepare                     0x080022ad   Thumb Code    58  lcd.o(.text)
    LCD_DrawChar                             0x080022e7   Thumb Code   100  lcd.o(.text)
    LCD_DisplayChar                          0x0800234b   Thumb Code    34  lcd.o(.text)
    LCD_DisplayStringLine                    0x0800236d   Thumb Code    44  lcd.o(.text)
    LCD_ClearLine                            0x08002399   Thumb Code    14  lcd.o(.text)
    LCD_Clear                                0x080023a7   Thumb Code    38  lcd.o(.text)
    LCD_SetDisplayWindow                     0x080023cd   Thumb Code    88  lcd.o(.text)
    LCD_WindowModeDisable                    0x08002425   Thumb Code    28  lcd.o(.text)
    LCD_DrawLine                             0x08002441   Thumb Code    86  lcd.o(.text)
    LCD_DrawRect                             0x08002497   Thumb Code    66  lcd.o(.text)
    LCD_DrawCircle                           0x080024d9   Thumb Code   300  lcd.o(.text)
    LCD_DrawMonoPict                         0x08002605   Thumb Code    76  lcd.o(.text)
    LCD_WriteBMP                             0x08002651   Thumb Code    74  lcd.o(.text)
    LCD_ReadRAM                              0x0800269b   Thumb Code    82  lcd.o(.text)
    LCD_PowerOn                              0x080026ed   Thumb Code   118  lcd.o(.text)
    LCD_DisplayOn                            0x08002763   Thumb Code    14  lcd.o(.text)
    LCD_DisplayOff                           0x08002771   Thumb Code    12  lcd.o(.text)
    LCD_DrawPicture                          0x0800277d   Thumb Code    48  lcd.o(.text)
    Delay_Ms                                 0x080027bd   Thumb Code    16  main.o(.text)
    main                                     0x080027cd   Thumb Code   224  main.o(.text)
    NMI_Handler                              0x08002921   Thumb Code     2  stm32f10x_it.o(.text)
    HardFault_Handler                        0x08002923   Thumb Code     4  stm32f10x_it.o(.text)
    MemManage_Handler                        0x08002927   Thumb Code     4  stm32f10x_it.o(.text)
    BusFault_Handler                         0x0800292b   Thumb Code     4  stm32f10x_it.o(.text)
    UsageFault_Handler                       0x0800292f   Thumb Code     4  stm32f10x_it.o(.text)
    DebugMon_Handler                         0x08002933   Thumb Code     2  stm32f10x_it.o(.text)
    SVC_Handler                              0x08002935   Thumb Code     2  stm32f10x_it.o(.text)
    PendSV_Handler                           0x08002937   Thumb Code     2  stm32f10x_it.o(.text)
    SysTick_Handler                          0x08002939   Thumb Code    12  stm32f10x_it.o(.text)
    LED_Init                                 0x08002949   Thumb Code    92  led.o(.text)
    LED_Ctrl                                 0x080029a5   Thumb Code    74  led.o(.text)
    LED_Toggle                               0x080029ef   Thumb Code    34  led.o(.text)
    PWM_OCTOGGLE_RCC_Configuration           0x08002a19   Thumb Code    20  pwm_octoggle.o(.text)
    PWM_OCTOGGLE_GPIO_Configuration          0x08002a2d   Thumb Code    30  pwm_octoggle.o(.text)
    PWM_OCTOGGLE_NVIC_Configuration          0x08002a4b   Thumb Code    34  pwm_octoggle.o(.text)
    PWM_OCTOGGLE_Init                        0x08002a6d   Thumb Code   164  pwm_octoggle.o(.text)
    TIM2_IRQHandler                          0x08002b11   Thumb Code   200  pwm_octoggle.o(.text)
    UART_RCC_Configuration                   0x08002bf5   Thumb Code    20  uart.o(.text)
    UART_GPIO_Configuration                  0x08002c09   Thumb Code    50  uart.o(.text)
    UART_NVIC_Configuration                  0x08002c3b   Thumb Code    28  uart.o(.text)
    UART_INIT                                0x08002c57   Thumb Code    74  uart.o(.text)
    fputc                                    0x08002ca1   Thumb Code    32  uart.o(.text)
    USART2_IRQHandler                        0x08002cc1   Thumb Code    74  uart.o(.text)
    InputCapture_RCC_Configuration           0x08002d25   Thumb Code    20  inputcapture.o(.text)
    InputCapture_GPIO_Configuration          0x08002d39   Thumb Code    30  inputcapture.o(.text)
    InputCapture_NVIC_Configuration          0x08002d57   Thumb Code    34  inputcapture.o(.text)
    InputCapture_Init                        0x08002d79   Thumb Code    70  inputcapture.o(.text)
    TIM3_IRQHandler                          0x08002dbf   Thumb Code   300  inputcapture.o(.text)
    __2sprintf                               0x08002f1d   Thumb Code    34  noretval__2sprintf.o(.text)
    _printf_pre_padding                      0x08002f45   Thumb Code    44  _printf_pad.o(.text)
    _printf_post_padding                     0x08002f71   Thumb Code    34  _printf_pad.o(.text)
    _printf_int_dec                          0x08002f95   Thumb Code   104  _printf_dec.o(.text)
    __printf                                 0x0800300d   Thumb Code   270  __printf_wp.o(.text)
    __aeabi_memclr                           0x0800311b   Thumb Code     0  rt_memclr.o(.text)
    __rt_memclr                              0x0800311b   Thumb Code    68  rt_memclr.o(.text)
    _memset                                  0x0800311f   Thumb Code     0  rt_memclr.o(.text)
    __use_two_region_memory                  0x0800315f   Thumb Code     2  heapauxi.o(.text)
    __rt_heap_escrow$2region                 0x08003161   Thumb Code     2  heapauxi.o(.text)
    __rt_heap_expand$2region                 0x08003163   Thumb Code     2  heapauxi.o(.text)
    _printf_int_common                       0x08003165   Thumb Code   178  _printf_intcommon.o(.text)
    _printf_char_common                      0x08003223   Thumb Code    32  _printf_char_common.o(.text)
    _sputc                                   0x08003249   Thumb Code    10  _sputc.o(.text)
    __aeabi_memclr4                          0x08003253   Thumb Code     0  rt_memclr_w.o(.text)
    __aeabi_memclr8                          0x08003253   Thumb Code     0  rt_memclr_w.o(.text)
    __rt_memclr_w                            0x08003253   Thumb Code    78  rt_memclr_w.o(.text)
    _memset_w                                0x08003257   Thumb Code     0  rt_memclr_w.o(.text)
    __user_setup_stackheap                   0x080032a1   Thumb Code    74  sys_stackheap_outer.o(.text)
    exit                                     0x080032eb   Thumb Code    18  exit.o(.text)
    __user_libspace                          0x080032fd   Thumb Code     8  libspace.o(.text)
    __user_perproc_libspace                  0x080032fd   Thumb Code     0  libspace.o(.text)
    __user_perthread_libspace                0x080032fd   Thumb Code     0  libspace.o(.text)
    _sys_exit                                0x08003305   Thumb Code     8  sys_exit.o(.text)
    __I$use$semihosting                      0x08003311   Thumb Code     0  use_no_semi.o(.text)
    __use_no_semihosting_swi                 0x08003311   Thumb Code     2  use_no_semi.o(.text)
    __semihosting_library_function           0x08003313   Thumb Code     0  indicate_semi.o(.text)
    _is_digit                                0x08003313   Thumb Code    14  __printf_wp.o(i._is_digit)
    __aeabi_dadd                             0x08003321   Thumb Code     0  daddsub_clz.o(x$fpl$dadd)
    _dadd                                    0x08003321   Thumb Code   332  daddsub_clz.o(x$fpl$dadd)
    __aeabi_ddiv                             0x08003471   Thumb Code     0  ddiv.o(x$fpl$ddiv)
    _ddiv                                    0x08003471   Thumb Code   552  ddiv.o(x$fpl$ddiv)
    __aeabi_d2uiz                            0x08003721   Thumb Code     0  dfixu.o(x$fpl$dfixu)
    _dfixu                                   0x08003721   Thumb Code    90  dfixu.o(x$fpl$dfixu)
    __aeabi_ui2d                             0x0800377b   Thumb Code     0  dflt_clz.o(x$fpl$dfltu)
    _dfltu                                   0x0800377b   Thumb Code    38  dflt_clz.o(x$fpl$dfltu)
    __aeabi_dmul                             0x080037a1   Thumb Code     0  dmul.o(x$fpl$dmul)
    _dmul                                    0x080037a1   Thumb Code   332  dmul.o(x$fpl$dmul)
    __fpl_dnaninf                            0x080038f5   Thumb Code   156  dnaninf.o(x$fpl$dnaninf)
    __fpl_dretinf                            0x08003991   Thumb Code    12  dretinf.o(x$fpl$dretinf)
    __aeabi_dsub                             0x0800399d   Thumb Code     0  daddsub_clz.o(x$fpl$dsub)
    _dsub                                    0x0800399d   Thumb Code   464  daddsub_clz.o(x$fpl$dsub)
    __aeabi_fadd                             0x08003b71   Thumb Code     0  faddsub_clz.o(x$fpl$fadd)
    _fadd                                    0x08003b71   Thumb Code   196  faddsub_clz.o(x$fpl$fadd)
    __aeabi_f2uiz                            0x08003c35   Thumb Code     0  ffixu.o(x$fpl$ffixu)
    _ffixu                                   0x08003c35   Thumb Code    62  ffixu.o(x$fpl$ffixu)
    __aeabi_ui2f                             0x08003c75   Thumb Code     0  fflt_clz.o(x$fpl$ffltu)
    _ffltu                                   0x08003c75   Thumb Code    38  fflt_clz.o(x$fpl$ffltu)
    __aeabi_fmul                             0x08003c9d   Thumb Code     0  fmul.o(x$fpl$fmul)
    _fmul                                    0x08003c9d   Thumb Code   258  fmul.o(x$fpl$fmul)
    __fpl_fnaninf                            0x08003d9f   Thumb Code   140  fnaninf.o(x$fpl$fnaninf)
    __fpl_fretinf                            0x08003e2b   Thumb Code    10  fretinf.o(x$fpl$fretinf)
    __aeabi_fsub                             0x08003e35   Thumb Code     0  faddsub_clz.o(x$fpl$fsub)
    _fsub                                    0x08003e35   Thumb Code   234  faddsub_clz.o(x$fpl$fsub)
    ASCII_Table                              0x08003f1e   Data        4560  lcd.o(.constdata)
    __I$use$fp                               0x08003f1e   Number         0  usenofp.o(x$fpl$usenofp)
    Region$$Table$$Base                      0x080050f0   Number         0  anon$$obj.o(Region$$Table)
    Region$$Table$$Limit                     0x08005110   Number         0  anon$$obj.o(Region$$Table)
    SystemCoreClock                          0x20000000   Data           4  system_stm32f10x.o(.data)
    AHBPrescTable                            0x20000004   Data          16  system_stm32f10x.o(.data)
    dummy                                    0x2000002c   Data           2  lcd.o(.data)
    TimingDelay                              0x20000030   Data           4  main.o(.data)
    CCR2_Val                                 0x20000034   Data           2  pwm_octoggle.o(.data)
    CCR3_Val                                 0x20000036   Data           2  pwm_octoggle.o(.data)
    CH2_Flag                                 0x20000038   Data           1  pwm_octoggle.o(.data)
    RxCounter                                0x2000003a   Data           1  uart.o(.data)
    Rx_flag                                  0x2000003b   Data           1  uart.o(.data)
    uart_cnt                                 0x2000003c   Data           2  uart.o(.data)
    IC3ReadValue1                            0x20000040   Data           4  inputcapture.o(.data)
    IC3ReadValue2                            0x20000044   Data           4  inputcapture.o(.data)
    CaptureNumber                            0x20000048   Data           4  inputcapture.o(.data)
    Capture                                  0x2000004c   Data           4  inputcapture.o(.data)
    TIM3Freq                                 0x20000050   Data           4  inputcapture.o(.data)
    TIM3Duty                                 0x20000054   Data           4  inputcapture.o(.data)
    TIM3_Update_Cnt                          0x20000058   Data           4  inputcapture.o(.data)
    lcd_buf                                  0x2000005c   Data          20  main.o(.bss)
    RxBuffer                                 0x20000070   Data          20  uart.o(.bss)
    __libspace_start                         0x20000084   Data          96  libspace.o(.bss)
    __temporary_stack_top$libspace           0x200000e4   Data           0  libspace.o(.bss)



==============================================================================

Memory Map of the image

  Image Entry point : 0x080000ed

  Load Region LR_IROM1 (Base: 0x08000000, Size: 0x0000516c, Max: 0x00020000, ABSOLUTE)

    Execution Region ER_IROM1 (Base: 0x08000000, Size: 0x00005110, Max: 0x00020000, ABSOLUTE)

    Base Addr    Size         Type   Attr      Idx    E Section Name        Object

    0x08000000   0x000000ec   Data   RO            3    RESET               startup_stm32f10x_md.o
    0x080000ec   0x00000008   Code   RO          725  * !!!main             c_w.l(__main.o)
    0x080000f4   0x00000034   Code   RO          942    !!!scatter          c_w.l(__scatter.o)
    0x08000128   0x0000001a   Code   RO          944    !!handler_copy      c_w.l(__scatter_copy.o)
    0x08000142   0x00000002   PAD
    0x08000144   0x0000001c   Code   RO          946    !!handler_zi        c_w.l(__scatter_zi.o)
    0x08000160   0x00000000   Code   RO          720    .ARM.Collect$$_printf_percent$$00000000  c_w.l(_printf_percent.o)
    0x08000160   0x00000006   Code   RO          719    .ARM.Collect$$_printf_percent$$00000009  c_w.l(_printf_d.o)
    0x08000166   0x00000004   Code   RO          774    .ARM.Collect$$_printf_percent$$00000017  c_w.l(_printf_percent_end.o)
    0x0800016a   0x00000002   Code   RO          812    .ARM.Collect$$libinit$$00000000  c_w.l(libinit.o)
    0x0800016c   0x00000000   Code   RO          819    .ARM.Collect$$libinit$$00000002  c_w.l(libinit2.o)
    0x0800016c   0x00000000   Code   RO          821    .ARM.Collect$$libinit$$00000004  c_w.l(libinit2.o)
    0x0800016c   0x00000000   Code   RO          824    .ARM.Collect$$libinit$$0000000A  c_w.l(libinit2.o)
    0x0800016c   0x00000000   Code   RO          826    .ARM.Collect$$libinit$$0000000C  c_w.l(libinit2.o)
    0x0800016c   0x00000000   Code   RO          828    .ARM.Collect$$libinit$$0000000E  c_w.l(libinit2.o)
    0x0800016c   0x00000000   Code   RO          831    .ARM.Collect$$libinit$$00000011  c_w.l(libinit2.o)
    0x0800016c   0x00000000   Code   RO          833    .ARM.Collect$$libinit$$00000013  c_w.l(libinit2.o)
    0x0800016c   0x00000000   Code   RO          835    .ARM.Collect$$libinit$$00000015  c_w.l(libinit2.o)
    0x0800016c   0x00000000   Code   RO          837    .ARM.Collect$$libinit$$00000017  c_w.l(libinit2.o)
    0x0800016c   0x00000000   Code   RO          839    .ARM.Collect$$libinit$$00000019  c_w.l(libinit2.o)
    0x0800016c   0x00000000   Code   RO          841    .ARM.Collect$$libinit$$0000001B  c_w.l(libinit2.o)
    0x0800016c   0x00000000   Code   RO          843    .ARM.Collect$$libinit$$0000001D  c_w.l(libinit2.o)
    0x0800016c   0x00000000   Code   RO          845    .ARM.Collect$$libinit$$0000001F  c_w.l(libinit2.o)
    0x0800016c   0x00000000   Code   RO          847    .ARM.Collect$$libinit$$00000021  c_w.l(libinit2.o)
    0x0800016c   0x00000000   Code   RO          849    .ARM.Collect$$libinit$$00000023  c_w.l(libinit2.o)
    0x0800016c   0x00000000   Code   RO          851    .ARM.Collect$$libinit$$00000025  c_w.l(libinit2.o)
    0x0800016c   0x00000000   Code   RO          855    .ARM.Collect$$libinit$$0000002C  c_w.l(libinit2.o)
    0x0800016c   0x00000000   Code   RO          857    .ARM.Collect$$libinit$$0000002E  c_w.l(libinit2.o)
    0x0800016c   0x00000000   Code   RO          859    .ARM.Collect$$libinit$$00000030  c_w.l(libinit2.o)
    0x0800016c   0x00000000   Code   RO          861    .ARM.Collect$$libinit$$00000032  c_w.l(libinit2.o)
    0x0800016c   0x00000002   Code   RO          862    .ARM.Collect$$libinit$$00000033  c_w.l(libinit2.o)
    0x0800016e   0x00000002   Code   RO          882    .ARM.Collect$$libshutdown$$00000000  c_w.l(libshutdown.o)
    0x08000170   0x00000000   Code   RO          895    .ARM.Collect$$libshutdown$$00000002  c_w.l(libshutdown2.o)
    0x08000170   0x00000000   Code   RO          897    .ARM.Collect$$libshutdown$$00000004  c_w.l(libshutdown2.o)
    0x08000170   0x00000000   Code   RO          900    .ARM.Collect$$libshutdown$$00000007  c_w.l(libshutdown2.o)
    0x08000170   0x00000000   Code   RO          903    .ARM.Collect$$libshutdown$$0000000A  c_w.l(libshutdown2.o)
    0x08000170   0x00000000   Code   RO          905    .ARM.Collect$$libshutdown$$0000000C  c_w.l(libshutdown2.o)
    0x08000170   0x00000000   Code   RO          908    .ARM.Collect$$libshutdown$$0000000F  c_w.l(libshutdown2.o)
    0x08000170   0x00000002   Code   RO          909    .ARM.Collect$$libshutdown$$00000010  c_w.l(libshutdown2.o)
    0x08000172   0x00000000   Code   RO          767    .ARM.Collect$$rtentry$$00000000  c_w.l(__rtentry.o)
    0x08000172   0x00000000   Code   RO          787    .ARM.Collect$$rtentry$$00000002  c_w.l(__rtentry2.o)
    0x08000172   0x00000006   Code   RO          799    .ARM.Collect$$rtentry$$00000004  c_w.l(__rtentry4.o)
    0x08000178   0x00000000   Code   RO          789    .ARM.Collect$$rtentry$$00000009  c_w.l(__rtentry2.o)
    0x08000178   0x00000004   Code   RO          790    .ARM.Collect$$rtentry$$0000000A  c_w.l(__rtentry2.o)
    0x0800017c   0x00000000   Code   RO          792    .ARM.Collect$$rtentry$$0000000C  c_w.l(__rtentry2.o)
    0x0800017c   0x00000008   Code   RO          793    .ARM.Collect$$rtentry$$0000000D  c_w.l(__rtentry2.o)
    0x08000184   0x00000002   Code   RO          816    .ARM.Collect$$rtexit$$00000000  c_w.l(rtexit.o)
    0x08000186   0x00000000   Code   RO          864    .ARM.Collect$$rtexit$$00000002  c_w.l(rtexit2.o)
    0x08000186   0x00000004   Code   RO          865    .ARM.Collect$$rtexit$$00000003  c_w.l(rtexit2.o)
    0x0800018a   0x00000006   Code   RO          866    .ARM.Collect$$rtexit$$00000004  c_w.l(rtexit2.o)
    0x08000190   0x00000040   Code   RO            4    .text               startup_stm32f10x_md.o
    0x080001d0   0x000001e0   Code   RO           26    .text               system_stm32f10x.o
    0x080003b0   0x000000dc   Code   RO          137    .text               misc.o
    0x0800048c   0x0000035c   Code   RO          161    .text               stm32f10x_gpio.o
    0x080007e8   0x000003a4   Code   RO          181    .text               stm32f10x_rcc.o
    0x08000b8c   0x00000e1a   Code   RO          203    .text               stm32f10x_tim.o
    0x080019a6   0x00000002   PAD
    0x080019a8   0x00000408   Code   RO          303    .text               stm32f10x_usart.o
    0x08001db0   0x00000a0c   Code   RO          323    .text               lcd.o
    0x080027bc   0x00000164   Code   RO          353    .text               main.o
    0x08002920   0x00000028   Code   RO          396    .text               stm32f10x_it.o
    0x08002948   0x000000d0   Code   RO          420    .text               led.o
    0x08002a18   0x000001dc   Code   RO          607    .text               pwm_octoggle.o
    0x08002bf4   0x00000130   Code   RO          633    .text               uart.o
    0x08002d24   0x000001f8   Code   RO          663    .text               inputcapture.o
    0x08002f1c   0x00000028   Code   RO          691    .text               c_w.l(noretval__2sprintf.o)
    0x08002f44   0x0000004e   Code   RO          695    .text               c_w.l(_printf_pad.o)
    0x08002f92   0x00000002   PAD
    0x08002f94   0x00000078   Code   RO          697    .text               c_w.l(_printf_dec.o)
    0x0800300c   0x0000010e   Code   RO          707    .text               c_w.l(__printf_wp.o)
    0x0800311a   0x00000044   Code   RO          721    .text               c_w.l(rt_memclr.o)
    0x0800315e   0x00000006   Code   RO          723    .text               c_w.l(heapauxi.o)
    0x08003164   0x000000b2   Code   RO          768    .text               c_w.l(_printf_intcommon.o)
    0x08003216   0x00000002   PAD
    0x08003218   0x00000030   Code   RO          770    .text               c_w.l(_printf_char_common.o)
    0x08003248   0x0000000a   Code   RO          772    .text               c_w.l(_sputc.o)
    0x08003252   0x0000004e   Code   RO          775    .text               c_w.l(rt_memclr_w.o)
    0x080032a0   0x0000004a   Code   RO          803    .text               c_w.l(sys_stackheap_outer.o)
    0x080032ea   0x00000012   Code   RO          805    .text               c_w.l(exit.o)
    0x080032fc   0x00000008   Code   RO          813    .text               c_w.l(libspace.o)
    0x08003304   0x0000000c   Code   RO          874    .text               c_w.l(sys_exit.o)
    0x08003310   0x00000002   Code   RO          885    .text               c_w.l(use_no_semi.o)
    0x08003312   0x00000000   Code   RO          887    .text               c_w.l(indicate_semi.o)
    0x08003312   0x0000000e   Code   RO          709    i._is_digit         c_w.l(__printf_wp.o)
    0x08003320   0x00000150   Code   RO          727    x$fpl$dadd          fz_ws.l(daddsub_clz.o)
    0x08003470   0x000002b0   Code   RO          734    x$fpl$ddiv          fz_ws.l(ddiv.o)
    0x08003720   0x0000005a   Code   RO          737    x$fpl$dfixu         fz_ws.l(dfixu.o)
    0x0800377a   0x00000026   Code   RO          741    x$fpl$dfltu         fz_ws.l(dflt_clz.o)
    0x080037a0   0x00000154   Code   RO          747    x$fpl$dmul          fz_ws.l(dmul.o)
    0x080038f4   0x0000009c   Code   RO          777    x$fpl$dnaninf       fz_ws.l(dnaninf.o)
    0x08003990   0x0000000c   Code   RO          779    x$fpl$dretinf       fz_ws.l(dretinf.o)
    0x0800399c   0x000001d4   Code   RO          729    x$fpl$dsub          fz_ws.l(daddsub_clz.o)
    0x08003b70   0x000000c4   Code   RO          749    x$fpl$fadd          fz_ws.l(faddsub_clz.o)
    0x08003c34   0x0000003e   Code   RO          755    x$fpl$ffixu         fz_ws.l(ffixu.o)
    0x08003c72   0x00000002   PAD
    0x08003c74   0x00000026   Code   RO          759    x$fpl$ffltu         fz_ws.l(fflt_clz.o)
    0x08003c9a   0x00000002   PAD
    0x08003c9c   0x00000102   Code   RO          765    x$fpl$fmul          fz_ws.l(fmul.o)
    0x08003d9e   0x0000008c   Code   RO          781    x$fpl$fnaninf       fz_ws.l(fnaninf.o)
    0x08003e2a   0x0000000a   Code   RO          783    x$fpl$fretinf       fz_ws.l(fretinf.o)
    0x08003e34   0x000000ea   Code   RO          751    x$fpl$fsub          fz_ws.l(faddsub_clz.o)
    0x08003f1e   0x00000000   Code   RO          785    x$fpl$usenofp       fz_ws.l(usenofp.o)
    0x08003f1e   0x000011d0   Data   RO          324    .constdata          lcd.o
    0x080050ee   0x00000002   PAD
    0x080050f0   0x00000020   Data   RO          940    Region$$Table       anon$$obj.o


    Execution Region RW_IRAM1 (Base: 0x20000000, Size: 0x000006e8, Max: 0x00005000, ABSOLUTE)

    Base Addr    Size         Type   Attr      Idx    E Section Name        Object

    0x20000000   0x00000014   Data   RW           27    .data               system_stm32f10x.o
    0x20000014   0x00000014   Data   RW          182    .data               stm32f10x_rcc.o
    0x20000028   0x00000006   Data   RW          325    .data               lcd.o
    0x2000002e   0x00000002   PAD
    0x20000030   0x00000004   Data   RW          355    .data               main.o
    0x20000034   0x00000005   Data   RW          608    .data               pwm_octoggle.o
    0x20000039   0x00000001   PAD
    0x2000003a   0x00000004   Data   RW          635    .data               uart.o
    0x2000003e   0x00000002   PAD
    0x20000040   0x0000001c   Data   RW          664    .data               inputcapture.o
    0x2000005c   0x00000014   Zero   RW          354    .bss                main.o
    0x20000070   0x00000014   Zero   RW          634    .bss                uart.o
    0x20000084   0x00000060   Zero   RW          814    .bss                c_w.l(libspace.o)
    0x200000e4   0x00000004   PAD
    0x200000e8   0x00000200   Zero   RW            2    HEAP                startup_stm32f10x_md.o
    0x200002e8   0x00000400   Zero   RW            1    STACK               startup_stm32f10x_md.o


==============================================================================

Image component sizes


      Code (inc. data)   RO Data    RW Data    ZI Data      Debug   Object Name

         0          0          0          0          0       4508   core_cm3_1.o
       504         50          0         28          0       1849   inputcapture.o
      2572         74       4560          6          0       8800   lcd.o
       208          8          0          0          0        923   led.o
       356        116          0          4         20      24881   main.o
       220         22          0          0          0       1961   misc.o
       476         28          0          5          0       1848   pwm_octoggle.o
        64         26        236          0       1536        968   startup_stm32f10x_md.o
       860         38          0          0          0       5893   stm32f10x_gpio.o
        40          4          0          0          0       1290   stm32f10x_it.o
       932         36          0         20          0       9116   stm32f10x_rcc.o
      3610         88          0          0          0      23004   stm32f10x_tim.o
      1032         22          0          0          0       8616   stm32f10x_usart.o
       480         38          0         20          0     249739   system_stm32f10x.o
       304         26          0          4         20       2201   uart.o

    ----------------------------------------------------------------------
     11660        576       4830         92       1576     345597   Object Totals
         0          0         32          0          0          0   (incl. Generated)
         2          0          2          5          0          0   (incl. Padding)

    ----------------------------------------------------------------------

      Code (inc. data)   RO Data    RW Data    ZI Data      Debug   Library Member Name

         8          0          0          0          0         68   __main.o
       284          0          0          0          0        156   __printf_wp.o
         0          0          0          0          0          0   __rtentry.o
        12          0          0          0          0          0   __rtentry2.o
         6          0          0          0          0          0   __rtentry4.o
        52          8          0          0          0          0   __scatter.o
        26          0          0          0          0          0   __scatter_copy.o
        28          0          0          0          0          0   __scatter_zi.o
        48          6          0          0          0         96   _printf_char_common.o
         6          0          0          0          0          0   _printf_d.o
       120         16          0          0          0         92   _printf_dec.o
       178          0          0          0          0         88   _printf_intcommon.o
        78          0          0          0          0        108   _printf_pad.o
         0          0          0          0          0          0   _printf_percent.o
         4          0          0          0          0          0   _printf_percent_end.o
        10          0          0          0          0         68   _sputc.o
        18          0          0          0          0         80   exit.o
         6          0          0          0          0        152   heapauxi.o
         0          0          0          0          0          0   indicate_semi.o
         2          0          0          0          0          0   libinit.o
         2          0          0          0          0          0   libinit2.o
         2          0          0          0          0          0   libshutdown.o
         2          0          0          0          0          0   libshutdown2.o
         8          4          0          0         96         68   libspace.o
        40          6          0          0          0         84   noretval__2sprintf.o
        68          0          0          0          0         68   rt_memclr.o
        78          0          0          0          0         80   rt_memclr_w.o
         2          0          0          0          0          0   rtexit.o
        10          0          0          0          0          0   rtexit2.o
        12          4          0          0          0         68   sys_exit.o
        74          0          0          0          0         80   sys_stackheap_outer.o
         2          0          0          0          0         68   use_no_semi.o
       804         16          0          0          0        272   daddsub_clz.o
       688        140          0          0          0        208   ddiv.o
        90          4          0          0          0         92   dfixu.o
        38          0          0          0          0         68   dflt_clz.o
       340         12          0          0          0        104   dmul.o
       156          4          0          0          0         92   dnaninf.o
        12          0          0          0          0         68   dretinf.o
       430          8          0          0          0        168   faddsub_clz.o
        62          4          0          0          0         84   ffixu.o
        38          0          0          0          0         68   fflt_clz.o
       258          4          0          0          0         84   fmul.o
       140          4          0          0          0         84   fnaninf.o
        10          0          0          0          0         68   fretinf.o
         0          0          0          0          0          0   usenofp.o

    ----------------------------------------------------------------------
      4262        240          0          0        100       2884   Library Totals
        10          0          0          0          4          0   (incl. Padding)

    ----------------------------------------------------------------------

      Code (inc. data)   RO Data    RW Data    ZI Data      Debug   Library Name

      1186         44          0          0         96       1424   c_w.l
      3066        196          0          0          0       1460   fz_ws.l

    ----------------------------------------------------------------------
      4262        240          0          0        100       2884   Library Totals

    ----------------------------------------------------------------------

==============================================================================


      Code (inc. data)   RO Data    RW Data    ZI Data      Debug   

     15922        816       4830         92       1676     345929   Grand Totals
     15922        816       4830         92       1676     345929   ELF Image Totals
     15922        816       4830         92          0          0   ROM Totals

==============================================================================

    Total RO  Size (Code + RO Data)                20752 (  20.27kB)
    Total RW  Size (RW Data + ZI Data)              1768 (   1.73kB)
    Total ROM Size (Code + RO Data + RW Data)      20844 (  20.36kB)

==============================================================================

