:020000040800F2
:1000000098060020890100085D1600085F160008A8
:1000100063160008671600086B1600080000000051
:100020000000000000000000000000007116000841
:100030006F1600080000000073160008751600080F
:10004000A3010008A3010008A3010008A301000800
:10005000A3010008A3010008A3010008A3010008F0
:10006000A3010008A3010008A3010008A3010008E0
:10007000A3010008A3010008A3010008A3010008D0
:10008000A3010008A3010008A3010008A3010008C0
:10009000A3010008A3010008A3010008A3010008B0
:1000A000A3010008A3010008A3010008A3010008A0
:1000B000A3010008A3010008A3010008A301000890
:1000C000A3010008A3010008A3010008A301000880
:1000D000A3010008A3010008A3010008A301000870
:1000E000A3010008A3010008A301000800F002F822
:1000F00000F03AF80AA090E8000C82448344AAF188
:100100000107DA4501D100F02FF8AFF2090EBAE885
:100110000F0013F0010F18BFFB1A43F0010318473B
:10012000B0270000D0270000103A24BF78C878C15B
:10013000FAD8520724BF30C830C144BF04680C60ED
:10014000704700000023002400250026103A28BF35
:1001500078C1FBD8520728BF30C148BF0B60704739
:100160001FB51FBD10B510BD01F08FFA1146FFF786
:10017000F7FF01F099F901F0ADFA03B4FFF7F2FFD0
:1001800003BC01F0B5FA0000094880470948004760
:10019000FEE7FEE7FEE7FEE7FEE7FEE7FEE7FEE737
:1001A000FEE7FEE704480549054A064B7047000094
:1001B000A7020008ED000008980000209806002023
:1001C00098020020980200200CB5002001900090B9
:1001D0006C48006840F480306A49086000BF694894
:1001E000006800F4003000900198401C01900098D5
:1001F00018B90198B0F5A06FF1D16248006800F419
:10020000003010B10120009001E000200090009823
:10021000012843D15C48006840F010005A4908604A
:100220000846006820F0030008600846006840F0B7
:1002300002000860534840685249486008464068D8
:1002400048600846406840F480604860084640685E
:1002500020F47C1048600846406840F4E81048608C
:100260000846006840F08070086000BF454800689C
:1002700000F000700028F9D04248406820F00300E8
:10028000404948600846406840F00200486000BFAE
:100290003C48406800F00C000828F9D10CBD10B5AE
:1002A000FFF792FF10BD10B53648006840F001001E
:1002B000344908600846406834490840314948607C
:1002C00008460068324908402E4908600846006820
:1002D00020F4802008600846406820F4FE00486052
:1002E0004FF41F008860FFF7DAFF4FF000602949E4
:1002F000086010BD10B5002100200022214B5B6872
:1003000003F00C0121B1042906D0082928D107E007
:10031000214B224C236027E01F4B204C236023E01D
:10032000184B5B6803F47010164B5B6803F4803263
:10033000022303EB904022B9194B4343174C23602F
:100340000DE0104B5B6803F4003323B1144B4343BF
:10035000124C236003E0104B4343104C236003E036
:100360000D4B0E4C236000BF00BF064B5B68C3F310
:1003700003130C4CE15C094B1B68CB40074C23601A
:1003800010BD000000100240002002400000FFF8F5
:10039000FFFFF6FE08ED00E000127A0000000020EA
:1003A00000093D000400002010B50446CC488442FA
:1003B00008D10121042000F02DFB0021042000F0D1
:1003C00029FB46E0C748844208D10121082000F0FB
:1003D00021FB0021082000F01DFB3AE0C2488442C6
:1003E00008D10121102000F015FB0021102000F0A1
:1003F00011FB2EE0BD48844208D10121202000F0ED
:1004000009FB0021202000F005FB22E0B8488442CF
:1004100008D10121402000F0FDFA0021402000F029
:10042000F9FA16E0B348844208D10121802000F097
:10043000F1FA0021802000F0EDFA0AE0AE48844293
:1004400007D10121801500F0E5FA0021A01500F088
:10045000E1FA10BD10B50121084600F0DBFA0021D9
:10046000012000F0D7FA10BD2DE9F0410246002529
:100470000026002000230024002791F803C00CF080
:100480000F0591F803C00CF0100CBCF1000F03D065
:1004900091F802C04CEA050591F800C0BCF1000FCC
:1004A00031D0146800202BE04FF0010C0CFA00F35F
:1004B000B1F800C00CEA03069E4220D183004FF041
:1004C0000F0C0CFA03F7BC4305FA03FC4CEA0404D6
:1004D00091F803C0BCF1280F06D14FF0010C0CFAC3
:1004E00000FCC2F814C00AE091F803C0BCF1480F48
:1004F00005D14FF0010C0CFA00FCC2F810C0401CF2
:100500000828D1D31460B1F800C0BCF1FF0F34DD6E
:10051000546800202EE000F1080C4FF0010808FAA2
:100520000CF3B1F800C00CEA03069E4221D183000F
:100530004FF00F0C0CFA03F7BC4305FA03FC4CEA2E
:10054000040491F803C0BCF1280F05D100F1080C98
:1005500008FA0CF8C2F8148091F803C0BCF1480FF7
:1005600007D100F1080C4FF0010808FA0CF8C2F8A6
:100570001080401C0828CED35460BDE8F0814FF6AF
:10058000FF710180022181700421C1707047024611
:10059000002093680B400BB1012000E00020704761
:1005A0000146886880B2704702460020D3680B403D
:1005B0000BB1012000E0002070470146C86880B2FE
:1005C000704701617047416170470AB1016100E005
:1005D00041617047C16070474FF480320A438261C5
:1005E0008161826182698269704702460020434BC3
:1005F00018684FF68073184040EA021008433F4BDA
:10060000186070473E49C8617047F0B50A4600233C
:1006100000240021002500F00046B6F1004F02D171
:10062000364EF16901E0354E7168C0F3034583B27F
:1006300000F44016B6F5401F08D121F070612F4E2E
:10064000766826F070662D4F7E6012E000F480160A
:10065000B6F5801F06D1032606FA05F4A14341F042
:10066000706106E0460D360103FA06F6B14341F02B
:10067000706122B1460D360103FA06F6314300F0EF
:100680000046B6F1004F02D11C4EF16101E01B4E55
:100690007160F0BD30B500228B071C0F0F2303FAE9
:1006A00004F2164B08338C1053F824309343134C48
:1006B00008348D1044F8253023468C1053F824302C
:1006C0008C07240F00FA04F423430C4C08348D10DB
:1006D00044F8253030BD0A49DC310860704700001D
:1006E00000080140000C01400010014000140140CE
:1006F00000180140001C01400020014000000140A2
:1007000000002042DF48006840F00100DD49086039
:1007100008464068DC490840DA49486008460068F5
:10072000DA490840D74908600846006820F480206C
:1007300008600846406820F4FE0048604FF41F003F
:1007400088607047CF49096821F48031CD4A116033
:100750001146096821F480211160B0F5803F03D073
:10076000B0F5802F0ED106E0C649096841F480310A
:10077000C44A116007E0C349096841F4A021C14A95
:10078000116000E000BF00BF704710B501460022B5
:10079000002300204A11012A02D1BA4C236806E046
:1007A000022A02D1B74C236A01E0B64C636A01F019
:1007B0001F02012494401C400CB1012000E00020E5
:1007C00010BD38B5002000900024002500BF312066
:1007D000FFF7DBFF05460098401C00900098B0F53D
:1007E000A06F01D0002DF2D03120FFF7CEFF08B16D
:1007F000012400E00024204638BD01460020A14A23
:10080000106820F0F80040EAC10010607047A0496D
:1008100008607047024600209A4B586820F47C100C
:1008200042EA01031843974B58607047984908669D
:10083000704701460020934A506820F003000843A7
:10084000506070478F48406800F00C0070470146C8
:1008500000208C4A506820F0F00008435060704738
:1008600001460020874A506820F4E0600843506049
:10087000704701460020834A506820F4605040EAE7
:10088000C1005060704729B17E4A527A02437D4BC5
:100890005A7204E07B4A527A82437A4B5A7270470A
:1008A0007B49D8310860704701460020754A50687E
:1008B00020F440400843506070470021714A2032C4
:1008C0001170704A82F82010012802D004280AD141
:1008D00004E001216B4A2032117005E00521694ACC
:1008E0002032117000E000BF00BF70476949086006
:1008F00070476449096A0143624A11627047654959
:1009000044390860704730B50021002200240023DC
:100910005C4D6D6805F00C0121B1042905D0082952
:1009200023D105E05C4D056022E05B4D05601FE0D2
:10093000544D6D6805F47012524D6D6805F48034A5
:10094000022505EB92421CB9544D554305600BE05E
:100950004C4D6D6805F400351DB1504D5543056093
:1009600002E04D4D5543056002E04B4D056000BF70
:1009700000BF444D6D6805F0F0010909484D6B5CFE
:100980000568DD4045603F4D6D6805F4E061090A8A
:10099000434D6B5C4568DD4085603A4D6D6805F4FC
:1009A0006051C90A3E4D6B5C4568DD40C560354D00
:1009B0006D6805F44041890B3A4D6B5CC568B5FB29
:1009C000F3F5056130BD29B12E4A526902432D4B22
:1009D0005A6104E02B4A526982432A4B5A6170479C
:1009E00029B1284A92690243264B9A6104E0254ABC
:1009F00092698243234B9A61704729B1214AD26997
:100A00000243204BDA6104E01E4AD26982431D4B47
:100A1000DA61704729B11B4AD2680243194BDA6088
:100A200004E0184AD2688243164BDA60704729B155
:100A3000144A12690243134B1A6104E0114A126905
:100A40008243104B1A617047124940390860704761
:100A50000F49C86470470B49C87170470948406A1C
:100A600040F0807007494862704701460020054AFF
:100A700092680A400AB1012000E000207047014955
:100A800088727047001002400000FFF8FFFFF6FE7A
:100A9000000042428004424200127A0000093D00F8
:100AA0001400002024000020002109E0002201E0C1
:100AB000531C9AB240F6B8339A42F9DB4B1C99B2F8
:100AC0008142F3DB70474FF40072FA4B1A60521008
:100AD0001A6020221B1F1A60F74AD06020221B1DBB
:100AE0001A601B1F1A60D2001A60F34AD1602022DC
:100AF0001B1D1A601B1F1A60D2001A60704700B5D8
:100B000001210020FFF7DFFF4FF47A70FFF7CCFFE1
:100B100000210120FFF7D7FF41F290711020FFF76D
:100B2000D2FF4FF41C516020FFF7CDFF012161205F
:100B3000FFF7C9FF02214620FFF7C5FF48F2100169
:100B40001320FFF7C0FF48F2FE011220FFF7BBFFA2
:100B50004FF4A0610220FFF7B6FF41F230010320FD
:100B6000FFF7B1FF40F203313020FFF7ACFF40F256
:100B700003313120FFF7A7FF40F203313220FFF7A6
:100B8000A2FF4FF440713320FFF79DFF0321342073
:100B9000FFF799FF40F203313520FFF794FF14214E
:100BA0003620FFF790FF40F203313720FFF78BFF2D
:100BB00040F203313820FFF786FF40F2033139203D
:100BC000FFF781FF4FF440713A20FFF77CFF0321CC
:100BD0003B20FFF778FF40F203313C20FFF773FF23
:100BE0004FF4A0513D20FFF76EFF4FF400719220AB
:100BF000FFF769FF40F203319320FFF764FF40F6EF
:100C00000D019020FFF75FFF41F218010320FFF76D
:100C10005AFF40F273110720FFF755FF00BD00B5E2
:100C200043F20801E320FFF74EFF1221E720FFF710
:100C30004AFF41F23121EF20FFF745FF002101205B
:100C4000FFF741FF4FF4E0610220FFF73CFF41F264
:100C500030010320FFF737FF00210420FFF733FFA7
:100C600040F207210820FFF72EFF00210920FFF79F
:100C70002AFF00210A20FFF726FF00210C20FFF7A2
:100C800022FF00210D20FFF71EFF00210F20FFF79C
:100C90001AFF00211020FFF716FF07211120FFF790
:100CA00012FF00211220FFF70EFF00211320FFF793
:100CB0000AFF4FF47A70FFF7F7FE41F290611020BF
:100CC000FFF701FF40F227211120FFF7FCFE322041
:100CD000FFF7EAFE1D211220FFF7F5FE3220FFF795
:100CE000E3FE4FF400611320FFF7EDFE14212920ED
:100CF000FFF7E9FE0B212B20FFF7E5FE3220FFF77F
:100D0000D3FE00212020FFF7DEFE00212120FFF787
:100D1000DAFE07213020FFF7D6FE40F207713120BE
:100D2000FFF7D1FE06213220FFF7CDFE40F204711D
:100D30003520FFF7C8FE41F604713620FFF7C3FEE9
:100D400004213720FFF7BFFE00213820FFF7BBFE4C
:100D500040F206713920FFF7B6FE40F201713C20E7
:100D6000FFF7B1FE0F213D20FFF7ADFE002150201F
:100D7000FFF7A9FEEF215120FFF7A5FE0021522029
:100D8000FFF7A1FE40F23F115320FFF79CFE4FF406
:100D90001C516020FFF797FE01216120FFF793FEB1
:100DA00000216A20FFF78FFE00218020FFF78BFED5
:100DB00000218120FFF787FE00218220FFF783FEBC
:100DC00000218320FFF77FFE00218420FFF77BFEB8
:100DD00000218520FFF777FE10219020FFF773FE9A
:100DE00000219220FFF76FFE03219320FFF76BFE97
:100DF0004FF488719520FFF766FE00219720FFF7DA
:100E000062FE00219820FFF75EFE41F218010320E8
:100E1000FFF759FE40F273110720FFF754FE00BDA3
:100E200008B54FF6FF70ADF8000003208DF8020002
:100E300010208DF8030069461F48FFF715FB08BD19
:100E400008B54FF6FF70ADF8000003208DF80200E2
:100E500048208DF8030069461748FFF705FB08BDD9
:100E600070B504464FF400701249086040100860E5
:100E70002020091F08601048C4602020091D086058
:100E8000091F0860C0000860FFF7DAFF4FF48060B8
:100E9000084908600848806885B20815091F08607D
:100EA000FFF7BEFF4FF400700249091F0860284693
:100EB00070BD0000140C01400010014008B5012174
:100EC0001820FFF78DFD01212020FFF789FD4FF449
:100ED000E460ADF8000001208DF8020010208DF8CC
:100EE00003006946F848FFF7BFFAFFF799FFF64895
:100EF0001030006840F4C460F3491031086008BD48
:100F000010B5FFF7DBFF0020FFF7AAFFEF490880CD
:100F10000846008848F23021884202D1FFF7EFFDF1
:100F200001E0FFF77CFE0020FFF79AFFE749088009
:100F300010BD01B5BDF80000E549088008BD01B548
:100F4000BDF80000E349088008BD30B504460D46F1
:100F500021462020FFF7B7FD29462120FFF7B3FDEA
:100F600030BD4FF40071D84A143211604910121F7D
:100F7000116020211160D849C8602021121D116024
:100F8000121F1160C90011604900116070474FF4D1
:100F90000070CD4914310860401008602020091FFE
:100FA00008602220CC49C8602020C749143108605D
:100FB000091F0860C00008604000086070472DE904
:100FC000F04306468946174600240025A046B04651
:100FD00049464046FFF7B9FF00BF1EE0FFF7D7FFC5
:100FE00000250FE037F814000121A940084020B97E
:100FF000B8480088FFF7B5FF03E0B5480088FFF761
:10100000B0FF6D1C102DEDD308F1010000F0FF08BA
:1010100049464046FFF799FF641C182CDED3BDE813
:10102000F08370B505460E461446A4F12000C4B204
:1010300004EB4400A94901EB001231462846FFF7B2
:10104000BEFF70BDF0B507460C46002540F23F16C6
:1010500009E0227831463846FFF7E3FFA6F1100099
:1010600086B2641C6D1C207808B1142DF1D3F0BD3C
:1010700010B504469AA12046FFF7E4FF10BD30B535
:101080000546002400210846FFF75FFFFFF77FFFBA
:1010900000BF03E02846FFF764FF641CB4F5963FE9
:1010A000F8D330BDF0B504460D4616461F46B4428F
:1010B00006DBA01B401C81B25020FFF704FD03E0BB
:1010C00000215020FFF7FFFC21465120FFF7FBFCD9
:1010D000BD4206DBE81B401C81B25220FFF7F3FC47
:1010E00003E000215220FFF7EEFC29465320FFF7D2
:1010F000EAFC29462046FFF728FFF0BD00B54FF473
:10110000A073F022591EEF20FFF7CCFF41F2180127
:101110000320FFF7D8FC00BD2DE9F04106468846C4
:1011200015461F46002441463046FFF70EFF5FB9C3
:10113000FFF72DFF00BF04E065480088FFF711FFAF
:10114000641CAC42F8D310E000240CE0FFF71FFF52
:101150005F480088FFF705FF701CC6B24146304665
:10116000FFF7F3FE641CAC42F0D3BDE8F081F0B5AC
:1011700005460E4617461C460023224631462846A1
:10118000FFF7CAFFE919C8B2002322463146FFF72C
:10119000C3FF01233A4631462846FFF7BDFF301B07
:1011A000401C81B201233A462846FFF7B5FFF0BD47
:1011B0002DE9F04306460F4690460320A0EB480970
:1011C000002445466EE07A1991B23219D0B2FFF789
:1011D000BCFEFFF7DCFE3E480088FFF7C2FE7A1B2C
:1011E00091B23219D0B2FFF7B0FEFFF7D0FE384807
:1011F0000088FFF7B6FE7A1991B2321BD0B2FFF722
:10120000A4FEFFF7C4FE32480088FFF7AAFE7A1B4F
:1012100091B2321BD0B2FFF798FEFFF7B8FE2C4810
:101220000088FFF79EFE3A1991B27219D0B2FFF70B
:101230008CFEFFF7ACFE26480088FFF792FE3A1BB3
:1012400091B27219D0B2FFF780FEFFF7A0FE2048DE
:101250000088FFF786FE3A1991B2721BD0B2FFF7F1
:1012600074FEFFF794FE1A480088FFF77AFE3A1BD7
:1012700091B2721BD0B2FFF768FEFFF788FE1448E8
:101280000088FFF76EFEB9F1000F04DA062000EBCC
:101290008400814405E0601B0A2101EB8000814449
:1012A0006D1E641CAC428ED9BDE8F08370B5064655
:1012B0000024002540F23F110020FFF746FEFFF713
:1012C00066FE00BF2DE00000000C01402C00002055
:1012D000280000202A00002000100140FE1600080F
:1012E00020202020202020202020202020202020FE
:1012F000202020200000000000250FE056F82400E8
:101300000121A940084020B95F480088FFF729FE65
:1013100003E05E480088FFF724FE6D1C202DEDD30E
:10132000641CB4F5166FE7D370BD70B50446002594
:1013300000266688A08846EA00466589A08945EAB5
:101340000045701B46082C4441F208010320FFF7BA
:10135000BAFBFFF71CFE002504E02088FFF701FE22
:10136000A41C6D1CB542F8D341F218010320FFF70D
:10137000AAFB70BD10B54FF40070454908604010DD
:1013800008602020091F086022204249C8602020F0
:101390003F490860091F0860C0000860FFF750FD62
:1013A0004FF480603A4908603A48806884B2081572
:1013B000091F0860FFF734FD4FF400703449091F1E
:1013C0000860204610BD00B500211020FFF77BFB10
:1013D00000211120FFF777FB00211220FFF773FB9C
:1013E00000211320FFF76FFB1420FFF75DFB41F294
:1013F000B0711020FFF767FB40F237111120FFF7A3
:1014000062FB0520FFF750FB40F239111220FFF775
:101410005AFB0520FFF748FB4FF4E8511320FFF774
:1014200052FB13212920FFF74EFB0520FFF73CFB61
:1014300040F273110720FFF746FB00BD00B540F2F4
:1014400073110720FFF73FFB00BD00B50021072007
:10145000FFF739FB00BD30B5054600210846FFF710
:1014600074FDFFF794FD002409E015F814206100D5
:10147000491C695C42EA0120FFF773FD641CB4F566
:10148000963FF2DB30BD00002A000020280000203B
:10149000140C0140001001406149086000BF604920
:1014A00009680029FBD170475E4800684FF47A72E2
:1014B000B0FBF2F1481EB0F1807F00D31BE0481E64
:1014C0004FF0E022506150170F22002807DA13076F
:1014D0001D0E554B00F00F04241F1D5503E013078C
:1014E0001C0E524B1C5400BF00204FF0E0229061B4
:1014F0000720106100BFC820FFF7CEFFFFF700FDF7
:101500001F20FFF7BCFD1F20FFF719FD4FF6FF70EE
:10151000FFF70FFD00234FF4A07219467820FFF764
:10152000FBFD0123F022A0210020FFF7F5FD4FF481
:101530007A70FFF7B1FF1F20FFF7A1FD64231A4661
:10154000D2214620FFF713FE4FF47A70FFF7A4FF75
:101550001F20FFF794FD3222A0217820FFF728FEFC
:101560004FF47A70FFF798FF1F20FFF788FD30A136
:101570006020FFF767FD4FF47A70FFF78DFF4FF69D
:10158000FF70FFF7DCFC2FA10020FFF75BFD0020C0
:10159000FFF7D5FC2BA11820FFF754FD4FF2DE70AA
:1015A000FFF7CDFC27A13020FFF74CFD1F20FFF7F0
:1015B000C6FC24A14820FFF745FD40F21F50FFF76D
:1015C000BEFC20A16020FFF73DFD4FF47840FFF7FF
:1015D000B6FC1CA17820FFF735FD4FF61F00FFF782
:1015E000AEFC18A19020FFF72DFD4FF4FC60FFF733
:1015F000A6FC14A1A820FFF725FD47F6FF70FFF712
:101600009EFC10A1C020FFF71DFD4FF6E070FFF714
:1016100096FC0CA1D820FFF715FD00BFFEE70000E7
:10162000300000200000002018ED00E000E400E0A1
:101630002020202048656C6C6F2C776F726C642EB4
:1016400020202000202020202020202020202020BA
:10165000202020202020202000000000704700BF14
:10166000FEE700BFFEE700BFFEE700BFFEE77047F2
:101670007047704702480068401E01490860704783
:1016800030000020704770477047754600F02CF816
:10169000AE4605006946534620F00700854618B05F
:1016A00020B5FEF77FFDBDE820404FF000064FF06B
:1016B00000074FF000084FF0000B21F00701AC4687
:1016C000ACE8C009ACE8C009ACE8C009ACE8C009A6
:1016D0008D46704710B50446AFF300802046BDE844
:1016E0001040FEF74ABD000000487047340000205B
:1016F00001491820ABBEFEE726000200704700003B
:1017000000000000000000000000000000000000D9
:1017100000000000000000000000000000000000C9
:1017200000000000000000000000000000000000B9
:1017300080018001800180018001800180018001A1
:101740008001800180018001800100000000800193
:101750008001000000000000000000000000000008
:101760000000CC00CC00CC00CC00CC00CC000000B1
:101770000000000000000000000000000000000069
:101780000000000000000000000000000000000059
:1017900000000000000000000000600C600C600C05
:1017A00030063006FE1FFE1F300638071803FE1FE6
:1017B000FE1F180318038C018C018C01000000002F
:1017C0008000E003F80F9C0E8C1C8C188C00980095
:1017D000F801E007800E801C8C188C189C18B80C3F
:1017E000F00FE00380008000000000000000000017
:1017F000000000000E181B0C110C1106110611033D
:1018000011039B018E01C038C06C604460443044B9
:1018100030441844186C0C38000000000000000030
:10182000E001F0033807180618063003F001F00055
:10183000F8009C310E33061E061C061C063FFC7386
:10184000F021000000000000000000000000000087
:1018500000000C000C000C000C000C000C00000040
:101860000000000000000000000000000000000078
:101870000000000000000000000000000000000068
:10188000000200038001C000C00060006000300062
:101890003000300030003000300030003000600098
:1018A0006000C000C00080010003000200000000D2
:1018B00020006000C00080018001000300030006DA
:1018C00000060006000600060006000600060003EB
:1018D000000380018001C0006000200000000000C3
:1018E00000000000000000000000C000C000D8069A
:1018F000F807E00130033807000000000000000096
:1019000000000000000000000000000000000000D7
:101910000000000000000000000080018001800144
:1019200080018001FC3FFC3F80018001800180013B
:101930008001000000000000000000000000000026
:101940000000000000000000000000000000000097
:101950000000000000000000000000000000000087
:1019600080018001000100018000000000000000F3
:101970000000000000000000000000000000000067
:10198000000000000000E007E00700000000000089
:101990000000000000000000000000000000000047
:1019A0000000000000000000000000000000000037
:1019B0000000000000000000000000000000000027
:1019C000C000C00000000000000000000000000097
:1019D000000C000C000600060006000300030003D4
:1019E0008003800180018001C000C000C000600051
:1019F0006000000000000000000000000000000087
:101A0000E003F007380E180C0C180C180C180C1802
:101A10000C180C180C180C180C18180C380EF007B1
:101A2000E0030000000000000000000000000000D3
:101A300000018001C001F00198018801800180014E
:101A4000800180018001800180018001800180018E
:101A50008001000000000000000000000000000005
:101A6000E003F80F180C0C180C1800180018000CE4
:101A7000000600038001C000600030001800FC1F59
:101A8000FC1F00000000000000000000000000003B
:101A9000E001F807180E0C0C0C0C000C0006C0033B
:101AA000C007000C001800180C180C18180CF807C8
:101AB000E003000000000000000000000000000043
:101AC000000C000E000F000F800DC00C600C600CAD
:101AD000300C180C0C0CFC3FFC3F000C000C000CF4
:101AE000000C0000000000000000000000000000EA
:101AF000F80FF80F180018000C00EC03FC071C0E80
:101B0000001C0018001800180C181C0C180EF80700
:101B1000E0030000000000000000000000000000E2
:101B2000C007F00F381C181818000C00CC03EC0F7D
:101B30003C0E1C1C0C180C180C18181C380EF00746
:101B4000E0030000000000000000000000000000B2
:101B5000FC1FFC1F000C0006000600038003800130
:101B6000C001C000E0006000600070003000300084
:101B70003000000000000000000000000000000035
:101B8000E003F007380E180C180C180C3806F00794
:101B9000F007180C0C180C180C180C18380CF80F4F
:101BA000E003000000000000000000000000000052
:101BB000E003F007380E1C0C0C180C180C181C1C39
:101BC000381EF81BE0190018000C000C1C0EF8075A
:101BD000F001000000000000000000000000000014
:101BE00000000000000000000000800180010000F3
:101BF0000000000000000000000000000000800164
:101C00008001000000000000000000000000000053
:101C100000000000000000000000800180010000C2
:101C20000000000000000000000000000000800133
:101C300080010001000180000000000000000000A1
:101C40000000000000000000000000000000001084
:101C5000001C800FE003F8001800F800E003800F7C
:101C6000001C001000000000000000000000000048
:101C70000000000000000000000000000000F81F4D
:101C8000000000000000F81F00000000000000003D
:101C90000000000000000000000000000000000044
:101CA000000000000000000000000000000008002C
:101CB0003800F001C007001F0018001FC007F00126
:101CC00038000800000000000000000000000000D4
:101CD000E003F80F180C0C180C180018000C000684
:101CE00000038001C000C000C00000000000C00070
:101CF000C000000000000000000000000000000024
:101D00000000E00718180420C229224A114409449F
:101D10000944094409221113E20C02400420181856
:101D2000E0070000000000000000000000000000CC
:101D300080038003C006C006C006600C600C30182B
:101D400030183018F83FF83F1C700C600C6006C06B
:101D500006C00000000000000000000000000000BD
:101D6000FC03FC0F0C0C0C180C180C180C0CFC07CA
:101D7000FC0F0C180C300C300C300C300C18FC1F05
:101D8000FC07000000000000000000000000000050
:101D9000C007F01F38381C300C70066006000600C3
:101DA000060006000600060006600C701C30F01FDE
:101DB000E00700000000000000000000000000003C
:101DC000FE03FE0F060E0618061806300630063013
:101DD000063006300630063006180618060EFE0FCE
:101DE000FE030000000000000000000000000000F2
:101DF000FC3FFC3F0C000C000C000C000C00FC1F16
:101E0000FC1F0C000C000C000C000C000C00FC3F34
:101E1000FC3F000000000000000000000000000087
:101E2000F83FF83F18001800180018001800F81FB5
:101E3000F81F1800180018001800180018001800E3
:101E4000180000000000000000000000000000007A
:101E5000E00FF83F3C780E6006E007C00300030087
:101E600003FE03FE03C007C006C00EC03CF0F83FEF
:101E7000E00F000000000000000000000000000073
:101E80000C300C300C300C300C300C300C30FC3F73
:101E9000FC3F0C300C300C300C300C300C300C3063
:101EA0000C300000000000000000000000000000F6
:101EB000800180018001800180018001800180011A
:101EC000800180018001800180018001800180010A
:101ED0008001000000000000000000000000000081
:101EE00000060006000600060006000600060006C2
:101EF0000006000600060006180618063807F0035C
:101F0000E0010000000000000000000000000000F0
:101F100006300618060C060606038601C600660093
:101F20007600DE008E0106030606060C0618063053
:101F3000066000000000000000000000000000003B
:101F400018001800180018001800180018001800D1
:101F50001800180018001800180018001800F81FC2
:101F6000F81F00000000000000000000000000005A
:101F70000EE01EF01EF01EF036D836D836D836D811
:101F800066CC66CC66CCC6C6C6C6C6C6C6C686C342
:101F900086C30000000000000000000000000000F8
:101FA0000C301C303C303C306C306C30CC30CC30A1
:101FB0008C310C330C330C360C360C3C0C3C0C388E
:101FC0000C300000000000000000000000000000D5
:101FD000E007F81F1C380E70066003C003C003C082
:101FE00003C003C003C003C006600E701C38F81F96
:101FF000E0070000000000000000000000000000FA
:10200000FC0FFC1F0C380C300C300C300C300C1852
:10201000FC1FFC070C000C000C000C000C000C005A
:102020000C000000000000000000000000000000A4
:10203000E007F81F1C380E70066003E003C003C001
:1020400003C003C003C007E006630E3F1C3CF83F1B
:10205000E0F700C0000000000000000000000000E9
:10206000FE0FFE1F06380630063006300638FE1F0B
:10207000FE0706030606060C06180618063006308C
:1020800006600000000000000000000000000000EA
:10209000E003F80F1C0C0C180C180C001C00F803C3
:1020A000E00F001E0038063006300E301C1CF80F02
:1020B000E007000000000000000000000000000039
:1020C000FE7FFE7F80018001800180018001800110
:1020D00080018001800180018001800180018001F8
:1020E000800100000000000000000000000000006F
:1020F0000C300C300C300C300C300C300C300C3000
:102100000C300C300C300C300C300C301818F81F20
:10211000E0070000000000000000000000000000D8
:1021200003600630063006300C180C180C18180C1A
:10213000180C380E30063006700760036003C001CB
:10214000C0010000000000000000000000000000CE
:102150000360C361C361C36166336633663366334C
:10216000663366336C1B6C1B6C1B2C1A3C1E380EC2
:10217000380E000000000000000000000000000019
:102180000FE00C7018303018700C600EC007800320
:102190008003C003E006700C301C18180C300E6071
:1021A00007E0000000000000000000000000000048
:1021B00003C006600C301C383818300C6006E0078D
:1021C000C0038001800180018001800180018001C5
:1021D000800100000000000000000000000000007E
:1021E000FC7FFC7F006000300018000C000600033C
:1021F0008001C0006000300018000C000600FE7F67
:10220000FE7F000000000000000000000000000051
:10221000E003E003600060006000600060006000B8
:1022200060006000600060006000600060006000AE
:102230006000600060006000E003E0030000000058
:1022400030003000600060006000C000C000C000CE
:10225000C00180018001800100030003000300062B
:102260000006000000000000000000000000000068
:10227000E003E00300030003000300030003000386
:102280000003000300030003000300030003000336
:102290000003000300030003E003E003000000006C
:1022A0000000C001C0016003600360033006300617
:1022B000180C180C000000000000000000000000D6
:1022C000000000000000000000000000000000000E
:1022D00000000000000000000000000000000000FE
:1022E00000000000000000000000000000000000EE
:1022F000FFFFFFFF000000000000000000000000E2
:102300000C000C000C000C000C000C000000000085
:1023100000000000000000000000000000000000BD
:1023200000000000000000000000000000000000AD
:1023300000000000000000000000F003F8071C0C83
:102340000C0C000FF00FF80C0C0C0C0C1C0FF80F01
:10235000F018000000000000000000000000000075
:1023600018001800180018001800D803F80F380CCF
:10237000181818181818181818181818380CF80FF2
:10238000D803000000000000000000000000000072
:1023900000000000000000000000C003F007300E45
:1023A000180C1800180018001800180C300EF00750
:1023B000C00300000000000000000000000000005A
:1023C00000180018001800180018C01BF01F301C5F
:1023D000181818181818181818181818301CF01F82
:1023E000C01B000000000000000000000000000012
:1023F00000000000000000000000C003F00F300CDF
:102400001818F81FF81F180018003818301CF00FA3
:10241000C0070000000000000000000000000000F5
:10242000800FC00FC000C000C000F007F007C00060
:10243000C000C000C000C000C000C000C000C0009C
:10244000C0000000000000000000000000000000CC
:1024500000000000000000000000E00DF80F180E62
:102460000C0C0C0C0C0C0C0C0C0C0C0C180EF80FAF
:10247000E00D000C0C0C1C06F807F0010000000039
:1024800018001800180018001800D807F80F381C9A
:1024900018181818181818181818181818181818BC
:1024A00018180000000000000000000000000000FC
:1024B000C000C000000000000000C000C000C0005C
:1024C000C000C000C000C000C000C000C000C0000C
:1024D000C00000000000000000000000000000003C
:1024E000C000C000000000000000C000C000C0002C
:1024F000C000C000C000C000C000C000C000C000DC
:10250000C000C000C000C000F8007800000000005B
:102510000C000C000C000C000C000C0C0C060C0346
:102520008C01CC006C00FC009C018C030C030C069D
:102530000C0C000000000000000000000000000083
:10254000C000C000C000C000C000C000C000C0008B
:10255000C000C000C000C000C000C000C000C0007B
:10256000C0000000000000000000000000000000AB
:10257000000000000000000000007C3CFF7EC7E37C
:1025800083C183C183C183C183C183C183C183C12B
:1025900083C10000000000000000000000000000F7
:1025A000000000000000000000009807F80F381C31
:1025B000181818181818181818181818181818189B
:1025C00018180000000000000000000000000000DB
:1025D00000000000000000000000C003F00F300CFD
:1025E000181818181818181818181818300CF00F90
:1025F000C003000000000000000000000000000018
:1026000000000000000000000000D803F80F380CA4
:10261000181818181818181818181818380CF80F4F
:10262000D803180018001800180018000000000057
:1026300000000000000000000000C01BF01F301C64
:10264000181818181818181818181818301CF01F0F
:10265000C01B001800180018001800180000000027
:1026600000000000000000000000B007F003700050
:1026700030003000300030003000300030003000DA
:10268000300000000000000000000000000000001A
:1026900000000000000000000000E003F003380E1E
:1026A000180C3800F003C007000C180C380EF007A7
:1026B000E003000000000000000000000000000037
:1026C00000008000C000C000C000F007F007C0009C
:1026D000C000C000C000C000C000C000C000C007F3
:1026E0008007000000000000000000000000000063
:1026F000000000000000000000001818181818184A
:10270000181818181818181818181818381CF01F46
:10271000E0190000000000000000000000000000C0
:10272000000000000000000000000C18180C180C3D
:10273000180C300630063006600360036003C001E9
:10274000C0010000000000000000000000000000C8
:1027500000000000000000000000C141C141C36151
:102760006363636363633636363636361C1C1C1C63
:102770001C1C000000000000000000000000000021
:10278000000000000000000000001C38381C300C65
:10279000600660036003600360036006300C381C51
:1027A0001C380000000000000000000000000000D5
:1027B0000000000000000000000018303018301841
:1027C0007018600C600CE00CC006C006800380032B
:1027D000800380018001C001F00070000000000053
:1027E00000000000000000000000FC1FFC1F000CA7
:1027F000000600038001C000600030001800FC1FCC
:10280000FC1F0000000000000000000000000000AD
:1028100000038001C000C000C000C000C000C000B4
:1028200060006000300060004000C000C000C000D8
:10283000C000C000C00080010003000000000000D4
:102840008001800180018001800180018001800180
:102850008001800180018001800180018001800170
:102860008001800180018001800180010000000062
:102870006000C000C00180018001800180018001F2
:1028800000030003000600030001800180018001B5
:10289000800180018001C000600000000000000095
:1028A0000000000000000000000000000000F01028
:1028B000F81F080F000000000000000000000000EA
:1028C0000000000000000000000000000000000008
:1028D000F028000800000020340000002801000853
:1028E0002429000834000020640600004401000888
:1028F00000A24A04000000000000000001020304DE
:102900000607080900000000010203040102030495
:1029100006070809020406080000FFFF0000000087
:0429200000000000B3
:04000005080000ED02
:00000001FF
