:020000040800F2
:10000000B806002091010008611900086319000872
:10001000671900086B1900086F190008000000003C
:10002000000000000000000000000000751900083A
:1000300073190008000000007719000879190008FA
:10004000AB010008AB010008AB010008AB010008E0
:10005000AB010008AB010008AB010008AB010008D0
:10006000AB010008AB010008AB010008AB010008C0
:10007000AB010008AB010008AB010008AB010008B0
:10008000AB010008AB010008AB010008AB010008A0
:10009000AB010008AB010008AB010008AB01000890
:1000A000AB010008AB010008AB010008AB01000880
:1000B000AB010008AB010008AB010008AB01000870
:1000C000AB010008AB010008AB010008AB01000860
:1000D000AB010008AB010008AB010008AB01000850
:1000E000AB010008AB010008AB01000800F002F80A
:1000F00000F03FF80AA090E8000C82448344AAF183
:100100000107DA4501D100F034F8AFF2090EBAE880
:100110000F0013F0010F18BFFB1A43F0010318473B
:10012000802F0000A02F0000103A24BF78C878C1AB
:10013000FAD8520724BF30C830C144BF04680C60ED
:10014000704700000023002400250026103A28BF35
:1001500078C1FBD8520728BF30C148BF0B60704739
:10016000642901F01985002070471FB51FBD10B527
:1001700010BD01F062FE1146FFF7F7FF01F080FBB2
:1001800001F080FE03B4FFF7F2FF03BC01F088FE2C
:100190000948804709480047FEE7FEE7FEE7FEE71B
:1001A000FEE7FEE7FEE7FEE7FEE7FEE70448054957
:1001B000054A064B70470000AF020008ED0000083A
:1001C000B8000020B8060020B8020020B8020020C5
:1001D0000CB50020019000906C48006840F480301D
:1001E0006A49086000BF6948006800F40030009068
:1001F0000198401C0190009818B90198B0F5A06FC3
:10020000F1D16248006800F4003010B10120009084
:1002100001E0002000900098012843D15C4800686C
:1002200040F010005A4908600846006820F00300BA
:1002300008600846006840F00200086053484068C3
:10024000524948600846406848600846406840F4A3
:10025000806048600846406820F47C10486008468A
:10026000406840F4E81048600846006840F080703C
:10027000086000BF4548006800F000700028F9D011
:100280004248406820F00300404948600846406802
:1002900040F00200486000BF3C48406800F00C009D
:1002A0000828F9D10CBD10B5FFF792FF10BD10B5AD
:1002B0003648006840F0010034490860084640684C
:1002C00034490840314948600846006832490840CE
:1002D0002E4908600846006820F48020086008461F
:1002E000406820F4FE0048604FF41F008860FFF76C
:1002F000DAFF4FF000602949086010BD10B50021F9
:1003000000200022214B5B6803F00C0121B104297D
:1003100006D0082928D107E0214B224C236027E092
:100320001F4B204C236023E0184B5B6803F47010D4
:10033000164B5B6803F48032022303EB904022B932
:10034000194B4343174C23600DE0104B5B6803F4DB
:10035000003323B1144B4343124C236003E0104B92
:100360004343104C236003E00D4B0E4C236000BF51
:1003700000BF064B5B68C3F303130C4CE15C094BF5
:100380001B68CB40074C236010BD000000100240EA
:10039000002002400000FFF8FFFFF6FE08ED00E03D
:1003A00000127A000000002000093D000400002037
:1003B00031490143314A1160704770B50021002373
:1003C0000F22C47804B32D4C246804F4E064C4F50F
:1003D000E064210AC1F10403CA40447804FA03F13D
:1003E0008478144021430901254C0678A1550478EE
:1003F00004F01F050124AC4005786D11AD0005F136
:10040000E025C5F8004109E0047804F01F05012447
:10041000AC401C4D0678761145F8264070BD1A4A4E
:100420000A400243154B1B1F1A60704739B1134A2B
:10043000121D12680243114B1B1D1A6006E00F4A81
:10044000121D126882430D4B1B1D1A607047042851
:1004500008D14FF0E021096941F004014FF0E0229A
:10046000116107E04FF0E021096921F004014FF02C
:10047000E0221161704700000000FA050CED00E079
:1004800000E400E080E100E080FFFF1F10B50446BB
:10049000CC48844208D10121042000F02DFB00212A
:1004A000042000F029FB46E0C748844208D101211E
:1004B000082000F021FB0021082000F01DFB3AE09D
:1004C000C248844208D10121102000F015FB002110
:1004D000102000F011FB2EE0BD48844208D101211C
:1004E000202000F009FB0021202000F005FB22E085
:1004F000B848844208D10121402000F0FDFA0021D3
:10050000402000F0F9FA16E0B348844208D10121F6
:10051000802000F0F1FA0021802000F0EDFA0AE0DE
:10052000AE48844207D10121801500F0E5FA002190
:10053000A01500F0E1FA10BD10B50121084600F049
:10054000DBFA0021012000F0D7FA10BD2DE9F041BF
:10055000024600250026002000230024002791F8F1
:1005600003C00CF00F0591F803C00CF0100CBCF1A7
:10057000000F03D091F802C04CEA050591F800C0C5
:10058000BCF1000F31D0146800202BE04FF0010CBB
:100590000CFA00F3B1F800C00CEA03069E4220D129
:1005A00083004FF00F0C0CFA03F7BC4305FA03FC71
:1005B0004CEA040491F803C0BCF1280F06D14FF0B7
:1005C000010C0CFA00FCC2F814C00AE091F803C058
:1005D000BCF1480F05D14FF0010C0CFA00FCC2F839
:1005E00010C0401C0828D1D31460B1F800C0BCF181
:1005F000FF0F34DD546800202EE000F1080C4FF0AE
:10060000010808FA0CF3B1F800C00CEA03069E4298
:1006100021D183004FF00F0C0CFA03F7BC4305FA0D
:1006200003FC4CEA040491F803C0BCF1280F05D187
:1006300000F1080C08FA0CF8C2F8148091F803C015
:10064000BCF1480F07D100F1080C4FF0010808FA7F
:100650000CF8C2F81080401C0828CED35460BDE8C6
:10066000F0814FF6FF710180022181700421C17079
:1006700070470246002093680B400BB1012000E058
:10068000002070470146886880B27047024600200B
:10069000D3680B400BB1012000E0002070470146F9
:1006A000C86880B2704701617047416170470AB104
:1006B000016100E041617047C16070474FF48032D2
:1006C0000A43826181618261826982697047024660
:1006D0000020434B18684FF68073184040EA021020
:1006E00008433F4B186070473E49C8617047F0B5FA
:1006F0000A46002300240021002500F00046B6F140
:10070000004F02D1364EF16901E0354E7168C0F3F9
:10071000034583B200F44016B6F5401F08D121F01E
:1007200070612F4E766826F070662D4F7E6012E065
:1007300000F48016B6F5801F06D1032606FA05F4EC
:10074000A14341F0706106E0460D360103FA06F65A
:10075000B14341F0706122B1460D360103FA06F64D
:10076000314300F00046B6F1004F02D11C4EF1615A
:1007700001E01B4E7160F0BD30B500228B071C0FED
:100780000F2303FA04F2164B08338C1053F824306D
:100790009343134C08348D1044F8253023468C10B5
:1007A00053F824308C07240F00FA04F423430C4C34
:1007B00008348D1044F8253030BD0A49DC3108601A
:1007C0007047000000080140000C0140001001408B
:1007D0000014014000180140001C014000200140AD
:1007E0000000014000002042DF48006840F00100A6
:1007F000DD49086008464068DC490840DA4948603D
:1008000008460068DA490840D74908600846006889
:1008100020F4802008600846406820F4FE0048600C
:100820004FF41F0088607047CF49096821F4803178
:10083000CD4A11601146096821F480211160B0F59C
:10084000803F03D0B0F5802F0ED106E0C64909687D
:1008500041F48031C44A116007E0C349096841F49A
:10086000A021C14A116000E000BF00BF704710B571
:1008700001460022002300204A11012A02D1BA4C6D
:10088000236806E0022A02D1B74C236A01E0B64C85
:10089000636A01F01F02012494401C400CB1012046
:1008A00000E0002010BD38B5002000900024002595
:1008B00000BF3120FFF7DBFF05460098401C009089
:1008C0000098B0F5A06F01D0002DF2D03120FFF7D5
:1008D000CEFF08B1012400E00024204638BD0146C7
:1008E0000020A14A106820F0F80040EAC100106022
:1008F0007047A04908607047024600209A4B58682C
:1009000020F47C1042EA01031843974B586070476B
:1009100098490866704701460020934A506820F0C5
:1009200003000843506070478F48406800F00C0097
:100930007047014600208C4A506820F0F0000843C0
:100940005060704701460020874A506820F4E060FC
:1009500008435060704701460020834A506820F4E5
:10096000605040EAC1005060704729B17E4A527A17
:1009700002437D4B5A7204E07B4A527A82437A4B9F
:100980005A7270477B49D831086070470146002091
:10099000754A506820F44040084350607047002179
:1009A000714A20321170704A82F82010012802D05A
:1009B00004280AD104E001216B4A2032117005E0BD
:1009C0000521694A2032117000E000BF00BF704766
:1009D0006949086070476449096A0143624A1162C3
:1009E0007047654944390860704730B500210022DE
:1009F000002400235C4D6D6805F00C0121B1042931
:100A000005D0082923D105E05C4D056022E05B4D4F
:100A100005601FE0544D6D6805F47012524D6D680D
:100A200005F48034022505EB92421CB9544D554320
:100A300005600BE04C4D6D6805F400351DB1504D5F
:100A40005543056002E04D4D5543056002E04B4DB6
:100A5000056000BF00BF444D6D6805F0F001090955
:100A6000484D6B5C0568DD4045603F4D6D6805F4A1
:100A7000E061090A434D6B5C4568DD4085603A4D95
:100A80006D6805F46051C90A3E4D6B5C4568DD40F8
:100A9000C560354D6D6805F44041890B3A4D6B5C7E
:100AA000C568B5FBF3F5056130BD29B12E4A526921
:100AB00002432D4B5A6104E02B4A526982432A4B70
:100AC0005A61704729B1284A92690243264B9A61BC
:100AD00004E0254A92698243234B9A61704729B109
:100AE000214AD2690243204BDA6104E01E4AD269EE
:100AF00082431D4BDA61704729B11B4AD268024319
:100B0000194BDA6004E0184AD2688243164BDA6067
:100B1000704729B1144A12690243134B1A6104E069
:100B2000114A12698243104B1A61704712494039C9
:100B3000086070470F49C86470470B49C871704717
:100B40000948406A40F08070074948627047014692
:100B50000020054A92680A400AB1012000E0002006
:100B60007047014988727047001002400000FFF88A
:100B7000FFFFF6FE000042428004424200127A006B
:100B800000093D00140000202400002029B1504A33
:100B9000128802434E4B1A8004E04D4A1288824369
:100BA0004B4B1A8070474A48001D008840F01000E7
:100BB0004749091D088070474548001D00884FF6C9
:100BC000EF7108404249091D0880704700214048E4
:100BD0001C300188001F008841EA0040704700B5C2
:100BE0000246FFF7E0FF100C394918310880091D53
:100BF0000A80FFF7E1FF00BD00B50246FFF7D3FF13
:100C0000C2F30340324908310880091D0A80FFF70A
:100C1000D3FF00BD00B50246FFF7C5FF100C2C49FD
:100C200020310880091D0A80FFF7C6FF00BD0020A3
:100C30002749103109880907080B2549143109880B
:100C40000843704700BF2248001D008800F02000C4
:100C50000028F8D070471E48001D00884FF6F77135
:100C600008401B49091D088000BF1948001D008865
:100C700000F008000028F8D0704701460020144A10
:100C8000121D12880A400AB1012000E000207047BE
:100C90000F49091D098881430D4A121D11807047B3
:100CA000014600200A4A121D12880A40D0B2084AA2
:100CB00012880A4012B108B1012000E000207047FC
:100CC0000349091D09888143014A121D118070479B
:100CD0000028004010B50120FFF728FF0020FFF793
:100CE00025FF10BD2A49086070472949091F08607F
:100CF0007047274984310860704701460020254A23
:100D000010884FF67F4210400843224A10807047F7
:100D1000014600201F4A10884FF680721040084399
:100D20001C4A1080704708B500220092194A2C3ADC
:100D30000092009A02440092009A116008BD08B522
:100D400001460020009013482C3800900098084479
:100D500000900098008808BD0D489C300068C0B223
:100D600070470C480830008840F0010009490831FC
:100D7000088070470648A0300068C0B27047054838
:100D80000830008840F002000249083108807047AE
:100D900004860D422C6C004010B501210807FFF7B6
:100DA000B8FE00214FF08050FFF7B3FE10BD2A4976
:100DB0000862704728490861704701460020274AA9
:100DC000106820F0E0000843106070472249A0310D
:100DD0000860704710B502460020204B186820F0CC
:100DE0000300104318601E4B1B6843F004031C4CA7
:100DF0002360012901D130BF00E020BF184B1B68E0
:100E000023F00403164C236010BD1448006840F022
:100E10000400124908600846006840F002000860BB
:100E20000F48006840F004000D49086000BF00BF93
:100E300030BF704701460020084A52680A400AB194
:100E4000012000E0002070470449096841EA800160
:100E5000024A11607047000000000E42007000401E
:100E600010ED00E0002109E0002201E0531C9AB2DD
:100E700040F6B8339A42F9DB4B1C99B28142F3DB5E
:100E8000704710B5FD4BDB689AB24FF40073FC4C11
:100E900023605B1023602023241F2360F74BD8605E
:100EA0002023241D2360241F2360DB002360F34BD9
:100EB000D9602023241D2360241F2360DB002360CE
:100EC000EE4BDA6010BD00B501210020FFF7D9FF1D
:100ED0004FF47A70FFF7C6FF00210120FFF7D1FF22
:100EE00041F290711020FFF7CCFF4FF41C516020AD
:100EF000FFF7C7FF01216120FFF7C3FF0221462052
:100F0000FFF7BFFF48F210011320FFF7BAFF48F2C6
:100F1000FE011220FFF7B5FF4FF4A0610220FFF79A
:100F2000B0FF41F230010320FFF7ABFF40F2033185
:100F30003020FFF7A6FF40F203313120FFF7A1FF79
:100F400040F203313220FFF79CFF4FF44071332011
:100F5000FFF797FF03213420FFF793FF40F203319F
:100F60003520FFF78EFF14213620FFF78AFF40F26D
:100F700003313720FFF785FF40F203313820FFF7B8
:100F800080FF40F203313920FFF77BFF4FF44071BF
:100F90003A20FFF776FF03213B20FFF772FF40F274
:100FA00003313C20FFF76DFF4FF4A0513D20FFF7C8
:100FB00068FF4FF400719220FFF763FF40F20331A6
:100FC0009320FFF75EFF40F60D019020FFF759FFD9
:100FD00041F218010320FFF754FF40F2731107207C
:100FE000FFF74FFF00BD00B543F20801E320FFF714
:100FF00048FF1221E720FFF744FF41F23121EF20A3
:10100000FFF73FFF00210120FFF73BFF4FF4E061B6
:101010000220FFF736FF41F230010320FFF731FFD6
:1010200000210420FFF72DFF40F207210820FFF7E1
:1010300028FF00210920FFF724FF00210A20FFF7E5
:1010400020FF00210C20FFF71CFF00210D20FFF7DF
:1010500018FF00210F20FFF714FF00211020FFF7D9
:1010600010FF07211120FFF70CFF00211220FFF7CE
:1010700008FF00211320FFF704FF4FF47A70FFF7F9
:10108000F1FE41F290611020FFF7FBFE40F22721B4
:101090001120FFF7F6FE3220FFF7E4FE1D2112209B
:1010A000FFF7EFFE3220FFF7DDFE4FF40061132063
:1010B000FFF7E7FE14212920FFF7E3FE0B212B2089
:1010C000FFF7DFFE3220FFF7CDFE00212020FFF7E3
:1010D000D8FE00212120FFF7D4FE07213020FFF7A2
:1010E000D0FE40F207713120FFF7CBFE06213220FF
:1010F000FFF7C7FE40F204713520FFF7C2FE41F64C
:1011000004713620FFF7BDFE04213720FFF7B9FE3A
:1011100000213820FFF7B5FE40F206713920FFF7B5
:10112000B0FE40F201713C20FFF7ABFE0F213D20E5
:10113000FFF7A7FE00215020FFF7A3FEEF2151206B
:10114000FFF79FFE00215220FFF79BFE40F23F1168
:101150005320FFF796FE4FF41C516020FFF791FEDD
:1011600001216120FFF78DFE00216A20FFF789FE33
:1011700000218020FFF785FE00218120FFF781FEFE
:1011800000218220FFF77DFE00218320FFF779FEFA
:1011900000218420FFF775FE00218520FFF771FEF6
:1011A00010219020FFF76DFE00219220FFF769FECD
:1011B00003219320FFF765FE4FF488719520FFF718
:1011C00060FE00219720FFF75CFE00219820FFF7CA
:1011D00058FE41F218010320FFF753FE40F273114D
:1011E0000720FFF74EFE00BD08B54FF6FF70ADF8C3
:1011F000000003208DF8020010208DF803006946DE
:101200001E48FFF7A3F908BD08B54FF6FF70ADF80B
:10121000000003208DF8020048208DF80300694685
:101220001648FFF793F908BD70B504464FF40070F7
:1012300013490860401008602020091F08600F480B
:10124000C4602020091D0860091F0860C0000860F4
:10125000FFF7DAFF4FF480600949086007488068AB
:1012600085B20815091F0860FFF7BEFF4FF4007034
:101270000349091F0860284670BD000000100140A6
:10128000140C014008B501211820FFF71BFC0121B7
:101290002020FFF717FC4FF4E460ADF800000120B8
:1012A0008DF8020010208DF803006946F648FFF71C
:1012B0004DF9FFF799FFF4481030006840F4C4601E
:1012C000F1491031086008BD10B5FFF7DBFF0020C1
:1012D000FFF7AAFFED4908800846008848F2302150
:1012E000884202D1FFF7EFFD01E0FFF77CFE00200E
:1012F000FFF79AFFE549088010BD01B5BDF8000071
:10130000E349088008BD01B5BDF80000E149088047
:1013100008BD30B504460D4621462020FFF7B1FD3B
:1013200029462120FFF7ADFD30BDDB4AD26891B2DE
:101330004FF40072D44B14331A6052101B1F1A6002
:1013400020221A60D44AD06020221B1D1A601B1F65
:101350001A60D2001A6052001A60CF4AD1607047FA
:10136000CD49C96888B24FF40071C74A1432116080
:10137000491011602021121F11602221C64AD1603C
:101380002021C14A14321160121F1160C90011607E
:1013900049001160C049C86070472DE9F043064616
:1013A0008946174600240025A046B04649464046D7
:1013B000FFF7AFFF00BF1EE0FFF7D2FF00250FE0F1
:1013C00037F814000121A940084020B9B14800882D
:1013D000FFF7ABFF03E0AE480088FFF7A6FF6D1CE8
:1013E000102DEDD308F1010000F0FF0849464046FA
:1013F000FFF78FFF641C182CDED3BDE8F08370B5B7
:1014000005460E461446A4F12000C4B204EB440085
:10141000A24901EB001231462846FFF7BEFF70BD1E
:10142000F0B507460C46002540F23F1609E0227849
:1014300031463846FFF7E3FFA6F1100086B2641C80
:101440006D1C207808B1142DF1D3F0BD10B5044601
:1014500093A12046FFF7E4FF10BD30B505460024F8
:1014600000210846FFF755FFFFF77AFF00BF03E0B2
:101470002846FFF75AFF641CB4F5963FF8D330BDF9
:10148000F0B504460D4616461F46B44206DBA01BC7
:10149000401C81B25020FFF7F4FC03E000215020F3
:1014A000FFF7EFFC21465120FFF7EBFCBD4206DBC6
:1014B000E81B401C81B25220FFF7E3FC03E000214F
:1014C0005220FFF7DEFC29465320FFF7DAFC2946BD
:1014D0002046FFF71EFFF0BD00B54FF4A073F022C9
:1014E000591EEF20FFF7CCFF41F218010320FFF750
:1014F000C8FC00BD2DE9F0410646884615461F464A
:10150000002441463046FFF704FF5FB9FFF728FF8C
:1015100000BF04E05E480088FFF707FF641CAC4290
:10152000F8D310E000240CE0FFF71AFF58480088B9
:10153000FFF7FBFE701CC6B241463046FFF7E9FEDE
:10154000641CAC42F0D3BDE8F081F0B505460E4610
:1015500017461C460023224631462846FFF7CAFF9D
:10156000E919C8B2002322463146FFF7C3FF012321
:101570003A4631462846FFF7BDFF301B401C81B27A
:1015800001233A462846FFF7B5FFF0BD2DE9F043A9
:1015900006460F4690460320A0EB48090024454626
:1015A0006EE07A1991B23219D0B2FFF7B2FEFFF7AE
:1015B000D7FE37480088FFF7B8FE7A1B91B2321980
:1015C000D0B2FFF7A6FEFFF7CBFE31480088FFF749
:1015D000ACFE7A1991B2321BD0B2FFF79AFEFFF738
:1015E000BFFE2B480088FFF7A0FE7A1B91B2321B8A
:1015F000D0B2FFF78EFEFFF7B3FE25480088FFF755
:1016000094FE3A1991B27219D0B2FFF782FEFFF739
:10161000A7FE1F480088FFF788FE3A1B91B2721997
:10162000D0B2FFF776FEFFF79BFE19480088FFF760
:101630007CFE3A1991B2721BD0B2FFF76AFEFFF737
:101640008FFE13480088FFF770FE3A1B91B2721BA1
:10165000D0B2FFF75EFEFFF783FE0D480088FFF76C
:1016600064FEB9F1000F04DA062000EB8400814427
:1016700005E0601B0A2101EB800081446D1E641CA3
:10168000AC428ED9BDE8F083000C01402C00002054
:10169000280000202A00002000100140BC1E000885
:1016A000202020202020202020202020202020203A
:1016B000202020200000000070B5064600240025F0
:1016C00040F23F110020FFF724FEFFF749FE00BF64
:1016D00014E000250FE056F824000121A94008403D
:1016E00020B95F480088FFF720FE03E05D480088CE
:1016F000FFF71BFE6D1C202DEDD3641CB4F5166F97
:10170000E7D370BD70B50446002500266688A08822
:1017100046EA00466589A08945EA0045701B4608EF
:101720002C4441F208010320FFF7ABFBFFF718FE42
:10173000002504E02088FFF7F8FDA41C6D1CB542CD
:10174000F8D341F218010320FFF79BFB70BD10B5E1
:101750004FF4007044490860401008602020091FC1
:10176000086022204149C86020203F490860091FC5
:101770000860C0000860FFF747FD4FF480603A49F9
:1017800008603A48806884B20815091F0860FFF7AE
:101790002BFD4FF400703449091F0860204610BD2E
:1017A00000B500211020FFF76CFB00211120FFF78E
:1017B00068FB00211220FFF764FB00211320FFF7D4
:1017C00060FB1420FFF74EFB41F2B0711020FFF7D1
:1017D00058FB40F237111120FFF753FB0520FFF7AC
:1017E00041FB40F239111220FFF74BFB0520FFF7B8
:1017F00039FB4FF4E8511320FFF743FB1321292055
:10180000FFF73FFB0520FFF72DFB40F27311072088
:10181000FFF737FB00BD00B540F273110720FFF75B
:1018200030FB00BD00B500210720FFF72AFB00BDFB
:1018300030B5054600210846FFF76BFDFFF790FD28
:10184000002409E015F814206100491C695C42EA93
:101850000120FFF76AFD641CB4F5963FF2DB30BD52
:101860002A00002028000020140C01400010014034
:101870002D49086000BF2C4909680029FBD1704739
:1018800008B54FF4E060FEF793FD284800684FF478
:101890007A72B0FBF2F1481EB0F1807F00D31BE0FA
:1018A000481E4FF0E022506150170F22002807DA3F
:1018B00013071D0E1E4B00F00F04241F1D5503E0DF
:1018C00013071C0E1B4B1C5400BF00204FF0E022DE
:1018D00090610720106100BFC820FFF7C9FFFFF724
:1018E000F3FC1F20FFF7B9FD1F20FFF70CFD4FF69B
:1018F000FF70FFF702FD00F047F800F0BDF800F0C0
:10190000EDF810E000F000F90B48006800900B487B
:1019100003680B480BA10268104800F029F90F4931
:101920006020FFF77DFDEDE7300000200000002083
:1019300018ED00E000E400E03C000020380000204A
:101940003400002054696D653A2025302E32643A07
:1019500025302E32643A25302E32640040000020BB
:10196000704700BFFEE700BFFEE700BFFEE700BF15
:10197000FEE770477047704702480068401E014903
:10198000086070473000002008B501213020FFF7C3
:1019900099F84FF47F40ADF8000010208DF8030057
:1019A00003208DF8020069462948FEF7CFFD042088
:1019B000ADF8000010208DF8030003208DF8020020
:1019C00069462448FEF7C2FD04212248FEF76BFE5B
:1019D0004FF47F411E48FEF766FE04211D48FEF7C6
:1019E00064FE08BD70B504460D46012D0FD10421DB
:1019F0001848FEF758FE4FF6FF7000EA042114481D
:101A0000FEF753FE04211348FEF74FFE0EE00421BB
:101A10001048FEF748FE4FF6FF7000EA04210C481C
:101A2000FEF741FE04210B48FEF73FFE70BD10B5E6
:101A3000044604210748FEF736FE0548C06880EAE0
:101A400004200349C86004210248FEF72EFE10BDA1
:101A5000001001400014014008B503208DF800007B
:101A600000208DF801008DF8020001208DF80300A0
:101A70006846FEF7A2FC08BD10B501214FF0C0502A
:101A8000FFF72DF80120FFF792F9FFF723F9012066
:101A9000FEF79EFF00BF6120FEF7E9FE0028FAD0A6
:101AA0004FF40070FEF797FF0120FEF79AFFFFF753
:101AB000D2F8FFF7C7F800210120FFF767F8FFF71A
:101AC000C1F849F64040FFF797F8FFF7BBF8002050
:101AD000FFF70BF90020FFF710F910BD10B5FFF765
:101AE000B1F81F4909684FF4616251431D4A1268F9
:101AF000C2EB021201EB82011B4A12688818FFF741
:101B00006EF8FFF79FF810BD10B5FFF75FF80446B9
:101B10001648844204D10020FFF761F8FFF792F8DD
:101B20004FF46160B4FBF0F00D4908604FF4616060
:101B3000B4FBF0F100FB11403C21B0FBF1F009498E
:101B400008604FF46160B4FBF0F100FB11403C21F0
:101B5000B0FBF1F201FB12000349086010BD000068
:101B600034000020380000203C0000207F5101009C
:101B70000FB41CB5074B06AA7B4469460090059834
:101B800000F043F90020694600F052F91CBC5DF8F2
:101B900014FB0000B50200002DE9F04106460024C8
:101BA00010687529314616A510D0AFF300800028C3
:101BB00002DA404213A507E031688A0701D512A571
:101BC00002E0490704D511A5012401E0AFF300802C
:101BD00000210A2206F1240709E0B0FBF2FCB0FB69
:101BE000F2F302FB1C00303078541846491C0028E0
:101BF000F3D123462A463046BDE8F04100F0A7B8AD
:101C0000000000002D0000002B000000200000005C
:101C10002DE9F05F894604464FF0000ADFF824B151
:101C2000FB44C0F820A02046E168884700287DD00A
:101C3000252806D0D4E901219047206A401C206263
:101C4000F1E700255F462046E168884720280646E0
:101C500007DB312E05D2B81910F8200C08B1054366
:101C6000F1E7A80701D525F00405C4F81CA000275A
:101C7000C4F818A02A2E09D0304600F018F938B35D
:101C800004EB8708303EC8F8186019E059F8041BC7
:101C9000204604EB87029161E1688847012F0646E0
:101CA00018D1E069002820DA25F020051DE0D8F8D9
:101CB000180000EB800006EB40003038C8F8180030
:101CC0002046E1688847064600F0F1F80028EED18A
:101CD000012F0AD02E2E08D12046E16888477F1CAC
:101CE0000646022F45F02005C4DBA069002803DA70
:101CF000404245F00105A061E80701D025F010053C
:101D0000A6B1A6F14100192802D8203645F4006595
:101D10004A463146204625604D46FEF721FA60B11D
:101D2000012807D0ED1D25F0070000E007E000F1D5
:101D3000080978E705F1040975E730467AE7206A73
:101D4000BDE8F09F681400007047704770472DE9A8
:101D5000F0470D4699469246044600F12408016872
:101D6000880604D5E06921F01001216000E001201F
:101D7000A84201DD471B00E00027A1697A1902EBA8
:101D80000900081AA0612078C00602D42046AFF3EB
:101D90000080002608E0D4E901211AF806009047E7
:101DA000206A401C761C20624E45F4DB2078C00679
:101DB0000AD52046AFF3008006E0D4E901213020A7
:101DC0009047206A401C2062381EA7F10107F4DC0E
:101DD00007E0D4E9012118F805009047206A401C6B
:101DE0002062281EA5F10105F3DC2046AFF3008038
:101DF0002078000602D50220BDE8F0870120FBE72D
:101E000001694A1C02610878704700B58FB0CDE9BE
:101E100001310021059105497944CDE903101146AE
:101E20006846FFF7F5FE0FB000BD0000E5FFFFFFBD
:101E30000A6802F8010B0A607047754600F02CF83A
:101E4000AE4605006946534620F00700854618B0A7
:101E500020B5FEF7ABF9BDE820404FF000064FF08B
:101E600000074FF000084FF0000B21F00701AC46CF
:101E7000ACE8C009ACE8C009ACE8C009ACE8C009EE
:101E80008D46704710B50446AFF300802046BDE88C
:101E90001040FEF777B9000000487047540000205A
:101EA00001491820ABBEFEE726000200704730381B
:101EB0000A2801D20120704700207047000000006E
:101EC0000000000000000000000000000000000012
:101ED0000000000000000000000000000000000002
:101EE0000000000000000000000000000000800171
:101EF00080018001800180018001800180018001DA
:101F000080018001800180010000000080018001CB
:101F100000000000000000000000000000000000C1
:101F2000CC00CC00CC00CC00CC00CC0000000000E9
:101F300000000000000000000000000000000000A1
:101F40000000000000000000000000000000000091
:101F50000000000000000000600C600C600C300607
:101F60003006FE1FFE1F300638071803FE1FFE1F37
:101F7000180318038C018C018C0100000000800004
:101F8000E003F80F9C0E8C1C8C188C009800F80154
:101F9000E007800E801C8C188C189C18B80CF00F71
:101FA000E00380008000000000000000000000004E
:101FB00000000E181B0C110C110611061103110361
:101FC0009B018E01C038C06C604460443044304492
:101FD0001844186C0C380000000000000000E001FC
:101FE000F0033807180618063003F001F000F80077
:101FF0009C310E33061E061C061C063FFC73F021A6
:1020000000000000000000000000000000000000D0
:102010000C000C000C000C000C000C000000000078
:1020200000000000000000000000000000000000B0
:10203000000000000000000000000000000000029E
:1020400000038001C000C00060006000300030006C
:1020500030003000300030003000300060006000A0
:10206000C000C0008001000300020000000020004A
:102070006000C0008001800100030003000600062C
:102080000006000600060006000600060003000326
:1020900080018001C00060002000000000000000FE
:1020A0000000000000000000C000C000D806F807D3
:1020B000E0013003380700000000000000000000CD
:1020C0000000000000000000000000000000000010
:1020D00000000000000000008001800180018001FC
:1020E0008001FC3FFC3F8001800180018001800174
:1020F00000000000000000000000000000000000E0
:1021000000000000000000000000000000000000CF
:10211000000000000000000000000000000080013E
:1021200080010001000180000000000000000000AC
:10213000000000000000000000000000000000009F
:1021400000000000E007E0070000000000000000C1
:10215000000000000000000000000000000000007F
:10216000000000000000000000000000000000006F
:102170000000000000000000000000000000C0009F
:10218000C000000000000000000000000000000C83
:10219000000C000600060006000300030003800395
:1021A000800180018001C000C000C00060006000AC
:1021B0000000000000000000000000000000E0033C
:1021C000F007380E180C0C180C180C180C180C18FA
:1021D0000C180C180C180C18180C380EF007E0032B
:1021E00000000000000000000000000000000001EE
:1021F0008001C001F0019801880180018001800107
:1022000080018001800180018001800180018001C6
:102210000000000000000000000000000000E003DB
:10222000F80F180C0C180C1800180018000C0006F9
:1022300000038001C000600030001800FC1FFC1F7C
:102240000000000000000000000000000000E001AD
:10225000F807180E0C0C0C0C000C0006C003C0078D
:10226000000C001800180C180C18180CF807E003E4
:102270000000000000000000000000000000000C52
:10228000000E000F000F800DC00C600C600C300CB5
:10229000180C0C0CFC3FFC3F000C000C000C000C5C
:1022A0000000000000000000000000000000F80F27
:1022B000F80F180018000C00EC03FC071C0E001CA3
:1022C0000018001800180C181C0C180EF807E00372
:1022D0000000000000000000000000000000C00737
:1022E000F00F381C181818000C00CC03EC0F3C0E33
:1022F0001C1C0C180C180C18181C380EF007E003E6
:102300000000000000000000000000000000FC1FB2
:10231000FC1F000C00060006000380038001C001C2
:10232000C000E0006000600070003000300030004D
:102330000000000000000000000000000000E003BA
:10234000F007380E180C180C180C3806F007F007B8
:10235000180C0C180C180C180C18380CF80FE0039B
:102360000000000000000000000000000000E0038A
:10237000F007380E1C0C0C180C180C181C1C381EFE
:10238000F81BE0190018000C000C1C0EF807F001F7
:10239000000000000000000000000000000000003D
:1023A000000000000000000080018001000000002B
:1023B000000000000000000000000000800180011B
:1023C000000000000000000000000000000000000D
:1023D00000000000000000008001800100000000FB
:1023E00000000000000000000000000080018001EB
:1023F000000100018000000000000000000000005B
:102400000000000000000000000000000010001CA0
:10241000800FE003F8001800F800E003800F001CB4
:10242000001000000000000000000000000000009C
:10243000000000000000000000000000F81F000085
:1024400000000000F81F0000000000000000000075
:10245000000000000000000000000000000000007C
:10246000000000000000000000000000080038002C
:10247000F001C007001F0018001FC007F00138005E
:102480000800000000000000000000000000E00361
:10249000F80F180C0C180C180018000C000600039C
:1024A0008001C000C000C00000000000C000C000EB
:1024B000000000000000000000000000000000001C
:1024C000E00718180420C229224A1144094409448B
:1024D000094409221113E20C024004201818E007F5
:1024E0000000000000000000000000000000800369
:1024F0008003C006C006C006600C600C301830189F
:102500003018F83FF83F1C700C600C6006C006C025
:102510000000000000000000000000000000FC03BC
:10252000FC0F0C0C0C180C180C180C0CFC07FC0FF6
:102530000C180C300C300C300C300C18FC1FFC0745
:102540000000000000000000000000000000C007C4
:10255000F01F38381C300C700660060006000600BC
:1025600006000600060006600C701C30F01FE00735
:102570000000000000000000000000000000FE035A
:10258000FE0F060E06180618063006300630063016
:1025900006300630063006180618060EFE0FFE033B
:1025A0000000000000000000000000000000FC3FF0
:1025B000FC3F0C000C000C000C000C00FC1FFC1F6E
:1025C0000C000C000C000C000C000C00FC3FFC3F4D
:1025D0000000000000000000000000000000F83FC4
:1025E000F83F18001800180018001800F81FF81F0E
:1025F000180018001800180018001800180018001B
:102600000000000000000000000000000000E00FDB
:10261000F83F3C780E6006E007C00300030003FEAD
:1026200003FE03C007C006C00EC03CF0F83FE00F39
:1026300000000000000000000000000000000C305E
:102640000C300C300C300C300C300C30FC3FFC3FAC
:102650000C300C300C300C300C300C300C300C309A
:1026600000000000000000000000000000008001E9
:102670008001800180018001800180018001800152
:102680008001800180018001800180018001800142
:102690000000000000000000000000000000000634
:1026A00000060006000600060006000600060006FA
:1026B000000600060006180618063807F003E001B9
:1026C00000000000000000000000000000000630D4
:1026D0000618060C060606038601C600660076008C
:1026E000DE008E0106030606060C0618063006609C
:1026F00000000000000000000000000000001800C2
:102700001800180018001800180018001800180009
:10271000180018001800180018001800F81FF81FFB
:1027200000000000000000000000000000000EE0BB
:102730001EF01EF01EF036D836D836D836D866CC05
:1027400066CC66CCC6C6C6C6C6C6C6C686C386C363
:1027500000000000000000000000000000000C303D
:102760001C303C303C306C306C30CC30CC308C3158
:102770000C330C330C360C360C3C0C3C0C380C3047
:102780000000000000000000000000000000E00762
:10279000F81F1C380E70066003C003C003C003C0DE
:1027A00003C003C003C006600E701C38F81FE007AA
:1027B0000000000000000000000000000000FC0F0E
:1027C000FC1F0C380C300C300C300C300C18FC1F7B
:1027D000FC070C000C000C000C000C000C000C00A2
:1027E0000000000000000000000000000000E00702
:1027F000F81F1C380E70066003E003C003C003C05E
:1028000003C003C007E006630E3F1C3CF83FE0F73F
:1028100000C0000000000000000000000000FE0FEB
:10282000FE1F06380630063006300638FE1FFE074B
:1028300006030606060C0618061806300630066063
:102840000000000000000000000000000000E003A5
:10285000F80F1C0C0C180C180C001C00F803E00FEF
:10286000001E0038063006300E301C1CF80FE00742
:102870000000000000000000000000000000FE7FDB
:10288000FE7F800180018001800180018001800144
:102890008001800180018001800180018001800130
:1028A00000000000000000000000000000000C30EC
:1028B0000C300C300C300C300C300C300C300C3038
:1028C0000C300C300C300C300C301818F81FE007AE
:1028D0000000000000000000000000000000036095
:1028E0000630063006300C180C180C18180C180C92
:1028F000380E30063006700760036003C001C00167
:102900000000000000000000000000000000036064
:10291000C361C361C361663366336633663366334E
:1029200066336C1B6C1B6C1B2C1A3C1E380E380E4D
:1029300000000000000000000000000000000FE0A8
:102940000C7018303018700C600EC00780038003C4
:10295000C003E006700C301C18180C300E6007E045
:10296000000000000000000000000000000003C0A4
:1029700006600C301C383818300C6006E007C003C5
:10298000800180018001800180018001800180013F
:102990000000000000000000000000000000FC7FBC
:1029A000FC7F006000300018000C0006000380016E
:1029B000C0006000300018000C000600FE7FFE7FA3
:1029C0000000000000000000000000000000E00324
:1029D000E003600060006000600060006000600074
:1029E00060006000600060006000600060006000E7
:1029F000600060006000E003E003000000003000C1
:102A00003000600060006000C000C000C000C00175
:102A1000800180018001000300030003000600061E
:102A20000000000000000000000000000000E003C3
:102A3000E00300030003000300030003000300039E
:102A4000000300030003000300030003000300036E
:102A5000000300030003E003E003000000000000A7
:102A6000C001C00160036003600330063006180C2B
:102A7000180C000000000000000000000000000032
:102A80000000000000000000000000000000000046
:102A90000000000000000000000000000000000036
:102AA0000000000000000000000000000000FFFF28
:102AB000FFFF0000000000000000000000000C000C
:102AC0000C000C000C000C000C00000000000000CA
:102AD00000000000000000000000000000000000F6
:102AE00000000000000000000000000000000000E6
:102AF0000000000000000000F003F8071C0C0C0CA4
:102B0000000FF00FF80C0C0C0C0C1C0FF80FF01849
:102B1000000000000000000000000000000018009D
:102B20001800180018001800D803F80F380C1818EF
:102B300018181818181818181818380CF80FD8037F
:102B40000000000000000000000000000000000085
:102B50000000000000000000C003F007300E180C59
:102B60001800180018001800180C300EF007C003E9
:102B7000000000000000000000000000000000183D
:102B80000018001800180018C01BF01F301C18187F
:102B900018181818181818181818301CF01FC01B0F
:102BA0000000000000000000000000000000000025
:102BB0000000000000000000C003F00F300C1818E7
:102BC000F81FF81F180018003818301CF00FC00745
:102BD0000000000000000000000000000000800F66
:102BE000C00FC000C000C000F007F007C000C00068
:102BF000C000C000C000C000C000C000C000C000D5
:102C000000000000000000000000000000000000C4
:102C10000000000000000000E00DF80F180E0C0C82
:102C20000C0C0C0C0C0C0C0C0C0C180EF80FE00D12
:102C3000000C0C0C1C06F807F00100000000180046
:102C40001800180018001800D807F80F381C1818BA
:102C500018181818181818181818181818181818F4
:102C60000000000000000000000000000000C000A4
:102C7000C000000000000000C000C000C000C00094
:102C8000C000C000C000C000C000C000C000C00044
:102C90000000000000000000000000000000C00074
:102CA000C000000000000000C000C000C000C00064
:102CB000C000C000C000C000C000C000C000C00014
:102CC000C000C000C000F8007800000000000C0048
:102CD0000C000C000C000C000C0C0C060C038C01FE
:102CE000CC006C00FC009C018C030C030C060C0C4B
:102CF0000000000000000000000000000000C00014
:102D0000C000C000C000C000C000C000C000C000C3
:102D1000C000C000C000C000C000C000C000C000B3
:102D200000000000000000000000000000000000A3
:102D300000000000000000007C3CFF7EC7E383C170
:102D400083C183C183C183C183C183C183C183C163
:102D50000000000000000000000000000000000073
:102D600000000000000000009807F80F381C181839
:102D700018181818181818181818181818181818D3
:102D80000000000000000000000000000000000043
:102D90000000000000000000C003F00F300C181805
:102DA00018181818181818181818300CF00FC00335
:102DB0000000000000000000000000000000000013
:102DC0000000000000000000D803F80F380C1818AD
:102DD00018181818181818181818380CF80FD803DD
:102DE000180018001800180018000000000000006B
:102DF0000000000000000000C01BF01F301C18186D
:102E000018181818181818181818301CF01FC01B9C
:102E1000001800180018001800180000000000003A
:102E20000000000000000000B007F0037000300058
:102E30003000300030003000300030003000300012
:102E40000000000000000000000000000000000082
:102E50000000000000000000E003F003380E180C32
:102E60003800F003C007000C180C380EF007E00320
:102E70000000000000000000000000000000000052
:102E80008000C000C000C000F007F007C000C00014
:102E9000C000C000C000C000C000C000C007800764
:102EA0000000000000000000000000000000000022
:102EB0000000000000000000181818181818181852
:102EC00018181818181818181818381CF01FE019B6
:102ED00000000000000000000000000000000000F2
:102EE00000000000000000000C18180C180C180C52
:102EF000300630063006600360036003C001C00185
:102F000000000000000000000000000000000000C1
:102F10000000000000000000C141C141C3616363C3
:102F2000636363633636363636361C1C1C1C1C1C29
:102F30000000000000000000000000000000000091
:102F400000000000000000001C38381C300C600637
:102F500060036003600360036006300C381C1C389B
:102F60000000000000000000000000000000000061
:102F700000000000000000001830301830187018F1
:102F8000600C600CE00CC006C00680038003800368
:102F900080018001C001F00070000000000000000E
:102FA0000000000000000000FC1FFC1F000C0006D9
:102FB00000038001C000600030001800FC1FFC1FEF
:102FC00000000000000000000000000000000003FE
:102FD0008001C000C000C000C000C000C000600090
:102FE0006000300060004000C000C000C000C000B1
:102FF000C000C0008001000300000000000080014C
:1030000080018001800180018001800180018001B8
:1030100080018001800180018001800180018001A8
:1030200080018001800180018001000000006000BB
:10303000C000C00180018001800180018001000387
:10304000000300060003000180018001800180016F
:1030500080018001C000600000000000000000004E
:10306000000000000000000000000000F010F81F49
:10307000080F000000000000000000000000000039
:103080000000000000000000000000000400000834
:10309000000000000000000200010000100000001D
:1030A000C030000800000020400000002801000897
:1030B00000310008400000207806000044010008AC
:1030C00000A24A0400000000000000000102030406
:1030D00006070809000000000102030401020304BE
:1030E00006070809020406080000FFFF00000000B0
:1030F00000000000080000001E0000003B0000006F
:04000005080000ED02
:00000001FF
