:020000040800F2
:100000009806002089010008C91A0008CB1A0008C8
:10001000CF1A0008D31A0008D71A00080000000001
:10002000000000000000000000000000DD1A0008D1
:10003000DB1A000800000000DF1A0008E11A0008BF
:10004000A3010008A3010008A3010008A301000800
:10005000A3010008A3010008A3010008A3010008F0
:10006000A3010008A3010008A3010008A3010008E0
:10007000A3010008A3010008A3010008A3010008D0
:10008000A3010008A3010008A3010008A3010008C0
:10009000A3010008A3010008A3010008A3010008B0
:1000A000A3010008A3010008A3010008A3010008A0
:1000B000A3010008A3010008491A0008A3010008D1
:1000C000A3010008A3010008A3010008A301000880
:1000D000A3010008A3010008A3010008A301000870
:1000E000A3010008A3010008A301000800F002F822
:1000F00000F03AF80AA090E8000C82448344AAF188
:100100000107DA4501D100F02FF8AFF2090EBAE885
:100110000F0013F0010F18BFFB1A43F0010318473B
:10012000F01B0000101C0000103A24BF78C878C1F2
:10013000FAD8520724BF30C830C144BF04680C60ED
:10014000704700000023002400250026103A28BF35
:1001500078C1FBD8520728BF30C148BF0B60704739
:100160001FB51FBD10B510BD01F097FD1146FFF77B
:10017000F7FF01F01DFC01F0B5FD03B4FFF7F2FF3E
:1001800003BC01F0BDFD0000094880470948004755
:10019000FEE7FEE7FEE7FEE7FEE7FEE7FEE7FEE737
:1001A000FEE7FEE704480549054A064B7047000094
:1001B000A7020008ED000008980000209806002023
:1001C00098020020980200200CB5002001900090B9
:1001D0006C48006840F480306A49086000BF694894
:1001E000006800F4003000900198401C01900098D5
:1001F00018B90198B0F5A06FF1D16248006800F419
:10020000003010B10120009001E000200090009823
:10021000012843D15C48006840F010005A4908604A
:100220000846006820F0030008600846006840F0B7
:1002300002000860534840685249486008464068D8
:1002400048600846406840F480604860084640685E
:1002500020F47C1048600846406840F4E81048608C
:100260000846006840F08070086000BF454800689C
:1002700000F000700028F9D04248406820F00300E8
:10028000404948600846406840F00200486000BFAE
:100290003C48406800F00C000828F9D10CBD10B5AE
:1002A000FFF792FF10BD10B53648006840F001001E
:1002B000344908600846406834490840314948607C
:1002C00008460068324908402E4908600846006820
:1002D00020F4802008600846406820F4FE00486052
:1002E0004FF41F008860FFF7DAFF4FF000602949E4
:1002F000086010BD10B5002100200022214B5B6872
:1003000003F00C0121B1042906D0082928D107E007
:10031000214B224C236027E01F4B204C236023E01D
:10032000184B5B6803F47010164B5B6803F4803263
:10033000022303EB904022B9194B4343174C23602F
:100340000DE0104B5B6803F4003323B1144B4343BF
:10035000124C236003E0104B4343104C236003E036
:100360000D4B0E4C236000BF00BF064B5B68C3F310
:1003700003130C4CE15C094B1B68CB40074C23601A
:1003800010BD000000100240002002400000FFF8F5
:10039000FFFFF6FE08ED00E000127A0000000020EA
:1003A00000093D000400002031490143314A116039
:1003B000704770B5002100230F22C47804B32D4C80
:1003C000246804F4E064C4F5E064210AC1F1040384
:1003D000CA40447804FA03F18478144021430901A7
:1003E000254C0678A155047804F01F050124AC4083
:1003F00005786D11AD0005F1E025C5F8004109E073
:10040000047804F01F050124AC401C4D06787611D9
:1004100045F8264070BD1A4A0A400243154B1B1F7F
:100420001A60704739B1134A121D12680243114B0A
:100430001B1D1A6006E00F4A121D126882430D4B05
:100440001B1D1A607047042808D14FF0E02109698C
:1004500041F004014FF0E022116107E04FF0E0218C
:10046000096921F004014FF0E0221161704700009A
:100470000000FA050CED00E000E400E080E100E09F
:1004800080FFFF1F10B50446CC48844208D10121EB
:10049000042000F02DFB0021042000F029FB46E0A1
:1004A000C748844208D10121082000F021FB002127
:1004B000082000F01DFB3AE0C248844208D1012127
:1004C000102000F015FB0021102000F011FB2EE0A1
:1004D000BD48844208D10121202000F009FB002101
:1004E000202000F005FB22E0B848844208D1012119
:1004F000402000F0FDFA0021402000F0F9FA16E05B
:10050000B348844208D10121802000F0F1FA002193
:10051000802000F0EDFA0AE0AE48844207D10121C4
:10052000801500F0E5FA0021A01500F0E1FA10BDF9
:1005300010B50121084600F0DBFA0021012000F08F
:10054000D7FA10BD2DE9F041024600250026002013
:1005500000230024002791F803C00CF00F0591F848
:1005600003C00CF0100CBCF1000F03D091F802C0D6
:100570004CEA050591F800C0BCF1000F31D01468B9
:1005800000202BE04FF0010C0CFA00F3B1F800C092
:100590000CEA03069E4220D183004FF00F0C0CFAA8
:1005A00003F7BC4305FA03FC4CEA040491F803C0CA
:1005B000BCF1280F06D14FF0010C0CFA00FCC2F878
:1005C00014C00AE091F803C0BCF1480F05D14FF008
:1005D000010C0CFA00FCC2F810C0401C0828D1D352
:1005E0001460B1F800C0BCF1FF0F34DD5468002086
:1005F0002EE000F1080C4FF0010808FA0CF3B1F8F6
:1006000000C00CEA03069E4221D183004FF00F0C7C
:100610000CFA03F7BC4305FA03FC4CEA040491F816
:1006200003C0BCF1280F05D100F1080C08FA0CF842
:10063000C2F8148091F803C0BCF1480F07D100F153
:10064000080C4FF0010808FA0CF8C2F81080401CA2
:100650000828CED35460BDE8F0814FF6FF710180C9
:10066000022181700421C170704702460020936806
:100670000B400BB1012000E0002070470146886864
:1006800080B2704702460020D3680B400BB10120B6
:1006900000E0002070470146C86880B270470161E1
:1006A0007047416170470AB1016100E041617047E4
:1006B000C16070474FF480320A4382618161826178
:1006C00082698269704702460020434B18684FF6E2
:1006D0008073184040EA021008433F4B186070478F
:1006E0003E49C8617047F0B50A4600230024002146
:1006F000002500F00046B6F1004F02D1364EF169F8
:1007000001E0354E7168C0F3034583B200F4401632
:10071000B6F5401F08D121F070612F4E766826F0A3
:1007200070662D4F7E6012E000F48016B6F5801FD3
:1007300006D1032606FA05F4A14341F0706106E0F4
:10074000460D360103FA06F6B14341F0706122B15D
:10075000460D360103FA06F6314300F00046B6F1C5
:10076000004F02D11C4EF16101E01B4E7160F0BDE3
:1007700030B500228B071C0F0F2303FA04F2164B2F
:1007800008338C1053F824309343134C08348D10E5
:1007900044F8253023468C1053F824308C07240F5E
:1007A00000FA04F423430C4C08348D1044F825302F
:1007B00030BD0A49DC310860704700000008014084
:1007C000000C0140001001400014014000180140DD
:1007D000001C0140002001400000014000002042B8
:1007E000DF48006840F00100DD49086008464068C5
:1007F000DC490840DA49486008460068DA490840A0
:10080000D74908600846006820F480200860084640
:10081000406820F4FE0048604FF41F008860704775
:10082000CF49096821F48031CD4A11601146096829
:1008300021F480211160B0F5803F03D0B0F5802F06
:100840000ED106E0C649096841F48031C44A1160FE
:1008500007E0C349096841F4A021C14A116000E0E2
:1008600000BF00BF704710B50146002200230020E2
:100870004A11012A02D1BA4C236806E0022A02D1A9
:10088000B74C236A01E0B64C636A01F01F020124F1
:1008900094401C400CB1012000E0002010BD38B590
:1008A000002000900024002500BF3120FFF7DBFF6F
:1008B00005460098401C00900098B0F5A06F01D04C
:1008C000002DF2D03120FFF7CEFF08B1012400E067
:1008D0000024204638BD01460020A14A106820F0BF
:1008E000F80040EAC10010607047A04908607047F6
:1008F000024600209A4B586820F47C1042EA01031B
:100900001843974B586070479849086670470146EE
:100910000020934A506820F003000843506070475D
:100920008F48406800F00C007047014600208C4A58
:10093000506820F0F00008435060704701460020E6
:10094000874A506820F4E0600843506070470146D1
:100950000020834A506820F4605040EAC100506093
:10096000704729B17E4A527A02437D4B5A7204E0A5
:100970007B4A527A82437A4B5A7270477B49D8310C
:100980000860704701460020754A506820F44040D6
:100990000843506070470021714A20321170704A3C
:1009A00082F82010012802D004280AD104E0012195
:1009B0006B4A2032117005E00521694A203211701E
:1009C00000E000BF00BF7047694908607047644994
:1009D000096A0143624A11627047654944390860F7
:1009E000704730B500210022002400235C4D6D6863
:1009F00005F00C0121B1042905D0082923D105E017
:100A00005C4D056022E05B4D05601FE0544D6D6854
:100A100005F47012524D6D6805F48034022505EB23
:100A200092421CB9544D554305600BE04C4D6D6826
:100A300005F400351DB1504D5543056002E04D4DA4
:100A40005543056002E04B4D056000BF00BF444DBB
:100A50006D6805F0F0010909484D6B5C0568DD40E3
:100A600045603F4D6D6805F4E061090A434D6B5CDC
:100A70004568DD4085603A4D6D6805F46051C90AEE
:100A80003E4D6B5C4568DD40C560354D6D6805F4D5
:100A90004041890B3A4D6B5CC568B5FBF3F50561C8
:100AA00030BD29B12E4A526902432D4B5A6104E0F0
:100AB0002B4A526982432A4B5A61704729B1284A0E
:100AC00092690243264B9A6104E0254A9269824367
:100AD000234B9A61704729B1214AD2690243204BC6
:100AE000DA6104E01E4AD26982431D4BDA61704725
:100AF00029B11B4AD2680243194BDA6004E0184A54
:100B0000D2688243164BDA60704729B1144A1269E1
:100B10000243134B1A6104E0114A12698243104BDD
:100B20001A61704712494039086070470F49C8641C
:100B300070470B49C87170470948406A40F080709F
:100B400007494862704701460020054A92680A40FA
:100B50000AB1012000E00020704701498872704707
:100B6000001002400000FFF8FFFFF6FE00004242C6
:100B70008004424200127A0000093D001400002067
:100B80002400002010B50446FE48844208D101210B
:100B9000C014FFF7ADFF0021E014FFF7A9FFC4E088
:100BA000B4F1804F08D101210846FFF7AEFF0021C4
:100BB0000120FFF7AAFFB8E0F348844208D10121E1
:100BC0000220FFF7A2FF00210220FFF79EFFACE00A
:100BD000EE48844208D101210420FFF796FF00214E
:100BE0000420FFF792FFA0E0E948844208D10121E8
:100BF0000820FFF78AFF00210820FFF786FF94E016
:100C0000E448844208D101211020FFF77EFF002133
:100C10001020FFF77AFF88E0DF48844208D10121E5
:100C20002020FFF772FF00212020FFF76EFF7CE0FD
:100C3000DA48844208D101214014FFF759FF00210E
:100C40006014FFF755FF70E0D548844209D10121B7
:100C5000C804FFF74DFF00214FF40020FFF748FFC5
:100C600063E0D048844209D101210805FFF740FF25
:100C700000214FF48010FFF73BFF56E0CA48844242
:100C800009D101214805FFF733FF00214FF400107F
:100C9000FFF72EFF49E0C548844208D101214020DA
:100CA000FFF733FF00214020FFF72FFF3DE0C04852
:100CB000844208D101218020FFF727FF00218020F6
:100CC000FFF723FF31E0BB48844208D101218015A2
:100CD000FFF71BFF0021A015FFF717FF25E0B6481F
:100CE000844209D101210804FFF702FF00214FF4DB
:100CF0008030FFF7FDFE18E0B048844209D10121A1
:100D00004804FFF7F5FE00214FF40030FFF7F0FE36
:100D10000BE0AB48844208D101218804FFF7E8FECC
:100D200000214FF48020FFF7E3FE10BD002202886F
:100D3000944B98420ED0994B98420BD0B0F1804F13
:100D400008D0914B984205D0904B984202D0904BDE
:100D5000984204D14FF68F731A404B881A438D4B3B
:100D6000984207D08C4B984204D04FF6FF431A406C
:100D7000CB881A4302808B8883850B880385814B3F
:100D800098420BD0854B984208D08B4B984205D0A7
:100D90008A4B984202D08A4B984201D10B7A038643
:100DA00001238382704770B5002400220023058C44
:100DB0004FF6FE7635400584028C8388048B4FF60F
:100DC0008F752C40B51E2C400D882C43751E2A4073
:100DD0000D892A434D882A436A4DA8420BD06F4D96
:100DE000A84208D0744DA84205D0744DA84202D044
:100DF000734DA84213D14FF6F7752A404D892A4307
:100E00004FF6FB752A408D882A434FF6FF652B402D
:100E10004FF6FF552B408D892B43CD892B43838083
:100E20000483CD888586028470BD70B500240022BD
:100E30000023058C4FF6EF7635400584028C8388BD
:100E4000048B48F6FF752C404FF6FF452C400D886B
:100E50004FF6FF7606EA05252C434FF6DF752A404C
:100E60000D8906EA05152A434D8806EA05152A4329
:100E7000444DA84202D0494DA8421DD14FF67F757E
:100E80002A404D894FF6FF7606EA05152A434FF6AC
:100E9000BF752A408D8806EA05152A434FF6FF35AF
:100EA0002B404FF2FF752B408D8906EA85052B43B9
:100EB000CD8906EA85052B4383800483CD88058789
:100EC000028470BD70B5002400220023058C4FF60B
:100ED000FF6635400584028C8388848B4FF68F75BE
:100EE0002C404FF6FC752C400D882C434FF6FF55D7
:100EF0002A400D894FF6FF7606EA05252A434D88DC
:100F000006EA05252A431F4DA84202D0234DA842D8
:100F10001DD14FF2FF752A404D894FF6FF7606EA44
:100F200005252A434FF6FF352A408D8806EA052518
:100F30002A434EF6FF752B404DF6FF752B408D89E9
:100F400006EA05152B43CD8906EA05152B43838058
:100F50008483CD888587028470BD70B5002200230C
:100F60000024058C4EF6FF7635400584038C84887A
:100F7000828B48F6FF752A404FF6FF452A400D88C0
:100F800020E00000002C0140000400400008004068
:100F9000000C0040001000400014004000340140EC
:100FA000004C014000500140005401400018004036
:100FB000001C00400020004000400140004401406F
:100FC000004801404FF6FF7606EA05252A434DF614
:100FD000FF752B400D8906EA05352B434D8806EA3F
:100FE00005352B43FA4DA84202D0FA4DA84208D14C
:100FF0004BF6FF752C408D894FF6FF7606EA851576
:101000002C4384808283CD88A0F84050038470BD37
:10101000828B4FF2FF331A408283828B4FF6FF732D
:1010200003EA01231A4382837047F0B50C46154644
:10103000002200210026078C4EF6FF7C07EA0C07F1
:101040000784828B018C4FF6FF7707EA043640F65F
:10105000FF473A404FF6FF7707EA05273A434FF636
:10106000FF7707EA03373A43D94FB8420ED0D94F3A
:10107000B8420BD0B0F1804F08D0D74FB84205D05E
:10108000D64FB84202D0D64FB84206D14DF6FF77C0
:10109000394046F48057394305E047F6FF57394059
:1010A00044F48057394382830184F0BD828B4FF62C
:1010B000F3731A408283828B0A4382837047F0B5B0
:1010C0000C461546002200210026078C4FF6FF6CC7
:1010D00007EA0C070784828B018C4FF6FF7707EA3B
:1010E00004264FF60C773A404FF6FF7707EA0317CE
:1010F0002F433A43B64FB8420ED0B64FB8420BD04A
:10110000B0F1804F08D0B44FB84205D0B34FB842C9
:1011100002D0B34FB84206D14FF6FF57394046F4DC
:101120008077394305E04FF2FF57394044F4807728
:10113000394382830184F0BD028B4FF2FF331A40A2
:101140000283028B4FF6FF7303EA01231A430283E3
:101150007047F0B50C461546002200210026078C8A
:101160004FF6EF7C07EA0C070784028B018C4FF6E1
:10117000FF7707EA041640F6FF473A404FF6FF773D
:1011800007EA03373A434FF6FF7707EA05273A4362
:101190008F4FB8420ED08F4FB8420BD0B0F1804F76
:1011A00008D08D4FB84205D08C4FB84202D08C4F3A
:1011B000B84206D14FF6DF77394046F01007394381
:1011C00005E04FF65F77394044F01007394302835A
:1011D0000184F0BD028B4FF6F3731A400283028B39
:1011E0000A4302837047F0B50C46154600220021E1
:1011F000068C4FF6FE773E400684028B018C4FF63C
:101200000C7632407E1C06EA03162E433243704EA3
:10121000B0420ED06F4EB0420BD0B0F1804F08D02C
:101220006D4EB04205D06D4EB04202D06C4EB04211
:1012300006D14FF6FD76314044F00106314305E01A
:101240004FF6F576314044F00106314302830184C4
:10125000F0BD70B505460C465D4885420ED05D4830
:1012600085420BD0B5F1804F08D05B48854205D050
:101270005A48854202D05A48854200D100E000BF5A
:10128000208850B92389A28861882846FFF7ABFFE0
:10129000E1882846FFF79EFF25E0208804280AD130
:1012A0002389A28861882846FFF753FFE1882846F2
:1012B000FFF742FF17E0208808280AD12389A28877
:1012C00061882846FFF7FBFEE1882846FFF7EEFE1F
:1012D00009E02389A28861882846FFF7A6FEE188F5
:1012E0002846FFF795FE70BD2DE9F04105460C46F6
:1012F00000260127608808B9022600E00026A088A1
:10130000012801D1022700E001272088A0B9238904
:10131000A28861882846FFF766FFE1882846FFF724
:1013200059FF23893A4631462846FFF712FFE188E4
:101330002846FFF701FF13E02389A2886188284629
:10134000FFF707FFE1882846FFF7F6FE23893A46B4
:1013500031462846FFF747FFE1882846FFF73AFF66
:10136000BDE8F0810A884B881A438B881A43CB88E2
:101370001A430B891A434B891A438B891A43A0F8E5
:10138000442070474FF6FF71818000210180C180A9
:101390004180017270470021018041808180C180BD
:1013A000018141818181C18170470021018041809B
:1013B000012181800021C1800181704700210180CD
:1013C00041808180C180018141818181704700001D
:1013D000002C01400034014000040040000800409F
:1013E000000C004021B1028842F00102028004E0BA
:1013F00002884FF6FE731A400280704731B1B0F890
:10140000442042F40042A0F8442005E0B0F8442013
:10141000C2F30E02A0F8442070471AB183890B432F
:10142000838102E083898B43838170478182704787
:1014300041EA0203A0F8483070471AB183890B4390
:10144000838102E083898B438381704701894FF652
:10145000F8721140018170470A46002101894FF658
:101460008F73194011430181704730B504460D4612
:1014700029462046FFF7F0FF208940F00700208131
:1014800030BD2DE9F04104460D4616461F46602D3D
:1014900006D13B46012231462046FFF75AFE05E0C1
:1014A0003B46012231462046FFF79DFE2946204655
:1014B000FFF7D2FF208940F007002081BDE8F081CE
:1014C00030B50C4600210189C9B24FF6FF7505EA17
:1014D0000325154325432943018130BD2DE9F04102
:1014E00005460E4617469846002443463A4631467E
:1014F0002846FFF7E5FF2C894FF6F870044044F0CA
:1015000007044FF68F70044044F070042C81BDE84E
:10151000F081F0B504460D4616461F463B4632465E
:1015200029462046FFF7CCFF208940F480402081E7
:10153000F0BD0185828270470A46002101884FF67E
:101540008F731940114301807047F0B50C46154662
:101550001E460021002200230189028B038C4FF6D6
:10156000F877394021434FF6FC473A4040F20117E3
:101570003A434FF6DD773B404FF6FF7707EA061711
:101580002F433B43018102830384F0BD0A460021BF
:10159000018B4FF68F7319401143018370470A4640
:1015A0000021018B48F6FF7319404FF6FF7303EAE1
:1015B00002231943018370470A460021818B4FF6AD
:1015C0008F7319401143818370470A460021818B34
:1015D00048F6FF7319404FF6FF7303EA02231943DD
:1015E0008183704721B1028842F08002028004E0CA
:1015F00002884FF67F731A400280704721B18288BB
:1016000042F00402828004E082884FF6FB731A40A5
:101610008280704721B1828842F00802828004E013
:1016200082884FF6F7731A408280704721B1828812
:1016300042F00102828004E082884FF6FE731A4075
:10164000828070470A460021018B4FF6F7731940DC
:101650001143018370470A460021018B4FF2FF734B
:1016600019404FF6FF7303EA0223194301837047C1
:101670000A460021818B4FF6F7731940114381838D
:1016800070470A460021818B4FF2FF7319404FF6D5
:10169000FF7303EA02231943818370470A4600213E
:1016A000018B4FF6FB7319401143018370470A46C3
:1016B0000021018B4FF6FF3319404FF6FF7303EA09
:1016C00002231943018370470A460021818B4FF69C
:1016D000FB7319401143818370470A460021818BB7
:1016E0004FF6FF3319404FF6FF7303EA0223194305
:1016F000818370470A460021018B4FF67F731940A2
:101700001143018370470A460021018BC1F30E018A
:101710004FF6FF7303EA02231943018370470A4619
:101720000021818B4FF67F731940114381837047ED
:101730000A460021818BC1F30E014FF6FF7303EAC5
:1017400002231943818370470A460021018C4FF61A
:10175000FD7319401143018470470A460021018C32
:101760004FF6F77319401143018470470A46002170
:10177000018C4FF6DF7319404FF6FF7303EA021333
:101780001943018470470A460021018C4FF67F738C
:1017900019404FF6FF7303EA02131943018470479F
:1017A0000A460021018C4FF6FF5319404FF6FF7394
:1017B00003EA02231943018470470A460021018C81
:1017C0004FF2FF7319404FF6FF7303EA02231943E8
:1017D000018470470A460021018C4DF6FF731940C1
:1017E0004FF6FF7303EA023319430184704730B5A3
:1017F000002301248C40A3B2048C9C430484048CF9
:1018000002FA01F5ADB22C43048430BD30B500239B
:1018100004248C40A3B2048C9C430484048C02FAFC
:1018200001F5ADB22C43048430BD70B503460020F1
:1018300000241846183001258D40ACB21D8CA543FC
:101840001D8409B1082909D100EB6100056825F064
:10185000700505600568154305600EE00D1FC5F3B2
:101860004E052844056825F4E045056005684FF6F7
:10187000FF7606EA02263543056070BD21B1028875
:1018800042F00202028004E002884FF6FD731A4023
:101890000280704721B1028842F00402028004E015
:1018A00002884FF6FB731A400280704721B182888C
:1018B00042F08002828004E082884FF67F731A40F3
:1018C0008280704702884FF6F7731A4002800288C0
:1018D0000A430280704782884FF68F731A408280D5
:1018E00082880A438280704702894FF6F8731A4053
:1018F000028102890A430281704702894FF67F7391
:101900001A40028102890A4302817047818470472C
:10191000818570478186704701877047818770474E
:10192000A0F84010704702884FF6FF431A4002802B
:1019300002880A43028070470146888E704701463C
:10194000088F70470146888F70470146B1F8400004
:1019500070470146888C70470146088D70470246E3
:101960000020138A0B400BB1012000E000207047DB
:10197000CA430282704730B502460020002300248B
:10198000158A05EA0103958905EA010413B10CB132
:10199000012000E0002030BDCA43028270470000F1
:1019A0004049086000BF3F4909680029FBD17047E2
:1019B0004FF4E060FEF7F8FC3B4800684FF47A72A1
:1019C000B0FBF2F1481EB0F1807F00D31BE0481E4F
:1019D0004FF0E022506150170F22002807DA13075A
:1019E0001D0E324B00F00F04241F1D5503E013079A
:1019F0001C0E2F4B1C5400BF00204FF0E0229061C2
:101A00000720106100BFC820FFF7CAFF00F070F880
:101A100000F018F900F0EAF815E02648007820B93F
:101A20000121084600F092F803E00021012000F0B7
:101A30008DF82148007818B9012000F019F902E06A
:101A4000002000F015F9E8E710B501211B48FFF769
:101A500092FF28B301211948FFF79EFF184800881C
:101A6000401C80B216490880B0F5FA7F07D10020EB
:101A700008801048007880F001000E490870114875
:101A80000088401C80B20F490880B0F5FA7F07D16A
:101A9000002008800848007880F00100064908709E
:101AA00010BD0000280000200000002018ED00E01C
:101AB00000E400E030000020310000200008004079
:101AC0002C0000202E000020704700BFFEE700BF62
:101AD000FEE700BFFEE700BFFEE7704770477047B4
:101AE00002480068401E0149086070472800002035
:101AF00008B501213020FEF7E1FF4FF47F40ADF83B
:101B0000000010208DF8030003208DF802006946C4
:101B10002948FEF717FD0420ADF8000010208DF8CD
:101B2000030003208DF8020069462448FEF70AFDF1
:101B300004212248FEF7B3FD4FF47F411E48FEF713
:101B4000AEFD04211D48FEF7ACFD08BD70B504468E
:101B50000D46012D0FD104211848FEF7A0FD4FF6C8
:101B6000FF7000EA04211448FEF79BFD042113488E
:101B7000FEF797FD0EE004211048FEF790FD4FF6AA
:101B8000FF7000EA04210C48FEF789FD04210B4890
:101B9000FEF787FD70BD10B5044604210748FEF727
:101BA0007EFD0548C06880EA04200349C86004211E
:101BB0000248FEF776FD10BD001001400014014000
:101BC00010B501210420FEF786FF10BD08B51E20C8
:101BD0008DF8000000208DF8010001208DF8020032
:101BE0008DF803006846FEF7E4FB08BD3EB500240F
:101BF000FFF7E6FFFFF7EAFF0F4800680F49B0FB69
:101C0000F1F0401E84B240F2E730ADF80400ADF8C8
:101C100000400020ADF80600ADF802006946084813
:101C2000FFF784F8012211460548FFF7F6FB012172
:101C30000348FFF7D7FB3EBD0000002040420F00E5
:101C40000008004008B501210920FEF737FF0121F7
:101C50000E48FEF748FD1020ADF800008DF8030097
:101C600003208DF8020069460948FEF76BFC08BDA9
:101C700010B50446012C04D010210548FEF70FFDD5
:101C800003E010210248FEF70CFD10BD00013000FA
:101C9000000C0140704770477047754600F02CF803
:101CA000AE4605006946534620F00700854618B049
:101CB00020B5FEF777FABDE820404FF000064FF060
:101CC00000074FF000084FF0000B21F00701AC4671
:101CD000ACE8C009ACE8C009ACE8C009ACE8C00990
:101CE0008D46704710B50446AFF300802046BDE82E
:101CF0001040FEF742BA0000004870473400002050
:101D000001491820ABBEFEE7260002007047000024
:101D1000301D0008000000203400000028010008E9
:101D2000641D00083400002064060000440100081F
:101D300000A24A04000000000000000001020304A9
:101D40000607080900000000010203040102030461
:101D50000607080902040608000000000000000051
:041D6000000000007F
:04000005080000ED02
:00000001FF
