:020000040800F2
:10000000F0060020990100080532000807320008B8
:100010000B3200080F320008133200080000000005
:10002000000000000000000000000000193200087D
:1000300017320008000000001B3200081D320008C3
:10004000B3010008B3010008B3010008B3010008C0
:10005000B3010008B3010008B3010008B3010008B0
:10006000B3010008B3010008B3010008B3010008A0
:10007000B3010008B3010008B3010008B301000890
:10008000B3010008B3010008B3010008B301000880
:10009000B3010008B3010008B3010008B301000870
:1000A000B3010008B3010008B3010008B301000860
:1000B000B3010008B30100080D310008B3010008C6
:1000C000B3010008B3010008B3010008B301000840
:1000D000B3010008B30100088B310008B301000828
:1000E000B3010008B3010008B301000800F002F8F2
:1000F00000F042F80AA090E8000C82448344AAF180
:100100000107DA4501D100F037F8AFF2090EBAE87D
:100110000F0013F0010F18BFFB1A43F0010318473B
:10012000FC4F00001C500000103A24BF78C878C172
:10013000FAD8520724BF30C830C144BF04680C60ED
:10014000704700000023002400250026103A28BF35
:1001500078C1FBD8520728BF30C148BF0B60704739
:10016000642903F0F984732903F07B86002070472B
:100170001FB51FBD10B510BD03F09EFE1146FFF761
:10018000F7FF02F02AFD03F0BCFE03B4FFF7F2FF15
:1001900003BC03F0C3FE000009488047094800473C
:1001A000FEE7FEE7FEE7FEE7FEE7FEE7FEE7FEE727
:1001B000FEE7FEE704480549054A064B7047000084
:1001C000B7020008ED000008F0000020F006002053
:1001D000F0020020F00200200CB5002001900090F9
:1001E0006C48006840F480306A49086000BF694884
:1001F000006800F4003000900198401C01900098C5
:1002000018B90198B0F5A06FF1D16248006800F408
:10021000003010B10120009001E000200090009813
:10022000012843D15C48006840F010005A4908603A
:100230000846006820F0030008600846006840F0A7
:1002400002000860534840685249486008464068C8
:1002500048600846406840F480604860084640684E
:1002600020F47C1048600846406840F4E81048607C
:100270000846006840F08070086000BF454800688C
:1002800000F000700028F9D04248406820F00300D8
:10029000404948600846406840F00200486000BF9E
:1002A0003C48406800F00C000828F9D10CBD10B59E
:1002B000FFF792FF10BD10B53648006840F001000E
:1002C000344908600846406834490840314948606C
:1002D00008460068324908402E4908600846006810
:1002E00020F4802008600846406820F4FE00486042
:1002F0004FF41F008860FFF7DAFF4FF000602949D4
:10030000086010BD10B5002100200022214B5B6861
:1003100003F00C0121B1042906D0082928D107E0F7
:10032000214B224C236027E01F4B204C236023E00D
:10033000184B5B6803F47010164B5B6803F4803253
:10034000022303EB904022B9194B4343174C23601F
:100350000DE0104B5B6803F4003323B1144B4343AF
:10036000124C236003E0104B4343104C236003E026
:100370000D4B0E4C236000BF00BF064B5B68C3F300
:1003800003130C4CE15C094B1B68CB40074C23600A
:1003900010BD000000100240002002400000FFF8E5
:1003A000FFFFF6FE08ED00E000127A0000000020DA
:1003B00000093D000400002010B50446CC488442EA
:1003C00008D10121042000F02DFB0021042000F0C1
:1003D00029FB46E0C748844208D10121082000F0EB
:1003E00021FB0021082000F01DFB3AE0C2488442B6
:1003F00008D10121102000F015FB0021102000F091
:1004000011FB2EE0BD48844208D10121202000F0DC
:1004100009FB0021202000F005FB22E0B8488442BF
:1004200008D10121402000F0FDFA0021402000F019
:10043000F9FA16E0B348844208D10121802000F087
:10044000F1FA0021802000F0EDFA0AE0AE48844283
:1004500007D10121801500F0E5FA0021A01500F078
:10046000E1FA10BD10B50121084600F0DBFA0021C9
:10047000012000F0D7FA10BD2DE9F0410246002519
:100480000026002000230024002791F803C00CF070
:100490000F0591F803C00CF0100CBCF1000F03D055
:1004A00091F802C04CEA050591F800C0BCF1000FBC
:1004B00031D0146800202BE04FF0010C0CFA00F34F
:1004C000B1F800C00CEA03069E4220D183004FF031
:1004D0000F0C0CFA03F7BC4305FA03FC4CEA0404C6
:1004E00091F803C0BCF1280F06D14FF0010C0CFAB3
:1004F00000FCC2F814C00AE091F803C0BCF1480F38
:1005000005D14FF0010C0CFA00FCC2F810C0401CE1
:100510000828D1D31460B1F800C0BCF1FF0F34DD5E
:10052000546800202EE000F1080C4FF0010808FA92
:100530000CF3B1F800C00CEA03069E4221D18300FF
:100540004FF00F0C0CFA03F7BC4305FA03FC4CEA1E
:10055000040491F803C0BCF1280F05D100F1080C88
:1005600008FA0CF8C2F8148091F803C0BCF1480FE7
:1005700007D100F1080C4FF0010808FA0CF8C2F896
:100580001080401C0828CED35460BDE8F0814FF69F
:10059000FF710180022181700421C1707047024601
:1005A000002093680B400BB1012000E00020704751
:1005B0000146886880B2704702460020D3680B402D
:1005C0000BB1012000E0002070470146C86880B2EE
:1005D000704701617047416170470AB1016100E0F5
:1005E00041617047C16070474FF480320A438261B5
:1005F0008161826182698269704702460020434BB3
:1006000018684FF68073184040EA021008433F4BC9
:10061000186070473E49C8617047F0B50A4600232C
:1006200000240021002500F00046B6F1004F02D161
:10063000364EF16901E0354E7168C0F3034583B26F
:1006400000F44016B6F5401F08D121F070612F4E1E
:10065000766826F070662D4F7E6012E000F48016FA
:10066000B6F5801F06D1032606FA05F4A14341F032
:10067000706106E0460D360103FA06F6B14341F01B
:10068000706122B1460D360103FA06F6314300F0DF
:100690000046B6F1004F02D11C4EF16101E01B4E45
:1006A0007160F0BD30B500228B071C0F0F2303FAD9
:1006B00004F2164B08338C1053F824309343134C38
:1006C00008348D1044F8253023468C1053F824301C
:1006D0008C07240F00FA04F423430C4C08348D10CB
:1006E00044F8253030BD0A49DC310860704700000D
:1006F00000080140000C01400010014000140140BE
:1007000000180140001C0140002001400000014091
:1007100000002042DF48006840F00100DD49086029
:1007200008464068DC490840DA49486008460068E5
:10073000DA490840D74908600846006820F480205C
:1007400008600846406820F4FE0048604FF41F002F
:1007500088607047CF49096821F48031CD4A116023
:100760001146096821F480211160B0F5803F03D063
:10077000B0F5802F0ED106E0C649096841F48031FA
:10078000C44A116007E0C349096841F4A021C14A85
:10079000116000E000BF00BF704710B501460022A5
:1007A000002300204A11012A02D1BA4C236806E036
:1007B000022A02D1B74C236A01E0B64C636A01F009
:1007C0001F02012494401C400CB1012000E00020D5
:1007D00010BD38B5002000900024002500BF312056
:1007E000FFF7DBFF05460098401C00900098B0F52D
:1007F000A06F01D0002DF2D03120FFF7CEFF08B15D
:10080000012400E00024204638BD01460020A14A12
:10081000106820F0F80040EAC10010607047A0495D
:1008200008607047024600209A4B586820F47C10FC
:1008300042EA01031843974B58607047984908668D
:10084000704701460020934A506820F00300084397
:10085000506070478F48406800F00C0070470146B8
:1008600000208C4A506820F0F00008435060704728
:1008700001460020874A506820F4E0600843506039
:10088000704701460020834A506820F4605040EAD7
:10089000C1005060704729B17E4A527A02437D4BB5
:1008A0005A7204E07B4A527A82437A4B5A727047FA
:1008B0007B49D8310860704701460020754A50686E
:1008C00020F440400843506070470021714A2032B4
:1008D0001170704A82F82010012802D004280AD131
:1008E00004E001216B4A2032117005E00521694ABC
:1008F0002032117000E000BF00BF704769490860F6
:1009000070476449096A0143624A11627047654948
:1009100044390860704730B50021002200240023CC
:100920005C4D6D6805F00C0121B1042905D0082942
:1009300023D105E05C4D056022E05B4D05601FE0C2
:10094000544D6D6805F47012524D6D6805F4803495
:10095000022505EB92421CB9544D554305600BE04E
:100960004C4D6D6805F400351DB1504D5543056083
:1009700002E04D4D5543056002E04B4D056000BF60
:1009800000BF444D6D6805F0F0010909484D6B5CEE
:100990000568DD4045603F4D6D6805F4E061090A7A
:1009A000434D6B5C4568DD4085603A4D6D6805F4EC
:1009B0006051C90A3E4D6B5C4568DD40C560354DF0
:1009C0006D6805F44041890B3A4D6B5CC568B5FB19
:1009D000F3F5056130BD29B12E4A526902432D4B12
:1009E0005A6104E02B4A526982432A4B5A6170478C
:1009F00029B1284A92690243264B9A6104E0254AAC
:100A000092698243234B9A61704729B1214AD26986
:100A10000243204BDA6104E01E4AD26982431D4B37
:100A2000DA61704729B11B4AD2680243194BDA6078
:100A300004E0184AD2688243164BDA60704729B145
:100A4000144A12690243134B1A6104E0114A1269F5
:100A50008243104B1A617047124940390860704751
:100A60000F49C86470470B49C87170470948406A0C
:100A700040F0807007494862704701460020054AEF
:100A800092680A400AB1012000E000207047014945
:100A900088727047001002400000FFF8FFFFF6FE6A
:100AA000000042428004424200127A0000093D00E8
:100AB000140000202400002031490143314A116014
:100AC000704770B5002100230F22C47804B32D4C69
:100AD000246804F4E064C4F5E064210AC1F104036D
:100AE000CA40447804FA03F1847814402143090190
:100AF000254C0678A155047804F01F050124AC406C
:100B000005786D11AD0005F1E025C5F8004109E05B
:100B1000047804F01F050124AC401C4D06787611C2
:100B200045F8264070BD1A4A0A400243154B1B1F68
:100B30001A60704739B1134A121D12680243114BF3
:100B40001B1D1A6006E00F4A121D126882430D4BEE
:100B50001B1D1A607047042808D14FF0E021096975
:100B600041F004014FF0E022116107E04FF0E02175
:100B7000096921F004014FF0E02211617047000083
:100B80000000FA050CED00E000E400E080E100E088
:100B900080FFFF1F10B50446FE48844208D10121A2
:100BA000C014FFF73FFF0021E014FFF73BFFC4E054
:100BB000B4F1804F08D101210846FFF740FF002122
:100BC0000120FFF73CFFB8E0F348844208D101213F
:100BD0000220FFF734FF00210220FFF730FFACE0D6
:100BE000EE48844208D101210420FFF728FF0021AC
:100BF0000420FFF724FFA0E0E948844208D1012146
:100C00000820FFF71CFF00210820FFF718FF94E0E1
:100C1000E448844208D101211020FFF710FF002191
:100C20001020FFF70CFF88E0DF48844208D1012143
:100C30002020FFF704FF00212020FFF700FF7CE0C9
:100C4000DA48844208D101214014FFF7EBFE00216D
:100C50006014FFF7E7FE70E0D548844209D1012116
:100C6000C804FFF7DFFE00214FF40020FFF7DAFE93
:100C700063E0D048844209D101210805FFF7D2FE84
:100C800000214FF48010FFF7CDFE56E0CA488442A1
:100C900009D101214805FFF7C5FE00214FF40010DE
:100CA000FFF7C0FE49E0C548844208D10121402039
:100CB000FFF7C5FE00214020FFF7C1FE3DE0C04820
:100CC000844208D101218020FFF7B9FE0021802055
:100CD000FFF7B5FE31E0BB48844208D10121801501
:100CE000FFF7ADFE0021A015FFF7A9FE25E0B648ED
:100CF000844209D101210804FFF794FE00214FF43A
:100D00008030FFF78FFE18E0B048844209D10121FE
:100D10004804FFF787FE00214FF40030FFF782FE02
:100D20000BE0AB48844208D101218804FFF77AFE2A
:100D300000214FF48020FFF775FE10BD00220288CD
:100D4000944B98420ED0994B98420BD0B0F1804F03
:100D500008D0914B984205D0904B984202D0904BCE
:100D6000984204D14FF68F731A404B881A438D4B2B
:100D7000984207D08C4B984204D04FF6FF431A405C
:100D8000CB881A4302808B8883850B880385814B2F
:100D900098420BD0854B984208D08B4B984205D097
:100DA0008A4B984202D08A4B984201D10B7A038633
:100DB00001238382704770B5002400220023058C34
:100DC0004FF6FE7635400584028C8388048B4FF6FF
:100DD0008F752C40B51E2C400D882C43751E2A4063
:100DE0000D892A434D882A436A4DA8420BD06F4D86
:100DF000A84208D0744DA84205D0744DA84202D034
:100E0000734DA84213D14FF6F7752A404D892A43F6
:100E10004FF6FB752A408D882A434FF6FF652B401D
:100E20004FF6FF552B408D892B43CD892B43838073
:100E30000483CD888586028470BD70B500240022AD
:100E40000023058C4FF6EF7635400584028C8388AD
:100E5000048B48F6FF752C404FF6FF452C400D885B
:100E60004FF6FF7606EA05252C434FF6DF752A403C
:100E70000D8906EA05152A434D8806EA05152A4319
:100E8000444DA84202D0494DA8421DD14FF67F756E
:100E90002A404D894FF6FF7606EA05152A434FF69C
:100EA000BF752A408D8806EA05152A434FF6FF359F
:100EB0002B404FF2FF752B408D8906EA85052B43A9
:100EC000CD8906EA85052B4383800483CD88058779
:100ED000028470BD70B5002400220023058C4FF6FB
:100EE000FF6635400584028C8388848B4FF68F75AE
:100EF0002C404FF6FC752C400D882C434FF6FF55C7
:100F00002A400D894FF6FF7606EA05252A434D88CB
:100F100006EA05252A431F4DA84202D0234DA842C8
:100F20001DD14FF2FF752A404D894FF6FF7606EA34
:100F300005252A434FF6FF352A408D8806EA052508
:100F40002A434EF6FF752B404DF6FF752B408D89D9
:100F500006EA05152B43CD8906EA05152B43838048
:100F60008483CD888587028470BD70B500220023FC
:100F70000024058C4EF6FF7635400584038C84886A
:100F8000828B48F6FF752A404FF6FF452A400D88B0
:100F900020E00000002C0140000400400008004058
:100FA000000C0040001000400014004000340140DC
:100FB000004C014000500140005401400018004026
:100FC000001C00400020004000400140004401405F
:100FD000004801404FF6FF7606EA05252A434DF604
:100FE000FF752B400D8906EA05352B434D8806EA2F
:100FF00005352B43FA4DA84202D0FA4DA84208D13C
:101000004BF6FF752C408D894FF6FF7606EA851565
:101010002C4384808283CD88A0F84050038470BD27
:10102000828B4FF2FF331A408283828B4FF6FF731D
:1010300003EA01231A4382837047F0B50C46154634
:10104000002200210026078C4EF6FF7C07EA0C07E1
:101050000784828B018C4FF6FF7707EA043640F64F
:10106000FF473A404FF6FF7707EA05273A434FF626
:10107000FF7707EA03373A43D94FB8420ED0D94F2A
:10108000B8420BD0B0F1804F08D0D74FB84205D04E
:10109000D64FB84202D0D64FB84206D14DF6FF77B0
:1010A000394046F48057394305E047F6FF57394049
:1010B00044F48057394382830184F0BD828B4FF61C
:1010C000F3731A408283828B0A4382837047F0B5A0
:1010D0000C461546002200210026078C4FF6FF6CB7
:1010E00007EA0C070784828B018C4FF6FF7707EA2B
:1010F00004264FF60C773A404FF6FF7707EA0317BE
:101100002F433A43B64FB8420ED0B64FB8420BD039
:10111000B0F1804F08D0B44FB84205D0B34FB842B9
:1011200002D0B34FB84206D14FF6FF57394046F4CC
:101130008077394305E04FF2FF57394044F4807718
:10114000394382830184F0BD028B4FF2FF331A4092
:101150000283028B4FF6FF7303EA01231A430283D3
:101160007047F0B50C461546002200210026078C7A
:101170004FF6EF7C07EA0C070784028B018C4FF6D1
:10118000FF7707EA041640F6FF473A404FF6FF772D
:1011900007EA03373A434FF6FF7707EA05273A4352
:1011A0008F4FB8420ED08F4FB8420BD0B0F1804F66
:1011B00008D08D4FB84205D08C4FB84202D08C4F2A
:1011C000B84206D14FF6DF77394046F01007394371
:1011D00005E04FF65F77394044F01007394302834A
:1011E0000184F0BD028B4FF6F3731A400283028B29
:1011F0000A4302837047F0B50C46154600220021D1
:10120000068C4FF6FE773E400684028B018C4FF62B
:101210000C7632407E1C06EA03162E433243704E93
:10122000B0420ED06F4EB0420BD0B0F1804F08D01C
:101230006D4EB04205D06D4EB04202D06C4EB04201
:1012400006D14FF6FD76314044F00106314305E00A
:101250004FF6F576314044F00106314302830184B4
:10126000F0BD70B505460C465D4885420ED05D4820
:1012700085420BD0B5F1804F08D05B48854205D040
:101280005A48854202D05A48854200D100E000BF4A
:10129000208850B92389A28861882846FFF7ABFFD0
:1012A000E1882846FFF79EFF25E0208804280AD120
:1012B0002389A28861882846FFF753FFE1882846E2
:1012C000FFF742FF17E0208808280AD12389A28867
:1012D00061882846FFF7FBFEE1882846FFF7EEFE0F
:1012E00009E02389A28861882846FFF7A6FEE188E5
:1012F0002846FFF795FE70BD2DE9F04105460C46E6
:1013000000260127608808B9022600E00026A08890
:10131000012801D1022700E001272088A0B92389F4
:10132000A28861882846FFF766FFE1882846FFF714
:1013300059FF23893A4631462846FFF712FFE188D4
:101340002846FFF701FF13E02389A2886188284619
:10135000FFF707FFE1882846FFF7F6FE23893A46A4
:1013600031462846FFF747FFE1882846FFF73AFF56
:10137000BDE8F0810A884B881A438B881A43CB88D2
:101380001A430B891A434B891A438B891A43A0F8D5
:10139000442070474FF6FF71818000210180C18099
:1013A0004180017270470021018041808180C180AD
:1013B000018141818181C18170470021018041808B
:1013C000012181800021C1800181704700210180BD
:1013D00041808180C180018141818181704700000D
:1013E000002C01400034014000040040000800408F
:1013F000000C004021B1028842F00102028004E0AA
:1014000002884FF6FE731A400280704731B1B0F87F
:10141000442042F40042A0F8442005E0B0F8442003
:10142000C2F30E02A0F8442070471AB183890B431F
:10143000838102E083898B43838170478182704777
:1014400041EA0203A0F8483070471AB183890B4380
:10145000838102E083898B438381704701894FF642
:10146000F8721140018170470A46002101894FF648
:101470008F73194011430181704730B504460D4602
:1014800029462046FFF7F0FF208940F00700208121
:1014900030BD2DE9F04104460D4616461F46602D2D
:1014A00006D13B46012231462046FFF75AFE05E0B1
:1014B0003B46012231462046FFF79DFE2946204645
:1014C000FFF7D2FF208940F007002081BDE8F081BE
:1014D00030B50C4600210189C9B24FF6FF7505EA07
:1014E0000325154325432943018130BD2DE9F041F2
:1014F00005460E4617469846002443463A4631466E
:101500002846FFF7E5FF2C894FF6F870044044F0B9
:1015100007044FF68F70044044F070042C81BDE83E
:10152000F081F0B504460D4616461F463B4632464E
:1015300029462046FFF7CCFF208940F480402081D7
:10154000F0BD0185828270470A46002101884FF66E
:101550008F731940114301807047F0B50C46154652
:101560001E460021002200230189028B038C4FF6C6
:10157000F877394021434FF6FC473A4040F20117D3
:101580003A434FF6DD773B404FF6FF7707EA061701
:101590002F433B43018102830384F0BD0A460021AF
:1015A000018B4FF68F7319401143018370470A4630
:1015B0000021018B48F6FF7319404FF6FF7303EAD1
:1015C00002231943018370470A460021818B4FF69D
:1015D0008F7319401143818370470A460021818B24
:1015E00048F6FF7319404FF6FF7303EA02231943CD
:1015F0008183704721B1028842F08002028004E0BA
:1016000002884FF67F731A400280704721B18288AA
:1016100042F00402828004E082884FF6FB731A4095
:101620008280704721B1828842F00802828004E003
:1016300082884FF6F7731A408280704721B1828802
:1016400042F00102828004E082884FF6FE731A4065
:10165000828070470A460021018B4FF6F7731940CC
:101660001143018370470A460021018B4FF2FF733B
:1016700019404FF6FF7303EA0223194301837047B1
:101680000A460021818B4FF6F7731940114381837D
:1016900070470A460021818B4FF2FF7319404FF6C5
:1016A000FF7303EA02231943818370470A4600212E
:1016B000018B4FF6FB7319401143018370470A46B3
:1016C0000021018B4FF6FF3319404FF6FF7303EAF9
:1016D00002231943018370470A460021818B4FF68C
:1016E000FB7319401143818370470A460021818BA7
:1016F0004FF6FF3319404FF6FF7303EA02231943F5
:10170000818370470A460021018B4FF67F73194091
:101710001143018370470A460021018BC1F30E017A
:101720004FF6FF7303EA02231943018370470A4609
:101730000021818B4FF67F731940114381837047DD
:101740000A460021818BC1F30E014FF6FF7303EAB5
:1017500002231943818370470A460021018C4FF60A
:10176000FD7319401143018470470A460021018C22
:101770004FF6F77319401143018470470A46002160
:10178000018C4FF6DF7319404FF6FF7303EA021323
:101790001943018470470A460021018C4FF67F737C
:1017A00019404FF6FF7303EA02131943018470478F
:1017B0000A460021018C4FF6FF5319404FF6FF7384
:1017C00003EA02231943018470470A460021018C71
:1017D0004FF2FF7319404FF6FF7303EA02231943D8
:1017E000018470470A460021018C4DF6FF731940B1
:1017F0004FF6FF7303EA023319430184704730B593
:10180000002301248C40A3B2048C9C430484048CE8
:1018100002FA01F5ADB22C43048430BD30B500238B
:1018200004248C40A3B2048C9C430484048C02FAEC
:1018300001F5ADB22C43048430BD70B503460020E1
:1018400000241846183001258D40ACB21D8CA543EC
:101850001D8409B1082909D100EB6100056825F054
:10186000700505600568154305600EE00D1FC5F3A2
:101870004E052844056825F4E045056005684FF6E7
:10188000FF7606EA02263543056070BD21B1028865
:1018900042F00202028004E002884FF6FD731A4013
:1018A0000280704721B1028842F00402028004E005
:1018B00002884FF6FB731A400280704721B182887C
:1018C00042F08002828004E082884FF67F731A40E3
:1018D0008280704702884FF6F7731A4002800288B0
:1018E0000A430280704782884FF68F731A408280C5
:1018F00082880A438280704702894FF6F8731A4043
:10190000028102890A430281704702894FF67F7380
:101910001A40028102890A4302817047818470471C
:10192000818570478186704701877047818770473E
:10193000A0F84010704702884FF6FF431A4002801B
:1019400002880A43028070470146888E704701462C
:10195000088F70470146888F70470146B1F84000F4
:1019600070470146888C70470146088D70470246D3
:101970000020138A0B400BB1012000E000207047CB
:10198000CA430282704730B502460020002300247B
:10199000158A05EA0103958905EA010413B10CB122
:1019A000012000E0002030BDCA43028270470000E1
:1019B00010B50120FFF750F80020FFF74DF810BDDB
:1019C0002A49086070472949091F0860704727495C
:1019D00084310860704701460020254A10884FF680
:1019E0007F4210400843224A108070470146002081
:1019F0001F4A10884FF68072104008431C4A10801E
:101A0000704708B500220092194A2C3A0092009AB9
:101A100002440092009A116008BD08B501460020FA
:101A2000009013482C3800900098084400900098CB
:101A3000008808BD0D489C300068C0B270470C4853
:101A40000830008840F001000949083108807047DB
:101A50000648A0300068C0B27047054808300088CA
:101A600040F00200024908310880704704860D42A8
:101A70002C6C004010B501210807FEF7E0FF0021A3
:101A80004FF08050FEF7DBFF10BD2A490862704717
:101A900028490861704701460020274A106820F055
:101AA000E0000843106070472249A0310860704789
:101AB00010B502460020204B186820F003001043A8
:101AC00018601E4B1B6843F004031C4C2360012963
:101AD00001D130BF00E020BF184B1B6823F0040386
:101AE000164C236010BD1448006840F004001249F1
:101AF00008600846006840F0020008600F4800686F
:101B000040F004000D49086000BF00BF30BF7047BF
:101B100001460020084A52680A400AB1012000E04C
:101B2000002070470449096841EA8001024A1160B7
:101B30007047000000000E420070004010ED00E011
:101B400029B1504A128802434E4B1A8004E04D4A94
:101B5000128882434B4B1A8070474A48001D008808
:101B600040F010004749091D088070474548001D96
:101B700000884FF6EF7108404249091D0880704700
:101B8000002140481C300188001F008841EA0040C5
:101B9000704700B50246FFF7E0FF100C39491831D5
:101BA0000880091D0A80FFF7E1FF00BD00B502466D
:101BB000FFF7D3FFC2F30340324908310880091D03
:101BC0000A80FFF7D3FF00BD00B50246FFF7C5FF4F
:101BD000100C2C4920310880091D0A80FFF7C6FF30
:101BE00000BD00202749103109880907080B254945
:101BF000143109880843704700BF2248001D00883F
:101C000000F020000028F8D070471E48001D008812
:101C10004FF6F77108401B49091D088000BF19489D
:101C2000001D008800F008000028F8D07047014629
:101C30000020144A121D12880A400AB1012000E057
:101C4000002070470F49091D098881430D4A121D64
:101C500011807047014600200A4A121D12880A406E
:101C6000D0B2084A12880A4012B108B1012000E03F
:101C7000002070470349091D09888143014A121D4C
:101C8000118070470028004010B50446FB4884428C
:101C900009D101218803FEF7C5FE00214FF48040E1
:101CA000FEF7C0FE32E0F648844209D10121480423
:101CB000FEF7C5FE00214FF40030FEF7C0FE25E020
:101CC000F048844209D101218804FEF7B8FE0021C2
:101CD0004FF48020FEF7B3FE18E0EB48844209D1B0
:101CE0000121C804FEF7ABFE00214FF40020FEF7EF
:101CF000A6FE0BE0E548844208D101210805FEF765
:101D00009EFE00214FF48010FEF799FE10BD2DE9D4
:101D1000F04786B005460E460024A24600BFA14605
:101D20000027B08900B100BF2F462C8A4CF6FF7007
:101D30000440F08804432C82AC894EF6F310044032
:101D4000B08831890843718908430443AC81AC8A67
:101D50004FF6FF400440B0890443AC8201A8FEF76F
:101D6000DAFDC648874202D1DDF810A001E0DDF8B7
:101D70000CA0A88900F4004040B10AEBCA0000EBB7
:101D80000A1031684900B0FBF1F807E00AEBCA001D
:101D900000EB0A1031688900B0FBF1F86420B8FB51
:101DA000F0F004012009642101FB1089A88900F4E6
:101DB000004040B1322000EBC900B0FBF1F000F070
:101DC0000700044308E0322000EB09106421B0FB57
:101DD000F1F000F00F0004432C8106B0BDE8F0875D
:101DE0004FF41651016000218180C18001810C21D6
:101DF000418100218181704710B502460020108A80
:101E00004FF2FF0318400B884C8823438C882343F0
:101E1000CC8823431843108210BD002101804180EB
:101E20008180C180704721B1828942F40052828151
:101E300004E082894DF6FF731A4082817047F0B545
:101E40000346002400260025002040F66A17B94208
:101E500000D100BF1846C1F3421401F01F0601274C
:101E600007FA06F5012C01D10C3004E0022C01D157
:101E7000103000E014301AB107682F43076002E009
:101E80000768AF430760F0BD1AB1838A0B438382B2
:101E900002E0838A8B4383827047028A4FF6F07395
:101EA0001A400282028A0A430282704782894FF2F4
:101EB000FF731A40828182890A438281704721B16F
:101EC000828942F00202828104E082894FF6FD732A
:101ED0001A4082817047028A4FF6DF731A400282ED
:101EE000028A0A430282704721B1028A42F4804288
:101EF000028204E0028A4BF6FF731A4002827047A6
:101F0000C1F308028280704701468888C0F3080048
:101F10007047818941F0010181817047028BD2B203
:101F20000283028B42EA012202837047028B02F491
:101F30007F420283028B0A430283704721B1828A67
:101F400042F02002828204E0828A4FF6DF731A4058
:101F50008282704721B1828A42F01002828204E0BC
:101F6000828A4FF6EF731A408282704721B1828ACB
:101F700042F00802828204E0828A4FF6F7731A4028
:101F80008282704721B1828942F40042828103E05B
:101F90008289C2F30E028281704721B1828A42F4A3
:101FA0000062828204E0828A4FF2FF731A408282CA
:101FB0007047828A4FF6FB731A408282828A0A43F4
:101FC0008282704721B1828A42F00202828204E05A
:101FD000828A4FF6FD731A408282704702460020C3
:101FE000B1F5007F00D100BF13880B400BB1012079
:101FF00000E00020704701F40072B2F5007F00D1CC
:1020000000BFCA430280704770B502460024002317
:102010000025002040F66A16B14200D100BFC1F38E
:10202000421501F01F03012606FA03F3012D02D128
:102030009689334006E0022D02D1168A334001E032
:10204000968A33400C12012606FA04F416883440AE
:1020500013B10CB1012000E0002070BD10B50022CA
:10206000002340F66A14A14200D100BF0A120124E5
:102070009440A3B2DC43048010BD0000003801404E
:102080000044004000480040004C00400050004028
:10209000002109E0002201E0531C9AB240F6B83357
:1020A0009A42F9DB4B1C99B28142F3DB704710B5C1
:1020B000FD4BDB689AB24FF40073FC4C23605B105D
:1020C00023602023241F2360F74BD8602023241D86
:1020D0002360241F2360DB002360F34BD96020239F
:1020E000241D2360241F2360DB002360EE4BDA6095
:1020F00010BD00B501210020FFF7D9FF4FF47A7021
:10210000FFF7C6FF00210120FFF7D1FF41F29071D8
:102110001020FFF7CCFF4FF41C516020FFF7C7FFE2
:1021200001216120FFF7C3FF02214620FFF7BFFF17
:1021300048F210011320FFF7BAFF48F2FE01122007
:10214000FFF7B5FF4FF4A0610220FFF7B0FF41F2A7
:1021500030010320FFF7ABFF40F203313020FFF7DF
:10216000A6FF40F203313120FFF7A1FF40F2033117
:102170003220FFF79CFF4FF440713320FFF797FFA9
:1021800003213420FFF793FF40F203313520FFF79E
:102190008EFF14213620FFF78AFF40F203313720EB
:1021A000FFF785FF40F203313820FFF780FF40F250
:1021B00003313920FFF77BFF4FF440713A20FFF7DE
:1021C00076FF03213B20FFF772FF40F203313C20F2
:1021D000FFF76DFF4FF4A0513D20FFF768FF4FF46C
:1021E00000719220FFF763FF40F203319320FFF765
:1021F0005EFF40F60D019020FFF759FF41F21801F4
:102200000320FFF754FF40F273110720FFF74FFF41
:1022100000BD00B543F20801E320FFF748FF12219B
:10222000E720FFF744FF41F23121EF20FFF73FFFA6
:1022300000210120FFF73BFF4FF4E0610220FFF790
:1022400036FF41F230010320FFF731FF0021042067
:10225000FFF72DFF40F207210820FFF728FF00219C
:102260000920FFF724FF00210A20FFF720FF0021AB
:102270000C20FFF71CFF00210D20FFF718FF0021A5
:102280000F20FFF714FF00211020FFF710FF072198
:102290001120FFF70CFF00211220FFF708FF00219B
:1022A0001320FFF704FF4FF47A70FFF7F1FE41F2BD
:1022B00090611020FFF7FBFE40F227211120FFF76D
:1022C000F6FE3220FFF7E4FE1D211220FFF7EFFE9D
:1022D0003220FFF7DDFE4FF400611320FFF7E7FE29
:1022E00014212920FFF7E3FE0B212B20FFF7DFFE4F
:1022F0003220FFF7CDFE00212020FFF7D8FE00217D
:102300002120FFF7D4FE07213020FFF7D0FE40F256
:1023100007713120FFF7CBFE06213220FFF7C7FE01
:1023200040F204713520FFF7C2FE41F604713620F9
:10233000FFF7BDFE04213720FFF7B9FE002138204A
:10234000FFF7B5FE40F206713920FFF7B0FE40F20C
:1023500001713C20FFF7ABFE0F213D20FFF7A7FEE8
:1023600000215020FFF7A3FEEF215120FFF79FFE31
:1023700000215220FFF79BFE40F23F115320FFF750
:1023800096FE4FF41C516020FFF791FE0121612061
:10239000FFF78DFE00216A20FFF789FE00218020D3
:1023A000FFF785FE00218120FFF781FE00218220BA
:1023B000FFF77DFE00218320FFF779FE00218420B6
:1023C000FFF775FE00218520FFF771FE1021902098
:1023D000FFF76DFE00219220FFF769FE0321932095
:1023E000FFF765FE4FF488719520FFF760FE00212E
:1023F0009720FFF75CFE00219820FFF758FE41F27E
:1024000018010320FFF753FE40F273110720FFF776
:102410004EFE00BD08B54FF6FF70ADF8000003207A
:102420008DF8020010208DF8030069461E48FEF763
:1024300023F808BD08B54FF6FF70ADF80000032083
:102440008DF8020048208DF8030069461648FEF713
:1024500013F808BD70B504464FF4007013490860C6
:10246000401008602020091F08600F48C460202029
:10247000091D0860091F0860C0000860FFF7DAFF47
:102480004FF48060094908600748806885B20815E4
:10249000091F0860FFF7BEFF4FF400700349091FD2
:1024A0000860284670BD000000100140140C014077
:1024B00008B501211820FEF79BFA01212020FEF724
:1024C00097FA4FF4E460ADF8000001208DF80200A7
:1024D00010208DF803006946F648FDF7CDFFFFF7A1
:1024E00099FFF4481030006840F4C460F14910319D
:1024F000086008BD10B5FFF7DBFF0020FFF7AAFF5B
:10250000ED4908800846008848F23021884202D10F
:10251000FFF7EFFD01E0FFF77CFE0020FFF79AFFD9
:10252000E549088010BD01B5BDF80000E349088009
:1025300008BD01B5BDF80000E149088008BD30B50F
:1025400004460D4621462020FFF7B1FD29462120F3
:10255000FFF7ADFD30BDDB4AD26891B24FF4007297
:10256000D44B14331A6052101B1F1A6020221A60B9
:10257000D44AD06020221B1D1A601B1F1A60D20093
:102580001A6052001A60CF4AD1607047CD49C968BD
:1025900088B24FF40071C74A1432116049101160BB
:1025A0002021121F11602221C64AD1602021C14A78
:1025B00014321160121F1160C900116049001160CE
:1025C000C049C86070472DE9F04306468946174662
:1025D00000240025A046B04649464046FFF7AFFF1D
:1025E00000BF1EE0FFF7D2FF00250FE037F8140010
:1025F0000121A940084020B9B1480088FFF7ABFF8E
:1026000003E0AE480088FFF7A6FF6D1C102DEDD348
:1026100008F1010000F0FF0849464046FFF78FFF30
:10262000641C182CDED3BDE8F08370B505460E4659
:102630001446A4F12000C4B204EB4400A24901EB0B
:10264000001231462846FFF7BEFF70BDF0B50746C1
:102650000C46002540F23F1609E022783146384604
:10266000FFF7E3FFA6F1100086B2641C6D1C207812
:1026700008B1142DF1D3F0BD10B5044693A1204646
:10268000FFF7E4FF10BD30B50546002400210846E1
:10269000FFF755FFFFF77AFF00BF03E02846FFF77B
:1026A0005AFF641CB4F5963FF8D330BDF0B504462C
:1026B0000D4616461F46B44206DBA01B401C81B2E5
:1026C0005020FFF7F4FC03E000215020FFF7EFFC5F
:1026D00021465120FFF7EBFCBD4206DBE81B401C06
:1026E00081B25220FFF7E3FC03E000215220FFF704
:1026F000DEFC29465320FFF7DAFC29462046FFF787
:102700001EFFF0BD00B54FF4A073F022591EEF205C
:10271000FFF7CCFF41F218010320FFF7C8FC00BD12
:102720002DE9F0410646884615461F4600244146DD
:102730003046FFF704FF5FB9FFF728FF00BF04E052
:102740005E480088FFF707FF641CAC42F8D310E036
:1027500000240CE0FFF71AFF58480088FFF7FBFE43
:10276000701CC6B241463046FFF7E9FE641CAC421D
:10277000F0D3BDE8F081F0B505460E4617461C467D
:102780000023224631462846FFF7CAFFE919C8B29E
:10279000002322463146FFF7C3FF01233A46314664
:1027A0002846FFF7BDFF301B401C81B201233A468B
:1027B0002846FFF7B5FFF0BD2DE9F04306460F466A
:1027C00090460320A0EB4809002445466EE07A19A4
:1027D00091B23219D0B2FFF7B2FEFFF7D7FE3748F9
:1027E0000088FFF7B8FE7A1B91B23219D0B2FFF71A
:1027F000A6FEFFF7CBFE31480088FFF7ACFE7A1942
:1028000091B2321BD0B2FFF79AFEFFF7BFFE2B4802
:102810000088FFF7A0FE7A1B91B2321BD0B2FFF7FF
:102820008EFEFFF7B3FE25480088FFF794FE3A19A5
:1028300091B27219D0B2FFF782FEFFF7A7FE1F48D0
:102840000088FFF788FE3A1B91B27219D0B2FFF7E9
:1028500076FEFFF79BFE19480088FFF77CFE3A19C9
:1028600091B2721BD0B2FFF76AFEFFF78FFE1348DA
:102870000088FFF770FE3A1B91B2721BD0B2FFF7CF
:102880005EFEFFF783FE0D480088FFF764FEB9F196
:10289000000F04DA062000EB8400814405E0601B91
:1028A0000A2101EB800081446D1E641CAC428ED96C
:1028B000BDE8F083000C01402C000020280000201F
:1028C0002A00002000100140383F0008202020206E
:1028D00020202020202020202020202020202020F8
:1028E0000000000070B506460024002540F23F11AC
:1028F0000020FFF724FEFFF749FE00BF14E000258B
:102900000FE056F824000121A940084020B95F4893
:102910000088FFF720FE03E05D480088FFF71BFEFC
:102920006D1C202DEDD3641CB4F5166FE7D370BD7C
:1029300070B50446002500266688A08846EA004651
:102940006589A08945EA0045701B46082C4441F280
:1029500008010320FFF7ABFBFFF718FE002504E09A
:102960002088FFF7F8FDA41C6D1CB542F8D341F296
:1029700018010320FFF79BFB70BD10B54FF40070EA
:1029800044490860401008602020091F0860222088
:102990004149C86020203F490860091F0860C00005
:1029A0000860FFF747FD4FF480603A4908603A48F5
:1029B000806884B20815091F0860FFF72BFD4FF4EB
:1029C00000703449091F0860204610BD00B5002181
:1029D0001020FFF76CFB00211120FFF768FB00219E
:1029E0001220FFF764FB00211320FFF760FB142087
:1029F000FFF74EFB41F2B0711020FFF758FB40F299
:102A000037111120FFF753FB0520FFF741FB40F280
:102A100039111220FFF74BFB0520FFF739FB4FF46C
:102A2000E8511320FFF743FB13212920FFF73FFB59
:102A30000520FFF72DFB40F273110720FFF737FB4E
:102A400000BD00B540F273110720FFF730FB00BD59
:102A500000B500210720FFF72AFB00BD30B5054671
:102A600000210846FFF76BFDFFF790FD002409E009
:102A700015F814206100491C695C42EA0120FFF747
:102A80006AFD641CB4F5963FF2DB30BD2A000020DD
:102A900028000020140C014000100140FE4908608D
:102AA00000BFFD4909680029FBD1704710B500F04F
:102AB00055FDFA480078012823D1F948007868B11B
:102AC0000020F7490870F7480378F748027808466D
:102AD0000178F648007800F0AFFE7DE00120F04973
:102AE00008700020EF49087008460378EE48027825
:102AF000EB480178ED48007800F09EFE00F09FFF63
:102B00006AE0E6480078022819D1E8480078401CBD
:102B10000B2190FBF1F201FB1200E449087008461A
:102B20000178002000F0CBFCDE480378DE48027814
:102B3000DB480178DD48007800F07EFE4CE0D748A5
:102B4000007804282BD1D748007878B10020D549E7
:102B5000087008460378D4480278D1480178D348F1
:102B6000007800F069FE00F06AFF35E0D048FFF71A
:102B70008BF800214FF40030FDF747FF0120C949D1
:102B800008700020C6490870C6480378C648027815
:102B900008460178C548007800F04EFE1CE0BF48AA
:102BA0000078082818D1C0480078401C0B2190FB01
:102BB000F1F201FB1200BC490870084601780120BF
:102BC00000F07DFCB7480378B7480278B448017834
:102BD000B648007800F030FE10BD08B54FF4E06054
:102BE000FDF76AFFB34800684FF47A72B0FBF2F168
:102BF000481EB0F1807F00D31BE0481E4FF0E0225A
:102C0000506150170F22002807DA13071E0EAA4B37
:102C100000F00F052D1F5E5503E013071D0EA74B97
:102C20001D5400BF00204FF0E0229061072010618A
:102C300000BF00F0CFFCFFF75DFC0020FFF723FD95
:102C40000020FFF776FC4FF6FF70FFF76CFC00F0FA
:102C50006DFC00F035FD00F01FFC924803789248AF
:102C600002788F4801789148007800F0E5FD00F087
:102C70004DFE32223B21172000F077FE00F0DFFEF0
:102C8000002408E004F11001C8B200F02FFC8C49C8
:102C90000855601CC4B2082CF4DB894800688949D7
:102CA00088420AD1002000F021FC804908700120F0
:102CB00000F01CFC7C4908700FE0824880490860E5
:102CC000002408E07E4A115D04F11002D0B200F049
:102CD000F6FB601CC4B2082CF4DB16E200F058FED0
:102CE0001421794801F010F87048007800EB80005A
:102CF000420076A1744800F0CBFE73490020FFF734
:102D0000A5FC1421704800F0FFFF6748007800EB35
:102D10008000420072A16C4800F0BAFE6A4930207F
:102D2000FFF794FC1421684800F0EEFF714800683A
:102D3000009071480368714871A10268624800F010
:102D4000A7FE61496020FFF781FC14215E4800F076
:102D5000DBFF5348007838B15248007820B16FA1AA
:102D6000594800F095FE13E04D48007820B171A15C
:102D7000554800F08DFE0BE04A48007820B172A162
:102D8000514800F085FE03E074A14F4800F080FE3A
:102D90004D499020FFF75AFC75A1C020FFF756FC63
:102DA0003F48007840B13F48007828B101214FF4F6
:102DB000407000F03DFC1EE03948007848B1012128
:102DC000080200F035FC00214FF4007000F030FCE8
:102DD00011E03448007848B10121480200F028FC95
:102DE00000214FF4807000F023FC04E000214FF438
:102DF000407000F01DFC6148007800284AD0002097
:102E00005E4908705E480078302844DB5C480078F2
:102E1000392840DC5A48407830283CDB5848407814
:102E2000392838DC564880783A2834D154484079DB
:102E30003A2830DC5248C07830282CDB5048C07823
:102E4000392828DC4E480079302824DB4C480079AA
:102E5000392820DC4A48807930281CDB48488079B2
:102E6000392818DC4648C079302814DB4448C0793A
:102E7000392810DC4248007A2D280CD14048407A8D
:102E8000502808D13E48807A412804D13C48C07A75
:102E9000312877E0DBE0C2E030000020490000206C
:102EA00036000020370000203500002034000020CC
:102EB000004400400000002018ED00E000E400E0C5
:102EC0004000002011DCF6515800002050574D2DD5
:102ED0005041313A20253032642525202000000061
:102EE00050574D2D5041323A20253032642525204F
:102EF0002000000054000020500000204C00002062
:102F000054696D653A20253032643A2025303264A8
:102F10003A20253032642020200000004368616E92
:102F20006E656C3A205041312C50413220202020D7
:102F3000200000004368616E6E656C3A205041319C
:102F400020202020200000004368616E6E656C3AEE
:102F50002050413220202020200000004368616E74
:102F60006E656C3A204E4F4E4520202020200000F8
:102F7000436F6D6D616E643A202020003F00002099
:102F80006C00002003D08C48C07A32284BD18A488C
:102F9000007B2D2847D18848407B312843DB864879
:102FA000407B39283FDC8448007B2D283BD1824878
:102FB000807B532837D18048C07B80BB01207F496C
:102FC00008727D48407830387B490978303901EB08
:102FD000810100EB41007949087077480079303869
:102FE0007549C978303901EB810100EB4100734923
:102FF00048707148C07930386F498979303901EBB0
:10300000810100EB41006D4988706B48407B30388E
:10301000C8706948C07A312802D10120487202E0A4
:103020000220664948721421654800F06DFE624A2C
:1030300064A1634800F02CFD6149D820FFF706FB2E
:1030400014215D4800F060FE0020604908705B4874
:10305000007A58B3594800785D49096888423ED1E2
:10306000564840785B490968884238D1534880788F
:1030700059490968884232D100205049087201201C
:10308000C8710846407A012811D1544908700020BF
:103090005349087008460378524802784F4801782F
:1030A0005148007800F0C8FB00F0C9FC17E04F4819
:1030B000FEF7EAFD00214FF40030FDF7A6FC0120E9
:1030C000474908700020454908704548037845483D
:1030D0000278084601784448007800F0ADFB374894
:1030E000807990B10020354988713C4908703C498D
:1030F0000870084603783B480278384801783A4817
:10310000007800F099FB00F09AFCE7E510B501218A
:103110003748FEF738FC002836D001213448FEF746
:1031200043FC34480078401CC0B2324908700A2879
:1031300003D100200870FFF7B9FC2F48007870B168
:103140002E480078401CC0B22C490870322806D1A5
:103150000020087028490870012029490870174884
:10316000C07988B115488088401C81B2134881809D
:10317000C0784FF47A725043814205D100200F4944
:10318000C87188800120887110BD10B540F22551AA
:103190001648FEF739FF70B101201749087013482F
:1031A000FEF7B2FEC1B2094802780078401C074B16
:1031B00018700148815410BD6C0000208000002070
:1031C0005800002025323073000000003C00002031
:1031D0004C00002050000020540000203600002049
:1031E000370000203500002034000020004400405B
:1031F00000080040380000203D0000203E00002074
:103200003F000020704700BFFEE700BFFEE700BFA1
:10321000FEE700BFFEE7704770477047024800684E
:10322000401E0149086070473000002008B580202A
:10323000ADF8000002208DF8020028208DF8030070
:103240006946B948FDF718F908BD08B58020ADF802
:10325000000002208DF8020010208DF8030069465E
:10326000B148FDF709F908BD10B5044624B1802125
:10327000AD48FDF7AEF903E08021AB48FDF7ABF9AF
:1032800010BD10B5044624B14021A748FDF7A1F9AF
:1032900003E04021A448FDF79EF910BD10B5802140
:1032A000A148FDF77CF910BD002100E0491C8142D6
:1032B000FCD3704710B50120FFF7D6FF4FF4FA702A
:1032C000FFF7F2FF0120FFF7DCFF4FF4FA70FFF782
:1032D000EBFF0020FFF7C8FF4FF4FA70FFF7E4FFA1
:1032E0000020FFF7CEFF4FF4FA70FFF7DDFF10BDAF
:1032F00010B50020FFF7C5FF4FF4FA70FFF7D4FFB9
:103300000020FFF7B1FF4FF4FA70FFF7CDFF012067
:10331000FFF7B7FF4FF4FA70FFF7C6FF0120FFF782
:10332000A3FF4FF4FA70FFF7BFFF10BD10B50524DF
:10333000FFF77CFF4FF4FA70FFF7B6FF0120FFF7AD
:10334000A0FF4FF4FA70FFF7AFFF0CE0601E84B2ED
:103350004FF4FA70FFF7A8FF2CB9FFF776FFFFF7DD
:10336000C7FF002010BDFFF799FF0028EED1FFF73F
:103370006CFF0020FFF785FF4FF4FA70FFF794FF12
:103380000120EFE710B50020FFF76EFF4FF4FA7051
:10339000FFF78AFF4FF4FA70FFF786FF0120FFF76F
:1033A00070FF4FF4FA70FFF77FFF0020FFF769FF0F
:1033B0004FF4FA70FFF778FF10BD10B50120FFF74A
:1033C00053FF4FF4FA70FFF76FFF0120FFF759FF2B
:1033D0004FF4FA70FFF768FF0020FFF752FF4FF439
:1033E000FA70FFF761FF10BD70B5044608251BE0B9
:1033F0000020FFF746FF4FF4FA70FFF755FF04F087
:103400008000FFF731FF4FF4FA70FFF74DFF6006C1
:10341000040E4FF4FA70FFF747FF0120FFF731FF6A
:103420004FF4FA70FFF740FF281EA5F10101CDB25D
:10343000DED1FFF726FF4FF4FA70FFF735FF70BDBE
:1034400070B508250024FFF7F1FE16E06006040EB3
:103450000020FFF716FF4FF4FA70FFF725FF4FF437
:10346000FA70FFF721FF0120FFF70BFF4FF4FA700E
:10347000FFF71AFFFFF712FF0443281EA5F1010111
:10348000CDB2E3D1FFF7FDFE4FF4FA70FFF70CFF6A
:10349000FFF7DBFE204670BD08B501210820FDF7CF
:1034A000A7FAC020ADF8000002208DF8020010201D
:1034B0008DF8030069461C48FCF7DEFF08BD70B5B7
:1034C00005460C46FFF7F6FEA020FFF78DFFFFF73D
:1034D0002DFF2846FFF788FFFFF728FF2046FFF75C
:1034E00083FFFFF723FFFFF703FF70BD70B50446AE
:1034F000FFF7E0FEA020FFF777FFFFF717FF20465A
:10350000FFF772FFFFF712FFFFF7D4FEA120FFF7CE
:103510006BFFFFF70BFFFFF793FF0546FFF74DFF2C
:10352000FFF7E6FE284670BD000C014008B50121FA
:103530000C20FDF75DFA40F20110ADF80000042008
:103540008DF8030069461E48FCF796FF0620ADF88B
:10355000000069461B48FCF78FFF08BD70B5F024DA
:1035600001211748FDF71BF805464FF480711448F8
:10357000FDF715F845EA400502211248FDF70FF85E
:1035800045EA800504210F48FDF709F845EAC00027
:103590002043C4B284F0FF040B4800786040204010
:1035A0000A4908700CB9012000E00020064909789A
:1035B00061400840064908700348047070BD00006F
:1035C00000080140000C0140480000204900002094
:1035D0004A00002008B501213020FDF709FA4FF418
:1035E0007F40ADF8000003208DF8020010208DF818
:1035F000030069462548FCF73FFF0420ADF80000B2
:1036000069462348FCF738FF2048C06840F47F40F3
:103610001E49C8601E480C30006840F004001C4978
:103620000C3108600846006820F00400086008BDFE
:10363000012905D0154AD2680243144BDA6004E030
:10364000124AD2688243114BDA60114A0C32126876
:1036500042F004020E4B0C331A601A46126822F034
:1036600004021A6070470949C9684140074AD1609D
:1036700007490C31096841F00401054A0C32116018
:103680001146096821F004011160704700100140E3
:103690000014014010B501210420FDF7B6F910BD5A
:1036A00008B51E208DF8000000208DF801008DF86F
:1036B000020001208DF803006846FDF702FA08BDFC
:1036C0003EB50024FFF7E6FFFFF7EAFF1248006867
:1036D0001249B0FBF1F0401E84B240F2E730ADF881
:1036E0000400ADF800400020ADF80600ADF802007F
:1036F00069460B48FDF722FB012221460848FDF7E9
:1037000020FF012211460648FDF78FFE01210448E3
:10371000FDF770FE3EBD00000000002040420F009B
:103720000008004010B501210846FDF76EF901219F
:103730000520FDF75DF910BDF8B504460F461546A6
:103740001E4604B1AFB90220ADF8000010208DF87C
:10375000030003208DF8020069466948FCF78CFEDF
:1037600067480C30006820F0020065490C310860A1
:1037700024E00A2C15D10220ADF8000010208DF8AD
:10378000030003208DF8020069465D48FCF774FED3
:103790005B480C30006840F0020059490C31086069
:1037A0000CE00220ADF8000018208DF80300032083
:1037B0008DF8020069465248FCF75EFE05B1AEB9CD
:1037C0000420ADF8000010208DF8030003208DF8D0
:1037D000020069464A48FCF74FFE49480C30006831
:1037E00020F0040046490C31086024E00A2D15D170
:1037F0000420ADF8000010208DF8030003208DF8A0
:10380000020069463E48FCF737FE3D480C30006830
:1038100040F004003A490C3108600CE00420ADF897
:10382000000018208DF8030003208DF8020069467F
:103830003348FCF721FEF8BD2DE9F04188B004467D
:103840000E4615461F4600BFFFF76CFF3B462A4653
:1038500031462046FFF770FF4FF08040FDF79AF9A0
:10386000284800682849B0FBF1F0401E1FFA80F894
:1038700040F2E730ADF81800ADF814800020ADF844
:103880001A00ADF8160005A94FF08040FDF756FA72
:103890006020ADF804000120ADF80600642060430C
:1038A000ADF80A000020ADF80C0001A94FF08040EF
:1038B000FDF7C3FA0821C806FDF7D5FE6020ADF874
:1038C00004000120ADF8060064206843ADF80A004A
:1038D0000020ADF80C0001A94FF08040FDF7FAFA86
:1038E0000821C806FDF7CCFE01218807FDF782FEFE
:1038F00001218807FDF77EFD08B0BDE8F0810000DA
:10390000000801400000002040420F0010B50121D6
:103910004FF0C050FDF779F80120FEF7B6F8FEF73A
:1039200047F80120FCF7EAFF00BF6120FCF735FFF4
:103930000028FAD04FF40070FCF7E3FF0120FCF7F9
:10394000E6FFFEF762F9FEF757F901210846FEF798
:10395000F7F8FEF751F949F64040FEF727F9FEF770
:103960004BF90020FEF72FF810BD70B504460D4648
:103970001646FEF741F94FF461616143C5EB05124C
:1039800001EB82018819FEF704F9FEF735F970BDE5
:1039900010B5FEF7F5F804461348844204D1002020
:1039A000FEF7F7F8FEF728F94FF46160B4FBF0F08A
:1039B0000E4908604FF46160B4FBF0F100FB114068
:1039C0003C21B0FBF1F00A4908604FF46160B4FBA0
:1039D000F0F100FB11403C21B0FBF1F201FB1200C1
:1039E0000449086010BD0000805101004C00002017
:1039F000500000205400002010B501210520FCF7E4
:103A0000F7FF01214804FDF700F810BD08B50820B4
:103A1000ADF8000004208DF8030069461A48FCF751
:103A20002BFD08BD08B526208DF8000001208DF87B
:103A300002008DF803006846FDF743F808BD1FB586
:103A4000FFF7DAFFFFF7EEFFFFF7E0FF4FF4165046
:103A500000900020ADF80400ADF80600ADF80800B5
:103A6000ADF80C000420ADF80A0069460748FEF7DF
:103A70004EF9012240F225510448FEF7E0F90121F8
:103A80000248FEF7D0F91FBD000801400044004085
:103A90000FB41CB5074B06AA7B44694600900598F5
:103AA00000F0B5F90020694600F0C4F91CBC5DF8CF
:103AB00014FB00009903000070B504468569006896
:103AC000C10601D5302600E02026C00707D070BD12
:103AD000D4E9012130469047206A401C20626D1EC7
:103AE000F6D570BD70B5044685690078C00707D16A
:103AF00070BDD4E9012120209047206A401C20623B
:103B00006D1EF6D570BD70B50C460546012A05D070
:103B10002878800600D5EA69002302E0012305E049
:103B20005B1C934202D2E05C0028F9D1A869E61838
:103B3000C01AA861286A184428622846FFF7BCFF0B
:103B400004E0D5E9012114F8010B9047B442F8D301
:103B50002846FFF7C7FF70BD2DE9F0410646002457
:103B600010687529314616A510D0AFF300800028E3
:103B700002DA404213A507E031688A0701D512A591
:103B800002E0490704D511A5012401E0AFF300804C
:103B900000210A2206F1240709E0B0FBF2FCB0FB89
:103BA000F2F302FB1C00303078541846491C002800
:103BB000F3D123462A463046BDE8F04100F0C9B8AB
:103BC000000000002D0000002B000000200000007D
:103BD0002DE9F05F894604464FF0000ADFF824B172
:103BE000FB44C0F820A02046E168884700287DD02B
:103BF000252806D0D4E901219047206A401C206284
:103C0000F1E700255F462046E16888472028064600
:103C100007DB312E05D2B81910F8200C08B1054386
:103C2000F1E7A80701D525F00405C4F81CA000277A
:103C3000C4F818A02A2E09D0304600F076F938B31F
:103C400004EB8708303EC8F8186019E059F8041BE7
:103C5000204604EB87029161E1688847012F064600
:103C600018D1E069002820DA25F020051DE0D8F8F9
:103C7000180000EB800006EB40003038C8F8180050
:103C80002046E1688847064600F04FF90028EED14B
:103C9000012F0AD02E2E08D12046E16888477F1CCC
:103CA0000646022F45F02005C4DBA069002803DA90
:103CB000404245F00105A061E80701D025F010055C
:103CC000A6B1A6F14100192802D8203645F40065B6
:103CD0004A463146204625604D46FCF741FA60B120
:103CE000012807D0ED1D25F0070000E007E000F1F6
:103CF000080978E705F1040975E730467AE7206A94
:103D0000BDE8F09F241500004FF000020429C0F028
:103D1000128010F0030C00F0AA80CCF1040CBCF16E
:103D2000020F18BF00F8012BA8BF20F8022BA1EB4F
:103D30000C0100F09CB85FEAC17C24BF00F8012BA5
:103D400000F8012B48BF00F8012B704770477047FF
:103D500070472DE9F0470D4699469246044600F11A
:103D600024080168880604D5E06921F0100121606B
:103D700000E00120A84201DD471B00E00027A16907
:103D80007A1902EB0900081AA0612078C00602D453
:103D90002046FFF791FE002608E0D4E901211AF839
:103DA00006009047206A401C761C20624E45F4DBDA
:103DB0002078C0060AD52046FFF77EFE06E0D4E94B
:103DC000012130209047206A401C2062381EA7F154
:103DD0000107F4DC07E0D4E9012118F80500904759
:103DE000206A401C2062281EA5F10105F3DC204654
:103DF000FFF778FE2078000602D50220BDE8F087A4
:103E00000120FBE701694A1C02610878704700B590
:103E10008FB0CDE901310021059105497944CDE903
:103E2000031011466846FFF7D3FE0FB000BD000037
:103E3000E5FFFFFF0A6802F8010B0A60704710B542
:103E4000436913B1AFF3008001E0FFF75CFE01208E
:103E500010BD127800F124010A7000224A7001227C
:103E6000EDE711684FF0FF32E9E74FF0000200B5CF
:103E7000134694469646203922BFA0E80C50A0E88D
:103E80000C50B1F12001BFF4F7AF090728BFA0E83B
:103E90000C5048BF0CC05DF804EB890028BF40F807
:103EA000042B08BF704748BF20F8022B11F0804F49
:103EB00018BF00F8012B7047754600F02BF8AE468E
:103EC00005006946534620F00700854618B020B526
:103ED000FCF770F9BDE820404FF000064FF00007F6
:103EE0004FF000084FF0000B21F00701AC46ACE8A2
:103EF000C009ACE8C009ACE8C009ACE8C0098D460F
:103F0000704710B50446AFF300802046BDE810406E
:103F1000FCF73BB9004870478C000020014918208D
:103F2000ABBEFEE726000200704730380A2801D2F7
:103F300001207047002070470000000000000000D2
:103F40000000000000000000000000000000000071
:103F50000000000000000000000000000000000061
:103F600000000000000000000000800180018001CE
:103F70008001800180018001800180018001800139
:103F8000800180010000000080018001000000002D
:103F9000000000000000000000000000CC00CC0089
:103FA000CC00CC00CC00CC000000000000000000E1
:103FB0000000000000000000000000000000000001
:103FC00000000000000000000000000000000000F1
:103FD00000000000600C600C600C30063006FE1F14
:103FE000FE1F300638071803FE1FFE1F18031803B4
:103FF0008C018C018C01000000008000E003F80FB0
:104000009C0E8C1C8C188C009800F801E007800E28
:10401000801C8C188C189C18B80CF00FE0038000E2
:1040200080000000000000000000000000000E18EA
:104030001B0C110C11061106110311039B018E01BB
:10404000C038C06C60446044304430441844186C3C
:104050000C380000000000000000E001F003380709
:10406000180618063003F001F000F8009C310E33FA
:10407000061E061C061C063FFC73F0210000000013
:104080000000000000000000000000000C000C0018
:104090000C000C000C000C000000000000000000F0
:1040A0000000000000000000000000000000000010
:1040B000000000000000000000000002000380017A
:1040C000C000C000600060003000300030003000F0
:1040D000300030003000300060006000C000C000E0
:1040E0008001000300020000000020006000C0000A
:1040F00080018001000300030006000600060006A0
:10410000000600060006000600030003800180018F
:10411000C00060002000000000000000000000005F
:1041200000000000C000C000D806F807E00130031E
:104130003807000000000000000000000000000040
:10414000000000000000000000000000000000006F
:104150000000000080018001800180018001FC3F9F
:10416000FC3F80018001800180018001000000008F
:10417000000000000000000000000000000000003F
:10418000000000000000000000000000000000002F
:10419000000000000000000000008001800100011C
:1041A000000180000000000000000000000000008E
:1041B00000000000000000000000000000000000FF
:1041C000E007E00700000000000000000000000021
:1041D00000000000000000000000000000000000DF
:1041E00000000000000000000000000000000000CF
:1041F00000000000000000000000C000C00000003F
:1042000000000000000000000000000C000C000690
:104210000006000600030003000380038001800104
:104220008001C000C000C00060006000000000000D
:1042300000000000000000000000E003F007380E5E
:10424000180C0C180C180C180C180C180C180C184E
:104250000C180C18180C380EF007E00300000000D2
:104260000000000000000000000000018001C0010B
:10427000F0019801880180018001800180018001A6
:104280008001800180018001800180010000000028
:1042900000000000000000000000E003F80F180C10
:1042A0000C180C1800180018000C00060003800100
:1042B000C000600030001800FC1FFC1F0000000060
:1042C00000000000000000000000E001F807180EE8
:1042D0000C0C0C0C000C0006C003C007000C0018EE
:1042E00000180C180C18180CF807E0030000000068
:1042F00000000000000000000000000C000E000F95
:10430000000F800DC00C600C600C300C180C0C0CF5
:10431000FC3FFC3F000C000C000C000C00000000F7
:1043200000000000000000000000F80FF80F180067
:1043300018000C00EC03FC071C0E001C00180018F1
:1043400000180C181C0C180EF807E0030000000001
:1043500000000000000000000000C007F00F381C43
:10436000181818000C00CC03EC0F3C0E1C1C0C1889
:104370000C180C18181C380EF007E00300000000A1
:1043800000000000000000000000FC1FFC1F000CEB
:1043900000060006000380038001C001C000E000A9
:1043A000600060007000300030003000000000004D
:1043B00000000000000000000000E003F007380EDD
:1043C000180C180C180C3806F007F007180C0C180D
:1043D0000C180C180C18380CF80FE0030000000043
:1043E00000000000000000000000E003F007380EAD
:1043F0001C0C0C180C180C181C1C381EF81BE0198F
:104400000018000C000C1C0EF807F0010000000062
:10441000000000000000000000000000000000009C
:10442000000000008001800100000000000000008A
:10443000000000000000000080018001000000007A
:10444000000000000000000000000000000000006C
:10445000000000008001800100000000000000005A
:104460000000000000000000800180010001000148
:1044700080000000000000000000000000000000BC
:1044800000000000000000000010001C800FE0038E
:10449000F8001800F800E003800F001C0010000076
:1044A000000000000000000000000000000000000C
:1044B0000000000000000000F81F000000000000E5
:1044C000F81F0000000000000000000000000000D5
:1044D00000000000000000000000000000000000DC
:1044E000000000000000000008003800F001C007D4
:1044F000001F0018001FC007F0013800080000006E
:1045000000000000000000000000E003F80F180C9D
:104510000C180C180018000C000600038001C000E5
:10452000C000C00000000000C000C000000000008B
:10453000000000000000000000000000E007181864
:104540000420C229224A1144094409440944092289
:104550001113E20C024004201818E00700000000CC
:104560000000000000000000000080038003C0067F
:10457000C006C006600C600C301830183018F83FC8
:10458000F83F1C700C600C6006C006C00000000004
:1045900000000000000000000000FC03FC0F0C0CF9
:1045A0000C180C180C180C0CFC07FC0F0C180C3019
:1045B0000C300C300C300C18FC1FFC070000000005
:1045C00000000000000000000000C007F01F3838A5
:1045D0001C300C700660060006000600060006008F
:1045E000060006600C701C30F01FE00700000000A1
:1045F00000000000000000000000FE03FE0F060E99
:10460000061806180630063006300630063006302A
:10461000063006180618060EFE0FFE030000000006
:1046200000000000000000000000FC3FFC3F0C0008
:104630000C000C000C000C00FC1FFC1F0C000C00FC
:104640000C000C000C000C00FC3FFC3F00000000C4
:1046500000000000000000000000F83FF83F1800D4
:104660001800180018001800F81FF81F180018008C
:1046700018001800180018001800180000000000AA
:1046800000000000000000000000E00FF83F3C7850
:104690000E6006E007C00300030003FE03FE03C034
:1046A00007C006C00EC03CF0F83FE00F000000005D
:1046B000000000000000000000000C300C300C3046
:1046C0000C300C300C300C30FC3FFC3F0C300C300C
:1046D0000C300C300C300C300C300C300000000072
:1046E0000000000000000000000080018001800147
:1046F00080018001800180018001800180018001B2
:1047000080018001800180018001800100000000A3
:104710000000000000000000000000060006000687
:104720000006000600060006000600060006000659
:104730000006180618063807F003E0010000000024
:104740000000000000000000000006300618060C03
:10475000060606038601C60066007600DE008E01AE
:1047600006030606060C0618063006600000000068
:1047700000000000000000000000180018001800F1
:104780001800180018001800180018001800180069
:104790001800180018001800F81FF81F000000008B
:1047A000000000000000000000000EE01EF01EF0FF
:1047B0001EF036D836D836D836D866CC66CC66CC1D
:1047C000C6C6C6C6C6C6C6C686C386C30000000027
:1047D000000000000000000000000C301C303C30E5
:1047E0003C306C306C30CC30CC308C310C330C33F2
:1047F0000C360C360C3C0C3C0C380C300000000025
:1048000000000000000000000000E007F81F1C3856
:104810000E70066003C003C003C003C003C003C022
:1048200003C006600E701C38F81FE007000000008F
:1048300000000000000000000000FC0FFC1F0C380E
:104840000C300C300C300C300C18FC1FFC070C002A
:104850000C000C000C000C000C000C000000000010
:1048600000000000000000000000E007F81F1C38F6
:104870000E70066003E003C003C003C003C003C0A2
:1048800007E006630E3F1C3CF83FE0F700C0000065
:1048900000000000000000000000FE0FFE1F0638B0
:1048A0000630063006300638FE1FFE0706030606F1
:1048B000060C0618061806300630066000000000D8
:1048C00000000000000000000000E003F80F1C0CD6
:1048D0000C180C180C001C00F803E00F001E003828
:1048E000063006300E301C1CF80FE00700000000F8
:1048F00000000000000000000000FE7FFE7F80013D
:10490000800180018001800180018001800180019F
:104910008001800180018001800180010000000091
:10492000000000000000000000000C300C300C30D3
:104930000C300C300C300C300C300C300C300C3097
:104940000C300C300C301818F81FE0070000000085
:104950000000000000000000000003600630063088
:1049600006300C180C180C18180C180C380E3006E1
:104970003006700760036003C001C0010000000042
:10498000000000000000000000000360C361C3617C
:10499000C3616633663366336633663366336C1BD6
:1049A0006C1B6C1B2C1A3C1E380E380E00000000CD
:1049B000000000000000000000000FE00C70183044
:1049C0003018700C600EC00780038003C003E0063F
:1049D000700C301C18180C300E6007E0000000004E
:1049E0000000000000000000000003C006600C3062
:1049F0001C383818300C6006E007C00380018001C5
:104A000080018001800180018001800100000000A0
:104A100000000000000000000000FC7FFC7F006040
:104A200000300018000C000600038001C000600088
:104A3000300018000C000600FE7FFE7F0000000022
:104A400000000000000000000000E003E003600040
:104A50006000600060006000600060006000600056
:104A60006000600060006000600060006000600046
:104A70006000E003E0030000000030003000600050
:104A800060006000C000C000C000C0018001800163
:104A90008001000300030003000600060000000080
:104AA00000000000000000000000E003E00300033D
:104AB00000030003000300030003000300030003DE
:104AC00000030003000300030003000300030003CE
:104AD0000003E003E003000000000000C001C0018B
:104AE00060036003600330063006180C180C0000E9
:104AF00000000000000000000000000000000000B6
:104B000000000000000000000000000000000000A5
:104B10000000000000000000000000000000000095
:104B200000000000000000000000FFFFFFFF000089
:104B3000000000000000000000000C000C000C0051
:104B40000C000C000C000000000000000000000041
:104B50000000000000000000000000000000000055
:104B60000000000000000000000000000000000045
:104B700000000000F003F8071C0C0C0C000FF00FF5
:104B8000F80C0C0C0C0C1C0FF80FF01800000000B7
:104B900000000000000000000000180018001800CD
:104BA00018001800D803F80F380C1818181818181F
:104BB000181818181818380CF80FD803000000003F
:104BC00000000000000000000000000000000000E5
:104BD00000000000C003F007300E180C1800180089
:104BE00018001800180C300EF007C0030000000079
:104BF000000000000000000000000018001800186D
:104C000000180018C01BF01F301C181818181818AE
:104C1000181818181818301CF01FC01B00000000CE
:104C20000000000000000000000000000000000084
:104C300000000000C003F00F300C1818F81FF81F18
:104C4000180018003818301CF00FC00700000000D2
:104C500000000000000000000000800FC00FC00036
:104C6000C000C000F007F007C000C000C000C000D6
:104C7000C000C000C000C000C000C00000000000B4
:104C80000000000000000000000000000000000024
:104C900000000000E00DF80F180E0C0C0C0C0C0CB2
:104CA0000C0C0C0C0C0C180EF80FE00D000C0C0C7E
:104CB0001C06F807F001000000001800180018009A
:104CC00018001800D807F80F381C181818181818EA
:104CD00018181818181818181818181800000000B4
:104CE00000000000000000000000C000C000000044
:104CF00000000000C000C000C000C000C000C00034
:104D0000C000C000C000C000C000C0000000000023
:104D100000000000000000000000C000C000000013
:104D200000000000C000C000C000C000C000C00003
:104D3000C000C000C000C000C000C000C000C00073
:104D4000C000F8007800000000000C000C000C000F
:104D50000C000C000C0C0C060C038C01CC006C003D
:104D6000FC009C018C030C030C060C0C00000000E2
:104D700000000000000000000000C000C000C000F3
:104D8000C000C000C000C000C000C000C000C00023
:104D9000C000C000C000C000C000C0000000000093
:104DA0000000000000000000000000000000000003
:104DB000000000007C3CFF7EC7E383C183C183C148
:104DC00083C183C183C183C183C183C1000000004B
:104DD00000000000000000000000000000000000D3
:104DE000000000009807F80F381C18181818181839
:104DF0001818181818181818181818180000000093
:104E000000000000000000000000000000000000A2
:104E100000000000C003F00F300C18181818181804
:104E2000181818181818300CF00FC00300000000F4
:104E30000000000000000000000000000000000072
:104E400000000000D803F80F380C181818181818AC
:104E5000181818181818380CF80FD803180018006C
:104E600018001800180000000000000000000000FA
:104E700000000000C01BF01F301C1818181818186C
:104E8000181818181818301CF01FC01B001800182C
:104E900000180018001800000000000000000000CA
:104EA00000000000B007F003700030003000300058
:104EB00030003000300030003000300000000000D2
:104EC00000000000000000000000000000000000E2
:104ED00000000000E003F003380E180C3800F00367
:104EE000C007000C180C380EF007E00300000000AB
:104EF0000000000000000000000000008000C00072
:104F0000C000C000F007F007C000C000C000C00033
:104F1000C000C000C000C000C00780070000000043
:104F20000000000000000000000000000000000081
:104F30000000000018181818181818181818181851
:104F4000181818181818381CF01FE0190000000075
:104F50000000000000000000000000000000000051
:104F6000000000000C18180C180C180C3006300645
:104F70003006600360036003C001C0010000000050
:104F80000000000000000000000000000000000021
:104F900000000000C141C141C36163636363636397
:104FA0003636363636361C1C1C1C1C1C0000000015
:104FB00000000000000000000000000000000000F1
:104FC000000000001C38381C300C600660036003D1
:104FD000600360036006300C381C1C3800000000C1
:104FE00000000000000000000000000000000000C1
:104FF000000000001830301830187018600C600C79
:10500000E00CC006C006800380038003800180019D
:10501000C001F0007000000000000000000000006F
:1050200000000000FC1FFC1F000C000600038001B4
:10503000C000600030001800FC1FFC1F00000000D2
:105040000000000000000000000000038001C0001C
:10505000C000C000C000C000C000600060003000A0
:1050600060004000C000C000C000C000C000C00020
:105070008001000300000000000080018001800129
:105080008001800180018001800180018001800118
:105090008001800180018001800180018001800108
:1050A000800180018001000000006000C000C0019C
:1050B000800180018001800180010003000300065F
:1050C00000030001800180018001800180018001D6
:1050D000C0006000000000000000000000000000B0
:1050E0000000000000000000F010F81F080F000092
:1050F00000000000000000000000000000000000B0
:105100000000000000000000040000080000000093
:105110000000000200010000100000003C510008E7
:1051200000000020580000002801000894510008E9
:1051300058000020980600004401000800A24A041C
:105140000000000000000000010203040607080937
:10515000000000000102030401020304060708091D
:10516000020406080000FFFF00000000000000002D
:10517000000000000000000000000000000000002F
:10518000000000000000000000000000000000001F
:04519000000000001B
:04000005080000ED02
:00000001FF
